{
  "contractName": "LuxOrders",
  "abi": [
    {
      "constant": true,
      "inputs": [],
      "name": "totalDonated",
      "outputs": [
        {
          "name": "",
          "type": "uint256"
        }
      ],
      "payable": false,
      "stateMutability": "view",
      "type": "function"
    },
    {
      "constant": true,
      "inputs": [
        {
          "name": "interfaceId",
          "type": "bytes4"
        }
      ],
      "name": "supportsInterface",
      "outputs": [
        {
          "name": "",
          "type": "bool"
        }
      ],
      "payable": false,
      "stateMutability": "view",
      "type": "function"
    },
    {
      "constant": true,
      "inputs": [],
      "name": "totalChosenDonatedAmount",
      "outputs": [
        {
          "name": "",
          "type": "uint256"
        }
      ],
      "payable": false,
      "stateMutability": "view",
      "type": "function"
    },
    {
      "constant": true,
      "inputs": [],
      "name": "name",
      "outputs": [
        {
          "name": "",
          "type": "string"
        }
      ],
      "payable": false,
      "stateMutability": "view",
      "type": "function"
    },
    {
      "constant": true,
      "inputs": [
        {
          "name": "tokenId",
          "type": "uint256"
        }
      ],
      "name": "getApproved",
      "outputs": [
        {
          "name": "",
          "type": "address"
        }
      ],
      "payable": false,
      "stateMutability": "view",
      "type": "function"
    },
    {
      "constant": false,
      "inputs": [
        {
          "name": "to",
          "type": "address"
        },
        {
          "name": "tokenId",
          "type": "uint256"
        }
      ],
      "name": "approve",
      "outputs": [],
      "payable": false,
      "stateMutability": "nonpayable",
      "type": "function"
    },
    {
      "constant": true,
      "inputs": [],
      "name": "totalSupply",
      "outputs": [
        {
          "name": "",
          "type": "uint256"
        }
      ],
      "payable": false,
      "stateMutability": "view",
      "type": "function"
    },
    {
      "constant": true,
      "inputs": [],
      "name": "totalChosenDonations",
      "outputs": [
        {
          "name": "",
          "type": "uint256"
        }
      ],
      "payable": false,
      "stateMutability": "view",
      "type": "function"
    },
    {
      "constant": true,
      "inputs": [],
      "name": "totalMadeDonations",
      "outputs": [
        {
          "name": "",
          "type": "uint256"
        }
      ],
      "payable": false,
      "stateMutability": "view",
      "type": "function"
    },
    {
      "constant": false,
      "inputs": [
        {
          "name": "from",
          "type": "address"
        },
        {
          "name": "to",
          "type": "address"
        },
        {
          "name": "tokenId",
          "type": "uint256"
        }
      ],
      "name": "transferFrom",
      "outputs": [],
      "payable": false,
      "stateMutability": "nonpayable",
      "type": "function"
    },
    {
      "constant": true,
      "inputs": [
        {
          "name": "owner",
          "type": "address"
        },
        {
          "name": "index",
          "type": "uint256"
        }
      ],
      "name": "tokenOfOwnerByIndex",
      "outputs": [
        {
          "name": "",
          "type": "uint256"
        }
      ],
      "payable": false,
      "stateMutability": "view",
      "type": "function"
    },
    {
      "constant": true,
      "inputs": [],
      "name": "orderIndex",
      "outputs": [
        {
          "name": "",
          "type": "uint256"
        }
      ],
      "payable": false,
      "stateMutability": "view",
      "type": "function"
    },
    {
      "constant": false,
      "inputs": [
        {
          "name": "from",
          "type": "address"
        },
        {
          "name": "to",
          "type": "address"
        },
        {
          "name": "tokenId",
          "type": "uint256"
        }
      ],
      "name": "safeTransferFrom",
      "outputs": [],
      "payable": false,
      "stateMutability": "nonpayable",
      "type": "function"
    },
    {
      "constant": true,
      "inputs": [
        {
          "name": "index",
          "type": "uint256"
        }
      ],
      "name": "tokenByIndex",
      "outputs": [
        {
          "name": "",
          "type": "uint256"
        }
      ],
      "payable": false,
      "stateMutability": "view",
      "type": "function"
    },
    {
      "constant": true,
      "inputs": [
        {
          "name": "tokenId",
          "type": "uint256"
        }
      ],
      "name": "ownerOf",
      "outputs": [
        {
          "name": "",
          "type": "address"
        }
      ],
      "payable": false,
      "stateMutability": "view",
      "type": "function"
    },
    {
      "constant": true,
      "inputs": [
        {
          "name": "owner",
          "type": "address"
        }
      ],
      "name": "balanceOf",
      "outputs": [
        {
          "name": "",
          "type": "uint256"
        }
      ],
      "payable": false,
      "stateMutability": "view",
      "type": "function"
    },
    {
      "constant": false,
      "inputs": [],
      "name": "renounceOwnership",
      "outputs": [],
      "payable": false,
      "stateMutability": "nonpayable",
      "type": "function"
    },
    {
      "constant": true,
      "inputs": [
        {
          "name": "",
          "type": "bytes32"
        }
      ],
      "name": "buyers",
      "outputs": [
        {
          "name": "totalContributed",
          "type": "uint256"
        },
        {
          "name": "totalDonationsAllocated",
          "type": "uint256"
        },
        {
          "name": "exists",
          "type": "bool"
        }
      ],
      "payable": false,
      "stateMutability": "view",
      "type": "function"
    },
    {
      "constant": true,
      "inputs": [
        {
          "name": "",
          "type": "uint256"
        }
      ],
      "name": "orderTokens",
      "outputs": [
        {
          "name": "saleAmount",
          "type": "uint256"
        },
        {
          "name": "tokenURI",
          "type": "string"
        },
        {
          "name": "generation",
          "type": "address"
        },
        {
          "name": "owner",
          "type": "address"
        },
        {
          "name": "redeemed",
          "type": "bool"
        },
        {
          "name": "buyerHash",
          "type": "bytes32"
        },
        {
          "name": "redemptionHash",
          "type": "bytes32"
        },
        {
          "name": "exists",
          "type": "bool"
        }
      ],
      "payable": false,
      "stateMutability": "view",
      "type": "function"
    },
    {
      "constant": true,
      "inputs": [],
      "name": "owner",
      "outputs": [
        {
          "name": "",
          "type": "address"
        }
      ],
      "payable": false,
      "stateMutability": "view",
      "type": "function"
    },
    {
      "constant": true,
      "inputs": [],
      "name": "isOwner",
      "outputs": [
        {
          "name": "",
          "type": "bool"
        }
      ],
      "payable": false,
      "stateMutability": "view",
      "type": "function"
    },
    {
      "constant": true,
      "inputs": [],
      "name": "symbol",
      "outputs": [
        {
          "name": "",
          "type": "string"
        }
      ],
      "payable": false,
      "stateMutability": "view",
      "type": "function"
    },
    {
      "constant": false,
      "inputs": [
        {
          "name": "to",
          "type": "address"
        },
        {
          "name": "approved",
          "type": "bool"
        }
      ],
      "name": "setApprovalForAll",
      "outputs": [],
      "payable": false,
      "stateMutability": "nonpayable",
      "type": "function"
    },
    {
      "constant": true,
      "inputs": [
        {
          "name": "",
          "type": "bytes32"
        }
      ],
      "name": "madeDonations",
      "outputs": [
        {
          "name": "charityName",
          "type": "string"
        },
        {
          "name": "donationProofUrl",
          "type": "string"
        },
        {
          "name": "amountDonated",
          "type": "uint256"
        },
        {
          "name": "donorAddress",
          "type": "address"
        }
      ],
      "payable": false,
      "stateMutability": "view",
      "type": "function"
    },
    {
      "constant": false,
      "inputs": [
        {
          "name": "from",
          "type": "address"
        },
        {
          "name": "to",
          "type": "address"
        },
        {
          "name": "tokenId",
          "type": "uint256"
        },
        {
          "name": "_data",
          "type": "bytes"
        }
      ],
      "name": "safeTransferFrom",
      "outputs": [],
      "payable": false,
      "stateMutability": "nonpayable",
      "type": "function"
    },
    {
      "constant": true,
      "inputs": [],
      "name": "totalRaised",
      "outputs": [
        {
          "name": "",
          "type": "uint256"
        }
      ],
      "payable": false,
      "stateMutability": "view",
      "type": "function"
    },
    {
      "constant": true,
      "inputs": [
        {
          "name": "tokenId",
          "type": "uint256"
        }
      ],
      "name": "tokenURI",
      "outputs": [
        {
          "name": "",
          "type": "string"
        }
      ],
      "payable": false,
      "stateMutability": "view",
      "type": "function"
    },
    {
      "constant": true,
      "inputs": [
        {
          "name": "",
          "type": "bytes32"
        }
      ],
      "name": "charities",
      "outputs": [
        {
          "name": "charityName",
          "type": "string"
        },
        {
          "name": "amountChosenToDonate",
          "type": "uint256"
        },
        {
          "name": "amountDonated",
          "type": "uint256"
        },
        {
          "name": "exists",
          "type": "bool"
        }
      ],
      "payable": false,
      "stateMutability": "view",
      "type": "function"
    },
    {
      "constant": true,
      "inputs": [
        {
          "name": "owner",
          "type": "address"
        },
        {
          "name": "operator",
          "type": "address"
        }
      ],
      "name": "isApprovedForAll",
      "outputs": [
        {
          "name": "",
          "type": "bool"
        }
      ],
      "payable": false,
      "stateMutability": "view",
      "type": "function"
    },
    {
      "constant": false,
      "inputs": [
        {
          "name": "newOwner",
          "type": "address"
        }
      ],
      "name": "transferOwnership",
      "outputs": [],
      "payable": false,
      "stateMutability": "nonpayable",
      "type": "function"
    },
    {
      "inputs": [],
      "payable": false,
      "stateMutability": "nonpayable",
      "type": "constructor"
    },
    {
      "payable": true,
      "stateMutability": "payable",
      "type": "fallback"
    },
    {
      "anonymous": false,
      "inputs": [
        {
          "indexed": false,
          "name": "_tokenId",
          "type": "uint256"
        },
        {
          "indexed": false,
          "name": "_buyerID",
          "type": "bytes32"
        },
        {
          "indexed": false,
          "name": "_saleAmount",
          "type": "uint256"
        },
        {
          "indexed": false,
          "name": "_tokenURI",
          "type": "string"
        },
        {
          "indexed": false,
          "name": "_tokenMinter",
          "type": "address"
        }
      ],
      "name": "SoldAndMintedToken",
      "type": "event"
    },
    {
      "anonymous": false,
      "inputs": [
        {
          "indexed": false,
          "name": "_charityName",
          "type": "string"
        },
        {
          "indexed": false,
          "name": "_buyerId",
          "type": "bytes32"
        },
        {
          "indexed": false,
          "name": "_amountToBeDonated",
          "type": "uint256"
        }
      ],
      "name": "DonationChosen",
      "type": "event"
    },
    {
      "anonymous": false,
      "inputs": [
        {
          "indexed": false,
          "name": "_donationHash",
          "type": "bytes32"
        },
        {
          "indexed": false,
          "name": "_amountDonated",
          "type": "uint256"
        },
        {
          "indexed": false,
          "name": "_charityName",
          "type": "string"
        },
        {
          "indexed": false,
          "name": "_donationURL",
          "type": "string"
        }
      ],
      "name": "DonationMadeToCharity",
      "type": "event"
    },
    {
      "anonymous": false,
      "inputs": [
        {
          "indexed": false,
          "name": "_tokenId",
          "type": "uint256"
        },
        {
          "indexed": false,
          "name": "_buyerId",
          "type": "bytes32"
        },
        {
          "indexed": false,
          "name": "_buyerAddress",
          "type": "address"
        }
      ],
      "name": "RedeemedToken",
      "type": "event"
    },
    {
      "anonymous": false,
      "inputs": [
        {
          "indexed": true,
          "name": "previousOwner",
          "type": "address"
        }
      ],
      "name": "OwnershipRenounced",
      "type": "event"
    },
    {
      "anonymous": false,
      "inputs": [
        {
          "indexed": true,
          "name": "previousOwner",
          "type": "address"
        },
        {
          "indexed": true,
          "name": "newOwner",
          "type": "address"
        }
      ],
      "name": "OwnershipTransferred",
      "type": "event"
    },
    {
      "anonymous": false,
      "inputs": [
        {
          "indexed": true,
          "name": "from",
          "type": "address"
        },
        {
          "indexed": true,
          "name": "to",
          "type": "address"
        },
        {
          "indexed": true,
          "name": "tokenId",
          "type": "uint256"
        }
      ],
      "name": "Transfer",
      "type": "event"
    },
    {
      "anonymous": false,
      "inputs": [
        {
          "indexed": true,
          "name": "owner",
          "type": "address"
        },
        {
          "indexed": true,
          "name": "approved",
          "type": "address"
        },
        {
          "indexed": true,
          "name": "tokenId",
          "type": "uint256"
        }
      ],
      "name": "Approval",
      "type": "event"
    },
    {
      "anonymous": false,
      "inputs": [
        {
          "indexed": true,
          "name": "owner",
          "type": "address"
        },
        {
          "indexed": true,
          "name": "operator",
          "type": "address"
        },
        {
          "indexed": false,
          "name": "approved",
          "type": "bool"
        }
      ],
      "name": "ApprovalForAll",
      "type": "event"
    },
    {
      "constant": false,
      "inputs": [
        {
          "name": "_tokenURI",
          "type": "string"
        },
        {
          "name": "_saleAmount",
          "type": "uint256"
        },
        {
          "name": "_buyerID",
          "type": "string"
        },
        {
          "name": "_redemptionHash",
          "type": "string"
        }
      ],
      "name": "soldOrderToMint",
      "outputs": [
        {
          "name": "",
          "type": "uint256"
        }
      ],
      "payable": false,
      "stateMutability": "nonpayable",
      "type": "function"
    },
    {
      "constant": false,
      "inputs": [
        {
          "name": "_buyerID",
          "type": "string"
        },
        {
          "name": "_charityName",
          "type": "string"
        },
        {
          "name": "_chosenDonateAmount",
          "type": "uint256"
        }
      ],
      "name": "chooseDonation",
      "outputs": [
        {
          "name": "",
          "type": "bool"
        }
      ],
      "payable": false,
      "stateMutability": "nonpayable",
      "type": "function"
    },
    {
      "constant": false,
      "inputs": [
        {
          "name": "_proofHash",
          "type": "string"
        },
        {
          "name": "_proofURL",
          "type": "string"
        },
        {
          "name": "_madeDonationAmount",
          "type": "uint256"
        },
        {
          "name": "_charityName",
          "type": "string"
        }
      ],
      "name": "makeDonation",
      "outputs": [
        {
          "name": "",
          "type": "bool"
        }
      ],
      "payable": false,
      "stateMutability": "nonpayable",
      "type": "function"
    },
    {
      "constant": false,
      "inputs": [
        {
          "name": "_buyerID",
          "type": "string"
        },
        {
          "name": "_redemptionHash",
          "type": "string"
        },
        {
          "name": "_buyerAddress",
          "type": "address"
        },
        {
          "name": "_tokenId",
          "type": "uint256"
        }
      ],
      "name": "redeemOrder",
      "outputs": [
        {
          "name": "",
          "type": "bool"
        }
      ],
      "payable": false,
      "stateMutability": "nonpayable",
      "type": "function"
    },
    {
      "constant": false,
      "inputs": [
        {
          "name": "_buyerID",
          "type": "string"
        },
        {
          "name": "_redemptionHash",
          "type": "string"
        },
        {
          "name": "_buyerAddress",
          "type": "address"
        },
        {
          "name": "_tokenId",
          "type": "uint256"
        }
      ],
      "name": "safeRedeemOrder",
      "outputs": [
        {
          "name": "",
          "type": "bool"
        }
      ],
      "payable": false,
      "stateMutability": "nonpayable",
      "type": "function"
    },
    {
      "constant": true,
      "inputs": [
        {
          "name": "_buyerID",
          "type": "string"
        }
      ],
      "name": "getBuyerAmount",
      "outputs": [
        {
          "name": "total",
          "type": "uint256"
        }
      ],
      "payable": false,
      "stateMutability": "view",
      "type": "function"
    },
    {
      "constant": true,
      "inputs": [
        {
          "name": "_tokenId",
          "type": "uint256"
        }
      ],
      "name": "getRedemption",
      "outputs": [
        {
          "name": "",
          "type": "bool"
        }
      ],
      "payable": false,
      "stateMutability": "view",
      "type": "function"
    },
    {
      "constant": true,
      "inputs": [
        {
          "name": "_tokenId",
          "type": "uint256"
        }
      ],
      "name": "getTokenOwner",
      "outputs": [
        {
          "name": "",
          "type": "address"
        }
      ],
      "payable": false,
      "stateMutability": "view",
      "type": "function"
    },
    {
      "constant": true,
      "inputs": [
        {
          "name": "_tokenId",
          "type": "uint256"
        }
      ],
      "name": "getTokenSaleAmount",
      "outputs": [
        {
          "name": "",
          "type": "uint256"
        }
      ],
      "payable": false,
      "stateMutability": "view",
      "type": "function"
    },
    {
      "constant": true,
      "inputs": [
        {
          "name": "_tokenId",
          "type": "uint256"
        }
      ],
      "name": "getTokenURI",
      "outputs": [
        {
          "name": "",
          "type": "string"
        }
      ],
      "payable": false,
      "stateMutability": "view",
      "type": "function"
    },
    {
      "constant": true,
      "inputs": [
        {
          "name": "_tokenId",
          "type": "uint256"
        }
      ],
      "name": "getTokenBuyer",
      "outputs": [
        {
          "name": "",
          "type": "bytes32"
        }
      ],
      "payable": false,
      "stateMutability": "view",
      "type": "function"
    },
    {
      "constant": true,
      "inputs": [
        {
          "name": "_tokenId",
          "type": "uint256"
        }
      ],
      "name": "getTokenRedemptionHash",
      "outputs": [
        {
          "name": "",
          "type": "bytes32"
        }
      ],
      "payable": false,
      "stateMutability": "view",
      "type": "function"
    },
    {
      "constant": true,
      "inputs": [
        {
          "name": "_charityName",
          "type": "string"
        }
      ],
      "name": "getCharityName",
      "outputs": [
        {
          "name": "",
          "type": "string"
        }
      ],
      "payable": false,
      "stateMutability": "view",
      "type": "function"
    },
    {
      "constant": true,
      "inputs": [
        {
          "name": "_charityName",
          "type": "string"
        }
      ],
      "name": "getCharityAmountChosen",
      "outputs": [
        {
          "name": "",
          "type": "uint256"
        }
      ],
      "payable": false,
      "stateMutability": "view",
      "type": "function"
    },
    {
      "constant": true,
      "inputs": [
        {
          "name": "_charityName",
          "type": "string"
        }
      ],
      "name": "getCharityAmountDonated",
      "outputs": [
        {
          "name": "",
          "type": "uint256"
        }
      ],
      "payable": false,
      "stateMutability": "view",
      "type": "function"
    },
    {
      "constant": true,
      "inputs": [
        {
          "name": "_proofHash",
          "type": "string"
        }
      ],
      "name": "getMadeDonationCharityName",
      "outputs": [
        {
          "name": "",
          "type": "string"
        }
      ],
      "payable": false,
      "stateMutability": "view",
      "type": "function"
    },
    {
      "constant": true,
      "inputs": [
        {
          "name": "_proofHash",
          "type": "string"
        }
      ],
      "name": "getMadeDonationProofUrl",
      "outputs": [
        {
          "name": "",
          "type": "string"
        }
      ],
      "payable": false,
      "stateMutability": "view",
      "type": "function"
    },
    {
      "constant": true,
      "inputs": [
        {
          "name": "_proofHash",
          "type": "string"
        }
      ],
      "name": "getMadeDonationAmountDonated",
      "outputs": [
        {
          "name": "",
          "type": "uint256"
        }
      ],
      "payable": false,
      "stateMutability": "view",
      "type": "function"
    },
    {
      "constant": true,
      "inputs": [
        {
          "name": "_proofHash",
          "type": "string"
        }
      ],
      "name": "getMadeDonationAddress",
      "outputs": [
        {
          "name": "",
          "type": "address"
        }
      ],
      "payable": false,
      "stateMutability": "view",
      "type": "function"
    },
    {
      "constant": true,
      "inputs": [
        {
          "name": "_buyerHash",
          "type": "string"
        }
      ],
      "name": "getBuyerContributed",
      "outputs": [
        {
          "name": "",
          "type": "uint256"
        }
      ],
      "payable": false,
      "stateMutability": "view",
      "type": "function"
    },
    {
      "constant": true,
      "inputs": [
        {
          "name": "_buyerHash",
          "type": "string"
        }
      ],
      "name": "getBuyerAllocated",
      "outputs": [
        {
          "name": "",
          "type": "uint256"
        }
      ],
      "payable": false,
      "stateMutability": "view",
      "type": "function"
    },
    {
      "constant": false,
      "inputs": [
        {
          "name": "newOwner",
          "type": "address"
        }
      ],
      "name": "transferContract",
      "outputs": [],
      "payable": false,
      "stateMutability": "nonpayable",
      "type": "function"
    }
  ],
  "bytecode": "0x60806040523480156200001157600080fd5b50604080518082018252601481527f4c75786172697479204f7264657220546f6b656e0000000000000000000000006020808301919091528251808401909352600483527f4c5558300000000000000000000000000000000000000000000000000000000090830152908181620000b17f01ffc9a700000000000000000000000000000000000000000000000000000000640100000000620001b3810204565b620000e57f80ac58cd00000000000000000000000000000000000000000000000000000000640100000000620001b3810204565b620001197f780e9d6300000000000000000000000000000000000000000000000000000000640100000000620001b3810204565b81516200012e90600990602085019062000220565b5080516200014490600a90602084019062000220565b50620001797f5b5e139f00000000000000000000000000000000000000000000000000000000640100000000620001b3810204565b5050600c8054600160a060020a0319163317905550506000600d819055600e819055600f81905560118190556012819055601055620002c5565b7fffffffff000000000000000000000000000000000000000000000000000000008082161415620001e357600080fd5b7fffffffff00000000000000000000000000000000000000000000000000000000166000908152602081905260409020805460ff19166001179055565b828054600181600116156101000203166002900490600052602060002090601f016020900481019282601f106200026357805160ff191683800117855562000293565b8280016001018555821562000293579182015b828111156200029357825182559160200191906001019062000276565b50620002a1929150620002a5565b5090565b620002c291905b80821115620002a15760008155600101620002ac565b90565b613e2480620002d56000396000f3006080604052600436106102705763ffffffff7c0100000000000000000000000000000000000000000000000000000000600035041662b37044811461027257806301ffc9a71461029957806303d52de5146102e457806306fdde03146102f9578063081812fc14610383578063095ea7b3146103b75780630feb81b9146103db57806315edcae8146103f357806318160ddd1461044c5780631953cc21146104615780631a168b58146104795780631f0bf9411461048e57806323b872dd146104a35780632f745c59146104cd57806330471fee146104f15780633bb3a24d1461050657806342842e0e1461051e57806347635dac146105485780634f6ccce7146105695780635bab243e146105815780636352211e1461061a57806366301a5f1461063257806370a082311461068b578063715018a6146106ac5780637ecbaf80146106c1578063830ac281146106f95780638501284814610752578063882a8f5c146107fa5780638da5cb5b146108d05780638f32d59b146108e55780638f8a47a2146108fa5780638fc48ca1146109535780639070a86814610a2e57806391eb42bc14610a8757806395d89b4114610a9f5780639ca0249a14610ab4578063a22cb46514610acc578063a5cd761f14610af2578063ad8a1aef14610b0a578063b295806214610bb2578063b4a6e0e914610cbd578063b88d4fde14610d16578063c0f4312314610d85578063c5c4744c14610dde578063c87b56dd14610df3578063d55e244a14610e0b578063d7db3a1f14610e64578063e139d8c614610ebd578063e985e9c514610f66578063f015e5e014610f8d578063f2fde38b14610fe6578063f41893cd14611007575b005b34801561027e57600080fd5b506102876110e2565b60408051918252519081900360200190f35b3480156102a557600080fd5b506102d07bffffffffffffffffffffffffffffffffffffffffffffffffffffffff19600435166110e8565b604080519115158252519081900360200190f35b3480156102f057600080fd5b5061028761111c565b34801561030557600080fd5b5061030e611122565b6040805160208082528351818301528351919283929083019185019080838360005b83811015610348578181015183820152602001610330565b50505050905090810190601f1680156103755780820380516001836020036101000a031916815260200191505b509250505060405180910390f35b34801561038f57600080fd5b5061039b6004356111b9565b60408051600160a060020a039092168252519081900360200190f35b3480156103c357600080fd5b50610270600160a060020a03600435166024356111eb565b3480156103e757600080fd5b50610287600435611294565b3480156103ff57600080fd5b506040805160206004803580820135601f810184900484028501840190955284845261039b9436949293602493928401919081908401838280828437509497506112ca9650505050505050565b34801561045857600080fd5b506102876113dc565b34801561046d57600080fd5b506102d06004356113e2565b34801561048557600080fd5b50610287611425565b34801561049a57600080fd5b5061028761142b565b3480156104af57600080fd5b50610270600160a060020a0360043581169060243516604435611431565b3480156104d957600080fd5b50610287600160a060020a03600435166024356114bf565b3480156104fd57600080fd5b5061028761150c565b34801561051257600080fd5b5061030e600435611512565b34801561052a57600080fd5b50610270600160a060020a03600435811690602435166044356115ee565b34801561055457600080fd5b50610270600160a060020a036004351661160f565b34801561057557600080fd5b5061028760043561162e565b34801561058d57600080fd5b506040805160206004803580820135601f81018490048402850184019095528484526102d094369492936024939284019190819084018382808284375050604080516020601f89358b018035918201839004830284018301909452808352979a99988101979196509182019450925082915084018382808284375094975050933594506116639350505050565b34801561062657600080fd5b5061039b6004356119d1565b34801561063e57600080fd5b506040805160206004803580820135601f81018490048402850184019095528484526102879436949293602493928401919081908401838280828437509497506119fb9650505050505050565b34801561069757600080fd5b50610287600160a060020a0360043516611aff565b3480156106b857600080fd5b50610270611b32565b3480156106cd57600080fd5b506106d9600435611b8f565b604080519384526020840192909252151582820152519081900360600190f35b34801561070557600080fd5b506040805160206004803580820135601f8101849004840285018401909552848452610287943694929360249392840191908190840183828082843750949750611bb39650505050505050565b34801561075e57600080fd5b506040805160206004803580820135601f81018490048402850184019095528484526102d094369492936024939284019190819084018382808284375050604080516020601f89358b018035918201839004830284018301909452808352979a99988101979196509182019450925082915084018382808284375094975050508335600160a060020a0316945050506020909101359050611cb7565b34801561080657600080fd5b50610812600435611f87565b60408051898152600160a060020a03808916928201929092529086166060820152841515608082015260a0810184905260c0810183905281151560e082015261010060208083018281528a519284019290925289516101208401918b019080838360005b8381101561088e578181015183820152602001610876565b50505050905090810190601f1680156108bb5780820380516001836020036101000a031916815260200191505b50995050505050505050505060405180910390f35b3480156108dc57600080fd5b5061039b61206a565b3480156108f157600080fd5b506102d0612079565b34801561090657600080fd5b506040805160206004803580820135601f810184900484028501840190955284845261028794369492936024939284019190819084018382808284375094975061208a9650505050505050565b34801561095f57600080fd5b506040805160206004803580820135601f810184900484028501840190955284845261028794369492936024939284019190819084018382808284375050604080516020601f818a01358b0180359182018390048302840183018552818452989b8a359b909a90999401975091955091820193509150819084018382808284375050604080516020601f89358b018035918201839004830284018301909452808352979a9998810197919650918201945092508291508401838280828437509497506121909650505050505050565b348015610a3a57600080fd5b506040805160206004803580820135601f810184900484028501840190955284845261030e9436949293602493928401919081908401838280828437509497506125d89650505050505050565b348015610a9357600080fd5b50610287600435612765565b348015610aab57600080fd5b5061030e61279e565b348015610ac057600080fd5b506102876004356127ff565b348015610ad857600080fd5b50610270600160a060020a03600435166024351515612838565b348015610afe57600080fd5b5061039b6004356128bc565b348015610b1657600080fd5b506040805160206004803580820135601f81018490048402850184019095528484526102d094369492936024939284019190819084018382808284375050604080516020601f89358b018035918201839004830284018301909452808352979a99988101979196509182019450925082915084018382808284375094975050508335600160a060020a03169450505060209091013590506128e8565b348015610bbe57600080fd5b50610bca600435612b63565b60408051908101839052600160a060020a038216606082015260808082528551908201528451819060208083019160a084019189019080838360005b83811015610c1e578181015183820152602001610c06565b50505050905090810190601f168015610c4b5780820380516001836020036101000a031916815260200191505b50838103825286518152865160209182019188019080838360005b83811015610c7e578181015183820152602001610c66565b50505050905090810190601f168015610cab5780820380516001836020036101000a031916815260200191505b50965050505050505060405180910390f35b348015610cc957600080fd5b506040805160206004803580820135601f8101849004840285018401909552848452610287943694929360249392840191908190840183828082843750949750612cb89650505050505050565b348015610d2257600080fd5b50604080516020601f60643560048181013592830184900484028501840190955281845261027094600160a060020a038135811695602480359092169560443595369560849401918190840183828082843750949750612db99650505050505050565b348015610d9157600080fd5b506040805160206004803580820135601f8101849004840285018401909552848452610287943694929360249392840191908190840183828082843750949750612de19650505050505050565b348015610dea57600080fd5b50610287612ee2565b348015610dff57600080fd5b5061030e600435612ee8565b348015610e1757600080fd5b506040805160206004803580820135601f810184900484028501840190955284845261030e943694929360249392840191908190840183828082843750949750612f669650505050505050565b348015610e7057600080fd5b506040805160206004803580820135601f810184900484028501840190955284845261030e9436949293602493928401919081908401838280828437509497506130c59650505050505050565b348015610ec957600080fd5b50610ed560043561321c565b604051808060200185815260200184815260200183151515158152602001828103825286818151815260200191508051906020019080838360005b83811015610f28578181015183820152602001610f10565b50505050905090810190601f168015610f555780820380516001836020036101000a031916815260200191505b509550505050505060405180910390f35b348015610f7257600080fd5b506102d0600160a060020a03600435811690602435166132d4565b348015610f9957600080fd5b506040805160206004803580820135601f81018490048402850184019095528484526102879436949293602493928401919081908401838280828437509497506133029650505050505050565b348015610ff257600080fd5b50610270600160a060020a0360043516613406565b34801561101357600080fd5b506040805160206004803580820135601f81018490048402850184019095528484526102d094369492936024939284019190819084018382808284375050604080516020601f89358b018035918201839004830284018301909452808352979a99988101979196509182019450925082915084018382808284375050604080516020601f818a01358b0180359182018390048302840183018552818452989b8a359b909a9099940197509195509182019350915081908401838280828437509497506134229650505050505050565b600f5481565b7bffffffffffffffffffffffffffffffffffffffffffffffffffffffff191660009081526020819052604090205460ff1690565b60105481565b60098054604080516020601f60026000196101006001881615020190951694909404938401819004810282018101909252828152606093909290918301828280156111ae5780601f10611183576101008083540402835291602001916111ae565b820191906000526020600020905b81548152906001019060200180831161119157829003601f168201915b505050505090505b90565b60006111c4826136fc565b15156111cf57600080fd5b50600090815260026020526040902054600160a060020a031690565b60006111f6826119d1565b9050600160a060020a03838116908216141561121157600080fd5b33600160a060020a038216148061122d575061122d81336132d4565b151561123857600080fd5b6000828152600260205260408082208054600160a060020a031916600160a060020a0387811691821790925591518593918516917f8c5be1e5ebec7d5bd14f71427d1e84f3dd0314c0f7b2291e5b200ac8c7c3b92591a4505050565b60008181526013602052604081206006015460ff1615156001146112b757600080fd5b5060009081526013602052604090205490565b600080826040516020018082805190602001908083835b602083106113005780518252601f1990920191602091820191016112e1565b6001836020036101000a0380198251168184511680821785525050505050509050019150506040516020818303038152906040526040518082805190602001908083835b602083106113635780518252601f199092019160209182019101611344565b51815160209384036101000a60001901801990921691161790526040805192909401829003909120600081815260159092529290206003015491945050600160a060020a0316151591506113b8905057600080fd5b600081815260156020526040902060030154600160a060020a031691505b50919050565b60075490565b60008181526013602052604081206006015460ff16151560011461140557600080fd5b5060009081526013602052604090206003015460a060020a900460ff1690565b60115481565b60125481565b61143b3382613719565b151561144657600080fd5b600160a060020a038216151561145b57600080fd5b6114658382613778565b61146f83826137dc565b61147982826138e3565b8082600160a060020a031684600160a060020a03167fddf252ad1be2c89b69c2b068fc378daa952ba7f163c4a11628f55a4df523b3ef60405160405180910390a4505050565b60006114ca83611aff565b82106114d557600080fd5b600160a060020a03831660009081526005602052604090208054839081106114f957fe5b9060005260206000200154905092915050565b600d5481565b60008181526013602052604090206006015460609060ff16151560011461153857600080fd5b601360008381526020019081526020016000206001018054600181600116156101000203166002900480601f0160208091040260200160405190810160405280929190818152602001828054600181600116156101000203166002900480156115e25780601f106115b7576101008083540402835291602001916115e2565b820191906000526020600020905b8154815290600101906020018083116115c557829003601f168201915b50505050509050919050565b61160a8383836020604051908101604052806000815250612db9565b505050565b611617612079565b151561162257600080fd5b61162b81613406565b50565b60006116386113dc565b821061164357600080fd5b600780548390811061165157fe5b90600052602060002001549050919050565b600080600080866040516020018082805190602001908083835b6020831061169c5780518252601f19909201916020918201910161167d565b6001836020036101000a0380198251168184511680821785525050505050509050019150506040516020818303038152906040526040518082805190602001908083835b602083106116ff5780518252601f1990920191602091820191016116e0565b51815160001960209485036101000a019081169019919091161790526040805194909201849003909320600081815260169094529220600201549196505060ff1615156001149150611752905057600080fd5b6000838152601660205260409020600181015490540391508482106119c25760108054860190556011805460019081019091556000848152601660209081526040918290209092018054880190555187518892918201918291908401908083835b602083106117d25780518252601f1990920191602091820191016117b3565b6001836020036101000a0380198251168184511680821785525050505050509050019150506040516020818303038152906040526040518082805190602001908083835b602083106118355780518252601f199092019160209182019101611816565b51815160209384036101000a6000190180199092169116179052604080519290940182900390912060008181526014909252929020600301549194505060ff1615915061189a905057600081815260146020526040902060010180548601905561190e565b604080516080810182528781526020808201889052600082840181905260016060840152848152601482529290922081518051929391926118de9284920190613d40565b5060208201516001820155604082015160028201556060909101516003909101805460ff19169115159190911790555b604080516020808201869052918101879052606080825288519082015287517fe1e2f04378c01049d9d077035633dcf281eb34649d091dd1d7d1f0c3b4686fa092899287928a928291608083019187019080838360005b8381101561197d578181015183820152602001611965565b50505050905090810190601f1680156119aa5780820380516001836020036101000a031916815260200191505b5094505050505060405180910390a1600193506119c7565b600093505b5050509392505050565b600081815260016020526040812054600160a060020a03168015156119f557600080fd5b92915050565b600080826040516020018082805190602001908083835b60208310611a315780518252601f199092019160209182019101611a12565b6001836020036101000a0380198251168184511680821785525050505050509050019150506040516020818303038152906040526040518082805190602001908083835b60208310611a945780518252601f199092019160209182019101611a75565b51815160001960209485036101000a019081169019919091161790526040805194909201849003909320600081815260149094529220600301549194505060ff1615156001149150611ae7905057600080fd5b60009081526014602052604090206001015492915050565b6000600160a060020a0382161515611b1657600080fd5b50600160a060020a031660009081526003602052604090205490565b611b3a612079565b1515611b4557600080fd5b600c54604051600160a060020a03909116907ff8df31144d9c2f0f6b59d69b8b98abd5459d07f2742c4df920b25aae33c6482090600090a2600c8054600160a060020a0319169055565b60166020526000908152604090208054600182015460029092015490919060ff1683565b600080826040516020018082805190602001908083835b60208310611be95780518252601f199092019160209182019101611bca565b6001836020036101000a0380198251168184511680821785525050505050509050019150506040516020818303038152906040526040518082805190602001908083835b60208310611c4c5780518252601f199092019160209182019101611c2d565b51815160001960209485036101000a019081169019919091161790526040805194909201849003909320600081815260169094529220600201549194505060ff1615156001149150611c9f905057600080fd5b60009081526016602052604090206001015492915050565b6000806000866040516020018082805190602001908083835b60208310611cef5780518252601f199092019160209182019101611cd0565b6001836020036101000a0380198251168184511680821785525050505050509050019150506040516020818303038152906040526040518082805190602001908083835b60208310611d525780518252601f199092019160209182019101611d33565b51815160001960209485036101000a019081169019919091161790526040805194909201849003909320600081815260169094529220600201549195505060ff1615156001149150611da5905057600080fd5b856040516020018082805190602001908083835b60208310611dd85780518252601f199092019160209182019101611db9565b6001836020036101000a0380198251168184511680821785525050505050509050019150506040516020818303038152906040526040518082805190602001908083835b60208310611e3b5780518252601f199092019160209182019101611e1c565b51815160001960209485036101000a01908116901991909116179052604080519490920184900390932060008a815260139094529220600601549194505060ff1615156001149150611e8e905057600080fd5b600160a060020a0385161515611ea357600080fd5b6000848152601360205260409020600401548214611ec057600080fd5b6000848152601360205260409020600501548114611edd57600080fd5b6000848152601360205260409020600301805460a060020a600160a060020a0319909116600160a060020a0388161774ff00000000000000000000000000000000000000001916179055611f323386866115ee565b6040805185815260208101849052600160a060020a0387168183015290517f228808fc7f1cf2105ae7d045c73ecb559cd36038b92afc74b2d6c12adc0598729181900360600190a15060019695505050505050565b6013602090815260009182526040918290208054600180830180548651600293821615610100026000190190911692909204601f8101869004860283018601909652858252919492939092908301828280156120245780601f10611ff957610100808354040283529160200191612024565b820191906000526020600020905b81548152906001019060200180831161200757829003601f168201915b50505060028401546003850154600486015460058701546006909701549596600160a060020a0393841696938316955060ff60a060020a90930483169450909290911688565b600c54600160a060020a031690565b600c54600160a060020a0316331490565b600080826040516020018082805190602001908083835b602083106120c05780518252601f1990920191602091820191016120a1565b6001836020036101000a0380198251168184511680821785525050505050509050019150506040516020818303038152906040526040518082805190602001908083835b602083106121235780518252601f199092019160209182019101612104565b51815160209384036101000a60001901801990921691161790526040805192909401829003909120600081815260159092529290206003015491945050600160a060020a031615159150612178905057600080fd5b60009081526015602052604090206002015492915050565b60008060008061219e612079565b15156121a957600080fd5b600d5460010192506121ba836136fc565b156121c457600080fd5b856040516020018082805190602001908083835b602083106121f75780518252601f1990920191602091820191016121d8565b6001836020036101000a0380198251168184511680821785525050505050509050019150506040516020818303038152906040526040518082805190602001908083835b6020831061225a5780518252601f19909201916020918201910161223b565b51815160209384036101000a60001901801990921691161790526040519190930181900381208a519097508a955090830193508392850191508083835b602083106122b65780518252601f199092019160209182019101612297565b6001836020036101000a0380198251168184511680821785525050505050509050019150506040516020818303038152906040526040518082805190602001908083835b602083106123195780518252601f1990920191602091820191016122fa565b51815160209384036101000a6000190180199092169116179052604080519290940182900390912060008881526016909252929020600201549194505060ff16151591506123b6905057604080516060810182528881526000602080830182815260018486018181528885526016909352949092209251835590519282019290925590516002909101805460ff19169115159190911790556123cb565b60008281526016602052604090208054880190555b600e805488019055600d805460019081019182905560408051610100810182528a815260208082018d815233838501819052606084015260006080840181905260a0840189905260c0840188905260e0840186905295865260138252929094208151815591518051919492936124479390850192910190613d40565b506040820151600282018054600160a060020a0319908116600160a060020a0393841617909155606084015160038401805460808701519316919093161774ff0000000000000000000000000000000000000000191660a060020a9115159190910217905560a0820151600482015560c0820151600582015560e0909101516006909101805460ff1916911515919091179055600d546124e890339061392c565b6124f4600d548961397b565b7f17e7bb297cd22dac84bdc610a392a7526cbb33fd11aae071006157a11779dff1600d5483898b336040518086815260200185600019166000191681526020018481526020018060200183600160a060020a0316600160a060020a03168152602001828103825284818151815260200191508051906020019080838360005b8381101561258b578181015183820152602001612573565b50505050905090810190601f1680156125b85780820380516001836020036101000a031916815260200191505b50965050505050505060405180910390a15050600d549695505050505050565b60606000826040516020018082805190602001908083835b6020831061260f5780518252601f1990920191602091820191016125f0565b6001836020036101000a0380198251168184511680821785525050505050509050019150506040516020818303038152906040526040518082805190602001908083835b602083106126725780518252601f199092019160209182019101612653565b51815160001960209485036101000a019081169019919091161790526040805194909201849003909320600081815260149094529220600301549194505060ff16151560011491506126c5905057600080fd5b60008181526014602090815260409182902080548351601f6002610100600185161502600019019093169290920491820184900484028101840190945280845290918301828280156127585780601f1061272d57610100808354040283529160200191612758565b820191906000526020600020905b81548152906001019060200180831161273b57829003601f168201915b5050505050915050919050565b60008181526013602052604081206006015460ff16151560011461278857600080fd5b5060009081526013602052604090206005015490565b600a8054604080516020601f60026000196101006001881615020190951694909404938401819004810282018101909252828152606093909290918301828280156111ae5780601f10611183576101008083540402835291602001916111ae565b60008181526013602052604081206006015460ff16151560011461282257600080fd5b5060009081526013602052604090206004015490565b600160a060020a03821633141561284e57600080fd5b336000818152600460209081526040808320600160a060020a03871680855290835292819020805460ff1916861515908117909155815190815290519293927f17307eab39ab6107e8899845ad3d59bd9653f200f220920489ca2b5937696c31929181900390910190a35050565b60008181526013602052604081206006015460ff1615156001146128df57600080fd5b6119f5826119d1565b6000806000866040516020018082805190602001908083835b602083106129205780518252601f199092019160209182019101612901565b6001836020036101000a0380198251168184511680821785525050505050509050019150506040516020818303038152906040526040518082805190602001908083835b602083106129835780518252601f199092019160209182019101612964565b51815160001960209485036101000a019081169019919091161790526040805194909201849003909320600081815260169094529220600201549195505060ff16151560011491506129d6905057600080fd5b856040516020018082805190602001908083835b60208310612a095780518252601f1990920191602091820191016129ea565b6001836020036101000a0380198251168184511680821785525050505050509050019150506040516020818303038152906040526040518082805190602001908083835b60208310612a6c5780518252601f199092019160209182019101612a4d565b51815160001960209485036101000a01908116901991909116179052604080519490920184900390932060008a815260139094529220600601549194505060ff1615156001149150612abf905057600080fd5b600160a060020a0385161515612ad457600080fd5b6000848152601360205260409020600401548214612af157600080fd5b6000848152601360205260409020600501548114612b0e57600080fd5b6000848152601360205260409020600301805460a060020a600160a060020a0319909116600160a060020a0388161774ff00000000000000000000000000000000000000001916179055611f32338686611431565b60156020908152600091825260409182902080548351601f60026000196101006001861615020190931692909204918201849004840281018401909452808452909291839190830182828015612bfa5780601f10612bcf57610100808354040283529160200191612bfa565b820191906000526020600020905b815481529060010190602001808311612bdd57829003601f168201915b505050505090806001018054600181600116156101000203166002900480601f016020809104026020016040519081016040528092919081815260200182805460018160011615610100020316600290048015612c985780601f10612c6d57610100808354040283529160200191612c98565b820191906000526020600020905b815481529060010190602001808311612c7b57829003601f168201915b505050506002830154600390930154919291600160a060020a0316905084565b600080826040516020018082805190602001908083835b60208310612cee5780518252601f199092019160209182019101612ccf565b6001836020036101000a0380198251168184511680821785525050505050509050019150506040516020818303038152906040526040518082805190602001908083835b60208310612d515780518252601f199092019160209182019101612d32565b51815160001960209485036101000a019081169019919091161790526040805194909201849003909320600081815260169094529220600201549194505060ff1615156001149150612da4905057600080fd5b60009081526016602052604090205492915050565b612dc4848484611431565b612dd0848484846139ae565b1515612ddb57600080fd5b50505050565b600080826040516020018082805190602001908083835b60208310612e175780518252601f199092019160209182019101612df8565b6001836020036101000a0380198251168184511680821785525050505050509050019150506040516020818303038152906040526040518082805190602001908083835b60208310612e7a5780518252601f199092019160209182019101612e5b565b51815160209384036101000a6000190180199092169116179052604080519290940182900390912060008181526016909252929020600201549194505060ff16159150612ed990505760008181526016602052604090205491506113d6565b50600092915050565b600e5481565b6060612ef3826136fc565b1515612efe57600080fd5b6000828152600b602090815260409182902080548351601f6002600019610100600186161502019093169290920491820184900484028101840190945280845290918301828280156115e25780601f106115b7576101008083540402835291602001916115e2565b60606000826040516020018082805190602001908083835b60208310612f9d5780518252601f199092019160209182019101612f7e565b6001836020036101000a0380198251168184511680821785525050505050509050019150506040516020818303038152906040526040518082805190602001908083835b602083106130005780518252601f199092019160209182019101612fe1565b51815160209384036101000a60001901801990921691161790526040805192909401829003909120600081815260159092529290206003015491945050600160a060020a031615159150613055905057600080fd5b600081815260156020908152604091829020600190810180548451600260001994831615610100029490940190911692909204601f8101849004840283018401909452838252909290918301828280156127585780601f1061272d57610100808354040283529160200191612758565b60606000826040516020018082805190602001908083835b602083106130fc5780518252601f1990920191602091820191016130dd565b6001836020036101000a0380198251168184511680821785525050505050509050019150506040516020818303038152906040526040518082805190602001908083835b6020831061315f5780518252601f199092019160209182019101613140565b51815160209384036101000a60001901801990921691161790526040805192909401829003909120600081815260159092529290206003015491945050600160a060020a0316151591506131b4905057600080fd5b60008181526015602090815260409182902080548351601f6002610100600185161502600019019093169290920491820184900484028101840190945280845290918301828280156127585780601f1061272d57610100808354040283529160200191612758565b60146020908152600091825260409182902080548351601f600260001961010060018616150201909316929092049182018490048402810184019094528084529092918391908301828280156132b35780601f10613288576101008083540402835291602001916132b3565b820191906000526020600020905b81548152906001019060200180831161329657829003601f168201915b50505050600183015460028401546003909401549293909290915060ff1684565b600160a060020a03918216600090815260046020908152604080832093909416825291909152205460ff1690565b600080826040516020018082805190602001908083835b602083106133385780518252601f199092019160209182019101613319565b6001836020036101000a0380198251168184511680821785525050505050509050019150506040516020818303038152906040526040518082805190602001908083835b6020831061339b5780518252601f19909201916020918201910161337c565b51815160001960209485036101000a019081169019919091161790526040805194909201849003909320600081815260149094529220600301549194505060ff16151560011491506133ee905057600080fd5b60009081526014602052604090206002015492915050565b61340e612079565b151561341957600080fd5b61162b81613b30565b600080600061342f612079565b151561343a57600080fd5b600f54600e540391508482101561345057600080fd5b866040516020018082805190602001908083835b602083106134835780518252601f199092019160209182019101613464565b6001836020036101000a0380198251168184511680821785525050505050509050019150506040516020818303038152906040526040518082805190602001908083835b602083106134e65780518252601f1990920191602091820191016134c7565b51815160209384036101000a60001901801990921691161790526040805192909401829003909120600081815260159092529290206003015491945050600160a060020a031615915061353a905057600080fd5b601280546001019055600f80548601905560408051608081018252858152602080820189905281830188905233606083015260008481526015825292909220815180519293919261358e9284920190613d40565b5060208281015180516135a79260018501920190613d40565b50604082810151600283015560609283015160039092018054600160a060020a031916600160a060020a039093169290921790915580518381526020808201899052608092820183815288519383019390935287517f965e11cadfce1b707c18dbda4f6b490b4088fb42bf5de6fbbfb27e85548c26d09486948b948b948e94919384019160a085019187019080838360005b83811015613651578181015183820152602001613639565b50505050905090810190601f16801561367e5780820380516001836020036101000a031916815260200191505b50838103825284518152845160209182019186019080838360005b838110156136b1578181015183820152602001613699565b50505050905090810190601f1680156136de5780820380516001836020036101000a031916815260200191505b50965050505050505060405180910390a15060019695505050505050565b600090815260016020526040902054600160a060020a0316151590565b600080613725836119d1565b905080600160a060020a031684600160a060020a03161480613760575083600160a060020a0316613755846111b9565b600160a060020a0316145b80613770575061377081856132d4565b949350505050565b81600160a060020a031661378b826119d1565b600160a060020a03161461379e57600080fd5b600081815260026020526040902054600160a060020a0316156137d85760008181526002602052604090208054600160a060020a03191690555b5050565b60008060006137eb8585613ba1565b600084815260066020908152604080832054600160a060020a038916845260059092529091205490935061382690600163ffffffff613c2a16565b600160a060020a03861660009081526005602052604090208054919350908390811061384e57fe5b90600052602060002001549050806005600087600160a060020a0316600160a060020a031681526020019081526020016000208481548110151561388e57fe5b6000918252602080832090910192909255600160a060020a03871681526005909152604090208054906138c5906000198301613dbe565b50600093845260066020526040808520859055908452909220555050565b60006138ef8383613c41565b50600160a060020a039091166000908152600560209081526040808320805460018101825590845282842081018590559383526006909152902055565b6139368282613cc4565b600780546000838152600860205260408120829055600182018355919091527fa66cc928b5edb82af9bd49922954155ab7b0942694bea4ce44661d9a8736c688015550565b613984826136fc565b151561398f57600080fd5b6000828152600b60209081526040909120825161160a92840190613d40565b6000806139c385600160a060020a0316613d1f565b15156139d25760019150613b27565b6040517f150b7a020000000000000000000000000000000000000000000000000000000081523360048201818152600160a060020a03898116602485015260448401889052608060648501908152875160848601528751918a169463150b7a0294938c938b938b93909160a490910190602085019080838360005b83811015613a65578181015183820152602001613a4d565b50505050905090810190601f168015613a925780820380516001836020036101000a031916815260200191505b5095505050505050602060405180830381600087803b158015613ab457600080fd5b505af1158015613ac8573d6000803e3d6000fd5b505050506040513d6020811015613ade57600080fd5b50517bffffffffffffffffffffffffffffffffffffffffffffffffffffffff1981167f150b7a020000000000000000000000000000000000000000000000000000000014925090505b50949350505050565b600160a060020a0381161515613b4557600080fd5b600c54604051600160a060020a038084169216907f8be0079c531659141344cd1fd0a4f28419497f9722a3daafe3b4186f6b6457e090600090a3600c8054600160a060020a031916600160a060020a0392909216919091179055565b81600160a060020a0316613bb4826119d1565b600160a060020a031614613bc757600080fd5b600160a060020a038216600090815260036020526040902054613bf190600163ffffffff613c2a16565b600160a060020a039092166000908152600360209081526040808320949094559181526001909152208054600160a060020a0319169055565b60008083831115613c3a57600080fd5b5050900390565b600081815260016020526040902054600160a060020a031615613c6357600080fd5b60008181526001602081815260408084208054600160a060020a031916600160a060020a0388169081179091558452600390915290912054613ca491613d27565b600160a060020a0390921660009081526003602052604090209190915550565b600160a060020a0382161515613cd957600080fd5b613ce382826138e3565b6040518190600160a060020a038416906000907fddf252ad1be2c89b69c2b068fc378daa952ba7f163c4a11628f55a4df523b3ef908290a45050565b6000903b1190565b600082820183811015613d3957600080fd5b9392505050565b828054600181600116156101000203166002900490600052602060002090601f016020900481019282601f10613d8157805160ff1916838001178555613dae565b82800160010185558215613dae579182015b82811115613dae578251825591602001919060010190613d93565b50613dba929150613dde565b5090565b81548183558181111561160a5760008381526020902061160a9181019083015b6111b691905b80821115613dba5760008155600101613de45600a165627a7a723058204ffa038cc17d4fb7ce9c4a6b235ef1dcb49a84cafa07bca04a47fcbb9179f9270029",
  "source": "pragma solidity ^0.4.24;\n\nimport '../openzeppelin-solidity-master/contracts/token/ERC721/ERC721Full.sol';\nimport \"../openzeppelin-solidity-master/contracts/ownership/Ownable.sol\";\n\ncontract LuxOrders is ERC721Full, Ownable {\n\n  //state variables\n\n    //tokenid index\n    uint256 public orderIndex;\n\n    //total raised in sales uint256 USD\n    uint256 public totalRaised;\n\n    //total verifiably donated to charities\n    uint256 public totalDonated;\n\n    //total amount chosen to be donated\n    uint256 public totalChosenDonatedAmount;\n\n    //total number of chosen donations\n    uint256 public totalChosenDonations;\n\n    //total number of made donations\n    uint256 public totalMadeDonations;\n\n    //token mapping\n    mapping (uint256 => OrderToken) public orderTokens;\n\n    //token struct for order -> which represents a sale\n    struct OrderToken {\n      uint256 saleAmount;\n      string tokenURI;\n      address generation;\n      address owner;\n      bool redeemed;\n      bytes32 buyerHash;\n      bytes32 redemptionHash;\n      bool exists; //always true\n    }\n\n    //charities mapping to track the total amount chosen to be donated\n    //to each charity, id is SHA256(full name of charity)\n    mapping (bytes32 => Charity) public charities;\n    struct Charity {\n      string charityName;\n      uint256 amountChosenToDonate;\n      uint256 amountDonated;\n      bool exists; //always true\n    }\n\n    //MadeDonations is a list of donations actually made\n    //id is hash of donation IPFS url, indexed by proofHash\n    mapping (bytes32 => MadeDonation) public madeDonations;\n    struct MadeDonation {\n      string charityName; //name of charity luxarity sent proceeds to\n      string donationProofUrl;\n      uint256 amountDonated; //amount donated via grant to charity\n      address donorAddress; //address of owner of contract (luxarity)\n    }\n\n    //buyers mapping with buyer struct bytes32 => buyer\n    mapping (bytes32 => Buyer) public buyers;\n    struct Buyer {\n      uint256 totalContributed; //total amount the buyer has bought in USD\n      uint256 totalDonationsAllocated; //amount of donation capital allocated\n      bool exists; //always true\n    }\n\n\n  //constructor for NFT token, name = Luxarity, symbol = LUX\n    constructor() ERC721Full('Luxarity Order Token', 'LUX0') public {\n      //tokenid index\n      orderIndex = 0;\n      //total capital raised uint256 USD\n      totalRaised = 0;\n      //total donated by luxarity (USD)\n      totalDonated = 0;\n      //total number of chosen donations\n      totalChosenDonations = 0;\n      //total number of made donations\n      totalMadeDonations = 0;\n      //total amount chosen to be donated\n      totalChosenDonatedAmount = 0;\n    }\n\n  //events\n    event SoldAndMintedToken (uint256 _tokenId, bytes32 _buyerID, uint256 _saleAmount, string _tokenURI, address _tokenMinter);\n    //event when donation is chosen (bytes32, amount, charityName, donation id)\n    event DonationChosen (string _charityName, bytes32 _buyerId, uint256 _amountToBeDonated);\n    //event when donation is made by luxarity\n    event DonationMadeToCharity (bytes32 _donationHash, uint256 _amountDonated, string _charityName, string _donationURL);\n    //event when token is redeemed\n    event RedeemedToken (uint256 _tokenId, bytes32 _buyerId, address _buyerAddress);\n\n  //cuase functions\n\n    //mint function - when Orders are sold in an order - the receipt should be tokenized\n    function soldOrderToMint(string _tokenURI, uint256 _saleAmount, string _buyerID, string _redemptionHash) public onlyOwner returns (uint) {\n\n      //1.0 Ensure token doesn't already exists\n      uint256 testIndex = orderIndex + 1;\n      require(_exists(testIndex) == false);\n\n      //create buyerhash and redemption hash\n      bytes32 buyerID = keccak256(abi.encodePacked(_buyerID));\n      bytes32 redemptionHash = keccak256(abi.encodePacked(_redemptionHash));\n\n      //2.0 check if buyer already exists\n      if (!buyers[buyerID].exists) {\n        //adding new buyer to buyers mapping\n        buyers[buyerID] = Buyer(_saleAmount, 0, true);\n      } else {\n        //update existing buyer\n        buyers[buyerID].totalContributed += _saleAmount;\n      }\n\n      //increment total donations\n      totalRaised += _saleAmount;\n\n      //increment orderIndex\n      orderIndex += 1;\n\n      //create new sale\n      orderTokens[orderIndex] = OrderToken(_saleAmount, _tokenURI, msg.sender, msg.sender, false, buyerID, redemptionHash, true);\n\n      //mint token\n      _mint(msg.sender, orderIndex);\n\n      //set metadata\n      _setTokenURI(orderIndex, _tokenURI);\n\n      //emit event\n      emit SoldAndMintedToken(orderIndex, buyerID, _saleAmount, _tokenURI, msg.sender);\n\n      //return\n      return orderIndex;\n\n    }\n\n    //chooseDonation function\n    function chooseDonation(string _buyerID, string _charityName, uint256 _chosenDonateAmount) public returns (bool) {\n      //buyer check to operate function instead of modifier for conversion reasons\n      bytes32 buyerID = keccak256(abi.encodePacked(_buyerID));\n      require(buyers[buyerID].exists == true);\n      //check if amount to donate is less than or equal to the amount left\n      uint256 leftover = buyers[buyerID].totalContributed - buyers[buyerID].totalDonationsAllocated;\n      //if it is, proceed\n      if (leftover >= _chosenDonateAmount) {\n        //incement totalChosenDonatedAmount\n        totalChosenDonatedAmount += _chosenDonateAmount;\n        //increment total number of donations chosen to be made\n        totalChosenDonations += 1;\n        //update buyers donation allocation\n        buyers[buyerID].totalDonationsAllocated += _chosenDonateAmount;\n        //check if charity is new\n        bytes32 charityHash = keccak256(abi.encodePacked(_charityName));\n        //if it is, add to charity mapping\n        if (charities[charityHash].exists) {\n          charities[charityHash].amountChosenToDonate += _chosenDonateAmount;\n        } else {\n          //if not, update charity struct\n          charities[charityHash] = Charity(_charityName, _chosenDonateAmount, 0, true);\n        }\n        //emit event ChosenToDonate\n        emit DonationChosen(_charityName, buyerID, _chosenDonateAmount);\n        //return true\n        return true;\n      }\n      //if it is not, return false\n      return false;\n    }\n\n    //make donation function\n    function makeDonation(string _proofHash, string _proofURL, uint256 _madeDonationAmount, string _charityName) public onlyOwner returns (bool) {\n      uint256 leftover = totalRaised - totalDonated;\n      require(leftover >= _madeDonationAmount);\n\n      //create proper hash (sha256 of data proof of donation)\n      bytes32 proofHash = keccak256(abi.encodePacked(_proofHash));\n\n      //check if donation doesn't exist yet\n      require(madeDonations[proofHash].donorAddress == address(0));\n      //increment total made donations\n      totalMadeDonations += 1;\n      //total donated sum amount increased\n      totalDonated += _madeDonationAmount;\n\n      //add to made donations mapping\n      madeDonations[proofHash] = MadeDonation(_charityName, _proofURL, _madeDonationAmount, msg.sender);\n      //emit event\n      emit DonationMadeToCharity(proofHash, _madeDonationAmount, _charityName, _proofURL);\n      //return\n      return true;\n    }\n\n    //redeem token\n    function redeemOrder(string _buyerID, string _redemptionHash, address _buyerAddress, uint256 _tokenId) public returns (bool) {\n\n      //create buyerhash\n      bytes32 buyerID = keccak256(abi.encodePacked(_buyerID));\n      require(buyers[buyerID].exists == true);\n\n      //create redemption hash\n      bytes32 redemptionHash = keccak256(abi.encodePacked(_redemptionHash));\n\n      //make sure address is valid\n      require(orderTokens[_tokenId].exists == true);\n      require(_buyerAddress != address(0));\n      require(orderTokens[_tokenId].buyerHash == buyerID);\n      require(orderTokens[_tokenId].redemptionHash == redemptionHash);\n\n      orderTokens[_tokenId].owner = _buyerAddress;\n      orderTokens[_tokenId].redeemed = true;\n      //conduct transfer from Luxarity to address\n      transferFrom(msg.sender, _buyerAddress, _tokenId);\n      //emit event\n      emit RedeemedToken(_tokenId, buyerID, _buyerAddress);\n      return true;\n    }\n\n    //safe redeem token\n    function safeRedeemOrder(string _buyerID, string _redemptionHash, address _buyerAddress, uint256 _tokenId) public returns (bool) {\n      //create buyerhash\n      bytes32 buyerID = keccak256(abi.encodePacked(_buyerID));\n      require(buyers[buyerID].exists == true);\n\n      //create redemption hash\n      bytes32 redemptionHash = keccak256(abi.encodePacked(_redemptionHash));\n\n      //make sure address is valid\n      require(orderTokens[_tokenId].exists == true);\n      require(_buyerAddress != address(0));\n      require(orderTokens[_tokenId].buyerHash == buyerID);\n      require(orderTokens[_tokenId].redemptionHash == redemptionHash);\n\n      orderTokens[_tokenId].owner = _buyerAddress;\n      orderTokens[_tokenId].redeemed = true;\n      //conduct transfer from Luxarity to address\n      safeTransferFrom(msg.sender, _buyerAddress, _tokenId);\n      //emit event\n      emit RedeemedToken(_tokenId, buyerID, _buyerAddress);\n      return true;\n    }\n\n  //call functions\n    //get how much a buyer has donated in total\n    function getBuyerAmount(string _buyerID) public view returns (uint256 total) {\n      //create buyerhash\n      bytes32 buyerID = keccak256(abi.encodePacked(_buyerID));\n      if (buyers[buyerID].exists) {\n        return buyers[buyerID].totalContributed;\n      }\n      return 0;\n\t\t}\n\n    //get boolean to see if NFT has been redeemed or not\n    function getRedemption(uint256 _tokenId) public view returns (bool) {\n      require(orderTokens[_tokenId].exists == true);\n      return orderTokens[_tokenId].redeemed;\n\t\t}\n\n    //get token ownerOf\n    function getTokenOwner(uint256 _tokenId) public view returns (address) {\n      require(orderTokens[_tokenId].exists == true);\n      return ownerOf(_tokenId);\n    }\n\n    //get token sale amount\n    function getTokenSaleAmount(uint256 _tokenId) public view returns (uint256) {\n      require(orderTokens[_tokenId].exists == true);\n      return orderTokens[_tokenId].saleAmount;\n    }\n\n    //get token uri\n    function getTokenURI(uint256 _tokenId) public view returns (string) {\n      require(orderTokens[_tokenId].exists == true);\n      return orderTokens[_tokenId].tokenURI;\n    }\n\n    //get token buyer hash\n    function getTokenBuyer(uint256 _tokenId) public view returns (bytes32) {\n      require(orderTokens[_tokenId].exists == true);\n      return orderTokens[_tokenId].buyerHash;\n    }\n\n    //get token redemption hash\n    function getTokenRedemptionHash(uint256 _tokenId) public view returns (bytes32) {\n      require(orderTokens[_tokenId].exists == true);\n      return orderTokens[_tokenId].redemptionHash;\n    }\n\n    //get charity name\n    function getCharityName(string _charityName) public view returns (string) {\n      bytes32 charityHash = keccak256(abi.encodePacked(_charityName));\n      require(charities[charityHash].exists == true);\n      return charities[charityHash].charityName;\n    }\n\n    //get charity amount chosen to donate\n    function getCharityAmountChosen(string _charityName) public view returns (uint256) {\n      bytes32 charityHash = keccak256(abi.encodePacked(_charityName));\n      require(charities[charityHash].exists == true);\n      return charities[charityHash].amountChosenToDonate;\n    }\n\n    //get charity amount actually donated\n    function getCharityAmountDonated(string _charityName) public view returns (uint256) {\n      bytes32 charityHash = keccak256(abi.encodePacked(_charityName));\n      require(charities[charityHash].exists == true);\n      return charities[charityHash].amountDonated;\n    }\n\n    //get made donation charity name\n    function getMadeDonationCharityName(string _proofHash) public view returns (string) {\n      //create proper hash (sha256 of data proof of donation)\n      bytes32 proofHash = keccak256(abi.encodePacked(_proofHash));\n      require(madeDonations[proofHash].donorAddress != address(0));\n      return madeDonations[proofHash].charityName;\n    }\n\n    //get made donation proof url\n    function getMadeDonationProofUrl(string _proofHash) public view returns (string) {\n      //create proper hash (sha256 of data proof of donation)\n      bytes32 proofHash = keccak256(abi.encodePacked(_proofHash));\n      require(madeDonations[proofHash].donorAddress != address(0));\n      return madeDonations[proofHash].donationProofUrl;\n    }\n\n    //get made donation amount donated\n    function getMadeDonationAmountDonated(string _proofHash) public view returns (uint256) {\n      //create proper hash (sha256 of data proof of donation)\n      bytes32 proofHash = keccak256(abi.encodePacked(_proofHash));\n      require(madeDonations[proofHash].donorAddress != address(0));\n      return madeDonations[proofHash].amountDonated;\n    }\n\n    //get made donation donor address\n    function getMadeDonationAddress(string _proofHash) public view returns (address) {\n      //create proper hash (sha256 of data proof of donation)\n      bytes32 proofHash = keccak256(abi.encodePacked(_proofHash));\n      require(madeDonations[proofHash].donorAddress != address(0));\n      return madeDonations[proofHash].donorAddress;\n    }\n\n    //get buyer totalContributed\n    function getBuyerContributed(string _buyerHash) public view returns (uint256) {\n      //create proper hash (sha256 of data proof of donation)\n      bytes32 buyerHash = keccak256(abi.encodePacked(_buyerHash));\n      require(buyers[buyerHash].exists == true);\n      return buyers[buyerHash].totalContributed;\n    }\n\n    //get buyer totalDonationsAllocated\n    function getBuyerAllocated(string _buyerHash) public view returns (uint256) {\n      //create proper hash (sha256 of data proof of donation)\n      bytes32 buyerHash = keccak256(abi.encodePacked(_buyerHash));\n      require(buyers[buyerHash].exists == true);\n      return buyers[buyerHash].totalDonationsAllocated;\n    }\n\n    //transfer ownership of contract\n    function transferContract(address newOwner) public onlyOwner {\n      transferOwnership(newOwner);\n    }\n\n    //fallback\n\t  function() payable public { }\n}\n",
  "sourcePath": "/Applications/MAMP/htdocs/LuxToken/contracts/LuxOrders.sol",
  "compiler": {
    "name": "solc",
    "version": "0.4.24+commit.e67f0147.Emscripten.clang"
  },
  "schemaVersion": "2.0.1",
  "updatedAt": "2018-10-27T10:41:38.389Z"
}