{
  "contractName": "LuxOrders",
  "abi": [
    {
      "constant": true,
      "inputs": [],
      "name": "totalDonated",
      "outputs": [
        {
          "name": "",
          "type": "uint256"
        }
      ],
      "payable": false,
      "stateMutability": "view",
      "type": "function"
    },
    {
      "constant": true,
      "inputs": [
        {
          "name": "interfaceId",
          "type": "bytes4"
        }
      ],
      "name": "supportsInterface",
      "outputs": [
        {
          "name": "",
          "type": "bool"
        }
      ],
      "payable": false,
      "stateMutability": "view",
      "type": "function"
    },
    {
      "constant": true,
      "inputs": [],
      "name": "totalChosenDonatedAmount",
      "outputs": [
        {
          "name": "",
          "type": "uint256"
        }
      ],
      "payable": false,
      "stateMutability": "view",
      "type": "function"
    },
    {
      "constant": true,
      "inputs": [],
      "name": "name",
      "outputs": [
        {
          "name": "",
          "type": "string"
        }
      ],
      "payable": false,
      "stateMutability": "view",
      "type": "function"
    },
    {
      "constant": true,
      "inputs": [
        {
          "name": "tokenId",
          "type": "uint256"
        }
      ],
      "name": "getApproved",
      "outputs": [
        {
          "name": "",
          "type": "address"
        }
      ],
      "payable": false,
      "stateMutability": "view",
      "type": "function"
    },
    {
      "constant": false,
      "inputs": [
        {
          "name": "to",
          "type": "address"
        },
        {
          "name": "tokenId",
          "type": "uint256"
        }
      ],
      "name": "approve",
      "outputs": [],
      "payable": false,
      "stateMutability": "nonpayable",
      "type": "function"
    },
    {
      "constant": true,
      "inputs": [],
      "name": "totalSupply",
      "outputs": [
        {
          "name": "",
          "type": "uint256"
        }
      ],
      "payable": false,
      "stateMutability": "view",
      "type": "function"
    },
    {
      "constant": true,
      "inputs": [],
      "name": "totalChosenDonations",
      "outputs": [
        {
          "name": "",
          "type": "uint256"
        }
      ],
      "payable": false,
      "stateMutability": "view",
      "type": "function"
    },
    {
      "constant": true,
      "inputs": [],
      "name": "totalMadeDonations",
      "outputs": [
        {
          "name": "",
          "type": "uint256"
        }
      ],
      "payable": false,
      "stateMutability": "view",
      "type": "function"
    },
    {
      "constant": false,
      "inputs": [
        {
          "name": "from",
          "type": "address"
        },
        {
          "name": "to",
          "type": "address"
        },
        {
          "name": "tokenId",
          "type": "uint256"
        }
      ],
      "name": "transferFrom",
      "outputs": [],
      "payable": false,
      "stateMutability": "nonpayable",
      "type": "function"
    },
    {
      "constant": true,
      "inputs": [
        {
          "name": "owner",
          "type": "address"
        },
        {
          "name": "index",
          "type": "uint256"
        }
      ],
      "name": "tokenOfOwnerByIndex",
      "outputs": [
        {
          "name": "",
          "type": "uint256"
        }
      ],
      "payable": false,
      "stateMutability": "view",
      "type": "function"
    },
    {
      "constant": true,
      "inputs": [],
      "name": "orderIndex",
      "outputs": [
        {
          "name": "",
          "type": "uint256"
        }
      ],
      "payable": false,
      "stateMutability": "view",
      "type": "function"
    },
    {
      "constant": false,
      "inputs": [
        {
          "name": "from",
          "type": "address"
        },
        {
          "name": "to",
          "type": "address"
        },
        {
          "name": "tokenId",
          "type": "uint256"
        }
      ],
      "name": "safeTransferFrom",
      "outputs": [],
      "payable": false,
      "stateMutability": "nonpayable",
      "type": "function"
    },
    {
      "constant": true,
      "inputs": [
        {
          "name": "index",
          "type": "uint256"
        }
      ],
      "name": "tokenByIndex",
      "outputs": [
        {
          "name": "",
          "type": "uint256"
        }
      ],
      "payable": false,
      "stateMutability": "view",
      "type": "function"
    },
    {
      "constant": true,
      "inputs": [
        {
          "name": "tokenId",
          "type": "uint256"
        }
      ],
      "name": "ownerOf",
      "outputs": [
        {
          "name": "",
          "type": "address"
        }
      ],
      "payable": false,
      "stateMutability": "view",
      "type": "function"
    },
    {
      "constant": true,
      "inputs": [
        {
          "name": "owner",
          "type": "address"
        }
      ],
      "name": "balanceOf",
      "outputs": [
        {
          "name": "",
          "type": "uint256"
        }
      ],
      "payable": false,
      "stateMutability": "view",
      "type": "function"
    },
    {
      "constant": false,
      "inputs": [],
      "name": "renounceOwnership",
      "outputs": [],
      "payable": false,
      "stateMutability": "nonpayable",
      "type": "function"
    },
    {
      "constant": true,
      "inputs": [
        {
          "name": "",
          "type": "bytes32"
        }
      ],
      "name": "buyers",
      "outputs": [
        {
          "name": "totalContributed",
          "type": "uint256"
        },
        {
          "name": "totalDonationsAllocated",
          "type": "uint256"
        },
        {
          "name": "exists",
          "type": "bool"
        }
      ],
      "payable": false,
      "stateMutability": "view",
      "type": "function"
    },
    {
      "constant": true,
      "inputs": [
        {
          "name": "",
          "type": "uint256"
        }
      ],
      "name": "orderTokens",
      "outputs": [
        {
          "name": "saleAmount",
          "type": "uint256"
        },
        {
          "name": "tokenURI",
          "type": "string"
        },
        {
          "name": "generation",
          "type": "address"
        },
        {
          "name": "owner",
          "type": "address"
        },
        {
          "name": "redeemed",
          "type": "bool"
        },
        {
          "name": "buyerHash",
          "type": "bytes32"
        },
        {
          "name": "redemptionHash",
          "type": "bytes32"
        },
        {
          "name": "exists",
          "type": "bool"
        }
      ],
      "payable": false,
      "stateMutability": "view",
      "type": "function"
    },
    {
      "constant": true,
      "inputs": [],
      "name": "owner",
      "outputs": [
        {
          "name": "",
          "type": "address"
        }
      ],
      "payable": false,
      "stateMutability": "view",
      "type": "function"
    },
    {
      "constant": true,
      "inputs": [],
      "name": "isOwner",
      "outputs": [
        {
          "name": "",
          "type": "bool"
        }
      ],
      "payable": false,
      "stateMutability": "view",
      "type": "function"
    },
    {
      "constant": true,
      "inputs": [],
      "name": "symbol",
      "outputs": [
        {
          "name": "",
          "type": "string"
        }
      ],
      "payable": false,
      "stateMutability": "view",
      "type": "function"
    },
    {
      "constant": false,
      "inputs": [
        {
          "name": "to",
          "type": "address"
        },
        {
          "name": "approved",
          "type": "bool"
        }
      ],
      "name": "setApprovalForAll",
      "outputs": [],
      "payable": false,
      "stateMutability": "nonpayable",
      "type": "function"
    },
    {
      "constant": true,
      "inputs": [
        {
          "name": "",
          "type": "bytes32"
        }
      ],
      "name": "madeDonations",
      "outputs": [
        {
          "name": "charityName",
          "type": "string"
        },
        {
          "name": "donationProofUrl",
          "type": "string"
        },
        {
          "name": "amountDonated",
          "type": "uint256"
        },
        {
          "name": "donationProofHash",
          "type": "bytes32"
        },
        {
          "name": "donorAddress",
          "type": "address"
        }
      ],
      "payable": false,
      "stateMutability": "view",
      "type": "function"
    },
    {
      "constant": false,
      "inputs": [
        {
          "name": "from",
          "type": "address"
        },
        {
          "name": "to",
          "type": "address"
        },
        {
          "name": "tokenId",
          "type": "uint256"
        },
        {
          "name": "_data",
          "type": "bytes"
        }
      ],
      "name": "safeTransferFrom",
      "outputs": [],
      "payable": false,
      "stateMutability": "nonpayable",
      "type": "function"
    },
    {
      "constant": true,
      "inputs": [],
      "name": "totalRaised",
      "outputs": [
        {
          "name": "",
          "type": "uint256"
        }
      ],
      "payable": false,
      "stateMutability": "view",
      "type": "function"
    },
    {
      "constant": true,
      "inputs": [
        {
          "name": "tokenId",
          "type": "uint256"
        }
      ],
      "name": "tokenURI",
      "outputs": [
        {
          "name": "",
          "type": "string"
        }
      ],
      "payable": false,
      "stateMutability": "view",
      "type": "function"
    },
    {
      "constant": true,
      "inputs": [
        {
          "name": "",
          "type": "bytes32"
        }
      ],
      "name": "charities",
      "outputs": [
        {
          "name": "charityName",
          "type": "string"
        },
        {
          "name": "amountChosenToDonate",
          "type": "uint256"
        },
        {
          "name": "amountDonated",
          "type": "uint256"
        },
        {
          "name": "exists",
          "type": "bool"
        }
      ],
      "payable": false,
      "stateMutability": "view",
      "type": "function"
    },
    {
      "constant": true,
      "inputs": [
        {
          "name": "owner",
          "type": "address"
        },
        {
          "name": "operator",
          "type": "address"
        }
      ],
      "name": "isApprovedForAll",
      "outputs": [
        {
          "name": "",
          "type": "bool"
        }
      ],
      "payable": false,
      "stateMutability": "view",
      "type": "function"
    },
    {
      "constant": false,
      "inputs": [
        {
          "name": "newOwner",
          "type": "address"
        }
      ],
      "name": "transferOwnership",
      "outputs": [],
      "payable": false,
      "stateMutability": "nonpayable",
      "type": "function"
    },
    {
      "inputs": [],
      "payable": false,
      "stateMutability": "nonpayable",
      "type": "constructor"
    },
    {
      "payable": true,
      "stateMutability": "payable",
      "type": "fallback"
    },
    {
      "anonymous": false,
      "inputs": [
        {
          "indexed": false,
          "name": "_tokenId",
          "type": "uint256"
        },
        {
          "indexed": false,
          "name": "_buyerID",
          "type": "bytes32"
        },
        {
          "indexed": false,
          "name": "_saleAmount",
          "type": "uint256"
        },
        {
          "indexed": false,
          "name": "_tokenURI",
          "type": "string"
        },
        {
          "indexed": false,
          "name": "_tokenMinter",
          "type": "address"
        }
      ],
      "name": "SoldAndMintedToken",
      "type": "event"
    },
    {
      "anonymous": false,
      "inputs": [
        {
          "indexed": false,
          "name": "_charityName",
          "type": "string"
        },
        {
          "indexed": false,
          "name": "_buyerId",
          "type": "bytes32"
        },
        {
          "indexed": false,
          "name": "_amountToBeDonated",
          "type": "uint256"
        }
      ],
      "name": "DonationChosen",
      "type": "event"
    },
    {
      "anonymous": false,
      "inputs": [
        {
          "indexed": false,
          "name": "_donationHash",
          "type": "bytes32"
        },
        {
          "indexed": false,
          "name": "_amountDonated",
          "type": "uint256"
        },
        {
          "indexed": false,
          "name": "_charityName",
          "type": "string"
        },
        {
          "indexed": false,
          "name": "_donationURL",
          "type": "string"
        }
      ],
      "name": "DonationMadeToCharity",
      "type": "event"
    },
    {
      "anonymous": false,
      "inputs": [
        {
          "indexed": false,
          "name": "_tokenId",
          "type": "uint256"
        },
        {
          "indexed": false,
          "name": "_buyerId",
          "type": "bytes32"
        },
        {
          "indexed": false,
          "name": "_buyerAddress",
          "type": "address"
        }
      ],
      "name": "RedeemedToken",
      "type": "event"
    },
    {
      "anonymous": false,
      "inputs": [
        {
          "indexed": true,
          "name": "previousOwner",
          "type": "address"
        }
      ],
      "name": "OwnershipRenounced",
      "type": "event"
    },
    {
      "anonymous": false,
      "inputs": [
        {
          "indexed": true,
          "name": "previousOwner",
          "type": "address"
        },
        {
          "indexed": true,
          "name": "newOwner",
          "type": "address"
        }
      ],
      "name": "OwnershipTransferred",
      "type": "event"
    },
    {
      "anonymous": false,
      "inputs": [
        {
          "indexed": true,
          "name": "from",
          "type": "address"
        },
        {
          "indexed": true,
          "name": "to",
          "type": "address"
        },
        {
          "indexed": true,
          "name": "tokenId",
          "type": "uint256"
        }
      ],
      "name": "Transfer",
      "type": "event"
    },
    {
      "anonymous": false,
      "inputs": [
        {
          "indexed": true,
          "name": "owner",
          "type": "address"
        },
        {
          "indexed": true,
          "name": "approved",
          "type": "address"
        },
        {
          "indexed": true,
          "name": "tokenId",
          "type": "uint256"
        }
      ],
      "name": "Approval",
      "type": "event"
    },
    {
      "anonymous": false,
      "inputs": [
        {
          "indexed": true,
          "name": "owner",
          "type": "address"
        },
        {
          "indexed": true,
          "name": "operator",
          "type": "address"
        },
        {
          "indexed": false,
          "name": "approved",
          "type": "bool"
        }
      ],
      "name": "ApprovalForAll",
      "type": "event"
    },
    {
      "constant": false,
      "inputs": [
        {
          "name": "_tokenURI",
          "type": "string"
        },
        {
          "name": "_saleAmount",
          "type": "uint256"
        },
        {
          "name": "_buyerID",
          "type": "bytes32"
        },
        {
          "name": "_redemptionHash",
          "type": "bytes32"
        }
      ],
      "name": "soldOrderToMint",
      "outputs": [
        {
          "name": "",
          "type": "uint256"
        }
      ],
      "payable": false,
      "stateMutability": "nonpayable",
      "type": "function"
    },
    {
      "constant": false,
      "inputs": [
        {
          "name": "_buyerID",
          "type": "bytes32"
        },
        {
          "name": "_charityName",
          "type": "string"
        },
        {
          "name": "_chosenDonateAmount",
          "type": "uint256"
        }
      ],
      "name": "chooseDonation",
      "outputs": [
        {
          "name": "",
          "type": "bool"
        }
      ],
      "payable": false,
      "stateMutability": "nonpayable",
      "type": "function"
    },
    {
      "constant": false,
      "inputs": [
        {
          "name": "_proofHash",
          "type": "bytes32"
        },
        {
          "name": "_proofURL",
          "type": "string"
        },
        {
          "name": "_madeDonationAmount",
          "type": "uint256"
        },
        {
          "name": "_charityName",
          "type": "string"
        }
      ],
      "name": "makeDonation",
      "outputs": [
        {
          "name": "",
          "type": "bool"
        }
      ],
      "payable": false,
      "stateMutability": "nonpayable",
      "type": "function"
    },
    {
      "constant": false,
      "inputs": [
        {
          "name": "_buyerID",
          "type": "bytes32"
        },
        {
          "name": "_redemptionHash",
          "type": "bytes32"
        },
        {
          "name": "_buyerAddress",
          "type": "address"
        },
        {
          "name": "_tokenId",
          "type": "uint256"
        }
      ],
      "name": "redeemOrder",
      "outputs": [
        {
          "name": "",
          "type": "bool"
        }
      ],
      "payable": false,
      "stateMutability": "nonpayable",
      "type": "function"
    },
    {
      "constant": false,
      "inputs": [
        {
          "name": "_buyerID",
          "type": "bytes32"
        },
        {
          "name": "_redemptionHash",
          "type": "bytes32"
        },
        {
          "name": "_buyerAddress",
          "type": "address"
        },
        {
          "name": "_tokenId",
          "type": "uint256"
        }
      ],
      "name": "safeRedeemOrder",
      "outputs": [
        {
          "name": "",
          "type": "bool"
        }
      ],
      "payable": false,
      "stateMutability": "nonpayable",
      "type": "function"
    },
    {
      "constant": true,
      "inputs": [
        {
          "name": "_buyerID",
          "type": "bytes32"
        }
      ],
      "name": "getBuyerAmount",
      "outputs": [
        {
          "name": "total",
          "type": "uint256"
        }
      ],
      "payable": false,
      "stateMutability": "view",
      "type": "function"
    },
    {
      "constant": true,
      "inputs": [
        {
          "name": "_tokenId",
          "type": "uint256"
        }
      ],
      "name": "getRedemption",
      "outputs": [
        {
          "name": "",
          "type": "bool"
        }
      ],
      "payable": false,
      "stateMutability": "view",
      "type": "function"
    },
    {
      "constant": true,
      "inputs": [
        {
          "name": "_tokenId",
          "type": "uint256"
        }
      ],
      "name": "getTokenSold",
      "outputs": [
        {
          "name": "",
          "type": "bool"
        }
      ],
      "payable": false,
      "stateMutability": "view",
      "type": "function"
    },
    {
      "constant": true,
      "inputs": [
        {
          "name": "_tokenId",
          "type": "uint256"
        }
      ],
      "name": "getTokenOwner",
      "outputs": [
        {
          "name": "",
          "type": "address"
        }
      ],
      "payable": false,
      "stateMutability": "view",
      "type": "function"
    },
    {
      "constant": false,
      "inputs": [
        {
          "name": "newOwner",
          "type": "address"
        }
      ],
      "name": "transferContract",
      "outputs": [],
      "payable": false,
      "stateMutability": "nonpayable",
      "type": "function"
    }
  ],
  "bytecode": "0x60806040523480156200001157600080fd5b50604080518082018252601481527f4c75786172697479204f7264657220546f6b656e0000000000000000000000006020808301919091528251808401909352600483527f4c5558300000000000000000000000000000000000000000000000000000000090830152908181620000b17f01ffc9a700000000000000000000000000000000000000000000000000000000640100000000620001b3810204565b620000e57f80ac58cd00000000000000000000000000000000000000000000000000000000640100000000620001b3810204565b620001197f780e9d6300000000000000000000000000000000000000000000000000000000640100000000620001b3810204565b81516200012e90600990602085019062000220565b5080516200014490600a90602084019062000220565b50620001797f5b5e139f00000000000000000000000000000000000000000000000000000000640100000000620001b3810204565b5050600c8054600160a060020a0319163317905550506000600d819055600e819055600f81905560118190556012819055601055620002c5565b7fffffffff000000000000000000000000000000000000000000000000000000008082161415620001e357600080fd5b7fffffffff00000000000000000000000000000000000000000000000000000000166000908152602081905260409020805460ff19166001179055565b828054600181600116156101000203166002900490600052602060002090601f016020900481019282601f106200026357805160ff191683800117855562000293565b8280016001018555821562000293579182015b828111156200029357825182559160200191906001019062000276565b50620002a1929150620002a5565b5090565b620002c291905b80821115620002a15760008155600101620002ac565b90565b61260280620002d56000396000f3006080604052600436106101ec5763ffffffff7c0100000000000000000000000000000000000000000000000000000000600035041662b3704481146101ee57806301f785f91461021557806301ffc9a71461025357806303d52de51461028a57806306fdde031461029f578063081812fc14610329578063095ea7b31461035d57806318160ddd14610381578063190c087d146103965780631953cc21146103f65780631a168b581461040e5780631f0bf9411461042357806323b872dd146104385780632f745c591461046257806330471fee1461048657806342842e0e1461049b57806347635dac146104c55780634f6ccce7146104e657806350d5b41c146104fe5780636352211e1461052857806364457aad1461054057806370a0823114610558578063715018a6146105795780637ecbaf801461058e578063882a8f5c146105c65780638da5cb5b1461069c5780638f32d59b146106b157806395d89b41146106c6578063a22cb465146106db578063a43e4acc14610701578063a5cd761f146107a3578063b2958062146107bb578063b88d4fde146108ce578063c5c4744c1461093d578063c87b56dd14610952578063cfae86521461096a578063e139d8c6146109d0578063e985e9c514610a79578063f2fde38b14610aa0578063f68ac9ef14610ac1575b005b3480156101fa57600080fd5b50610203610ad9565b60408051918252519081900360200190f35b34801561022157600080fd5b5061023f600435602435600160a060020a0360443516606435610adf565b604080519115158252519081900360200190f35b34801561025f57600080fd5b5061023f7bffffffffffffffffffffffffffffffffffffffffffffffffffffffff1960043516610c21565b34801561029657600080fd5b50610203610c59565b3480156102ab57600080fd5b506102b4610c5f565b6040805160208082528351818301528351919283929083019185019080838360005b838110156102ee5781810151838201526020016102d6565b50505050905090810190601f16801561031b5780820380516001836020036101000a031916815260200191505b509250505060405180910390f35b34801561033557600080fd5b50610341600435610cf6565b60408051600160a060020a039092168252519081900360200190f35b34801561036957600080fd5b506101ec600160a060020a0360043516602435610d28565b34801561038d57600080fd5b50610203610dd1565b3480156103a257600080fd5b5060408051602060046024803582810135601f810185900485028601850190965285855261023f9583359536956044949193909101919081908401838280828437509497505093359450610dd79350505050565b34801561040257600080fd5b5061023f60043561107f565b34801561041a57600080fd5b5061020361109e565b34801561042f57600080fd5b506102036110a4565b34801561044457600080fd5b506101ec600160a060020a03600435811690602435166044356110aa565b34801561046e57600080fd5b50610203600160a060020a0360043516602435611138565b34801561049257600080fd5b50610203611185565b3480156104a757600080fd5b506101ec600160a060020a036004358116906024351660443561118b565b3480156104d157600080fd5b506101ec600160a060020a03600435166111ac565b3480156104f257600080fd5b506102036004356111cb565b34801561050a57600080fd5b5061023f600435602435600160a060020a0360443516606435611200565b34801561053457600080fd5b506103416004356112ec565b34801561054c57600080fd5b5061023f600435611316565b34801561056457600080fd5b50610203600160a060020a036004351661132e565b34801561058557600080fd5b506101ec611361565b34801561059a57600080fd5b506105a66004356113be565b604080519384526020840192909252151582820152519081900360600190f35b3480156105d257600080fd5b506105de6004356113e2565b60408051898152600160a060020a03808916928201929092529086166060820152841515608082015260a0810184905260c0810183905281151560e082015261010060208083018281528a519284019290925289516101208401918b019080838360005b8381101561065a578181015183820152602001610642565b50505050905090810190601f1680156106875780820380516001836020036101000a031916815260200191505b50995050505050505050505060405180910390f35b3480156106a857600080fd5b506103416114c5565b3480156106bd57600080fd5b5061023f6114d4565b3480156106d257600080fd5b506102b46114e5565b3480156106e757600080fd5b506101ec600160a060020a03600435166024351515611546565b34801561070d57600080fd5b5060408051602060046024803582810135601f810185900485028601850190965285855261023f95833595369560449491939091019190819084018382808284375050604080516020601f818a01358b0180359182018390048302840183018552818452989b8a359b909a9099940197509195509182019350915081908401838280828437509497506115ca9650505050505050565b3480156107af57600080fd5b5061034160043561189d565b3480156107c757600080fd5b506107d36004356118b0565b6040805190810184905260608101839052600160a060020a038216608082015260a08082528651908201528551819060208083019160c08401918a019080838360005b8381101561082e578181015183820152602001610816565b50505050905090810190601f16801561085b5780820380516001836020036101000a031916815260200191505b50838103825287518152875160209182019189019080838360005b8381101561088e578181015183820152602001610876565b50505050905090810190601f1680156108bb5780820380516001836020036101000a031916815260200191505b5097505050505050505060405180910390f35b3480156108da57600080fd5b50604080516020601f6064356004818101359283018490048402850184019095528184526101ec94600160a060020a038135811695602480359092169560443595369560849401918190840183828082843750949750611a0c9650505050505050565b34801561094957600080fd5b50610203611a34565b34801561095e57600080fd5b506102b4600435611a3a565b34801561097657600080fd5b506040805160206004803580820135601f810184900484028501840190955284845261020394369492936024939284019190819084018382808284375094975050843595505050602083013592604001359150611aef9050565b3480156109dc57600080fd5b506109e8600435611dad565b604051808060200185815260200184815260200183151515158152602001828103825286818151815260200191508051906020019080838360005b83811015610a3b578181015183820152602001610a23565b50505050905090810190601f168015610a685780820380516001836020036101000a031916815260200191505b509550505050505060405180910390f35b348015610a8557600080fd5b5061023f600160a060020a0360043581169060243516611e65565b348015610aac57600080fd5b506101ec600160a060020a0360043516611e93565b348015610acd57600080fd5b50610203600435611eaf565b600f5481565b600084815260166020526040812060020154859060ff161515600114610b0457600080fd5b60008381526013602052604090206006015460ff161515600114610b2757600080fd5b600160a060020a0384161515610b3c57600080fd5b6000838152601360205260409020600401548614610b5957600080fd5b6000838152601360205260409020600501548514610b7657600080fd5b6000838152601360205260409020600301805460a060020a600160a060020a0319909116600160a060020a0387161774ff00000000000000000000000000000000000000001916179055610bcb3385856110aa565b6040805184815260208101889052600160a060020a0386168183015290517f228808fc7f1cf2105ae7d045c73ecb559cd36038b92afc74b2d6c12adc0598729181900360600190a1600191505b50949350505050565b7bffffffffffffffffffffffffffffffffffffffffffffffffffffffff19811660009081526020819052604090205460ff165b919050565b60105481565b60098054604080516020601f6002600019610100600188161502019095169490940493840181900481028201810190925282815260609390929091830182828015610ceb5780601f10610cc057610100808354040283529160200191610ceb565b820191906000526020600020905b815481529060010190602001808311610cce57829003601f168201915b505050505090505b90565b6000610d0182611ee6565b1515610d0c57600080fd5b50600090815260026020526040902054600160a060020a031690565b6000610d33826112ec565b9050600160a060020a038381169082161415610d4e57600080fd5b33600160a060020a0382161480610d6a5750610d6a8133611e65565b1515610d7557600080fd5b6000828152600260205260408082208054600160a060020a031916600160a060020a0387811691821790925591518593918516917f8c5be1e5ebec7d5bd14f71427d1e84f3dd0314c0f7b2291e5b200ac8c7c3b92591a4505050565b60075490565b60008381526016602052604081206002015481908190869060ff161515600114610e0057600080fd5b6000878152601660205260409020600181015490540392508483106110705760108054860190556011805460019081019091556000888152601660209081526040918290209092018054880190555187518892918201918291908401908083835b60208310610e805780518252601f199092019160209182019101610e61565b6001836020036101000a0380198251168184511680821785525050505050509050019150506040516020818303038152906040526040518082805190602001908083835b60208310610ee35780518252601f199092019160209182019101610ec4565b51815160209384036101000a6000190180199092169116179052604080519290940182900390912060008181526014909252929020600301549195505060ff16159150610f489050576000828152601460205260409020600101805486019055610fbc565b60408051608081018252878152602080820188905260008284018190526001606084015285815260148252929092208151805192939192610f8c928492019061251e565b5060208201516001820155604082015160028201556060909101516003909101805460ff19169115159190911790555b6040805160208082018a9052918101879052606080825288519082015287517fe1e2f04378c01049d9d077035633dcf281eb34649d091dd1d7d1f0c3b4686fa09289928b928a928291608083019187019080838360005b8381101561102b578181015183820152602001611013565b50505050905090810190601f1680156110585780820380516001836020036101000a031916815260200191505b5094505050505060405180910390a160019350611075565b600093505b5050509392505050565b60009081526013602052604090206003015460a060020a900460ff1690565b60115481565b60125481565b6110b43382611f03565b15156110bf57600080fd5b600160a060020a03821615156110d457600080fd5b6110de8382611f62565b6110e88382611fc6565b6110f282826120cd565b8082600160a060020a031684600160a060020a03167fddf252ad1be2c89b69c2b068fc378daa952ba7f163c4a11628f55a4df523b3ef60405160405180910390a4505050565b60006111438361132e565b821061114e57600080fd5b600160a060020a038316600090815260056020526040902080548390811061117257fe5b9060005260206000200154905092915050565b600d5481565b6111a78383836020604051908101604052806000815250611a0c565b505050565b6111b46114d4565b15156111bf57600080fd5b6111c881611e93565b50565b60006111d5610dd1565b82106111e057600080fd5b60078054839081106111ee57fe5b90600052602060002001549050919050565b600084815260166020526040812060020154859060ff16151560011461122557600080fd5b60008381526013602052604090206006015460ff16151560011461124857600080fd5b600160a060020a038416151561125d57600080fd5b600083815260136020526040902060040154861461127a57600080fd5b600083815260136020526040902060050154851461129757600080fd5b6000838152601360205260409020600301805460a060020a600160a060020a0319909116600160a060020a0387161774ff00000000000000000000000000000000000000001916179055610bcb33858561118b565b600081815260016020526040812054600160a060020a031680151561131057600080fd5b92915050565b60009081526013602052604090206006015460ff1690565b6000600160a060020a038216151561134557600080fd5b50600160a060020a031660009081526003602052604090205490565b6113696114d4565b151561137457600080fd5b600c54604051600160a060020a03909116907ff8df31144d9c2f0f6b59d69b8b98abd5459d07f2742c4df920b25aae33c6482090600090a2600c8054600160a060020a0319169055565b60166020526000908152604090208054600182015460029092015490919060ff1683565b6013602090815260009182526040918290208054600180830180548651600293821615610100026000190190911692909204601f81018690048602830186019096528582529194929390929083018282801561147f5780601f106114545761010080835404028352916020019161147f565b820191906000526020600020905b81548152906001019060200180831161146257829003601f168201915b50505060028401546003850154600486015460058701546006909701549596600160a060020a0393841696938316955060ff60a060020a90930483169450909290911688565b600c54600160a060020a031690565b600c54600160a060020a0316331490565b600a8054604080516020601f6002600019610100600188161502019095169490940493840181900481028201810190925282815260609390929091830182828015610ceb5780601f10610cc057610100808354040283529160200191610ceb565b600160a060020a03821633141561155c57600080fd5b336000818152600460209081526040808320600160a060020a03871680855290835292819020805460ff1916861515908117909155815190815290519293927f17307eab39ab6107e8899845ad3d59bd9653f200f220920489ca2b5937696c31929181900390910190a35050565b6000806115d56114d4565b15156115e057600080fd5b846040516020018082805190602001908083835b602083106116135780518252601f1990920191602091820191016115f4565b6001836020036101000a0380198251168184511680821785525050505050509050019150506040516020818303038152906040526040518082805190602001908083835b602083106116765780518252601f199092019160209182019101611657565b51815160209384036101000a60001901801990921691161790526040805192909401829003909120600081815260159092529290206004015491945050600160a060020a03161591506116ca905057600080fd5b601280546001019055600f8054850190556040805160a081018252848152602080820188905281830187905260608201899052336080830152600084815260158252929092208151805192939192611725928492019061251e565b50602082810151805161173e926001850192019061251e565b506040828101516002830155606080840151600384015560809384015160049093018054600160a060020a031916600160a060020a03909416939093179092558051848152602080820189905291810184815287519482019490945286517f965e11cadfce1b707c18dbda4f6b490b4088fb42bf5de6fbbfb27e85548c26d09486948a948a948d9490939284019160a08501919087019080838360005b838110156117f35781810151838201526020016117db565b50505050905090810190601f1680156118205780820380516001836020036101000a031916815260200191505b50838103825284518152845160209182019186019080838360005b8381101561185357818101518382015260200161183b565b50505050905090810190601f1680156118805780820380516001836020036101000a031916815260200191505b50965050505050505060405180910390a150600195945050505050565b6000806118a9836112ec565b9392505050565b60156020908152600091825260409182902080548351601f600260001961010060018616150201909316929092049182018490048402810184019094528084529092918391908301828280156119475780601f1061191c57610100808354040283529160200191611947565b820191906000526020600020905b81548152906001019060200180831161192a57829003601f168201915b505050505090806001018054600181600116156101000203166002900480601f0160208091040260200160405190810160405280929190818152602001828054600181600116156101000203166002900480156119e55780601f106119ba576101008083540402835291602001916119e5565b820191906000526020600020905b8154815290600101906020018083116119c857829003601f168201915b505050506002830154600384015460049094015492939092909150600160a060020a031685565b611a178484846110aa565b611a2384848484612116565b1515611a2e57600080fd5b50505050565b600e5481565b6060611a4582611ee6565b1515611a5057600080fd5b6000828152600b602090815260409182902080548351601f600260001961010060018616150201909316929092049182018490048402810184019094528084529091830182828015611ae35780601f10611ab857610100808354040283529160200191611ae3565b820191906000526020600020905b815481529060010190602001808311611ac657829003601f168201915b50505050509050919050565b600080611afa6114d4565b1515611b0557600080fd5b50600d54600101611b1581611ee6565b15611b1f57600080fd5b60008481526016602052604090206002015460ff161515611b8d57604080516060810182528681526000602080830182815260018486018181528a85526016909352949092209251835590519282019290925590516002909101805460ff1916911515919091179055611ba2565b60008481526016602052604090208054860190555b600e805486019055600d8054600190810191829055604080516101008101825288815260208082018b815233838501819052606084015260006080840181905260a084018b905260c084018a905260e084018690529586526013825292909420815181559151805191949293611c1e939085019291019061251e565b506040820151600282018054600160a060020a0319908116600160a060020a0393841617909155606084015160038401805460808701519316919093161774ff0000000000000000000000000000000000000000191660a060020a9115159190910217905560a0820151600482015560c0820151600582015560e0909101516006909101805460ff1916911515919091179055600d54611cbf903390612293565b611ccb600d54876122e2565b7f17e7bb297cd22dac84bdc610a392a7526cbb33fd11aae071006157a11779dff1600d54858789336040518086815260200185600019166000191681526020018481526020018060200183600160a060020a0316600160a060020a03168152602001828103825284818151815260200191508051906020019080838360005b83811015611d62578181015183820152602001611d4a565b50505050905090810190601f168015611d8f5780820380516001836020036101000a031916815260200191505b50965050505050505060405180910390a15050600d54949350505050565b60146020908152600091825260409182902080548351601f60026000196101006001861615020190931692909204918201849004840281018401909452808452909291839190830182828015611e445780601f10611e1957610100808354040283529160200191611e44565b820191906000526020600020905b815481529060010190602001808311611e2757829003601f168201915b50505050600183015460028401546003909401549293909290915060ff1684565b600160a060020a03918216600090815260046020908152604080832093909416825291909152205460ff1690565b611e9b6114d4565b1515611ea657600080fd5b6111c881612315565b60008181526016602052604081206002015460ff1615611ede5750600081815260166020526040902054610c54565b506000919050565b600090815260016020526040902054600160a060020a0316151590565b600080611f0f836112ec565b905080600160a060020a031684600160a060020a03161480611f4a575083600160a060020a0316611f3f84610cf6565b600160a060020a0316145b80611f5a5750611f5a8185611e65565b949350505050565b81600160a060020a0316611f75826112ec565b600160a060020a031614611f8857600080fd5b600081815260026020526040902054600160a060020a031615611fc25760008181526002602052604090208054600160a060020a03191690555b5050565b6000806000611fd58585612386565b600084815260066020908152604080832054600160a060020a038916845260059092529091205490935061201090600163ffffffff61240f16565b600160a060020a03861660009081526005602052604090208054919350908390811061203857fe5b90600052602060002001549050806005600087600160a060020a0316600160a060020a031681526020019081526020016000208481548110151561207857fe5b6000918252602080832090910192909255600160a060020a03871681526005909152604090208054906120af90600019830161259c565b50600093845260066020526040808520859055908452909220555050565b60006120d98383612426565b50600160a060020a039091166000908152600560209081526040808320805460018101825590845282842081018590559383526006909152902055565b60008061212b85600160a060020a03166124a9565b151561213a5760019150610c18565b6040517f150b7a020000000000000000000000000000000000000000000000000000000081523360048201818152600160a060020a03898116602485015260448401889052608060648501908152875160848601528751918a169463150b7a0294938c938b938b93909160a490910190602085019080838360005b838110156121cd5781810151838201526020016121b5565b50505050905090810190601f1680156121fa5780820380516001836020036101000a031916815260200191505b5095505050505050602060405180830381600087803b15801561221c57600080fd5b505af1158015612230573d6000803e3d6000fd5b505050506040513d602081101561224657600080fd5b50517bffffffffffffffffffffffffffffffffffffffffffffffffffffffff19167f150b7a0200000000000000000000000000000000000000000000000000000000149695505050505050565b61229d82826124b1565b600780546000838152600860205260408120829055600182018355919091527fa66cc928b5edb82af9bd49922954155ab7b0942694bea4ce44661d9a8736c688015550565b6122eb82611ee6565b15156122f657600080fd5b6000828152600b6020908152604090912082516111a79284019061251e565b600160a060020a038116151561232a57600080fd5b600c54604051600160a060020a038084169216907f8be0079c531659141344cd1fd0a4f28419497f9722a3daafe3b4186f6b6457e090600090a3600c8054600160a060020a031916600160a060020a0392909216919091179055565b81600160a060020a0316612399826112ec565b600160a060020a0316146123ac57600080fd5b600160a060020a0382166000908152600360205260409020546123d690600163ffffffff61240f16565b600160a060020a039092166000908152600360209081526040808320949094559181526001909152208054600160a060020a0319169055565b6000808383111561241f57600080fd5b5050900390565b600081815260016020526040902054600160a060020a03161561244857600080fd5b60008181526001602081815260408084208054600160a060020a031916600160a060020a03881690811790915584526003909152909120546124899161250c565b600160a060020a0390921660009081526003602052604090209190915550565b6000903b1190565b600160a060020a03821615156124c657600080fd5b6124d082826120cd565b6040518190600160a060020a038416906000907fddf252ad1be2c89b69c2b068fc378daa952ba7f163c4a11628f55a4df523b3ef908290a45050565b6000828201838110156118a957600080fd5b828054600181600116156101000203166002900490600052602060002090601f016020900481019282601f1061255f57805160ff191683800117855561258c565b8280016001018555821561258c579182015b8281111561258c578251825591602001919060010190612571565b506125989291506125bc565b5090565b8154818355818111156111a7576000838152602090206111a79181019083015b610cf391905b8082111561259857600081556001016125c25600a165627a7a723058203a52aea916d87c9c074bc5c8debb47a41f8b61b24623ec4cea84f09ad94938960029",
  "source": "pragma solidity ^0.4.24;\n\nimport '../openzeppelin-solidity-master/contracts/token/ERC721/ERC721Full.sol';\nimport \"../openzeppelin-solidity-master/contracts/ownership/Ownable.sol\";\n\ncontract LuxOrders is ERC721Full, Ownable {\n\n  //state variables\n\n    //tokenid index\n    uint256 public orderIndex;\n\n    //total raised in sales uint256 USD\n    uint256 public totalRaised;\n\n    //total verifiably donated to charities\n    uint256 public totalDonated;\n\n    //total amount chosen to be donated\n    uint256 public totalChosenDonatedAmount;\n\n    //total number of chosen donations\n    uint256 public totalChosenDonations;\n\n    //total number of made donations\n    uint256 public totalMadeDonations;\n\n    //token mapping\n    mapping (uint256 => OrderToken) public orderTokens;\n\n    //token struct for order -> which represents a sale\n    struct OrderToken {\n      uint256 saleAmount;\n      string tokenURI;\n      address generation;\n      address owner;\n      bool redeemed;\n      bytes32 buyerHash;\n      bytes32 redemptionHash;\n      bool exists; //always true\n    }\n\n    //charities mapping to track the total amount chosen to be donated\n    //to each charity, id is SHA256(full name of charity)\n    mapping (bytes32 => Charity) public charities;\n    struct Charity {\n      string charityName;\n      uint256 amountChosenToDonate;\n      uint256 amountDonated;\n      bool exists; //always true\n    }\n\n    //MadeDonations is a list of donations actually made\n    //id is hash of donation IPFS url\n    mapping (bytes32 => MadeDonation) public madeDonations;\n    struct MadeDonation {\n      string charityName; //name of charity luxarity sent proceeds to\n      string donationProofUrl;\n      uint256 amountDonated; //amount donated via grant to charity\n      bytes32 donationProofHash; //SHA256 hash of proof of donation\n      address donorAddress; //address of owner of contract (luxarity)\n    }\n\n    //buyers mapping with buyer struct bytes32 => buyer\n    mapping (bytes32 => Buyer) public buyers;\n    struct Buyer {\n      uint256 totalContributed; //total amount the buyer has bought in USD\n      uint256 totalDonationsAllocated; //amount of donation capital allocated\n      bool exists; //always true\n    }\n\n\n  //constructor for NFT token, name = Luxarity, symbol = LUX\n    constructor() ERC721Full('Luxarity Order Token', 'LUX0') public {\n      //tokenid index\n      orderIndex = 0;\n      //total capital raised uint256 USD\n      totalRaised = 0;\n      //total donated by luxarity (USD)\n      totalDonated = 0;\n      //total number of chosen donations\n      totalChosenDonations = 0;\n      //total number of made donations\n      totalMadeDonations = 0;\n      //total amount chosen to be donated\n      totalChosenDonatedAmount = 0;\n    }\n\n  //events\n    event SoldAndMintedToken (uint256 _tokenId, bytes32 _buyerID, uint256 _saleAmount, string _tokenURI, address _tokenMinter);\n    //event when donation is chosen (bytes32, amount, charityName, donation id)\n    event DonationChosen (string _charityName, bytes32 _buyerId, uint256 _amountToBeDonated);\n    //event when donation is made by luxarity\n    event DonationMadeToCharity (bytes32 _donationHash, uint256 _amountDonated, string _charityName, string _donationURL);\n    //event when token is redeemed\n    event RedeemedToken (uint256 _tokenId, bytes32 _buyerId, address _buyerAddress);\n\n  //modifiers\n    //check if buyer exists\n    modifier onlyBuyer(bytes32 _buyerId) { require(buyers[_buyerId].exists == true); _; }\n\n  //cuase functions\n\n    //mint function - when Orders are sold in an order - the receipt should be tokenized\n    function soldOrderToMint(string _tokenURI, uint256 _saleAmount, bytes32 _buyerID, bytes32 _redemptionHash) public onlyOwner returns (uint) {\n\n      //1.0 Ensure token doesn't already exists\n      uint256 testIndex = orderIndex + 1;\n      require(_exists(testIndex) == false);\n\n      //2.0 check if buyer already exists\n      if (!buyers[_buyerID].exists) {\n        //adding new buyer to buyers mapping\n        buyers[_buyerID] = Buyer(_saleAmount, 0, true);\n      } else {\n        //update existing buyer\n        buyers[_buyerID].totalContributed += _saleAmount;\n      }\n\n      //increment total donations\n      totalRaised += _saleAmount;\n\n      //increment orderIndex\n      orderIndex += 1;\n\n      //create new sale\n      orderTokens[orderIndex] = OrderToken(_saleAmount, _tokenURI, msg.sender, msg.sender, false, _buyerID, _redemptionHash, true);\n\n      //mint token\n      _mint(msg.sender, orderIndex);\n\n      //set metadata\n      _setTokenURI(orderIndex, _tokenURI);\n\n      //emit event\n      emit SoldAndMintedToken(orderIndex, _buyerID, _saleAmount, _tokenURI, msg.sender);\n\n      //return\n      return orderIndex;\n\n    }\n\n    //chooseDonation function\n    function chooseDonation(bytes32 _buyerID, string _charityName, uint256 _chosenDonateAmount) public onlyBuyer(_buyerID) returns (bool) {\n      //check if amount to donate is less than or equal to the amount left\n      uint256 leftover = buyers[_buyerID].totalContributed - buyers[_buyerID].totalDonationsAllocated;\n      //if it is, proceed\n      if (leftover >= _chosenDonateAmount) {\n        //incement totalChosenDonatedAmount\n        totalChosenDonatedAmount += _chosenDonateAmount;\n        //increment total number of donations chosen to be made\n        totalChosenDonations += 1;\n        //update buyers donation allocation\n        buyers[_buyerID].totalDonationsAllocated += _chosenDonateAmount;\n        //check if charity is new\n        bytes32 charityHash = keccak256(abi.encodePacked(_charityName));\n        //if it is, add to charity mapping\n        if (charities[charityHash].exists) {\n          charities[charityHash].amountChosenToDonate += _chosenDonateAmount;\n        } else {\n          //if not, update charity struct\n          charities[charityHash] = Charity(_charityName, _chosenDonateAmount, 0, true);\n        }\n        //emit event ChosenToDonate\n        emit DonationChosen(_charityName, _buyerID, _chosenDonateAmount);\n        //return true\n        return true;\n      }\n      //if it is not, return false\n      return false;\n    }\n\n    //make donation function\n    function makeDonation(bytes32 _proofHash, string _proofURL, uint256 _madeDonationAmount, string _charityName) public onlyOwner returns (bool) {\n      //donation made proof hash\n      bytes32 donationMadeHash = keccak256(abi.encodePacked(_proofURL));\n      //check if donation doesn't exist yet\n      require(madeDonations[donationMadeHash].donorAddress == address(0));\n      //increment total made donations\n      totalMadeDonations += 1;\n      //total donated sum amount increased\n      totalDonated += _madeDonationAmount;\n      //add to made donations mapping\n      madeDonations[donationMadeHash] = MadeDonation(_charityName, _proofURL, _madeDonationAmount, _proofHash, msg.sender);\n      //emit event\n      emit DonationMadeToCharity(donationMadeHash, _madeDonationAmount, _charityName, _proofURL);\n      //return\n      return true;\n    }\n\n    //redeem token\n    function redeemOrder(bytes32 _buyerID, bytes32 _redemptionHash, address _buyerAddress, uint256 _tokenId) public onlyBuyer(_buyerID) returns (bool) {\n\n      //make sure address is valid\n      require(orderTokens[_tokenId].exists == true);\n      require(_buyerAddress != address(0));\n      require(orderTokens[_tokenId].buyerHash == _buyerID);\n      require(orderTokens[_tokenId].redemptionHash == _redemptionHash);\n\n      orderTokens[_tokenId].owner = _buyerAddress;\n      orderTokens[_tokenId].redeemed = true;\n      //conduct transfer from Luxarity to address\n      transferFrom(msg.sender, _buyerAddress, _tokenId);\n      //emit event\n      emit RedeemedToken(_tokenId, _buyerID, _buyerAddress);\n      return true;\n    }\n\n    //safe redeem token\n    function safeRedeemOrder(bytes32 _buyerID, bytes32 _redemptionHash, address _buyerAddress, uint256 _tokenId) public onlyBuyer(_buyerID) returns (bool) {\n      //make sure address is valid\n      require(orderTokens[_tokenId].exists == true);\n      require(_buyerAddress != address(0));\n      require(orderTokens[_tokenId].buyerHash == _buyerID);\n      require(orderTokens[_tokenId].redemptionHash == _redemptionHash);\n\n      orderTokens[_tokenId].owner = _buyerAddress;\n      orderTokens[_tokenId].redeemed = true;\n      //conduct transfer from Luxarity to address\n      safeTransferFrom(msg.sender, _buyerAddress, _tokenId);\n      //emit event\n      emit RedeemedToken(_tokenId, _buyerID, _buyerAddress);\n      return true;\n    }\n\n  //call functions\n    //get how much a buyer has donated in total\n    function getBuyerAmount(bytes32 _buyerID) public view returns (uint256 total) {\n      if (buyers[_buyerID].exists) {\n        return buyers[_buyerID].totalContributed;\n      }\n      return 0;\n\t\t}\n\n    //get boolean to see if NFT has been redeemed or not\n    function getRedemption(uint _tokenId) public view returns (bool) {\n      return orderTokens[_tokenId].redeemed;\n\t\t}\n    //get boolean to see if NFT has been sold or not\n    function getTokenSold(uint256 _tokenId) public view returns (bool) {\n      return orderTokens[_tokenId].exists;\n    }\n\n    //get token ownerOf\n    function getTokenOwner(uint _tokenId) public view returns (address) {\n      address owner = ownerOf(_tokenId);\n      return owner;\n    }\n\n    //transfer ownership of contract\n    function transferContract(address newOwner) public onlyOwner {\n      transferOwnership(newOwner);\n    }\n\n    //fallback\n\t  function() payable public { }\n}\n",
  "sourcePath": "/Applications/MAMP/htdocs/LuxToken/contracts/LuxOrders.sol",
  "compiler": {
    "name": "solc",
    "version": "0.4.24+commit.e67f0147.Emscripten.clang"
  },
  "schemaVersion": "2.0.1",
  "updatedAt": "2018-10-08T07:32:48.780Z"
}