{
  "contractName": "LuxOrders",
  "abi": [
    {
      "constant": true,
      "inputs": [],
      "name": "totalDonated",
      "outputs": [
        {
          "name": "",
          "type": "uint256"
        }
      ],
      "payable": false,
      "stateMutability": "view",
      "type": "function"
    },
    {
      "constant": true,
      "inputs": [
        {
          "name": "interfaceId",
          "type": "bytes4"
        }
      ],
      "name": "supportsInterface",
      "outputs": [
        {
          "name": "",
          "type": "bool"
        }
      ],
      "payable": false,
      "stateMutability": "view",
      "type": "function"
    },
    {
      "constant": true,
      "inputs": [],
      "name": "totalChosenDonatedAmount",
      "outputs": [
        {
          "name": "",
          "type": "uint256"
        }
      ],
      "payable": false,
      "stateMutability": "view",
      "type": "function"
    },
    {
      "constant": true,
      "inputs": [],
      "name": "name",
      "outputs": [
        {
          "name": "",
          "type": "string"
        }
      ],
      "payable": false,
      "stateMutability": "view",
      "type": "function"
    },
    {
      "constant": true,
      "inputs": [
        {
          "name": "tokenId",
          "type": "uint256"
        }
      ],
      "name": "getApproved",
      "outputs": [
        {
          "name": "",
          "type": "address"
        }
      ],
      "payable": false,
      "stateMutability": "view",
      "type": "function"
    },
    {
      "constant": false,
      "inputs": [
        {
          "name": "to",
          "type": "address"
        },
        {
          "name": "tokenId",
          "type": "uint256"
        }
      ],
      "name": "approve",
      "outputs": [],
      "payable": false,
      "stateMutability": "nonpayable",
      "type": "function"
    },
    {
      "constant": true,
      "inputs": [],
      "name": "totalSupply",
      "outputs": [
        {
          "name": "",
          "type": "uint256"
        }
      ],
      "payable": false,
      "stateMutability": "view",
      "type": "function"
    },
    {
      "constant": true,
      "inputs": [],
      "name": "totalChosenDonations",
      "outputs": [
        {
          "name": "",
          "type": "uint256"
        }
      ],
      "payable": false,
      "stateMutability": "view",
      "type": "function"
    },
    {
      "constant": true,
      "inputs": [],
      "name": "totalMadeDonations",
      "outputs": [
        {
          "name": "",
          "type": "uint256"
        }
      ],
      "payable": false,
      "stateMutability": "view",
      "type": "function"
    },
    {
      "constant": false,
      "inputs": [
        {
          "name": "from",
          "type": "address"
        },
        {
          "name": "to",
          "type": "address"
        },
        {
          "name": "tokenId",
          "type": "uint256"
        }
      ],
      "name": "transferFrom",
      "outputs": [],
      "payable": false,
      "stateMutability": "nonpayable",
      "type": "function"
    },
    {
      "constant": true,
      "inputs": [
        {
          "name": "owner",
          "type": "address"
        },
        {
          "name": "index",
          "type": "uint256"
        }
      ],
      "name": "tokenOfOwnerByIndex",
      "outputs": [
        {
          "name": "",
          "type": "uint256"
        }
      ],
      "payable": false,
      "stateMutability": "view",
      "type": "function"
    },
    {
      "constant": true,
      "inputs": [],
      "name": "orderIndex",
      "outputs": [
        {
          "name": "",
          "type": "uint256"
        }
      ],
      "payable": false,
      "stateMutability": "view",
      "type": "function"
    },
    {
      "constant": false,
      "inputs": [
        {
          "name": "from",
          "type": "address"
        },
        {
          "name": "to",
          "type": "address"
        },
        {
          "name": "tokenId",
          "type": "uint256"
        }
      ],
      "name": "safeTransferFrom",
      "outputs": [],
      "payable": false,
      "stateMutability": "nonpayable",
      "type": "function"
    },
    {
      "constant": true,
      "inputs": [
        {
          "name": "index",
          "type": "uint256"
        }
      ],
      "name": "tokenByIndex",
      "outputs": [
        {
          "name": "",
          "type": "uint256"
        }
      ],
      "payable": false,
      "stateMutability": "view",
      "type": "function"
    },
    {
      "constant": true,
      "inputs": [
        {
          "name": "tokenId",
          "type": "uint256"
        }
      ],
      "name": "ownerOf",
      "outputs": [
        {
          "name": "",
          "type": "address"
        }
      ],
      "payable": false,
      "stateMutability": "view",
      "type": "function"
    },
    {
      "constant": true,
      "inputs": [
        {
          "name": "owner",
          "type": "address"
        }
      ],
      "name": "balanceOf",
      "outputs": [
        {
          "name": "",
          "type": "uint256"
        }
      ],
      "payable": false,
      "stateMutability": "view",
      "type": "function"
    },
    {
      "constant": false,
      "inputs": [],
      "name": "renounceOwnership",
      "outputs": [],
      "payable": false,
      "stateMutability": "nonpayable",
      "type": "function"
    },
    {
      "constant": true,
      "inputs": [
        {
          "name": "",
          "type": "bytes32"
        }
      ],
      "name": "buyers",
      "outputs": [
        {
          "name": "totalContributed",
          "type": "uint256"
        },
        {
          "name": "totalDonationsAllocated",
          "type": "uint256"
        },
        {
          "name": "exists",
          "type": "bool"
        }
      ],
      "payable": false,
      "stateMutability": "view",
      "type": "function"
    },
    {
      "constant": true,
      "inputs": [
        {
          "name": "",
          "type": "uint256"
        }
      ],
      "name": "orderTokens",
      "outputs": [
        {
          "name": "saleAmount",
          "type": "uint256"
        },
        {
          "name": "tokenURI",
          "type": "string"
        },
        {
          "name": "generation",
          "type": "address"
        },
        {
          "name": "owner",
          "type": "address"
        },
        {
          "name": "redeemed",
          "type": "bool"
        },
        {
          "name": "buyerHash",
          "type": "bytes32"
        },
        {
          "name": "redemptionHash",
          "type": "bytes32"
        },
        {
          "name": "exists",
          "type": "bool"
        }
      ],
      "payable": false,
      "stateMutability": "view",
      "type": "function"
    },
    {
      "constant": true,
      "inputs": [],
      "name": "owner",
      "outputs": [
        {
          "name": "",
          "type": "address"
        }
      ],
      "payable": false,
      "stateMutability": "view",
      "type": "function"
    },
    {
      "constant": true,
      "inputs": [],
      "name": "isOwner",
      "outputs": [
        {
          "name": "",
          "type": "bool"
        }
      ],
      "payable": false,
      "stateMutability": "view",
      "type": "function"
    },
    {
      "constant": true,
      "inputs": [],
      "name": "symbol",
      "outputs": [
        {
          "name": "",
          "type": "string"
        }
      ],
      "payable": false,
      "stateMutability": "view",
      "type": "function"
    },
    {
      "constant": false,
      "inputs": [
        {
          "name": "to",
          "type": "address"
        },
        {
          "name": "approved",
          "type": "bool"
        }
      ],
      "name": "setApprovalForAll",
      "outputs": [],
      "payable": false,
      "stateMutability": "nonpayable",
      "type": "function"
    },
    {
      "constant": true,
      "inputs": [
        {
          "name": "",
          "type": "bytes32"
        }
      ],
      "name": "madeDonations",
      "outputs": [
        {
          "name": "charityName",
          "type": "string"
        },
        {
          "name": "donationProofUrl",
          "type": "string"
        },
        {
          "name": "amountDonated",
          "type": "uint256"
        },
        {
          "name": "donationProofHash",
          "type": "bytes32"
        },
        {
          "name": "donorAddress",
          "type": "address"
        }
      ],
      "payable": false,
      "stateMutability": "view",
      "type": "function"
    },
    {
      "constant": false,
      "inputs": [
        {
          "name": "from",
          "type": "address"
        },
        {
          "name": "to",
          "type": "address"
        },
        {
          "name": "tokenId",
          "type": "uint256"
        },
        {
          "name": "_data",
          "type": "bytes"
        }
      ],
      "name": "safeTransferFrom",
      "outputs": [],
      "payable": false,
      "stateMutability": "nonpayable",
      "type": "function"
    },
    {
      "constant": true,
      "inputs": [],
      "name": "totalRaised",
      "outputs": [
        {
          "name": "",
          "type": "uint256"
        }
      ],
      "payable": false,
      "stateMutability": "view",
      "type": "function"
    },
    {
      "constant": true,
      "inputs": [
        {
          "name": "tokenId",
          "type": "uint256"
        }
      ],
      "name": "tokenURI",
      "outputs": [
        {
          "name": "",
          "type": "string"
        }
      ],
      "payable": false,
      "stateMutability": "view",
      "type": "function"
    },
    {
      "constant": true,
      "inputs": [
        {
          "name": "",
          "type": "bytes32"
        }
      ],
      "name": "charities",
      "outputs": [
        {
          "name": "charityName",
          "type": "string"
        },
        {
          "name": "amountChosenToDonate",
          "type": "uint256"
        },
        {
          "name": "amountDonated",
          "type": "uint256"
        },
        {
          "name": "exists",
          "type": "bool"
        }
      ],
      "payable": false,
      "stateMutability": "view",
      "type": "function"
    },
    {
      "constant": true,
      "inputs": [
        {
          "name": "owner",
          "type": "address"
        },
        {
          "name": "operator",
          "type": "address"
        }
      ],
      "name": "isApprovedForAll",
      "outputs": [
        {
          "name": "",
          "type": "bool"
        }
      ],
      "payable": false,
      "stateMutability": "view",
      "type": "function"
    },
    {
      "constant": false,
      "inputs": [
        {
          "name": "newOwner",
          "type": "address"
        }
      ],
      "name": "transferOwnership",
      "outputs": [],
      "payable": false,
      "stateMutability": "nonpayable",
      "type": "function"
    },
    {
      "inputs": [],
      "payable": false,
      "stateMutability": "nonpayable",
      "type": "constructor"
    },
    {
      "payable": true,
      "stateMutability": "payable",
      "type": "fallback"
    },
    {
      "anonymous": false,
      "inputs": [
        {
          "indexed": false,
          "name": "_tokenId",
          "type": "uint256"
        },
        {
          "indexed": false,
          "name": "_buyerID",
          "type": "bytes32"
        },
        {
          "indexed": false,
          "name": "_saleAmount",
          "type": "uint256"
        },
        {
          "indexed": false,
          "name": "_tokenURI",
          "type": "string"
        },
        {
          "indexed": false,
          "name": "_tokenMinter",
          "type": "address"
        }
      ],
      "name": "SoldAndMintedToken",
      "type": "event"
    },
    {
      "anonymous": false,
      "inputs": [
        {
          "indexed": false,
          "name": "_charityName",
          "type": "string"
        },
        {
          "indexed": false,
          "name": "_buyerId",
          "type": "bytes32"
        },
        {
          "indexed": false,
          "name": "_amountToBeDonated",
          "type": "uint256"
        }
      ],
      "name": "DonationChosen",
      "type": "event"
    },
    {
      "anonymous": false,
      "inputs": [
        {
          "indexed": false,
          "name": "_donationHash",
          "type": "bytes32"
        },
        {
          "indexed": false,
          "name": "_amountDonated",
          "type": "uint256"
        },
        {
          "indexed": false,
          "name": "_charityName",
          "type": "string"
        },
        {
          "indexed": false,
          "name": "_donationURL",
          "type": "string"
        }
      ],
      "name": "DonationMadeToCharity",
      "type": "event"
    },
    {
      "anonymous": false,
      "inputs": [
        {
          "indexed": false,
          "name": "_tokenId",
          "type": "uint256"
        },
        {
          "indexed": false,
          "name": "_buyerId",
          "type": "bytes32"
        },
        {
          "indexed": false,
          "name": "_buyerAddress",
          "type": "address"
        }
      ],
      "name": "RedeemedToken",
      "type": "event"
    },
    {
      "anonymous": false,
      "inputs": [
        {
          "indexed": true,
          "name": "previousOwner",
          "type": "address"
        }
      ],
      "name": "OwnershipRenounced",
      "type": "event"
    },
    {
      "anonymous": false,
      "inputs": [
        {
          "indexed": true,
          "name": "previousOwner",
          "type": "address"
        },
        {
          "indexed": true,
          "name": "newOwner",
          "type": "address"
        }
      ],
      "name": "OwnershipTransferred",
      "type": "event"
    },
    {
      "anonymous": false,
      "inputs": [
        {
          "indexed": true,
          "name": "from",
          "type": "address"
        },
        {
          "indexed": true,
          "name": "to",
          "type": "address"
        },
        {
          "indexed": true,
          "name": "tokenId",
          "type": "uint256"
        }
      ],
      "name": "Transfer",
      "type": "event"
    },
    {
      "anonymous": false,
      "inputs": [
        {
          "indexed": true,
          "name": "owner",
          "type": "address"
        },
        {
          "indexed": true,
          "name": "approved",
          "type": "address"
        },
        {
          "indexed": true,
          "name": "tokenId",
          "type": "uint256"
        }
      ],
      "name": "Approval",
      "type": "event"
    },
    {
      "anonymous": false,
      "inputs": [
        {
          "indexed": true,
          "name": "owner",
          "type": "address"
        },
        {
          "indexed": true,
          "name": "operator",
          "type": "address"
        },
        {
          "indexed": false,
          "name": "approved",
          "type": "bool"
        }
      ],
      "name": "ApprovalForAll",
      "type": "event"
    },
    {
      "constant": false,
      "inputs": [
        {
          "name": "_tokenURI",
          "type": "string"
        },
        {
          "name": "_saleAmount",
          "type": "uint256"
        },
        {
          "name": "_buyerID",
          "type": "bytes32"
        },
        {
          "name": "_redemptionHash",
          "type": "bytes32"
        }
      ],
      "name": "soldOrderToMint",
      "outputs": [
        {
          "name": "",
          "type": "uint256"
        }
      ],
      "payable": false,
      "stateMutability": "nonpayable",
      "type": "function"
    },
    {
      "constant": false,
      "inputs": [
        {
          "name": "_buyerID",
          "type": "bytes32"
        },
        {
          "name": "_charityName",
          "type": "string"
        },
        {
          "name": "_chosenDonateAmount",
          "type": "uint256"
        }
      ],
      "name": "chooseDonation",
      "outputs": [
        {
          "name": "",
          "type": "bool"
        }
      ],
      "payable": false,
      "stateMutability": "nonpayable",
      "type": "function"
    },
    {
      "constant": false,
      "inputs": [
        {
          "name": "_proofHash",
          "type": "bytes32"
        },
        {
          "name": "_proofURL",
          "type": "string"
        },
        {
          "name": "_madeDonationAmount",
          "type": "uint256"
        },
        {
          "name": "_charityName",
          "type": "string"
        }
      ],
      "name": "makeDonation",
      "outputs": [
        {
          "name": "",
          "type": "bool"
        }
      ],
      "payable": false,
      "stateMutability": "nonpayable",
      "type": "function"
    },
    {
      "constant": false,
      "inputs": [
        {
          "name": "_buyerID",
          "type": "bytes32"
        },
        {
          "name": "_redemptionHash",
          "type": "bytes32"
        },
        {
          "name": "_buyerAddress",
          "type": "address"
        },
        {
          "name": "_tokenId",
          "type": "uint256"
        }
      ],
      "name": "redeemOrder",
      "outputs": [
        {
          "name": "",
          "type": "bool"
        }
      ],
      "payable": false,
      "stateMutability": "nonpayable",
      "type": "function"
    },
    {
      "constant": false,
      "inputs": [
        {
          "name": "_buyerID",
          "type": "bytes32"
        },
        {
          "name": "_redemptionHash",
          "type": "bytes32"
        },
        {
          "name": "_buyerAddress",
          "type": "address"
        },
        {
          "name": "_tokenId",
          "type": "uint256"
        }
      ],
      "name": "safeRedeemOrder",
      "outputs": [
        {
          "name": "",
          "type": "bool"
        }
      ],
      "payable": false,
      "stateMutability": "nonpayable",
      "type": "function"
    },
    {
      "constant": true,
      "inputs": [
        {
          "name": "_buyerID",
          "type": "bytes32"
        }
      ],
      "name": "getBuyerAmount",
      "outputs": [
        {
          "name": "total",
          "type": "uint256"
        }
      ],
      "payable": false,
      "stateMutability": "view",
      "type": "function"
    },
    {
      "constant": true,
      "inputs": [
        {
          "name": "_tokenId",
          "type": "uint256"
        }
      ],
      "name": "getRedemption",
      "outputs": [
        {
          "name": "",
          "type": "bool"
        }
      ],
      "payable": false,
      "stateMutability": "view",
      "type": "function"
    },
    {
      "constant": true,
      "inputs": [
        {
          "name": "_tokenId",
          "type": "uint256"
        }
      ],
      "name": "getTokenOwner",
      "outputs": [
        {
          "name": "",
          "type": "address"
        }
      ],
      "payable": false,
      "stateMutability": "view",
      "type": "function"
    },
    {
      "constant": false,
      "inputs": [
        {
          "name": "newOwner",
          "type": "address"
        }
      ],
      "name": "transferContract",
      "outputs": [],
      "payable": false,
      "stateMutability": "nonpayable",
      "type": "function"
    }
  ],
  "bytecode": "0x60806040523480156200001157600080fd5b50604080518082018252601481527f4c75786172697479204f7264657220546f6b656e0000000000000000000000006020808301919091528251808401909352600483527f4c5558300000000000000000000000000000000000000000000000000000000090830152908181620000b17f01ffc9a700000000000000000000000000000000000000000000000000000000640100000000620001b3810204565b620000e57f80ac58cd00000000000000000000000000000000000000000000000000000000640100000000620001b3810204565b620001197f780e9d6300000000000000000000000000000000000000000000000000000000640100000000620001b3810204565b81516200012e90600990602085019062000220565b5080516200014490600a90602084019062000220565b50620001797f5b5e139f00000000000000000000000000000000000000000000000000000000640100000000620001b3810204565b5050600c8054600160a060020a0319163317905550506000600d819055600e819055600f81905560118190556012819055601055620002c5565b7fffffffff000000000000000000000000000000000000000000000000000000008082161415620001e357600080fd5b7fffffffff00000000000000000000000000000000000000000000000000000000166000908152602081905260409020805460ff19166001179055565b828054600181600116156101000203166002900490600052602060002090601f016020900481019282601f106200026357805160ff191683800117855562000293565b8280016001018555821562000293579182015b828111156200029357825182559160200191906001019062000276565b50620002a1929150620002a5565b5090565b620002c291905b80821115620002a15760008155600101620002ac565b90565b6125e080620002d56000396000f3006080604052600436106101e15763ffffffff7c0100000000000000000000000000000000000000000000000000000000600035041662b3704481146101e357806301f785f91461020a57806301ffc9a71461024857806303d52de51461027f57806306fdde0314610294578063081812fc1461031e578063095ea7b31461035257806318160ddd14610376578063190c087d1461038b5780631953cc21146103eb5780631a168b58146104035780631f0bf9411461041857806323b872dd1461042d5780632f745c591461045757806330471fee1461047b57806342842e0e1461049057806347635dac146104ba5780634f6ccce7146104db57806350d5b41c146104f35780636352211e1461051d57806370a0823114610535578063715018a6146105565780637ecbaf801461056b578063882a8f5c146105a35780638da5cb5b146106795780638f32d59b1461068e57806395d89b41146106a3578063a22cb465146106b8578063a43e4acc146106de578063a5cd761f14610780578063b295806214610798578063b88d4fde146108ab578063c5c4744c1461091a578063c87b56dd1461092f578063cfae865214610947578063e139d8c6146109ad578063e985e9c514610a56578063f2fde38b14610a7d578063f68ac9ef14610a9e575b005b3480156101ef57600080fd5b506101f8610ab6565b60408051918252519081900360200190f35b34801561021657600080fd5b50610234600435602435600160a060020a0360443516606435610abc565b604080519115158252519081900360200190f35b34801561025457600080fd5b506102347bffffffffffffffffffffffffffffffffffffffffffffffffffffffff1960043516610bfe565b34801561028b57600080fd5b506101f8610c36565b3480156102a057600080fd5b506102a9610c3c565b6040805160208082528351818301528351919283929083019185019080838360005b838110156102e35781810151838201526020016102cb565b50505050905090810190601f1680156103105780820380516001836020036101000a031916815260200191505b509250505060405180910390f35b34801561032a57600080fd5b50610336600435610cd3565b60408051600160a060020a039092168252519081900360200190f35b34801561035e57600080fd5b506101e1600160a060020a0360043516602435610d05565b34801561038257600080fd5b506101f8610dae565b34801561039757600080fd5b5060408051602060046024803582810135601f81018590048502860185019096528585526102349583359536956044949193909101919081908401838280828437509497505093359450610db49350505050565b3480156103f757600080fd5b5061023460043561105c565b34801561040f57600080fd5b506101f861107b565b34801561042457600080fd5b506101f8611081565b34801561043957600080fd5b506101e1600160a060020a0360043581169060243516604435611087565b34801561046357600080fd5b506101f8600160a060020a0360043516602435611115565b34801561048757600080fd5b506101f8611162565b34801561049c57600080fd5b506101e1600160a060020a0360043581169060243516604435611168565b3480156104c657600080fd5b506101e1600160a060020a0360043516611189565b3480156104e757600080fd5b506101f86004356111a8565b3480156104ff57600080fd5b50610234600435602435600160a060020a03604435166064356111dd565b34801561052957600080fd5b506103366004356112c9565b34801561054157600080fd5b506101f8600160a060020a03600435166112f3565b34801561056257600080fd5b506101e1611326565b34801561057757600080fd5b50610583600435611383565b604080519384526020840192909252151582820152519081900360600190f35b3480156105af57600080fd5b506105bb6004356113a7565b60408051898152600160a060020a03808916928201929092529086166060820152841515608082015260a0810184905260c0810183905281151560e082015261010060208083018281528a519284019290925289516101208401918b019080838360005b8381101561063757818101518382015260200161061f565b50505050905090810190601f1680156106645780820380516001836020036101000a031916815260200191505b50995050505050505050505060405180910390f35b34801561068557600080fd5b5061033661148a565b34801561069a57600080fd5b50610234611499565b3480156106af57600080fd5b506102a96114aa565b3480156106c457600080fd5b506101e1600160a060020a0360043516602435151561150b565b3480156106ea57600080fd5b5060408051602060046024803582810135601f810185900485028601850190965285855261023495833595369560449491939091019190819084018382808284375050604080516020601f818a01358b0180359182018390048302840183018552818452989b8a359b909a90999401975091955091820193509150819084018382808284375094975061158f9650505050505050565b34801561078c57600080fd5b5061033660043561187b565b3480156107a457600080fd5b506107b060043561188e565b6040805190810184905260608101839052600160a060020a038216608082015260a08082528651908201528551819060208083019160c08401918a019080838360005b8381101561080b5781810151838201526020016107f3565b50505050905090810190601f1680156108385780820380516001836020036101000a031916815260200191505b50838103825287518152875160209182019189019080838360005b8381101561086b578181015183820152602001610853565b50505050905090810190601f1680156108985780820380516001836020036101000a031916815260200191505b5097505050505050505060405180910390f35b3480156108b757600080fd5b50604080516020601f6064356004818101359283018490048402850184019095528184526101e194600160a060020a0381358116956024803590921695604435953695608494019181908401838280828437509497506119ea9650505050505050565b34801561092657600080fd5b506101f8611a12565b34801561093b57600080fd5b506102a9600435611a18565b34801561095357600080fd5b506040805160206004803580820135601f81018490048402850184019095528484526101f894369492936024939284019190819084018382808284375094975050843595505050602083013592604001359150611acd9050565b3480156109b957600080fd5b506109c5600435611d8b565b604051808060200185815260200184815260200183151515158152602001828103825286818151815260200191508051906020019080838360005b83811015610a18578181015183820152602001610a00565b50505050905090810190601f168015610a455780820380516001836020036101000a031916815260200191505b509550505050505060405180910390f35b348015610a6257600080fd5b50610234600160a060020a0360043581169060243516611e43565b348015610a8957600080fd5b506101e1600160a060020a0360043516611e71565b348015610aaa57600080fd5b506101f8600435611e8d565b600f5481565b600084815260166020526040812060020154859060ff161515600114610ae157600080fd5b60008381526013602052604090206006015460ff161515600114610b0457600080fd5b600160a060020a0384161515610b1957600080fd5b6000838152601360205260409020600401548614610b3657600080fd5b6000838152601360205260409020600501548514610b5357600080fd5b6000838152601360205260409020600301805460a060020a600160a060020a0319909116600160a060020a0387161774ff00000000000000000000000000000000000000001916179055610ba8338585611087565b6040805184815260208101889052600160a060020a0386168183015290517f228808fc7f1cf2105ae7d045c73ecb559cd36038b92afc74b2d6c12adc0598729181900360600190a1600191505b50949350505050565b7bffffffffffffffffffffffffffffffffffffffffffffffffffffffff19811660009081526020819052604090205460ff165b919050565b60105481565b60098054604080516020601f6002600019610100600188161502019095169490940493840181900481028201810190925282815260609390929091830182828015610cc85780601f10610c9d57610100808354040283529160200191610cc8565b820191906000526020600020905b815481529060010190602001808311610cab57829003601f168201915b505050505090505b90565b6000610cde82611ec4565b1515610ce957600080fd5b50600090815260026020526040902054600160a060020a031690565b6000610d10826112c9565b9050600160a060020a038381169082161415610d2b57600080fd5b33600160a060020a0382161480610d475750610d478133611e43565b1515610d5257600080fd5b6000828152600260205260408082208054600160a060020a031916600160a060020a0387811691821790925591518593918516917f8c5be1e5ebec7d5bd14f71427d1e84f3dd0314c0f7b2291e5b200ac8c7c3b92591a4505050565b60075490565b60008381526016602052604081206002015481908190869060ff161515600114610ddd57600080fd5b60008781526016602052604090206001810154905403925084831061104d5760108054860190556011805460019081019091556000888152601660209081526040918290209092018054880190555187518892918201918291908401908083835b60208310610e5d5780518252601f199092019160209182019101610e3e565b6001836020036101000a0380198251168184511680821785525050505050509050019150506040516020818303038152906040526040518082805190602001908083835b60208310610ec05780518252601f199092019160209182019101610ea1565b51815160209384036101000a6000190180199092169116179052604080519290940182900390912060008181526014909252929020600301549195505060ff16159150610f259050576000828152601460205260409020600101805486019055610f99565b60408051608081018252878152602080820188905260008284018190526001606084015285815260148252929092208151805192939192610f6992849201906124fc565b5060208201516001820155604082015160028201556060909101516003909101805460ff19169115159190911790555b6040805160208082018a9052918101879052606080825288519082015287517fe1e2f04378c01049d9d077035633dcf281eb34649d091dd1d7d1f0c3b4686fa09289928b928a928291608083019187019080838360005b83811015611008578181015183820152602001610ff0565b50505050905090810190601f1680156110355780820380516001836020036101000a031916815260200191505b5094505050505060405180910390a160019350611052565b600093505b5050509392505050565b60009081526013602052604090206003015460a060020a900460ff1690565b60115481565b60125481565b6110913382611ee1565b151561109c57600080fd5b600160a060020a03821615156110b157600080fd5b6110bb8382611f40565b6110c58382611fa4565b6110cf82826120ab565b8082600160a060020a031684600160a060020a03167fddf252ad1be2c89b69c2b068fc378daa952ba7f163c4a11628f55a4df523b3ef60405160405180910390a4505050565b6000611120836112f3565b821061112b57600080fd5b600160a060020a038316600090815260056020526040902080548390811061114f57fe5b9060005260206000200154905092915050565b600d5481565b61118483838360206040519081016040528060008152506119ea565b505050565b611191611499565b151561119c57600080fd5b6111a581611e71565b50565b60006111b2610dae565b82106111bd57600080fd5b60078054839081106111cb57fe5b90600052602060002001549050919050565b600084815260166020526040812060020154859060ff16151560011461120257600080fd5b60008381526013602052604090206006015460ff16151560011461122557600080fd5b600160a060020a038416151561123a57600080fd5b600083815260136020526040902060040154861461125757600080fd5b600083815260136020526040902060050154851461127457600080fd5b6000838152601360205260409020600301805460a060020a600160a060020a0319909116600160a060020a0387161774ff00000000000000000000000000000000000000001916179055610ba8338585611168565b600081815260016020526040812054600160a060020a03168015156112ed57600080fd5b92915050565b6000600160a060020a038216151561130a57600080fd5b50600160a060020a031660009081526003602052604090205490565b61132e611499565b151561133957600080fd5b600c54604051600160a060020a03909116907ff8df31144d9c2f0f6b59d69b8b98abd5459d07f2742c4df920b25aae33c6482090600090a2600c8054600160a060020a0319169055565b60166020526000908152604090208054600182015460029092015490919060ff1683565b6013602090815260009182526040918290208054600180830180548651600293821615610100026000190190911692909204601f8101869004860283018601909652858252919492939092908301828280156114445780601f1061141957610100808354040283529160200191611444565b820191906000526020600020905b81548152906001019060200180831161142757829003601f168201915b50505060028401546003850154600486015460058701546006909701549596600160a060020a0393841696938316955060ff60a060020a90930483169450909290911688565b600c54600160a060020a031690565b600c54600160a060020a0316331490565b600a8054604080516020601f6002600019610100600188161502019095169490940493840181900481028201810190925282815260609390929091830182828015610cc85780601f10610c9d57610100808354040283529160200191610cc8565b600160a060020a03821633141561152157600080fd5b336000818152600460209081526040808320600160a060020a03871680855290835292819020805460ff1916861515908117909155815190815290519293927f17307eab39ab6107e8899845ad3d59bd9653f200f220920489ca2b5937696c31929181900390910190a35050565b600080600061159c611499565b15156115a757600080fd5b600f54600e54039150848210156115bd57600080fd5b856040516020018082805190602001908083835b602083106115f05780518252601f1990920191602091820191016115d1565b6001836020036101000a0380198251168184511680821785525050505050509050019150506040516020818303038152906040526040518082805190602001908083835b602083106116535780518252601f199092019160209182019101611634565b51815160209384036101000a60001901801990921691161790526040805192909401829003909120600081815260159092529290206004015491945050600160a060020a03161591506116a7905057600080fd5b601280546001019055600f8054860190556040805160a0810182528581526020808201899052818301889052606082018a905233608083015260008481526015825292909220815180519293919261170292849201906124fc565b50602082810151805161171b92600185019201906124fc565b506040828101516002830155606080840151600384015560809384015160049093018054600160a060020a031916600160a060020a0390941693909317909255805184815260208082018a905291810184815288519482019490945287517f965e11cadfce1b707c18dbda4f6b490b4088fb42bf5de6fbbfb27e85548c26d09486948b948b948e9490939284019160a08501919087019080838360005b838110156117d05781810151838201526020016117b8565b50505050905090810190601f1680156117fd5780820380516001836020036101000a031916815260200191505b50838103825284518152845160209182019186019080838360005b83811015611830578181015183820152602001611818565b50505050905090810190601f16801561185d5780820380516001836020036101000a031916815260200191505b50965050505050505060405180910390a15060019695505050505050565b600080611887836112c9565b9392505050565b60156020908152600091825260409182902080548351601f600260001961010060018616150201909316929092049182018490048402810184019094528084529092918391908301828280156119255780601f106118fa57610100808354040283529160200191611925565b820191906000526020600020905b81548152906001019060200180831161190857829003601f168201915b505050505090806001018054600181600116156101000203166002900480601f0160208091040260200160405190810160405280929190818152602001828054600181600116156101000203166002900480156119c35780601f10611998576101008083540402835291602001916119c3565b820191906000526020600020905b8154815290600101906020018083116119a657829003601f168201915b505050506002830154600384015460049094015492939092909150600160a060020a031685565b6119f5848484611087565b611a01848484846120f4565b1515611a0c57600080fd5b50505050565b600e5481565b6060611a2382611ec4565b1515611a2e57600080fd5b6000828152600b602090815260409182902080548351601f600260001961010060018616150201909316929092049182018490048402810184019094528084529091830182828015611ac15780601f10611a9657610100808354040283529160200191611ac1565b820191906000526020600020905b815481529060010190602001808311611aa457829003601f168201915b50505050509050919050565b600080611ad8611499565b1515611ae357600080fd5b50600d54600101611af381611ec4565b15611afd57600080fd5b60008481526016602052604090206002015460ff161515611b6b57604080516060810182528681526000602080830182815260018486018181528a85526016909352949092209251835590519282019290925590516002909101805460ff1916911515919091179055611b80565b60008481526016602052604090208054860190555b600e805486019055600d8054600190810191829055604080516101008101825288815260208082018b815233838501819052606084015260006080840181905260a084018b905260c084018a905260e084018690529586526013825292909420815181559151805191949293611bfc93908501929101906124fc565b506040820151600282018054600160a060020a0319908116600160a060020a0393841617909155606084015160038401805460808701519316919093161774ff0000000000000000000000000000000000000000191660a060020a9115159190910217905560a0820151600482015560c0820151600582015560e0909101516006909101805460ff1916911515919091179055600d54611c9d903390612271565b611ca9600d54876122c0565b7f17e7bb297cd22dac84bdc610a392a7526cbb33fd11aae071006157a11779dff1600d54858789336040518086815260200185600019166000191681526020018481526020018060200183600160a060020a0316600160a060020a03168152602001828103825284818151815260200191508051906020019080838360005b83811015611d40578181015183820152602001611d28565b50505050905090810190601f168015611d6d5780820380516001836020036101000a031916815260200191505b50965050505050505060405180910390a15050600d54949350505050565b60146020908152600091825260409182902080548351601f60026000196101006001861615020190931692909204918201849004840281018401909452808452909291839190830182828015611e225780601f10611df757610100808354040283529160200191611e22565b820191906000526020600020905b815481529060010190602001808311611e0557829003601f168201915b50505050600183015460028401546003909401549293909290915060ff1684565b600160a060020a03918216600090815260046020908152604080832093909416825291909152205460ff1690565b611e79611499565b1515611e8457600080fd5b6111a5816122f3565b60008181526016602052604081206002015460ff1615611ebc5750600081815260166020526040902054610c31565b506000919050565b600090815260016020526040902054600160a060020a0316151590565b600080611eed836112c9565b905080600160a060020a031684600160a060020a03161480611f28575083600160a060020a0316611f1d84610cd3565b600160a060020a0316145b80611f385750611f388185611e43565b949350505050565b81600160a060020a0316611f53826112c9565b600160a060020a031614611f6657600080fd5b600081815260026020526040902054600160a060020a031615611fa05760008181526002602052604090208054600160a060020a03191690555b5050565b6000806000611fb38585612364565b600084815260066020908152604080832054600160a060020a0389168452600590925290912054909350611fee90600163ffffffff6123ed16565b600160a060020a03861660009081526005602052604090208054919350908390811061201657fe5b90600052602060002001549050806005600087600160a060020a0316600160a060020a031681526020019081526020016000208481548110151561205657fe5b6000918252602080832090910192909255600160a060020a038716815260059091526040902080549061208d90600019830161257a565b50600093845260066020526040808520859055908452909220555050565b60006120b78383612404565b50600160a060020a039091166000908152600560209081526040808320805460018101825590845282842081018590559383526006909152902055565b60008061210985600160a060020a0316612487565b15156121185760019150610bf5565b6040517f150b7a020000000000000000000000000000000000000000000000000000000081523360048201818152600160a060020a03898116602485015260448401889052608060648501908152875160848601528751918a169463150b7a0294938c938b938b93909160a490910190602085019080838360005b838110156121ab578181015183820152602001612193565b50505050905090810190601f1680156121d85780820380516001836020036101000a031916815260200191505b5095505050505050602060405180830381600087803b1580156121fa57600080fd5b505af115801561220e573d6000803e3d6000fd5b505050506040513d602081101561222457600080fd5b50517bffffffffffffffffffffffffffffffffffffffffffffffffffffffff19167f150b7a0200000000000000000000000000000000000000000000000000000000149695505050505050565b61227b828261248f565b600780546000838152600860205260408120829055600182018355919091527fa66cc928b5edb82af9bd49922954155ab7b0942694bea4ce44661d9a8736c688015550565b6122c982611ec4565b15156122d457600080fd5b6000828152600b602090815260409091208251611184928401906124fc565b600160a060020a038116151561230857600080fd5b600c54604051600160a060020a038084169216907f8be0079c531659141344cd1fd0a4f28419497f9722a3daafe3b4186f6b6457e090600090a3600c8054600160a060020a031916600160a060020a0392909216919091179055565b81600160a060020a0316612377826112c9565b600160a060020a03161461238a57600080fd5b600160a060020a0382166000908152600360205260409020546123b490600163ffffffff6123ed16565b600160a060020a039092166000908152600360209081526040808320949094559181526001909152208054600160a060020a0319169055565b600080838311156123fd57600080fd5b5050900390565b600081815260016020526040902054600160a060020a03161561242657600080fd5b60008181526001602081815260408084208054600160a060020a031916600160a060020a0388169081179091558452600390915290912054612467916124ea565b600160a060020a0390921660009081526003602052604090209190915550565b6000903b1190565b600160a060020a03821615156124a457600080fd5b6124ae82826120ab565b6040518190600160a060020a038416906000907fddf252ad1be2c89b69c2b068fc378daa952ba7f163c4a11628f55a4df523b3ef908290a45050565b60008282018381101561188757600080fd5b828054600181600116156101000203166002900490600052602060002090601f016020900481019282601f1061253d57805160ff191683800117855561256a565b8280016001018555821561256a579182015b8281111561256a57825182559160200191906001019061254f565b5061257692915061259a565b5090565b815481835581811115611184576000838152602090206111849181019083015b610cd091905b8082111561257657600081556001016125a05600a165627a7a7230582087175331b63435eb935fbabaeb7c8548b6c0fd90fd2d9c5bb99269a4dd7031120029",
  "source": "pragma solidity ^0.4.24;\n\nimport '../openzeppelin-solidity-master/contracts/token/ERC721/ERC721Full.sol';\nimport \"../openzeppelin-solidity-master/contracts/ownership/Ownable.sol\";\n\ncontract LuxOrders is ERC721Full, Ownable {\n\n  //state variables\n\n    //tokenid index\n    uint256 public orderIndex;\n\n    //total raised in sales uint256 USD\n    uint256 public totalRaised;\n\n    //total verifiably donated to charities\n    uint256 public totalDonated;\n\n    //total amount chosen to be donated\n    uint256 public totalChosenDonatedAmount;\n\n    //total number of chosen donations\n    uint256 public totalChosenDonations;\n\n    //total number of made donations\n    uint256 public totalMadeDonations;\n\n    //token mapping\n    mapping (uint256 => OrderToken) public orderTokens;\n\n    //token struct for order -> which represents a sale\n    struct OrderToken {\n      uint256 saleAmount;\n      string tokenURI;\n      address generation;\n      address owner;\n      bool redeemed;\n      bytes32 buyerHash;\n      bytes32 redemptionHash;\n      bool exists; //always true\n    }\n\n    //charities mapping to track the total amount chosen to be donated\n    //to each charity, id is SHA256(full name of charity)\n    mapping (bytes32 => Charity) public charities;\n    struct Charity {\n      string charityName;\n      uint256 amountChosenToDonate;\n      uint256 amountDonated;\n      bool exists; //always true\n    }\n\n    //MadeDonations is a list of donations actually made\n    //id is hash of donation IPFS url\n    mapping (bytes32 => MadeDonation) public madeDonations;\n    struct MadeDonation {\n      string charityName; //name of charity luxarity sent proceeds to\n      string donationProofUrl;\n      uint256 amountDonated; //amount donated via grant to charity\n      bytes32 donationProofHash; //SHA256 hash of proof of donation\n      address donorAddress; //address of owner of contract (luxarity)\n    }\n\n    //buyers mapping with buyer struct bytes32 => buyer\n    mapping (bytes32 => Buyer) public buyers;\n    struct Buyer {\n      uint256 totalContributed; //total amount the buyer has bought in USD\n      uint256 totalDonationsAllocated; //amount of donation capital allocated\n      bool exists; //always true\n    }\n\n\n  //constructor for NFT token, name = Luxarity, symbol = LUX\n    constructor() ERC721Full('Luxarity Order Token', 'LUX0') public {\n      //tokenid index\n      orderIndex = 0;\n      //total capital raised uint256 USD\n      totalRaised = 0;\n      //total donated by luxarity (USD)\n      totalDonated = 0;\n      //total number of chosen donations\n      totalChosenDonations = 0;\n      //total number of made donations\n      totalMadeDonations = 0;\n      //total amount chosen to be donated\n      totalChosenDonatedAmount = 0;\n    }\n\n  //events\n    event SoldAndMintedToken (uint256 _tokenId, bytes32 _buyerID, uint256 _saleAmount, string _tokenURI, address _tokenMinter);\n    //event when donation is chosen (bytes32, amount, charityName, donation id)\n    event DonationChosen (string _charityName, bytes32 _buyerId, uint256 _amountToBeDonated);\n    //event when donation is made by luxarity\n    event DonationMadeToCharity (bytes32 _donationHash, uint256 _amountDonated, string _charityName, string _donationURL);\n    //event when token is redeemed\n    event RedeemedToken (uint256 _tokenId, bytes32 _buyerId, address _buyerAddress);\n\n  //modifiers\n    //check if buyer exists\n    modifier onlyBuyer(bytes32 _buyerId) { require(buyers[_buyerId].exists == true); _; }\n\n  //cuase functions\n\n    //mint function - when Orders are sold in an order - the receipt should be tokenized\n    function soldOrderToMint(string _tokenURI, uint256 _saleAmount, bytes32 _buyerID, bytes32 _redemptionHash) public onlyOwner returns (uint) {\n\n      //1.0 Ensure token doesn't already exists\n      uint256 testIndex = orderIndex + 1;\n      require(_exists(testIndex) == false);\n\n      //2.0 check if buyer already exists\n      if (!buyers[_buyerID].exists) {\n        //adding new buyer to buyers mapping\n        buyers[_buyerID] = Buyer(_saleAmount, 0, true);\n      } else {\n        //update existing buyer\n        buyers[_buyerID].totalContributed += _saleAmount;\n      }\n\n      //increment total donations\n      totalRaised += _saleAmount;\n\n      //increment orderIndex\n      orderIndex += 1;\n\n      //create new sale\n      orderTokens[orderIndex] = OrderToken(_saleAmount, _tokenURI, msg.sender, msg.sender, false, _buyerID, _redemptionHash, true);\n\n      //mint token\n      _mint(msg.sender, orderIndex);\n\n      //set metadata\n      _setTokenURI(orderIndex, _tokenURI);\n\n      //emit event\n      emit SoldAndMintedToken(orderIndex, _buyerID, _saleAmount, _tokenURI, msg.sender);\n\n      //return\n      return orderIndex;\n\n    }\n\n    //chooseDonation function\n    function chooseDonation(bytes32 _buyerID, string _charityName, uint256 _chosenDonateAmount) public onlyBuyer(_buyerID) returns (bool) {\n      //check if amount to donate is less than or equal to the amount left\n      uint256 leftover = buyers[_buyerID].totalContributed - buyers[_buyerID].totalDonationsAllocated;\n      //if it is, proceed\n      if (leftover >= _chosenDonateAmount) {\n        //incement totalChosenDonatedAmount\n        totalChosenDonatedAmount += _chosenDonateAmount;\n        //increment total number of donations chosen to be made\n        totalChosenDonations += 1;\n        //update buyers donation allocation\n        buyers[_buyerID].totalDonationsAllocated += _chosenDonateAmount;\n        //check if charity is new\n        bytes32 charityHash = keccak256(abi.encodePacked(_charityName));\n        //if it is, add to charity mapping\n        if (charities[charityHash].exists) {\n          charities[charityHash].amountChosenToDonate += _chosenDonateAmount;\n        } else {\n          //if not, update charity struct\n          charities[charityHash] = Charity(_charityName, _chosenDonateAmount, 0, true);\n        }\n        //emit event ChosenToDonate\n        emit DonationChosen(_charityName, _buyerID, _chosenDonateAmount);\n        //return true\n        return true;\n      }\n      //if it is not, return false\n      return false;\n    }\n\n    //make donation function\n    function makeDonation(bytes32 _proofHash, string _proofURL, uint256 _madeDonationAmount, string _charityName) public onlyOwner returns (bool) {\n      uint256 leftover = totalRaised - totalDonated;\n      require(leftover >= _madeDonationAmount);\n      //donation made proof hash\n      bytes32 donationMadeHash = keccak256(abi.encodePacked(_proofURL));\n      //check if donation doesn't exist yet\n      require(madeDonations[donationMadeHash].donorAddress == address(0));\n      //increment total made donations\n      totalMadeDonations += 1;\n      //total donated sum amount increased\n      totalDonated += _madeDonationAmount;\n      //add to made donations mapping\n      madeDonations[donationMadeHash] = MadeDonation(_charityName, _proofURL, _madeDonationAmount, _proofHash, msg.sender);\n      //emit event\n      emit DonationMadeToCharity(donationMadeHash, _madeDonationAmount, _charityName, _proofURL);\n      //return\n      return true;\n    }\n\n    //redeem token\n    function redeemOrder(bytes32 _buyerID, bytes32 _redemptionHash, address _buyerAddress, uint256 _tokenId) public onlyBuyer(_buyerID) returns (bool) {\n\n      //make sure address is valid\n      require(orderTokens[_tokenId].exists == true);\n      require(_buyerAddress != address(0));\n      require(orderTokens[_tokenId].buyerHash == _buyerID);\n      require(orderTokens[_tokenId].redemptionHash == _redemptionHash);\n\n      orderTokens[_tokenId].owner = _buyerAddress;\n      orderTokens[_tokenId].redeemed = true;\n      //conduct transfer from Luxarity to address\n      transferFrom(msg.sender, _buyerAddress, _tokenId);\n      //emit event\n      emit RedeemedToken(_tokenId, _buyerID, _buyerAddress);\n      return true;\n    }\n\n    //safe redeem token\n    function safeRedeemOrder(bytes32 _buyerID, bytes32 _redemptionHash, address _buyerAddress, uint256 _tokenId) public onlyBuyer(_buyerID) returns (bool) {\n      //make sure address is valid\n      require(orderTokens[_tokenId].exists == true);\n      require(_buyerAddress != address(0));\n      require(orderTokens[_tokenId].buyerHash == _buyerID);\n      require(orderTokens[_tokenId].redemptionHash == _redemptionHash);\n\n      orderTokens[_tokenId].owner = _buyerAddress;\n      orderTokens[_tokenId].redeemed = true;\n      //conduct transfer from Luxarity to address\n      safeTransferFrom(msg.sender, _buyerAddress, _tokenId);\n      //emit event\n      emit RedeemedToken(_tokenId, _buyerID, _buyerAddress);\n      return true;\n    }\n\n  //call functions\n    //get how much a buyer has donated in total\n    function getBuyerAmount(bytes32 _buyerID) public view returns (uint256 total) {\n      if (buyers[_buyerID].exists) {\n        return buyers[_buyerID].totalContributed;\n      }\n      return 0;\n\t\t}\n\n    //get boolean to see if NFT has been redeemed or not\n    function getRedemption(uint _tokenId) public view returns (bool) {\n      return orderTokens[_tokenId].redeemed;\n\t\t}\n\n    //get token ownerOf\n    function getTokenOwner(uint _tokenId) public view returns (address) {\n      address owner = ownerOf(_tokenId);\n      return owner;\n    }\n\n    //transfer ownership of contract\n    function transferContract(address newOwner) public onlyOwner {\n      transferOwnership(newOwner);\n    }\n\n    //fallback\n\t  function() payable public { }\n}\n",
  "sourcePath": "/Applications/MAMP/htdocs/LuxToken/contracts/LuxOrders.sol",
  "compiler": {
    "name": "solc",
    "version": "0.4.24+commit.e67f0147.Emscripten.clang"
  },
  "schemaVersion": "2.0.1",
  "updatedAt": "2018-10-08T17:53:53.092Z"
}