{
  "contractName": "LuxOrders",
  "abi": [
    {
      "constant": true,
      "inputs": [],
      "name": "totalDonated",
      "outputs": [
        {
          "name": "",
          "type": "uint256"
        }
      ],
      "payable": false,
      "stateMutability": "view",
      "type": "function"
    },
    {
      "constant": true,
      "inputs": [
        {
          "name": "interfaceId",
          "type": "bytes4"
        }
      ],
      "name": "supportsInterface",
      "outputs": [
        {
          "name": "",
          "type": "bool"
        }
      ],
      "payable": false,
      "stateMutability": "view",
      "type": "function"
    },
    {
      "constant": true,
      "inputs": [],
      "name": "name",
      "outputs": [
        {
          "name": "",
          "type": "string"
        }
      ],
      "payable": false,
      "stateMutability": "view",
      "type": "function"
    },
    {
      "constant": true,
      "inputs": [
        {
          "name": "tokenId",
          "type": "uint256"
        }
      ],
      "name": "getApproved",
      "outputs": [
        {
          "name": "",
          "type": "address"
        }
      ],
      "payable": false,
      "stateMutability": "view",
      "type": "function"
    },
    {
      "constant": false,
      "inputs": [
        {
          "name": "to",
          "type": "address"
        },
        {
          "name": "tokenId",
          "type": "uint256"
        }
      ],
      "name": "approve",
      "outputs": [],
      "payable": false,
      "stateMutability": "nonpayable",
      "type": "function"
    },
    {
      "constant": true,
      "inputs": [],
      "name": "totalSupply",
      "outputs": [
        {
          "name": "",
          "type": "uint256"
        }
      ],
      "payable": false,
      "stateMutability": "view",
      "type": "function"
    },
    {
      "constant": true,
      "inputs": [],
      "name": "totalChosenDonations",
      "outputs": [
        {
          "name": "",
          "type": "uint256"
        }
      ],
      "payable": false,
      "stateMutability": "view",
      "type": "function"
    },
    {
      "constant": true,
      "inputs": [],
      "name": "totalMadeDonations",
      "outputs": [
        {
          "name": "",
          "type": "uint256"
        }
      ],
      "payable": false,
      "stateMutability": "view",
      "type": "function"
    },
    {
      "constant": false,
      "inputs": [
        {
          "name": "from",
          "type": "address"
        },
        {
          "name": "to",
          "type": "address"
        },
        {
          "name": "tokenId",
          "type": "uint256"
        }
      ],
      "name": "transferFrom",
      "outputs": [],
      "payable": false,
      "stateMutability": "nonpayable",
      "type": "function"
    },
    {
      "constant": true,
      "inputs": [
        {
          "name": "owner",
          "type": "address"
        },
        {
          "name": "index",
          "type": "uint256"
        }
      ],
      "name": "tokenOfOwnerByIndex",
      "outputs": [
        {
          "name": "",
          "type": "uint256"
        }
      ],
      "payable": false,
      "stateMutability": "view",
      "type": "function"
    },
    {
      "constant": true,
      "inputs": [],
      "name": "orderIndex",
      "outputs": [
        {
          "name": "",
          "type": "uint256"
        }
      ],
      "payable": false,
      "stateMutability": "view",
      "type": "function"
    },
    {
      "constant": false,
      "inputs": [
        {
          "name": "from",
          "type": "address"
        },
        {
          "name": "to",
          "type": "address"
        },
        {
          "name": "tokenId",
          "type": "uint256"
        }
      ],
      "name": "safeTransferFrom",
      "outputs": [],
      "payable": false,
      "stateMutability": "nonpayable",
      "type": "function"
    },
    {
      "constant": true,
      "inputs": [
        {
          "name": "index",
          "type": "uint256"
        }
      ],
      "name": "tokenByIndex",
      "outputs": [
        {
          "name": "",
          "type": "uint256"
        }
      ],
      "payable": false,
      "stateMutability": "view",
      "type": "function"
    },
    {
      "constant": true,
      "inputs": [
        {
          "name": "tokenId",
          "type": "uint256"
        }
      ],
      "name": "ownerOf",
      "outputs": [
        {
          "name": "",
          "type": "address"
        }
      ],
      "payable": false,
      "stateMutability": "view",
      "type": "function"
    },
    {
      "constant": true,
      "inputs": [
        {
          "name": "owner",
          "type": "address"
        }
      ],
      "name": "balanceOf",
      "outputs": [
        {
          "name": "",
          "type": "uint256"
        }
      ],
      "payable": false,
      "stateMutability": "view",
      "type": "function"
    },
    {
      "constant": false,
      "inputs": [],
      "name": "renounceOwnership",
      "outputs": [],
      "payable": false,
      "stateMutability": "nonpayable",
      "type": "function"
    },
    {
      "constant": true,
      "inputs": [
        {
          "name": "",
          "type": "bytes32"
        }
      ],
      "name": "buyers",
      "outputs": [
        {
          "name": "totalContributed",
          "type": "uint256"
        },
        {
          "name": "totalDonationsAllocated",
          "type": "uint256"
        },
        {
          "name": "exists",
          "type": "bool"
        },
        {
          "name": "buyerAddress",
          "type": "address"
        }
      ],
      "payable": false,
      "stateMutability": "view",
      "type": "function"
    },
    {
      "constant": true,
      "inputs": [],
      "name": "owner",
      "outputs": [
        {
          "name": "",
          "type": "address"
        }
      ],
      "payable": false,
      "stateMutability": "view",
      "type": "function"
    },
    {
      "constant": true,
      "inputs": [],
      "name": "isOwner",
      "outputs": [
        {
          "name": "",
          "type": "bool"
        }
      ],
      "payable": false,
      "stateMutability": "view",
      "type": "function"
    },
    {
      "constant": true,
      "inputs": [],
      "name": "symbol",
      "outputs": [
        {
          "name": "",
          "type": "string"
        }
      ],
      "payable": false,
      "stateMutability": "view",
      "type": "function"
    },
    {
      "constant": true,
      "inputs": [
        {
          "name": "",
          "type": "uint256"
        }
      ],
      "name": "chosenDonations",
      "outputs": [
        {
          "name": "charityName",
          "type": "string"
        },
        {
          "name": "amountDonated",
          "type": "uint256"
        },
        {
          "name": "buyerHash",
          "type": "bytes32"
        }
      ],
      "payable": false,
      "stateMutability": "view",
      "type": "function"
    },
    {
      "constant": false,
      "inputs": [
        {
          "name": "to",
          "type": "address"
        },
        {
          "name": "approved",
          "type": "bool"
        }
      ],
      "name": "setApprovalForAll",
      "outputs": [],
      "payable": false,
      "stateMutability": "nonpayable",
      "type": "function"
    },
    {
      "constant": true,
      "inputs": [
        {
          "name": "",
          "type": "uint256"
        }
      ],
      "name": "soldTokens",
      "outputs": [
        {
          "name": "buyerHash",
          "type": "bytes32"
        },
        {
          "name": "redemptionHash",
          "type": "bytes32"
        },
        {
          "name": "redeemed",
          "type": "bool"
        },
        {
          "name": "exists",
          "type": "bool"
        },
        {
          "name": "cost",
          "type": "uint256"
        }
      ],
      "payable": false,
      "stateMutability": "view",
      "type": "function"
    },
    {
      "constant": true,
      "inputs": [
        {
          "name": "",
          "type": "bytes32"
        }
      ],
      "name": "madeDonations",
      "outputs": [
        {
          "name": "charityName",
          "type": "string"
        },
        {
          "name": "amountDonated",
          "type": "uint256"
        },
        {
          "name": "donationProofHash",
          "type": "bytes32"
        },
        {
          "name": "donorAddress",
          "type": "address"
        },
        {
          "name": "donationProof",
          "type": "string"
        }
      ],
      "payable": false,
      "stateMutability": "view",
      "type": "function"
    },
    {
      "constant": false,
      "inputs": [
        {
          "name": "from",
          "type": "address"
        },
        {
          "name": "to",
          "type": "address"
        },
        {
          "name": "tokenId",
          "type": "uint256"
        },
        {
          "name": "_data",
          "type": "bytes"
        }
      ],
      "name": "safeTransferFrom",
      "outputs": [],
      "payable": false,
      "stateMutability": "nonpayable",
      "type": "function"
    },
    {
      "constant": true,
      "inputs": [],
      "name": "totalRaised",
      "outputs": [
        {
          "name": "",
          "type": "uint256"
        }
      ],
      "payable": false,
      "stateMutability": "view",
      "type": "function"
    },
    {
      "constant": true,
      "inputs": [
        {
          "name": "tokenId",
          "type": "uint256"
        }
      ],
      "name": "tokenURI",
      "outputs": [
        {
          "name": "",
          "type": "string"
        }
      ],
      "payable": false,
      "stateMutability": "view",
      "type": "function"
    },
    {
      "constant": true,
      "inputs": [
        {
          "name": "owner",
          "type": "address"
        },
        {
          "name": "operator",
          "type": "address"
        }
      ],
      "name": "isApprovedForAll",
      "outputs": [
        {
          "name": "",
          "type": "bool"
        }
      ],
      "payable": false,
      "stateMutability": "view",
      "type": "function"
    },
    {
      "constant": false,
      "inputs": [
        {
          "name": "newOwner",
          "type": "address"
        }
      ],
      "name": "transferOwnership",
      "outputs": [],
      "payable": false,
      "stateMutability": "nonpayable",
      "type": "function"
    },
    {
      "inputs": [],
      "payable": false,
      "stateMutability": "nonpayable",
      "type": "constructor"
    },
    {
      "payable": true,
      "stateMutability": "payable",
      "type": "fallback"
    },
    {
      "anonymous": false,
      "inputs": [
        {
          "indexed": false,
          "name": "_tokenId",
          "type": "uint256"
        },
        {
          "indexed": false,
          "name": "_tokenMinter",
          "type": "address"
        },
        {
          "indexed": false,
          "name": "_tokenMetaData",
          "type": "string"
        }
      ],
      "name": "MintedToken",
      "type": "event"
    },
    {
      "anonymous": false,
      "inputs": [
        {
          "indexed": false,
          "name": "_tokenId",
          "type": "uint256"
        },
        {
          "indexed": false,
          "name": "_buyerId",
          "type": "bytes32"
        },
        {
          "indexed": false,
          "name": "_cost",
          "type": "uint256"
        }
      ],
      "name": "SoldToken",
      "type": "event"
    },
    {
      "anonymous": false,
      "inputs": [
        {
          "indexed": false,
          "name": "_charityName",
          "type": "string"
        },
        {
          "indexed": false,
          "name": "_buyerId",
          "type": "bytes32"
        },
        {
          "indexed": false,
          "name": "_amountToBeDonated",
          "type": "uint256"
        }
      ],
      "name": "DonationChosen",
      "type": "event"
    },
    {
      "anonymous": false,
      "inputs": [
        {
          "indexed": false,
          "name": "_amountDonated",
          "type": "uint256"
        },
        {
          "indexed": false,
          "name": "_charityName",
          "type": "string"
        },
        {
          "indexed": false,
          "name": "_proofHash",
          "type": "bytes32"
        },
        {
          "indexed": false,
          "name": "_donationProof",
          "type": "string"
        },
        {
          "indexed": false,
          "name": "_donationMadeHash",
          "type": "bytes32"
        }
      ],
      "name": "DonationMadeToCharity",
      "type": "event"
    },
    {
      "anonymous": false,
      "inputs": [
        {
          "indexed": false,
          "name": "_tokenId",
          "type": "uint256"
        },
        {
          "indexed": false,
          "name": "_buyerId",
          "type": "bytes32"
        },
        {
          "indexed": false,
          "name": "_buyerAddress",
          "type": "address"
        }
      ],
      "name": "RedeemedToken",
      "type": "event"
    },
    {
      "anonymous": false,
      "inputs": [
        {
          "indexed": true,
          "name": "previousOwner",
          "type": "address"
        }
      ],
      "name": "OwnershipRenounced",
      "type": "event"
    },
    {
      "anonymous": false,
      "inputs": [
        {
          "indexed": true,
          "name": "previousOwner",
          "type": "address"
        },
        {
          "indexed": true,
          "name": "newOwner",
          "type": "address"
        }
      ],
      "name": "OwnershipTransferred",
      "type": "event"
    },
    {
      "anonymous": false,
      "inputs": [
        {
          "indexed": true,
          "name": "from",
          "type": "address"
        },
        {
          "indexed": true,
          "name": "to",
          "type": "address"
        },
        {
          "indexed": true,
          "name": "tokenId",
          "type": "uint256"
        }
      ],
      "name": "Transfer",
      "type": "event"
    },
    {
      "anonymous": false,
      "inputs": [
        {
          "indexed": true,
          "name": "owner",
          "type": "address"
        },
        {
          "indexed": true,
          "name": "approved",
          "type": "address"
        },
        {
          "indexed": true,
          "name": "tokenId",
          "type": "uint256"
        }
      ],
      "name": "Approval",
      "type": "event"
    },
    {
      "anonymous": false,
      "inputs": [
        {
          "indexed": true,
          "name": "owner",
          "type": "address"
        },
        {
          "indexed": true,
          "name": "operator",
          "type": "address"
        },
        {
          "indexed": false,
          "name": "approved",
          "type": "bool"
        }
      ],
      "name": "ApprovalForAll",
      "type": "event"
    },
    {
      "constant": false,
      "inputs": [
        {
          "name": "_tokenURI",
          "type": "string"
        },
        {
          "name": "_saleAmount",
          "type": "uint256"
        },
        {
          "name": "_buyerID",
          "type": "bytes32"
        },
        {
          "name": "_redemptionHash",
          "type": "bytes32"
        }
      ],
      "name": "soldOrderToMint",
      "outputs": [
        {
          "name": "",
          "type": "uint256"
        }
      ],
      "payable": false,
      "stateMutability": "nonpayable",
      "type": "function"
    },
    {
      "constant": false,
      "inputs": [
        {
          "name": "_buyerID",
          "type": "bytes32"
        },
        {
          "name": "_charityName",
          "type": "string"
        },
        {
          "name": "_chosenDonateAmount",
          "type": "uint256"
        }
      ],
      "name": "chooseDonation",
      "outputs": [
        {
          "name": "",
          "type": "bool"
        }
      ],
      "payable": false,
      "stateMutability": "nonpayable",
      "type": "function"
    },
    {
      "constant": false,
      "inputs": [
        {
          "name": "_proofHash",
          "type": "bytes32"
        },
        {
          "name": "_proof",
          "type": "string"
        },
        {
          "name": "_madeDonationAmount",
          "type": "uint256"
        },
        {
          "name": "_charityName",
          "type": "string"
        }
      ],
      "name": "makeDonation",
      "outputs": [
        {
          "name": "",
          "type": "bool"
        }
      ],
      "payable": false,
      "stateMutability": "nonpayable",
      "type": "function"
    },
    {
      "constant": false,
      "inputs": [
        {
          "name": "_buyerID",
          "type": "bytes32"
        },
        {
          "name": "_redemptionHash",
          "type": "bytes32"
        },
        {
          "name": "_buyerAddress",
          "type": "address"
        },
        {
          "name": "_tokenId",
          "type": "uint256"
        }
      ],
      "name": "redeemOrder",
      "outputs": [
        {
          "name": "",
          "type": "bool"
        }
      ],
      "payable": false,
      "stateMutability": "nonpayable",
      "type": "function"
    },
    {
      "constant": false,
      "inputs": [
        {
          "name": "_buyerID",
          "type": "bytes32"
        },
        {
          "name": "_redemptionHash",
          "type": "bytes32"
        },
        {
          "name": "_buyerAddress",
          "type": "address"
        },
        {
          "name": "_tokenId",
          "type": "uint256"
        }
      ],
      "name": "safeRedeemOrder",
      "outputs": [
        {
          "name": "",
          "type": "bool"
        }
      ],
      "payable": false,
      "stateMutability": "nonpayable",
      "type": "function"
    },
    {
      "constant": true,
      "inputs": [
        {
          "name": "_buyerID",
          "type": "bytes32"
        }
      ],
      "name": "getBuyerAmount",
      "outputs": [
        {
          "name": "total",
          "type": "uint256"
        }
      ],
      "payable": false,
      "stateMutability": "view",
      "type": "function"
    },
    {
      "constant": true,
      "inputs": [],
      "name": "getTotalRaised",
      "outputs": [
        {
          "name": "",
          "type": "uint256"
        }
      ],
      "payable": false,
      "stateMutability": "view",
      "type": "function"
    },
    {
      "constant": true,
      "inputs": [],
      "name": "getTotalAllocatedDonations",
      "outputs": [
        {
          "name": "",
          "type": "uint256"
        }
      ],
      "payable": false,
      "stateMutability": "view",
      "type": "function"
    },
    {
      "constant": true,
      "inputs": [],
      "name": "getTotalMadeDonations",
      "outputs": [
        {
          "name": "",
          "type": "uint256"
        }
      ],
      "payable": false,
      "stateMutability": "view",
      "type": "function"
    },
    {
      "constant": true,
      "inputs": [
        {
          "name": "_tokenId",
          "type": "uint256"
        }
      ],
      "name": "getRedemption",
      "outputs": [
        {
          "name": "",
          "type": "bool"
        }
      ],
      "payable": false,
      "stateMutability": "view",
      "type": "function"
    },
    {
      "constant": true,
      "inputs": [
        {
          "name": "_tokenId",
          "type": "uint256"
        }
      ],
      "name": "getTokenSold",
      "outputs": [
        {
          "name": "",
          "type": "bool"
        }
      ],
      "payable": false,
      "stateMutability": "view",
      "type": "function"
    },
    {
      "constant": true,
      "inputs": [
        {
          "name": "_tokenId",
          "type": "uint256"
        }
      ],
      "name": "getTokenOwner",
      "outputs": [
        {
          "name": "",
          "type": "address"
        }
      ],
      "payable": false,
      "stateMutability": "view",
      "type": "function"
    },
    {
      "constant": false,
      "inputs": [
        {
          "name": "newOwner",
          "type": "address"
        }
      ],
      "name": "transferContract",
      "outputs": [],
      "payable": false,
      "stateMutability": "nonpayable",
      "type": "function"
    }
  ],
  "bytecode": "0x60806040523480156200001157600080fd5b50604080518082018252601481527f4c75786172697479204f7264657220546f6b656e0000000000000000000000006020808301919091528251808401909352600483527f4c5558300000000000000000000000000000000000000000000000000000000090830152908181620000b17f01ffc9a700000000000000000000000000000000000000000000000000000000640100000000620001ae810204565b620000e57f80ac58cd00000000000000000000000000000000000000000000000000000000640100000000620001ae810204565b620001197f780e9d6300000000000000000000000000000000000000000000000000000000640100000000620001ae810204565b81516200012e9060099060208501906200021b565b5080516200014490600a9060208401906200021b565b50620001797f5b5e139f00000000000000000000000000000000000000000000000000000000640100000000620001ae810204565b5050600c8054600160a060020a0319163317905550506000600d819055600e819055600f8190556010819055601155620002c0565b7fffffffff000000000000000000000000000000000000000000000000000000008082161415620001de57600080fd5b7fffffffff00000000000000000000000000000000000000000000000000000000166000908152602081905260409020805460ff19166001179055565b828054600181600116156101000203166002900490600052602060002090601f016020900481019282601f106200025e57805160ff19168380011785556200028e565b828001600101855582156200028e579182015b828111156200028e57825182559160200191906001019062000271565b506200029c929150620002a0565b5090565b620002bd91905b808211156200029c5760008155600101620002a7565b90565b61255680620002d06000396000f3006080604052600436106102025763ffffffff7c0100000000000000000000000000000000000000000000000000000000600035041662b37044811461020457806301f785f91461022b57806301ffc9a71461026957806306fdde03146102a0578063081812fc1461032a578063095ea7b31461035e57806318160ddd14610382578063190c087d146103975780631953cc21146103f75780631a168b581461040f5780631f0bf9411461042457806323b872dd146104395780632f745c591461046357806330471fee1461048757806342842e0e1461049c57806347635dac146104c65780634f6ccce7146104e757806350d5b41c146104ff5780636352211e1461052957806364457aad1461054157806370a0823114610559578063715018a61461057a5780637ecbaf801461058f57806382aa1622146105d65780638da5cb5b146105eb5780638f32d59b1461060057806395d89b41146106155780639a22836e1461062a5780639f550293146106c8578063a22cb465146106dd578063a43e4acc14610703578063a5cd761f146107a5578063ad9ab857146107bd578063b295806214610802578063b88d4fde14610918578063c5c4744c14610987578063c87b56dd1461099c578063cfae8652146109b4578063dee63cf414610a1a578063e985e9c514610a2f578063f2fde38b14610a56578063f68ac9ef14610a77575b005b34801561021057600080fd5b50610219610a8f565b60408051918252519081900360200190f35b34801561023757600080fd5b50610255600435602435600160a060020a0360443516606435610a95565b604080519115158252519081900360200190f35b34801561027557600080fd5b506102557bffffffffffffffffffffffffffffffffffffffffffffffffffffffff1960043516610ba9565b3480156102ac57600080fd5b506102b5610be1565b6040805160208082528351818301528351919283929083019185019080838360005b838110156102ef5781810151838201526020016102d7565b50505050905090810190601f16801561031c5780820380516001836020036101000a031916815260200191505b509250505060405180910390f35b34801561033657600080fd5b50610342600435610c78565b60408051600160a060020a039092168252519081900360200190f35b34801561036a57600080fd5b50610202600160a060020a0360043516602435610caa565b34801561038e57600080fd5b50610219610d53565b3480156103a357600080fd5b5060408051602060046024803582810135601f81018590048502860185019096528585526102559583359536956044949193909101919081908401838280828437509497505093359450610d599350505050565b34801561040357600080fd5b50610255600435610ec1565b34801561041b57600080fd5b50610219610ed9565b34801561043057600080fd5b50610219610edf565b34801561044557600080fd5b50610202600160a060020a0360043581169060243516604435610ee5565b34801561046f57600080fd5b50610219600160a060020a0360043516602435610f73565b34801561049357600080fd5b50610219610fc0565b3480156104a857600080fd5b50610202600160a060020a0360043581169060243516604435610fc6565b3480156104d257600080fd5b50610202600160a060020a0360043516610fe7565b3480156104f357600080fd5b50610219600435611006565b34801561050b57600080fd5b50610255600435602435600160a060020a036044351660643561103b565b34801561053557600080fd5b50610342600435611152565b34801561054d57600080fd5b5061025560043561117c565b34801561056557600080fd5b50610219600160a060020a0360043516611199565b34801561058657600080fd5b506102026111cc565b34801561059b57600080fd5b506105a7600435611229565b60408051948552602085019390935290151583830152600160a060020a03166060830152519081900360800190f35b3480156105e257600080fd5b5061021961125d565b3480156105f757600080fd5b50610342611263565b34801561060c57600080fd5b50610255611272565b34801561062157600080fd5b506102b5611283565b34801561063657600080fd5b506106426004356112e4565b6040805160208082018590529181018390526060808252855190820152845190918291608083019187019080838360005b8381101561068b578181015183820152602001610673565b50505050905090810190601f1680156106b85780820380516001836020036101000a031916815260200191505b5094505050505060405180910390f35b3480156106d457600080fd5b50610219611391565b3480156106e957600080fd5b50610202600160a060020a03600435166024351515611397565b34801561070f57600080fd5b5060408051602060046024803582810135601f810185900485028601850190965285855261025595833595369560449491939091019190819084018382808284375050604080516020601f818a01358b0180359182018390048302840183018552818452989b8a359b909a90999401975091955091820193509150819084018382808284375094975061141b9650505050505050565b3480156107b157600080fd5b50610342600435611773565b3480156107c957600080fd5b506107d5600435611786565b60408051958652602086019490945291151584840152151560608401526080830152519081900360a00190f35b34801561080e57600080fd5b5061081a6004356117ba565b604080516020808201879052918101859052600160a060020a038416606082015260a0808252875190820152865190918291608083019160c0840191908a019080838360005b83811015610878578181015183820152602001610860565b50505050905090810190601f1680156108a55780820380516001836020036101000a031916815260200191505b50838103825284518152845160209182019186019080838360005b838110156108d85781810151838201526020016108c0565b50505050905090810190601f1680156109055780820380516001836020036101000a031916815260200191505b5097505050505050505060405180910390f35b34801561092457600080fd5b50604080516020601f60643560048181013592830184900484028501840190955281845261020294600160a060020a03813581169560248035909216956044359536956084940191819084018382808284375094975061190b9650505050505050565b34801561099357600080fd5b50610219611933565b3480156109a857600080fd5b506102b5600435611939565b3480156109c057600080fd5b506040805160206004803580820135601f8101849004840285018401909552848452610219943694929360249392840191908190840183828082843750949750508435955050506020830135926040013591506119ee9050565b348015610a2657600080fd5b50610219611db3565b348015610a3b57600080fd5b50610255600160a060020a0360043581169060243516611db9565b348015610a6257600080fd5b50610202600160a060020a0360043516611de7565b348015610a8357600080fd5b50610219600435611e03565b600f5481565b600084815260166020526040812060020154859060ff161515600114610aba57600080fd5b600160a060020a0384161515610acf57600080fd5b6000838152601560205260409020548614610ae957600080fd5b6000838152601560205260409020600101548514610b0657600080fd5b60008381526012602090815260408083206003018054600160a060020a031916600160a060020a03891617905560159091529020600201805460ff19166001179055610b53338585610ee5565b6040805184815260208101889052600160a060020a0386168183015290517f228808fc7f1cf2105ae7d045c73ecb559cd36038b92afc74b2d6c12adc0598729181900360600190a1600191505b50949350505050565b7bffffffffffffffffffffffffffffffffffffffffffffffffffffffff19811660009081526020819052604090205460ff165b919050565b60098054604080516020601f6002600019610100600188161502019095169490940493840181900481028201810190925282815260609390929091830182828015610c6d5780601f10610c4257610100808354040283529160200191610c6d565b820191906000526020600020905b815481529060010190602001808311610c5057829003601f168201915b505050505090505b90565b6000610c8382611e3a565b1515610c8e57600080fd5b50600090815260026020526040902054600160a060020a031690565b6000610cb582611152565b9050600160a060020a038381169082161415610cd057600080fd5b33600160a060020a0382161480610cec5750610cec8133611db9565b1515610cf757600080fd5b6000828152600260205260408082208054600160a060020a031916600160a060020a0387811691821790925591518593918516917f8c5be1e5ebec7d5bd14f71427d1e84f3dd0314c0f7b2291e5b200ac8c7c3b92591a4505050565b60075490565b6000838152601660205260408120600201548190859060ff161515600114610d8057600080fd5b600086815260166020526040902060018101549054039150838211610eb35760108054600101908190556040805160608101825287815260208082018890528183018a905260009384526013815291909220825180519192610de792849290910190612472565b5060208281015160018301556040928301516002909201919091558151808201899052918201869052606080835287519083015286517fe1e2f04378c01049d9d077035633dcf281eb34649d091dd1d7d1f0c3b4686fa09288928a928992918291608083019187019080838360005b83811015610e6e578181015183820152602001610e56565b50505050905090810190601f168015610e9b5780820380516001836020036101000a031916815260200191505b5094505050505060405180910390a160019250610eb8565b600092505b50509392505050565b60009081526015602052604090206002015460ff1690565b60105481565b60115481565b610eef3382611e57565b1515610efa57600080fd5b600160a060020a0382161515610f0f57600080fd5b610f198382611eb6565b610f238382611f1a565b610f2d8282612021565b8082600160a060020a031684600160a060020a03167fddf252ad1be2c89b69c2b068fc378daa952ba7f163c4a11628f55a4df523b3ef60405160405180910390a4505050565b6000610f7e83611199565b8210610f8957600080fd5b600160a060020a0383166000908152600560205260409020805483908110610fad57fe5b9060005260206000200154905092915050565b600d5481565b610fe2838383602060405190810160405280600081525061190b565b505050565b610fef611272565b1515610ffa57600080fd5b61100381611de7565b50565b6000611010610d53565b821061101b57600080fd5b600780548390811061102957fe5b90600052602060002001549050919050565b600084815260166020526040812060020154859060ff16151560011461106057600080fd5b600160a060020a038416151561107557600080fd5b600083815260156020526040902054861461108f57600080fd5b60008381526015602052604090206001015485146110ac57600080fd5b60008381526012602052604090206003018054600160a060020a031916600160a060020a0386161790556110e1338585610fc6565b600083815260156020908152604091829020600201805460ff191660011790558151858152908101889052600160a060020a0386168183015290517f228808fc7f1cf2105ae7d045c73ecb559cd36038b92afc74b2d6c12adc0598729181900360600190a150600195945050505050565b600081815260016020526040812054600160a060020a031680151561117657600080fd5b92915050565b600090815260156020526040902060020154610100900460ff1690565b6000600160a060020a03821615156111b057600080fd5b50600160a060020a031660009081526003602052604090205490565b6111d4611272565b15156111df57600080fd5b600c54604051600160a060020a03909116907ff8df31144d9c2f0f6b59d69b8b98abd5459d07f2742c4df920b25aae33c6482090600090a2600c8054600160a060020a0319169055565b60166020526000908152604090208054600182015460029092015490919060ff8116906101009004600160a060020a031684565b60105490565b600c54600160a060020a031690565b600c54600160a060020a0316331490565b600a8054604080516020601f6002600019610100600188161502019095169490940493840181900481028201810190925282815260609390929091830182828015610c6d5780601f10610c4257610100808354040283529160200191610c6d565b60136020908152600091825260409182902080548351601f6002600019610100600186161502019093169290920491820184900484028101840190945280845290929183919083018282801561137b5780601f106113505761010080835404028352916020019161137b565b820191906000526020600020905b81548152906001019060200180831161135e57829003601f168201915b5050505050908060010154908060020154905083565b600e5490565b600160a060020a0382163314156113ad57600080fd5b336000818152600460209081526040808320600160a060020a03871680855290835292819020805460ff1916861515908117909155815190815290519293927f17307eab39ab6107e8899845ad3d59bd9653f200f220920489ca2b5937696c31929181900390910190a35050565b600080611426611272565b151561143157600080fd5b82848733886040516020018086805190602001908083835b602083106114685780518252601f199092019160209182019101611449565b51815160209384036101000a60001901801990921691161790529201878152808301879052600160a060020a0386166c010000000000000000000000000260408201528451605490910192850191508083835b602083106114da5780518252601f1990920191602091820191016114bb565b6001836020036101000a038019825116818451168082178552505050505050905001955050505050506040516020818303038152906040526040518082805190602001908083835b602083106115415780518252601f199092019160209182019101611522565b51815160209384036101000a60001901801990921691161790526040805192909401829003909120600081815260149092529290206003015491945050600160a060020a0316159150611595905057600080fd5b601180546001019055600f8054850190556040805160a0810182528481526020808201879052818301899052336060830152608082018890526000848152601482529290922081518051929391926115f09284920190612472565b506020828101516001830155604083015160028301556060830151600383018054600160a060020a031916600160a060020a03909216919091179055608083015180516116439260048501920190612472565b5050604080518681529081018890526080810183905260a0602080830182815287519284019290925286517fdab98e61abe5b56925e931d8cbb34c52f9193512b3f553e12cc3259a7698ff559450889388938c938c9389939291606084019160c085019189019080838360005b838110156116c85781810151838201526020016116b0565b50505050905090810190601f1680156116f55780820380516001836020036101000a031916815260200191505b50838103825285518152855160209182019187019080838360005b83811015611728578181015183820152602001611710565b50505050905090810190601f1680156117555780820380516001836020036101000a031916815260200191505b5097505050505050505060405180910390a150600195945050505050565b60008061177f83611152565b9392505050565b60156020526000908152604090208054600182015460028301546003909301549192909160ff808316926101009004169085565b60146020908152600091825260409182902080548351601f600260001961010060018616150201909316929092049182018490048402810184019094528084529092918391908301828280156118515780601f1061182657610100808354040283529160200191611851565b820191906000526020600020905b81548152906001019060200180831161183457829003601f168201915b505050506001838101546002808601546003870154600488018054604080516020601f6000199a851615610100029a909a0190931696909604978801829004820286018201905286855297989497929650600160a060020a039091169490918301828280156119015780601f106118d657610100808354040283529160200191611901565b820191906000526020600020905b8154815290600101906020018083116118e457829003601f168201915b5050505050905085565b611916848484610ee5565b6119228484848461206a565b151561192d57600080fd5b50505050565b600e5481565b606061194482611e3a565b151561194f57600080fd5b6000828152600b602090815260409182902080548351601f6002600019610100600186161502019093169290920491820184900484028101840190945280845290918301828280156119e25780601f106119b7576101008083540402835291602001916119e2565b820191906000526020600020905b8154815290600101906020018083116119c557829003601f168201915b50505050509050919050565b6000806119f9611272565b1515611a0457600080fd5b60008481526016602052604090206002015460ff161515611aa85760408051608081018252868152600060208083018281526001848601818152606086018581528b86526016909452959093209351845551918301919091559151600290910180549251600160a060020a03166101000274ffffffffffffffffffffffffffffffffffffffff001992151560ff199094169390931791909116919091179055611abd565b60008481526016602052604090208054860190555b50600d54600101600081815260156020526040902060020154610100900460ff161515611da7576001600d6000828254019250508190555060a06040519081016040528085600019168152602001846000191681526020016000151581526020016001151581526020018681525060156000600d548152602001908152602001600020600082015181600001906000191690556020820151816001019060001916905560408201518160020160006101000a81548160ff02191690831515021790555060608201518160020160016101000a81548160ff0219169083151502179055506080820151816003015590505084600e600082825401925050819055507efbb329a2a0586f66ec8c109ac92ce4baff4cd3a7ff1c7b875162fc1e852613600d548560156000600d54815260200190815260200160002060030154604051808481526020018360001916600019168152602001828152602001935050505060405180910390a1611c30600d54611e3a565b1515600114611c3e57600080fd5b604080516080810182528681526020808201898152338385018190526060840152600d54600090815260128352939093208251815592518051929392611c8a9260018501920190612472565b506040820151600282018054600160a060020a0319908116600160a060020a0393841617909155606090930151600390920180549093169116179055600d54611cd49033906121e7565b611ce0600d5487612236565b7f5bf2d4b28d6c1c4b05ec28293620e14bddc41a4c0cfd5314abfd693d2dfede2f600d5433886040518084815260200183600160a060020a0316600160a060020a0316815260200180602001828103825283818151815260200191508051906020019080838360005b83811015611d61578181015183820152602001611d49565b50505050905090810190601f168015611d8e5780820380516001836020036101000a031916815260200191505b5094505050505060405180910390a1600d549150610ba0565b50600095945050505050565b60115490565b600160a060020a03918216600090815260046020908152604080832093909416825291909152205460ff1690565b611def611272565b1515611dfa57600080fd5b61100381612269565b60008181526016602052604081206002015460ff1615611e325750600081815260166020526040902054610bdc565b506000919050565b600090815260016020526040902054600160a060020a0316151590565b600080611e6383611152565b905080600160a060020a031684600160a060020a03161480611e9e575083600160a060020a0316611e9384610c78565b600160a060020a0316145b80611eae5750611eae8185611db9565b949350505050565b81600160a060020a0316611ec982611152565b600160a060020a031614611edc57600080fd5b600081815260026020526040902054600160a060020a031615611f165760008181526002602052604090208054600160a060020a03191690555b5050565b6000806000611f2985856122da565b600084815260066020908152604080832054600160a060020a0389168452600590925290912054909350611f6490600163ffffffff61236316565b600160a060020a038616600090815260056020526040902080549193509083908110611f8c57fe5b90600052602060002001549050806005600087600160a060020a0316600160a060020a0316815260200190815260200160002084815481101515611fcc57fe5b6000918252602080832090910192909255600160a060020a03871681526005909152604090208054906120039060001983016124f0565b50600093845260066020526040808520859055908452909220555050565b600061202d838361237a565b50600160a060020a039091166000908152600560209081526040808320805460018101825590845282842081018590559383526006909152902055565b60008061207f85600160a060020a03166123fd565b151561208e5760019150610ba0565b6040517f150b7a020000000000000000000000000000000000000000000000000000000081523360048201818152600160a060020a03898116602485015260448401889052608060648501908152875160848601528751918a169463150b7a0294938c938b938b93909160a490910190602085019080838360005b83811015612121578181015183820152602001612109565b50505050905090810190601f16801561214e5780820380516001836020036101000a031916815260200191505b5095505050505050602060405180830381600087803b15801561217057600080fd5b505af1158015612184573d6000803e3d6000fd5b505050506040513d602081101561219a57600080fd5b50517bffffffffffffffffffffffffffffffffffffffffffffffffffffffff19167f150b7a0200000000000000000000000000000000000000000000000000000000149695505050505050565b6121f18282612405565b600780546000838152600860205260408120829055600182018355919091527fa66cc928b5edb82af9bd49922954155ab7b0942694bea4ce44661d9a8736c688015550565b61223f82611e3a565b151561224a57600080fd5b6000828152600b602090815260409091208251610fe292840190612472565b600160a060020a038116151561227e57600080fd5b600c54604051600160a060020a038084169216907f8be0079c531659141344cd1fd0a4f28419497f9722a3daafe3b4186f6b6457e090600090a3600c8054600160a060020a031916600160a060020a0392909216919091179055565b81600160a060020a03166122ed82611152565b600160a060020a03161461230057600080fd5b600160a060020a03821660009081526003602052604090205461232a90600163ffffffff61236316565b600160a060020a039092166000908152600360209081526040808320949094559181526001909152208054600160a060020a0319169055565b6000808383111561237357600080fd5b5050900390565b600081815260016020526040902054600160a060020a03161561239c57600080fd5b60008181526001602081815260408084208054600160a060020a031916600160a060020a03881690811790915584526003909152909120546123dd91612460565b600160a060020a0390921660009081526003602052604090209190915550565b6000903b1190565b600160a060020a038216151561241a57600080fd5b6124248282612021565b6040518190600160a060020a038416906000907fddf252ad1be2c89b69c2b068fc378daa952ba7f163c4a11628f55a4df523b3ef908290a45050565b60008282018381101561177f57600080fd5b828054600181600116156101000203166002900490600052602060002090601f016020900481019282601f106124b357805160ff19168380011785556124e0565b828001600101855582156124e0579182015b828111156124e05782518255916020019190600101906124c5565b506124ec929150612510565b5090565b815481835581811115610fe257600083815260209020610fe29181019083015b610c7591905b808211156124ec57600081556001016125165600a165627a7a72305820526647fd9b4dad4523a2709105c11bd71d160cb0d7b3ad87ed45602ac3e444a40029",
  "source": "pragma solidity ^0.4.24;\n\nimport '../openzeppelin-solidity-master/contracts/token/ERC721/ERC721Full.sol';\nimport \"../openzeppelin-solidity-master/contracts/ownership/Ownable.sol\";\n\ncontract LuxOrders is ERC721Full, Ownable {\n\n  //state variables\n\n    //tokenid index\n    uint256 public orderIndex;\n\n    //total raised in sales uint256 USD\n    uint256 public totalRaised;\n\n    //total verifiably donated to charities\n    uint256 public totalDonated;\n\n    //total number of chosen donations\n    uint256 public totalChosenDonations;\n\n    //total number of made donations\n    uint256 public totalMadeDonations;\n\n    //token mapping\n    mapping (uint256 => OrderToken) orderTokens;\n\n    //token struct\n    struct OrderToken {\n      uint256 saleAmount;\n      string tokenURI;\n      address generation;\n      address owner;\n    }\n\n    //list of donation choices made by buyer (attestation on chain that buyer\n    //chose a particular charity to give to)\n    mapping (uint256 => ChosenDonation) public chosenDonations;\n    struct ChosenDonation {\n      string charityName; //name of charity buyer has chosen to give to\n      uint256 amountDonated; //amount buyer would like to set aside from his purchases to charity\n      bytes32 buyerHash; //hash of donor off-chain identity\n    }\n\n    //MadeDonations is a list of donations actually made\n    mapping (bytes32 => MadeDonation) public madeDonations;\n    struct MadeDonation {\n      string charityName; //name of charity luxarity sent proceeds to\n      uint256 amountDonated; //amount donated via grant to charity\n      bytes32 donationProofHash; //SHA256 hash of proof of donation (in case it is tampered with)\n      address donorAddress; //address of owner of contract (luxarity)\n      string donationProof; //link to donation receipt\n    }\n\n    //soldTokens mapping keeping track of which tokens are sold to which buyer,\n    mapping (uint256 => SaleDetails) public soldTokens;\n    struct SaleDetails {\n      bytes32 buyerHash; //identifier hash of off chain identifier of buyer\n      bytes32 redemptionHash; //SHA256 of secret value used by buyer to redeem\n      bool redeemed; //redemption status of token\n      bool exists;\n      uint256 cost; //cost of token in sale (USD)\n    }\n\n    //buyers mapping with buyer struct bytes32 => buyer, buyer struct {bytes32, totalBought, exists, owneraddress, totalDonated}, totalBought increments after everytime the buyer buys something and sold function is called, we check for exists and if not true we create a new buyer and add the amount they bought and increment on top of that amount in the future\n    //identifier hash of off chain identifier of buyer\n    mapping (bytes32 => Buyer) public buyers;\n    struct Buyer {\n      uint256 totalContributed; //total amount the buyer has bought in USD\n      uint256 totalDonationsAllocated; //amount of donation capital allocated\n      bool exists; //always true\n      address buyerAddress; //address of buyer (if token has been redeemed)\n    }\n\n\n  //constructor for NFT token, name = Luxarity, symbol = LUX\n  constructor() ERC721Full('Luxarity Order Token', 'LUX0') public {\n    //tokenid index\n    orderIndex = 0;\n    //total capital raised uint256 USD\n    totalRaised = 0;\n    //total donated by luxarity (USD)\n    totalDonated = 0;\n    //total number of chosen donations\n    totalChosenDonations = 0;\n    //total number of made donations\n    totalMadeDonations = 0;\n  }\n\n  //events\n    event MintedToken (uint256 _tokenId, address _tokenMinter, string _tokenMetaData);\n    //event when Order is sold\n    event SoldToken (uint256 _tokenId, bytes32 _buyerId, uint256 _cost);\n    //event when donation is chosen (bytes32, amount, charityName, donation id)\n    event DonationChosen (string _charityName, bytes32 _buyerId, uint256 _amountToBeDonated);\n    //event when donation is made by luxarity\n    event DonationMadeToCharity (uint256 _amountDonated, string _charityName, bytes32 _proofHash, string _donationProof, bytes32 _donationMadeHash);\n    //event when token is redeemed\n    event RedeemedToken (uint256 _tokenId, bytes32 _buyerId, address _buyerAddress);\n\n  //modifiers\n    //check if buyer exists\n    modifier onlyBuyer(bytes32 _buyerId) { require(buyers[_buyerId].exists == true); _; }\n\n  //cuase functions\n\n    //mint function - when Orders are sold in an order - the receipt should be tokenized\n    function soldOrderToMint(string _tokenURI, uint256 _saleAmount, bytes32 _buyerID, bytes32 _redemptionHash) public onlyOwner returns (uint) {\n\n      //1.0 check if buyer already exists\n      if (!buyers[_buyerID].exists) {\n        //adding new buyer to buyers mapping\n        buyers[_buyerID] = Buyer(_saleAmount, 0, true, address(0));\n      } else {\n        //update existing buyer\n        buyers[_buyerID].totalContributed += _saleAmount;\n      }\n\n      //2.0 Start process of tracking sale, order can only occur once\n      uint256 testIndex = orderIndex + 1;\n      if (!soldTokens[testIndex].exists) {\n        //increment orderIndex\n        orderIndex += 1;\n        //create new sale\n        soldTokens[orderIndex] = SaleDetails(_buyerID, _redemptionHash, false, true, _saleAmount);\n        //increment total donations\n        totalRaised += _saleAmount;\n        //emit event that token was sold\n        emit SoldToken(orderIndex, _buyerID, soldTokens[orderIndex].cost);\n\n        //3.0 Start process of minting tokenized order\n\n        //check if token doesn't exist yet using inherited ERC721 contract\n        require(_exists(orderIndex) == true);\n\n        //create token struct\n        orderTokens[orderIndex] = OrderToken(_saleAmount, _tokenURI, msg.sender, msg.sender);\n\n        //mint token\n        _mint(msg.sender, orderIndex);\n\n        //set metadata\n        _setTokenURI(orderIndex, _tokenURI);\n\n        //emit event\n        emit MintedToken(orderIndex, msg.sender, _tokenURI);\n\n        //return\n        return orderIndex;\n      }\n      return 0;\n    }\n\n    //chooseDonation function\n    function chooseDonation(bytes32 _buyerID, string _charityName, uint256 _chosenDonateAmount) public onlyBuyer(_buyerID) returns (bool) {\n      //if the amount to donate is less than or equal to the amount they have left to allocate\n      uint256 leftover = buyers[_buyerID].totalContributed - buyers[_buyerID].totalDonationsAllocated;\n      if (leftover <= _chosenDonateAmount) {\n        //increment total chosen donations\n        totalChosenDonations += 1;\n        //update chosenDonations mapping and then emit choseDonation event\n        chosenDonations[totalChosenDonations] = ChosenDonation(_charityName, _chosenDonateAmount, _buyerID);\n        //emit event on chosen donation\n        emit DonationChosen(_charityName, _buyerID, _chosenDonateAmount);\n        //return\n        return true;\n      }\n      return false;\n    }\n\n    //make donation function\n    function makeDonation(bytes32 _proofHash, string _proof, uint256 _madeDonationAmount, string _charityName) public onlyOwner returns (bool) {\n      //donation made proof hash\n      bytes32 donationMadeHash = keccak256(abi.encodePacked(_charityName, _madeDonationAmount, _proofHash, msg.sender, _proof));\n      //check if donation doesn't exist yet\n      require(madeDonations[donationMadeHash].donorAddress == address(0));\n      //increment total made donations\n      totalMadeDonations += 1;\n      //total donated sum amount increased\n      totalDonated += _madeDonationAmount;\n      //add to made donations mapping\n      madeDonations[donationMadeHash] = MadeDonation(_charityName, _madeDonationAmount, _proofHash, msg.sender, _proof);\n      //emit event\n      emit DonationMadeToCharity(_madeDonationAmount, _charityName, _proofHash, _proof, donationMadeHash);\n      //return\n      return true;\n    }\n\n    //redeem token\n    function redeemOrder(bytes32 _buyerID, bytes32 _redemptionHash, address _buyerAddress, uint256 _tokenId) public onlyBuyer(_buyerID) returns (bool) {\n      //make sure address is valid\n      require(_buyerAddress != address(0));\n      //make sure that sold Order exists to be redeemed\n      require(soldTokens[_tokenId].buyerHash == _buyerID);\n      //make sure redemption secret is correct\n      require(soldTokens[_tokenId].redemptionHash == _redemptionHash);\n      //update token struct\n      orderTokens[_tokenId].owner = _buyerAddress;\n      //updates salesdetails struct\n      soldTokens[_tokenId].redeemed = true;\n      //conduct transfer from Luxarity to address\n      transferFrom(msg.sender, _buyerAddress, _tokenId);\n      //emit event\n      emit RedeemedToken(_tokenId, _buyerID, _buyerAddress);\n      return true;\n    }\n\n    //safe redeem token\n    function safeRedeemOrder(bytes32 _buyerID, bytes32 _redemptionHash, address _buyerAddress, uint256 _tokenId) public onlyBuyer(_buyerID) returns (bool) {\n      //make sure address is valid\n      require(_buyerAddress != address(0));\n      //make sure that sold Order exists to be redeemed\n      require(soldTokens[_tokenId].buyerHash == _buyerID);\n      require(soldTokens[_tokenId].redemptionHash == _redemptionHash);\n      //update token struct\n      orderTokens[_tokenId].owner = _buyerAddress;\n      //conduct transfer from Luxarity to address\n      safeTransferFrom(msg.sender, _buyerAddress, _tokenId);\n      //updates salesdetails struct\n      soldTokens[_tokenId].redeemed = true;\n      //emit event\n      emit RedeemedToken(_tokenId, _buyerID, _buyerAddress);\n      return true;\n    }\n\n  //call functions\n    //get how much a buyer has donated in total\n    function getBuyerAmount(bytes32 _buyerID) public view returns (uint256 total) {\n      if (buyers[_buyerID].exists) {\n        return buyers[_buyerID].totalContributed;\n      }\n      return 0;\n\t\t}\n    //get total amount donated\n    function getTotalRaised() public view returns (uint) {\n      return totalRaised;\n\t\t}\n    //get total specfically allocated\n    function getTotalAllocatedDonations() public view returns (uint) {\n      return totalChosenDonations;\n\t\t}\n    //get total made donations\n    function getTotalMadeDonations() public view returns (uint) {\n      return totalMadeDonations;\n\t\t}\n\n    //get boolean to see if NFT has been redeemed or not\n    function getRedemption(uint _tokenId) public view returns (bool) {\n      return soldTokens[_tokenId].redeemed;\n\t\t}\n    //get boolean to see if NFT has been sold or not\n    function getTokenSold(uint256 _tokenId) public view returns (bool) {\n      return soldTokens[_tokenId].exists;\n    }\n\n    //get token ownerOf\n    function getTokenOwner(uint _tokenId) public view returns (address) {\n      address owner = ownerOf(_tokenId);\n      return owner;\n    }\n\n    //transfer ownership of contract\n    function transferContract(address newOwner) public onlyOwner {\n      transferOwnership(newOwner);\n    }\n\n    //fallback\n\t  function() payable public { }\n}\n",
  "sourcePath": "/Applications/MAMP/htdocs/LuxToken/contracts/LuxOrders.sol",
  "compiler": {
    "name": "solc",
    "version": "0.4.24+commit.e67f0147.Emscripten.clang"
  },
  "schemaVersion": "2.0.1",
  "updatedAt": "2018-10-06T08:07:51.774Z"
}