{
  "contractName": "LuxOrders",
  "abi": [
    {
      "constant": true,
      "inputs": [],
      "name": "totalDonated",
      "outputs": [
        {
          "name": "",
          "type": "uint256"
        }
      ],
      "payable": false,
      "stateMutability": "view",
      "type": "function"
    },
    {
      "constant": true,
      "inputs": [
        {
          "name": "interfaceId",
          "type": "bytes4"
        }
      ],
      "name": "supportsInterface",
      "outputs": [
        {
          "name": "",
          "type": "bool"
        }
      ],
      "payable": false,
      "stateMutability": "view",
      "type": "function"
    },
    {
      "constant": true,
      "inputs": [],
      "name": "totalChosenDonatedAmount",
      "outputs": [
        {
          "name": "",
          "type": "uint256"
        }
      ],
      "payable": false,
      "stateMutability": "view",
      "type": "function"
    },
    {
      "constant": true,
      "inputs": [],
      "name": "name",
      "outputs": [
        {
          "name": "",
          "type": "string"
        }
      ],
      "payable": false,
      "stateMutability": "view",
      "type": "function"
    },
    {
      "constant": true,
      "inputs": [
        {
          "name": "tokenId",
          "type": "uint256"
        }
      ],
      "name": "getApproved",
      "outputs": [
        {
          "name": "",
          "type": "address"
        }
      ],
      "payable": false,
      "stateMutability": "view",
      "type": "function"
    },
    {
      "constant": false,
      "inputs": [
        {
          "name": "to",
          "type": "address"
        },
        {
          "name": "tokenId",
          "type": "uint256"
        }
      ],
      "name": "approve",
      "outputs": [],
      "payable": false,
      "stateMutability": "nonpayable",
      "type": "function"
    },
    {
      "constant": true,
      "inputs": [],
      "name": "totalSupply",
      "outputs": [
        {
          "name": "",
          "type": "uint256"
        }
      ],
      "payable": false,
      "stateMutability": "view",
      "type": "function"
    },
    {
      "constant": true,
      "inputs": [],
      "name": "totalChosenDonations",
      "outputs": [
        {
          "name": "",
          "type": "uint256"
        }
      ],
      "payable": false,
      "stateMutability": "view",
      "type": "function"
    },
    {
      "constant": true,
      "inputs": [],
      "name": "totalMadeDonations",
      "outputs": [
        {
          "name": "",
          "type": "uint256"
        }
      ],
      "payable": false,
      "stateMutability": "view",
      "type": "function"
    },
    {
      "constant": false,
      "inputs": [
        {
          "name": "from",
          "type": "address"
        },
        {
          "name": "to",
          "type": "address"
        },
        {
          "name": "tokenId",
          "type": "uint256"
        }
      ],
      "name": "transferFrom",
      "outputs": [],
      "payable": false,
      "stateMutability": "nonpayable",
      "type": "function"
    },
    {
      "constant": true,
      "inputs": [
        {
          "name": "owner",
          "type": "address"
        },
        {
          "name": "index",
          "type": "uint256"
        }
      ],
      "name": "tokenOfOwnerByIndex",
      "outputs": [
        {
          "name": "",
          "type": "uint256"
        }
      ],
      "payable": false,
      "stateMutability": "view",
      "type": "function"
    },
    {
      "constant": true,
      "inputs": [],
      "name": "orderIndex",
      "outputs": [
        {
          "name": "",
          "type": "uint256"
        }
      ],
      "payable": false,
      "stateMutability": "view",
      "type": "function"
    },
    {
      "constant": false,
      "inputs": [
        {
          "name": "from",
          "type": "address"
        },
        {
          "name": "to",
          "type": "address"
        },
        {
          "name": "tokenId",
          "type": "uint256"
        }
      ],
      "name": "safeTransferFrom",
      "outputs": [],
      "payable": false,
      "stateMutability": "nonpayable",
      "type": "function"
    },
    {
      "constant": true,
      "inputs": [
        {
          "name": "index",
          "type": "uint256"
        }
      ],
      "name": "tokenByIndex",
      "outputs": [
        {
          "name": "",
          "type": "uint256"
        }
      ],
      "payable": false,
      "stateMutability": "view",
      "type": "function"
    },
    {
      "constant": true,
      "inputs": [
        {
          "name": "tokenId",
          "type": "uint256"
        }
      ],
      "name": "ownerOf",
      "outputs": [
        {
          "name": "",
          "type": "address"
        }
      ],
      "payable": false,
      "stateMutability": "view",
      "type": "function"
    },
    {
      "constant": true,
      "inputs": [
        {
          "name": "owner",
          "type": "address"
        }
      ],
      "name": "balanceOf",
      "outputs": [
        {
          "name": "",
          "type": "uint256"
        }
      ],
      "payable": false,
      "stateMutability": "view",
      "type": "function"
    },
    {
      "constant": false,
      "inputs": [],
      "name": "renounceOwnership",
      "outputs": [],
      "payable": false,
      "stateMutability": "nonpayable",
      "type": "function"
    },
    {
      "constant": true,
      "inputs": [
        {
          "name": "",
          "type": "bytes32"
        }
      ],
      "name": "buyers",
      "outputs": [
        {
          "name": "totalContributed",
          "type": "uint256"
        },
        {
          "name": "totalDonationsAllocated",
          "type": "uint256"
        },
        {
          "name": "exists",
          "type": "bool"
        }
      ],
      "payable": false,
      "stateMutability": "view",
      "type": "function"
    },
    {
      "constant": true,
      "inputs": [
        {
          "name": "",
          "type": "uint256"
        }
      ],
      "name": "orderTokens",
      "outputs": [
        {
          "name": "saleAmount",
          "type": "uint256"
        },
        {
          "name": "orderNumber",
          "type": "uint256"
        },
        {
          "name": "tokenURI",
          "type": "string"
        },
        {
          "name": "generation",
          "type": "address"
        },
        {
          "name": "owner",
          "type": "address"
        },
        {
          "name": "redeemed",
          "type": "bool"
        },
        {
          "name": "buyerHash",
          "type": "bytes32"
        },
        {
          "name": "redemptionHash",
          "type": "bytes32"
        },
        {
          "name": "exists",
          "type": "bool"
        }
      ],
      "payable": false,
      "stateMutability": "view",
      "type": "function"
    },
    {
      "constant": true,
      "inputs": [],
      "name": "owner",
      "outputs": [
        {
          "name": "",
          "type": "address"
        }
      ],
      "payable": false,
      "stateMutability": "view",
      "type": "function"
    },
    {
      "constant": true,
      "inputs": [],
      "name": "isOwner",
      "outputs": [
        {
          "name": "",
          "type": "bool"
        }
      ],
      "payable": false,
      "stateMutability": "view",
      "type": "function"
    },
    {
      "constant": true,
      "inputs": [],
      "name": "symbol",
      "outputs": [
        {
          "name": "",
          "type": "string"
        }
      ],
      "payable": false,
      "stateMutability": "view",
      "type": "function"
    },
    {
      "constant": false,
      "inputs": [
        {
          "name": "to",
          "type": "address"
        },
        {
          "name": "approved",
          "type": "bool"
        }
      ],
      "name": "setApprovalForAll",
      "outputs": [],
      "payable": false,
      "stateMutability": "nonpayable",
      "type": "function"
    },
    {
      "constant": true,
      "inputs": [
        {
          "name": "",
          "type": "bytes32"
        }
      ],
      "name": "madeDonations",
      "outputs": [
        {
          "name": "charityName",
          "type": "string"
        },
        {
          "name": "donationProofUrl",
          "type": "string"
        },
        {
          "name": "amountDonated",
          "type": "uint256"
        },
        {
          "name": "donorAddress",
          "type": "address"
        }
      ],
      "payable": false,
      "stateMutability": "view",
      "type": "function"
    },
    {
      "constant": false,
      "inputs": [
        {
          "name": "from",
          "type": "address"
        },
        {
          "name": "to",
          "type": "address"
        },
        {
          "name": "tokenId",
          "type": "uint256"
        },
        {
          "name": "_data",
          "type": "bytes"
        }
      ],
      "name": "safeTransferFrom",
      "outputs": [],
      "payable": false,
      "stateMutability": "nonpayable",
      "type": "function"
    },
    {
      "constant": true,
      "inputs": [],
      "name": "totalRaised",
      "outputs": [
        {
          "name": "",
          "type": "uint256"
        }
      ],
      "payable": false,
      "stateMutability": "view",
      "type": "function"
    },
    {
      "constant": true,
      "inputs": [
        {
          "name": "tokenId",
          "type": "uint256"
        }
      ],
      "name": "tokenURI",
      "outputs": [
        {
          "name": "",
          "type": "string"
        }
      ],
      "payable": false,
      "stateMutability": "view",
      "type": "function"
    },
    {
      "constant": true,
      "inputs": [
        {
          "name": "",
          "type": "bytes32"
        }
      ],
      "name": "charities",
      "outputs": [
        {
          "name": "charityName",
          "type": "string"
        },
        {
          "name": "amountChosenToDonate",
          "type": "uint256"
        },
        {
          "name": "amountDonated",
          "type": "uint256"
        },
        {
          "name": "exists",
          "type": "bool"
        }
      ],
      "payable": false,
      "stateMutability": "view",
      "type": "function"
    },
    {
      "constant": true,
      "inputs": [
        {
          "name": "owner",
          "type": "address"
        },
        {
          "name": "operator",
          "type": "address"
        }
      ],
      "name": "isApprovedForAll",
      "outputs": [
        {
          "name": "",
          "type": "bool"
        }
      ],
      "payable": false,
      "stateMutability": "view",
      "type": "function"
    },
    {
      "constant": false,
      "inputs": [
        {
          "name": "newOwner",
          "type": "address"
        }
      ],
      "name": "transferOwnership",
      "outputs": [],
      "payable": false,
      "stateMutability": "nonpayable",
      "type": "function"
    },
    {
      "constant": true,
      "inputs": [
        {
          "name": "",
          "type": "uint256"
        }
      ],
      "name": "chooseDonations",
      "outputs": [
        {
          "name": "charityName",
          "type": "string"
        },
        {
          "name": "amountAllocated",
          "type": "uint256"
        },
        {
          "name": "buyerHash",
          "type": "bytes32"
        },
        {
          "name": "exists",
          "type": "bool"
        }
      ],
      "payable": false,
      "stateMutability": "view",
      "type": "function"
    },
    {
      "inputs": [],
      "payable": false,
      "stateMutability": "nonpayable",
      "type": "constructor"
    },
    {
      "payable": true,
      "stateMutability": "payable",
      "type": "fallback"
    },
    {
      "anonymous": false,
      "inputs": [
        {
          "indexed": false,
          "name": "_tokenId",
          "type": "uint256"
        },
        {
          "indexed": false,
          "name": "_buyerID",
          "type": "bytes32"
        },
        {
          "indexed": false,
          "name": "_saleAmount",
          "type": "uint256"
        },
        {
          "indexed": false,
          "name": "_tokenURI",
          "type": "string"
        },
        {
          "indexed": false,
          "name": "_tokenMinter",
          "type": "address"
        },
        {
          "indexed": false,
          "name": "_orderNumber",
          "type": "uint256"
        }
      ],
      "name": "SoldAndMintedToken",
      "type": "event"
    },
    {
      "anonymous": false,
      "inputs": [
        {
          "indexed": false,
          "name": "_charityName",
          "type": "string"
        },
        {
          "indexed": false,
          "name": "_buyerId",
          "type": "bytes32"
        },
        {
          "indexed": false,
          "name": "_amountToBeDonated",
          "type": "uint256"
        }
      ],
      "name": "DonationChosen",
      "type": "event"
    },
    {
      "anonymous": false,
      "inputs": [
        {
          "indexed": false,
          "name": "_donationHash",
          "type": "bytes32"
        },
        {
          "indexed": false,
          "name": "_amountDonated",
          "type": "uint256"
        },
        {
          "indexed": false,
          "name": "_charityName",
          "type": "string"
        },
        {
          "indexed": false,
          "name": "_donationURL",
          "type": "string"
        }
      ],
      "name": "DonationMadeToCharity",
      "type": "event"
    },
    {
      "anonymous": false,
      "inputs": [
        {
          "indexed": false,
          "name": "_tokenId",
          "type": "uint256"
        },
        {
          "indexed": false,
          "name": "_buyerId",
          "type": "bytes32"
        },
        {
          "indexed": false,
          "name": "_buyerAddress",
          "type": "address"
        }
      ],
      "name": "RedeemedToken",
      "type": "event"
    },
    {
      "anonymous": false,
      "inputs": [
        {
          "indexed": true,
          "name": "previousOwner",
          "type": "address"
        }
      ],
      "name": "OwnershipRenounced",
      "type": "event"
    },
    {
      "anonymous": false,
      "inputs": [
        {
          "indexed": true,
          "name": "previousOwner",
          "type": "address"
        },
        {
          "indexed": true,
          "name": "newOwner",
          "type": "address"
        }
      ],
      "name": "OwnershipTransferred",
      "type": "event"
    },
    {
      "anonymous": false,
      "inputs": [
        {
          "indexed": true,
          "name": "from",
          "type": "address"
        },
        {
          "indexed": true,
          "name": "to",
          "type": "address"
        },
        {
          "indexed": true,
          "name": "tokenId",
          "type": "uint256"
        }
      ],
      "name": "Transfer",
      "type": "event"
    },
    {
      "anonymous": false,
      "inputs": [
        {
          "indexed": true,
          "name": "owner",
          "type": "address"
        },
        {
          "indexed": true,
          "name": "approved",
          "type": "address"
        },
        {
          "indexed": true,
          "name": "tokenId",
          "type": "uint256"
        }
      ],
      "name": "Approval",
      "type": "event"
    },
    {
      "anonymous": false,
      "inputs": [
        {
          "indexed": true,
          "name": "owner",
          "type": "address"
        },
        {
          "indexed": true,
          "name": "operator",
          "type": "address"
        },
        {
          "indexed": false,
          "name": "approved",
          "type": "bool"
        }
      ],
      "name": "ApprovalForAll",
      "type": "event"
    },
    {
      "constant": false,
      "inputs": [
        {
          "name": "_tokenURI",
          "type": "string"
        },
        {
          "name": "_saleAmount",
          "type": "uint256"
        },
        {
          "name": "_buyerID",
          "type": "string"
        },
        {
          "name": "_redemptionHash",
          "type": "string"
        },
        {
          "name": "_orderNumber",
          "type": "uint256"
        }
      ],
      "name": "soldOrderToMint",
      "outputs": [
        {
          "name": "",
          "type": "uint256"
        }
      ],
      "payable": false,
      "stateMutability": "nonpayable",
      "type": "function"
    },
    {
      "constant": false,
      "inputs": [
        {
          "name": "_buyerID",
          "type": "string"
        },
        {
          "name": "_charityName",
          "type": "string"
        },
        {
          "name": "_chosenDonateAmount",
          "type": "uint256"
        },
        {
          "name": "_orderNumber",
          "type": "uint256"
        },
        {
          "name": "_tokenId",
          "type": "uint256"
        }
      ],
      "name": "chooseDonation",
      "outputs": [
        {
          "name": "",
          "type": "bool"
        }
      ],
      "payable": false,
      "stateMutability": "nonpayable",
      "type": "function"
    },
    {
      "constant": false,
      "inputs": [
        {
          "name": "_proofHash",
          "type": "string"
        },
        {
          "name": "_proofURL",
          "type": "string"
        },
        {
          "name": "_madeDonationAmount",
          "type": "uint256"
        },
        {
          "name": "_charityName",
          "type": "string"
        }
      ],
      "name": "makeDonation",
      "outputs": [
        {
          "name": "",
          "type": "bool"
        }
      ],
      "payable": false,
      "stateMutability": "nonpayable",
      "type": "function"
    },
    {
      "constant": false,
      "inputs": [
        {
          "name": "_buyerID",
          "type": "string"
        },
        {
          "name": "_redemptionHash",
          "type": "string"
        },
        {
          "name": "_buyerAddress",
          "type": "address"
        },
        {
          "name": "_tokenId",
          "type": "uint256"
        }
      ],
      "name": "redeemOrder",
      "outputs": [
        {
          "name": "",
          "type": "bool"
        }
      ],
      "payable": false,
      "stateMutability": "nonpayable",
      "type": "function"
    },
    {
      "constant": false,
      "inputs": [
        {
          "name": "_buyerID",
          "type": "string"
        },
        {
          "name": "_redemptionHash",
          "type": "string"
        },
        {
          "name": "_buyerAddress",
          "type": "address"
        },
        {
          "name": "_tokenId",
          "type": "uint256"
        }
      ],
      "name": "safeRedeemOrder",
      "outputs": [
        {
          "name": "",
          "type": "bool"
        }
      ],
      "payable": false,
      "stateMutability": "nonpayable",
      "type": "function"
    },
    {
      "constant": true,
      "inputs": [
        {
          "name": "_buyerID",
          "type": "string"
        }
      ],
      "name": "getBuyerAmount",
      "outputs": [
        {
          "name": "total",
          "type": "uint256"
        }
      ],
      "payable": false,
      "stateMutability": "view",
      "type": "function"
    },
    {
      "constant": true,
      "inputs": [
        {
          "name": "_tokenId",
          "type": "uint256"
        }
      ],
      "name": "getRedemption",
      "outputs": [
        {
          "name": "",
          "type": "bool"
        }
      ],
      "payable": false,
      "stateMutability": "view",
      "type": "function"
    },
    {
      "constant": true,
      "inputs": [
        {
          "name": "_tokenId",
          "type": "uint256"
        }
      ],
      "name": "getTokenOwner",
      "outputs": [
        {
          "name": "",
          "type": "address"
        }
      ],
      "payable": false,
      "stateMutability": "view",
      "type": "function"
    },
    {
      "constant": true,
      "inputs": [
        {
          "name": "_tokenId",
          "type": "uint256"
        }
      ],
      "name": "getTokenSaleAmount",
      "outputs": [
        {
          "name": "",
          "type": "uint256"
        }
      ],
      "payable": false,
      "stateMutability": "view",
      "type": "function"
    },
    {
      "constant": true,
      "inputs": [
        {
          "name": "_tokenId",
          "type": "uint256"
        }
      ],
      "name": "getTokenURI",
      "outputs": [
        {
          "name": "",
          "type": "string"
        }
      ],
      "payable": false,
      "stateMutability": "view",
      "type": "function"
    },
    {
      "constant": true,
      "inputs": [
        {
          "name": "_tokenId",
          "type": "uint256"
        }
      ],
      "name": "getTokenBuyer",
      "outputs": [
        {
          "name": "",
          "type": "bytes32"
        }
      ],
      "payable": false,
      "stateMutability": "view",
      "type": "function"
    },
    {
      "constant": true,
      "inputs": [
        {
          "name": "_tokenId",
          "type": "uint256"
        }
      ],
      "name": "getTokenRedemptionHash",
      "outputs": [
        {
          "name": "",
          "type": "bytes32"
        }
      ],
      "payable": false,
      "stateMutability": "view",
      "type": "function"
    },
    {
      "constant": true,
      "inputs": [
        {
          "name": "_charityName",
          "type": "string"
        }
      ],
      "name": "getCharityName",
      "outputs": [
        {
          "name": "",
          "type": "string"
        }
      ],
      "payable": false,
      "stateMutability": "view",
      "type": "function"
    },
    {
      "constant": true,
      "inputs": [
        {
          "name": "_charityName",
          "type": "string"
        }
      ],
      "name": "getCharityAmountChosen",
      "outputs": [
        {
          "name": "",
          "type": "uint256"
        }
      ],
      "payable": false,
      "stateMutability": "view",
      "type": "function"
    },
    {
      "constant": true,
      "inputs": [
        {
          "name": "_charityName",
          "type": "string"
        }
      ],
      "name": "getCharityAmountDonated",
      "outputs": [
        {
          "name": "",
          "type": "uint256"
        }
      ],
      "payable": false,
      "stateMutability": "view",
      "type": "function"
    },
    {
      "constant": true,
      "inputs": [
        {
          "name": "_proofHash",
          "type": "string"
        }
      ],
      "name": "getMadeDonationCharityName",
      "outputs": [
        {
          "name": "",
          "type": "string"
        }
      ],
      "payable": false,
      "stateMutability": "view",
      "type": "function"
    },
    {
      "constant": true,
      "inputs": [
        {
          "name": "_proofHash",
          "type": "string"
        }
      ],
      "name": "getMadeDonationProofUrl",
      "outputs": [
        {
          "name": "",
          "type": "string"
        }
      ],
      "payable": false,
      "stateMutability": "view",
      "type": "function"
    },
    {
      "constant": true,
      "inputs": [
        {
          "name": "_proofHash",
          "type": "string"
        }
      ],
      "name": "getMadeDonationAmountDonated",
      "outputs": [
        {
          "name": "",
          "type": "uint256"
        }
      ],
      "payable": false,
      "stateMutability": "view",
      "type": "function"
    },
    {
      "constant": true,
      "inputs": [
        {
          "name": "_proofHash",
          "type": "string"
        }
      ],
      "name": "getMadeDonationAddress",
      "outputs": [
        {
          "name": "",
          "type": "address"
        }
      ],
      "payable": false,
      "stateMutability": "view",
      "type": "function"
    },
    {
      "constant": true,
      "inputs": [
        {
          "name": "_buyerHash",
          "type": "string"
        }
      ],
      "name": "getBuyerContributed",
      "outputs": [
        {
          "name": "",
          "type": "uint256"
        }
      ],
      "payable": false,
      "stateMutability": "view",
      "type": "function"
    },
    {
      "constant": true,
      "inputs": [
        {
          "name": "_buyerHash",
          "type": "string"
        }
      ],
      "name": "getBuyerAllocated",
      "outputs": [
        {
          "name": "",
          "type": "uint256"
        }
      ],
      "payable": false,
      "stateMutability": "view",
      "type": "function"
    },
    {
      "constant": false,
      "inputs": [
        {
          "name": "newOwner",
          "type": "address"
        }
      ],
      "name": "transferContract",
      "outputs": [],
      "payable": false,
      "stateMutability": "nonpayable",
      "type": "function"
    }
  ],
  "bytecode": "0x60806040523480156200001157600080fd5b50604080518082018252601481527f4c75786172697479204f7264657220546f6b656e0000000000000000000000006020808301919091528251808401909352600483527f4c5558300000000000000000000000000000000000000000000000000000000090830152908181620000b17f01ffc9a700000000000000000000000000000000000000000000000000000000640100000000620001b3810204565b620000e57f80ac58cd00000000000000000000000000000000000000000000000000000000640100000000620001b3810204565b620001197f780e9d6300000000000000000000000000000000000000000000000000000000640100000000620001b3810204565b81516200012e90600990602085019062000220565b5080516200014490600a90602084019062000220565b50620001797f5b5e139f00000000000000000000000000000000000000000000000000000000640100000000620001b3810204565b5050600c8054600160a060020a0319163317905550506000600d819055600e819055600f81905560118190556012819055601055620002c5565b7fffffffff000000000000000000000000000000000000000000000000000000008082161415620001e357600080fd5b7fffffffff00000000000000000000000000000000000000000000000000000000166000908152602081905260409020805460ff19166001179055565b828054600181600116156101000203166002900490600052602060002090601f016020900481019282601f106200026357805160ff191683800117855562000293565b8280016001018555821562000293579182015b828111156200029357825182559160200191906001019062000276565b50620002a1929150620002a5565b5090565b620002c291905b80821115620002a15760008155600101620002ac565b90565b61404380620002d56000396000f30060806040526004361061027b5763ffffffff7c0100000000000000000000000000000000000000000000000000000000600035041662b37044811461027d57806301ffc9a7146102a457806303d52de5146102ef57806306fdde0314610304578063081812fc1461038e578063095ea7b3146103c25780630feb81b9146103e657806315edcae8146103fe57806318160ddd146104575780631953cc211461046c5780631a168b58146104845780631f0bf9411461049957806323b872dd146104ae5780632cb4dd92146104d85780632f745c59146105b557806330471fee146105d95780633bb3a24d146105ee57806342842e0e1461060657806347635dac146106305780634f6ccce7146106515780636352211e1461066957806366301a5f1461068157806370a08231146106da578063715018a6146106fb5780637ecbaf8014610710578063830ac2811461074857806385012848146107a1578063882a8f5c146108495780638da5cb5b146109275780638f32d59b1461093c5780638f8a47a2146109515780639070a868146109aa57806391eb42bc14610a0357806395d89b4114610a1b5780639ca0249a14610a30578063a22cb46514610a48578063a5aa435214610a6e578063a5cd761f14610b12578063ad8a1aef14610b2a578063b295806214610bd2578063b4a6e0e914610cdd578063b88d4fde14610d36578063c0f4312314610da5578063c5c4744c14610dfe578063c87b56dd14610e13578063d55e244a14610e2b578063d7db3a1f14610e84578063e139d8c614610edd578063e985e9c514610f86578063f015e5e014610fad578063f2fde38b14611006578063f41893cd14611027578063f991051914611102575b005b34801561028957600080fd5b5061029261116a565b60408051918252519081900360200190f35b3480156102b057600080fd5b506102db7bffffffffffffffffffffffffffffffffffffffffffffffffffffffff1960043516611170565b604080519115158252519081900360200190f35b3480156102fb57600080fd5b506102926111a4565b34801561031057600080fd5b506103196111aa565b6040805160208082528351818301528351919283929083019185019080838360005b8381101561035357818101518382015260200161033b565b50505050905090810190601f1680156103805780820380516001836020036101000a031916815260200191505b509250505060405180910390f35b34801561039a57600080fd5b506103a6600435611241565b60408051600160a060020a039092168252519081900360200190f35b3480156103ce57600080fd5b5061027b600160a060020a0360043516602435611273565b3480156103f257600080fd5b5061029260043561131c565b34801561040a57600080fd5b506040805160206004803580820135601f81018490048402850184019095528484526103a69436949293602493928401919081908401838280828437509497506113529650505050505050565b34801561046357600080fd5b50610292611464565b34801561047857600080fd5b506102db60043561146a565b34801561049057600080fd5b506102926114ad565b3480156104a557600080fd5b506102926114b3565b3480156104ba57600080fd5b5061027b600160a060020a03600435811690602435166044356114b9565b3480156104e457600080fd5b506040805160206004803580820135601f810184900484028501840190955284845261029294369492936024939284019190819084018382808284375050604080516020601f818a01358b0180359182018390048302840183018552818452989b8a359b909a90999401975091955091820193509150819084018382808284375050604080516020601f89358b018035918201839004830284018301909452808352979a99988101979196509182019450925082915084018382808284375094975050933594506115479350505050565b3480156105c157600080fd5b50610292600160a060020a03600435166024356119b7565b3480156105e557600080fd5b50610292611a04565b3480156105fa57600080fd5b50610319600435611a0a565b34801561061257600080fd5b5061027b600160a060020a0360043581169060243516604435611ad3565b34801561063c57600080fd5b5061027b600160a060020a0360043516611af4565b34801561065d57600080fd5b50610292600435611b13565b34801561067557600080fd5b506103a6600435611b48565b34801561068d57600080fd5b506040805160206004803580820135601f8101849004840285018401909552848452610292943694929360249392840191908190840183828082843750949750611b729650505050505050565b3480156106e657600080fd5b50610292600160a060020a0360043516611c76565b34801561070757600080fd5b5061027b611ca9565b34801561071c57600080fd5b50610728600435611d06565b604080519384526020840192909252151582820152519081900360600190f35b34801561075457600080fd5b506040805160206004803580820135601f8101849004840285018401909552848452610292943694929360249392840191908190840183828082843750949750611d2a9650505050505050565b3480156107ad57600080fd5b506040805160206004803580820135601f81018490048402850184019095528484526102db94369492936024939284019190819084018382808284375050604080516020601f89358b018035918201839004830284018301909452808352979a99988101979196509182019450925082915084018382808284375094975050508335600160a060020a0316945050506020909101359050611e2e565b34801561085557600080fd5b506108616004356120fe565b604080518a815260208082018b9052600160a060020a03808a1660608401528816608083015286151560a083015260c0820186905260e082018590528315156101008301526101209282018381528a519383019390935289519192916101408401918b019080838360005b838110156108e45781810151838201526020016108cc565b50505050905090810190601f1680156109115780820380516001836020036101000a031916815260200191505b509a505050505050505050505060405180910390f35b34801561093357600080fd5b506103a66121e3565b34801561094857600080fd5b506102db6121f2565b34801561095d57600080fd5b506040805160206004803580820135601f81018490048402850184019095528484526102929436949293602493928401919081908401838280828437509497506122039650505050505050565b3480156109b657600080fd5b506040805160206004803580820135601f81018490048402850184019095528484526103199436949293602493928401919081908401838280828437509497506123099650505050505050565b348015610a0f57600080fd5b50610292600435612496565b348015610a2757600080fd5b506103196124cf565b348015610a3c57600080fd5b50610292600435612530565b348015610a5457600080fd5b5061027b600160a060020a03600435166024351515612569565b348015610a7a57600080fd5b506040805160206004803580820135601f81018490048402850184019095528484526102db94369492936024939284019190819084018382808284375050604080516020601f89358b018035918201839004830284018301909452808352979a999881019791965091820194509250829150840183828082843750949750508435955050506020830135926040013591506125ed9050565b348015610b1e57600080fd5b506103a6600435612a6f565b348015610b3657600080fd5b506040805160206004803580820135601f81018490048402850184019095528484526102db94369492936024939284019190819084018382808284375050604080516020601f89358b018035918201839004830284018301909452808352979a99988101979196509182019450925082915084018382808284375094975050508335600160a060020a0316945050506020909101359050612a9b565b348015610bde57600080fd5b50610bea600435612d16565b60408051908101839052600160a060020a038216606082015260808082528551908201528451819060208083019160a084019189019080838360005b83811015610c3e578181015183820152602001610c26565b50505050905090810190601f168015610c6b5780820380516001836020036101000a031916815260200191505b50838103825286518152865160209182019188019080838360005b83811015610c9e578181015183820152602001610c86565b50505050905090810190601f168015610ccb5780820380516001836020036101000a031916815260200191505b50965050505050505060405180910390f35b348015610ce957600080fd5b506040805160206004803580820135601f8101849004840285018401909552848452610292943694929360249392840191908190840183828082843750949750612e6b9650505050505050565b348015610d4257600080fd5b50604080516020601f60643560048181013592830184900484028501840190955281845261027b94600160a060020a038135811695602480359092169560443595369560849401918190840183828082843750949750612f6c9650505050505050565b348015610db157600080fd5b506040805160206004803580820135601f8101849004840285018401909552848452610292943694929360249392840191908190840183828082843750949750612f949650505050505050565b348015610e0a57600080fd5b50610292613095565b348015610e1f57600080fd5b5061031960043561309b565b348015610e3757600080fd5b506040805160206004803580820135601f81018490048402850184019095528484526103199436949293602493928401919081908401838280828437509497506131199650505050505050565b348015610e9057600080fd5b506040805160206004803580820135601f81018490048402850184019095528484526103199436949293602493928401919081908401838280828437509497506132789650505050505050565b348015610ee957600080fd5b50610ef56004356133cf565b604051808060200185815260200184815260200183151515158152602001828103825286818151815260200191508051906020019080838360005b83811015610f48578181015183820152602001610f30565b50505050905090810190601f168015610f755780820380516001836020036101000a031916815260200191505b509550505050505060405180910390f35b348015610f9257600080fd5b506102db600160a060020a0360043581169060243516613487565b348015610fb957600080fd5b506040805160206004803580820135601f81018490048402850184019095528484526102929436949293602493928401919081908401838280828437509497506134b59650505050505050565b34801561101257600080fd5b5061027b600160a060020a03600435166135b9565b34801561103357600080fd5b506040805160206004803580820135601f81018490048402850184019095528484526102db94369492936024939284019190819084018382808284375050604080516020601f89358b018035918201839004830284018301909452808352979a99988101979196509182019450925082915084018382808284375050604080516020601f818a01358b0180359182018390048302840183018552818452989b8a359b909a9099940197509195509182019350915081908401838280828437509497506135d59650505050505050565b34801561110e57600080fd5b5061111a6004356138af565b6040805160208082018690529181018490528215156060820152608080825286519082015285519091829160a0830191880190808383600083811015610f48578181015183820152602001610f30565b600f5481565b7bffffffffffffffffffffffffffffffffffffffffffffffffffffffff191660009081526020819052604090205460ff1690565b60105481565b60098054604080516020601f60026000196101006001881615020190951694909404938401819004810282018101909252828152606093909290918301828280156112365780601f1061120b57610100808354040283529160200191611236565b820191906000526020600020905b81548152906001019060200180831161121957829003601f168201915b505050505090505b90565b600061124c8261391b565b151561125757600080fd5b50600090815260026020526040902054600160a060020a031690565b600061127e82611b48565b9050600160a060020a03838116908216141561129957600080fd5b33600160a060020a03821614806112b557506112b58133613487565b15156112c057600080fd5b6000828152600260205260408082208054600160a060020a031916600160a060020a0387811691821790925591518593918516917f8c5be1e5ebec7d5bd14f71427d1e84f3dd0314c0f7b2291e5b200ac8c7c3b92591a4505050565b60008181526013602052604081206007015460ff16151560011461133f57600080fd5b5060009081526013602052604090205490565b600080826040516020018082805190602001908083835b602083106113885780518252601f199092019160209182019101611369565b6001836020036101000a0380198251168184511680821785525050505050509050019150506040516020818303038152906040526040518082805190602001908083835b602083106113eb5780518252601f1990920191602091820191016113cc565b51815160209384036101000a60001901801990921691161790526040805192909401829003909120600081815260169092529290206003015491945050600160a060020a031615159150611440905057600080fd5b600081815260166020526040902060030154600160a060020a031691505b50919050565b60075490565b60008181526013602052604081206007015460ff16151560011461148d57600080fd5b5060009081526013602052604090206004015460a060020a900460ff1690565b60115481565b60125481565b6114c33382613938565b15156114ce57600080fd5b600160a060020a03821615156114e357600080fd5b6114ed8382613997565b6114f783826139fb565b6115018282613b02565b8082600160a060020a031684600160a060020a03167fddf252ad1be2c89b69c2b068fc378daa952ba7f163c4a11628f55a4df523b3ef60405160405180910390a4505050565b6000806000806115556121f2565b151561156057600080fd5b600d5460010192506115718361391b565b1561157b57600080fd5b87151561158757600080fd5b866040516020018082805190602001908083835b602083106115ba5780518252601f19909201916020918201910161159b565b6001836020036101000a0380198251168184511680821785525050505050509050019150506040516020818303038152906040526040518082805190602001908083835b6020831061161d5780518252601f1990920191602091820191016115fe565b51815160209384036101000a60001901801990921691161790526040519190930181900381208b519097508b955090830193508392850191508083835b602083106116795780518252601f19909201916020918201910161165a565b6001836020036101000a0380198251168184511680821785525050505050509050019150506040516020818303038152906040526040518082805190602001908083835b602083106116dc5780518252601f1990920191602091820191016116bd565b51815160209384036101000a6000190180199092169116179052604080519290940182900390912060008881526017909252929020600201549194505060ff1615159150611779905057604080516060810182528981526000602080830182815260018486018181528885526017909352949092209251835590519282019290925590516002909101805460ff191691151591909117905561178e565b60008281526017602052604090208054890190555b600e805489019055600d805460019081019182905560408051610120810182528b815260208082018a81528284018f815233606085018190526080850152600060a0850181905260c085018a905260e0850189905261010085018790529687526013835293909520825181559451938501939093559051805191939261181c92600285019290910190613f5f565b506060820151600382018054600160a060020a0319908116600160a060020a0393841617909155608084015160048401805460a08701519316919093161774ff0000000000000000000000000000000000000000191660a060020a9115159190910217905560c0820151600582015560e08201516006820155610100909101516007909101805460ff1916911515919091179055600d546118be903390613b4b565b6118ca600d548a613b9a565b7fdf14ab0bd3ad49f0b747d18afda5b216a30949352a2f85caa227bcd84dd6e11c600d54838a8c338a6040518087815260200186600019166000191681526020018581526020018060200184600160a060020a0316600160a060020a03168152602001838152602001828103825285818151815260200191508051906020019080838360005b83811015611968578181015183820152602001611950565b50505050905090810190601f1680156119955780820380516001836020036101000a031916815260200191505b5097505050505050505060405180910390a15050600d54979650505050505050565b60006119c283611c76565b82106119cd57600080fd5b600160a060020a03831660009081526005602052604090208054839081106119f157fe5b9060005260206000200154905092915050565b600d5481565b60008181526013602052604090206007015460609060ff161515600114611a3057600080fd5b6000828152601360209081526040918290206002908101805484516001821615610100026000190190911692909204601f810184900484028301840190945283825290929091830182828015611ac75780601f10611a9c57610100808354040283529160200191611ac7565b820191906000526020600020905b815481529060010190602001808311611aaa57829003601f168201915b50505050509050919050565b611aef8383836020604051908101604052806000815250612f6c565b505050565b611afc6121f2565b1515611b0757600080fd5b611b10816135b9565b50565b6000611b1d611464565b8210611b2857600080fd5b6007805483908110611b3657fe5b90600052602060002001549050919050565b600081815260016020526040812054600160a060020a0316801515611b6c57600080fd5b92915050565b600080826040516020018082805190602001908083835b60208310611ba85780518252601f199092019160209182019101611b89565b6001836020036101000a0380198251168184511680821785525050505050509050019150506040516020818303038152906040526040518082805190602001908083835b60208310611c0b5780518252601f199092019160209182019101611bec565b51815160001960209485036101000a019081169019919091161790526040805194909201849003909320600081815260149094529220600301549194505060ff1615156001149150611c5e905057600080fd5b60009081526014602052604090206001015492915050565b6000600160a060020a0382161515611c8d57600080fd5b50600160a060020a031660009081526003602052604090205490565b611cb16121f2565b1515611cbc57600080fd5b600c54604051600160a060020a03909116907ff8df31144d9c2f0f6b59d69b8b98abd5459d07f2742c4df920b25aae33c6482090600090a2600c8054600160a060020a0319169055565b60176020526000908152604090208054600182015460029092015490919060ff1683565b600080826040516020018082805190602001908083835b60208310611d605780518252601f199092019160209182019101611d41565b6001836020036101000a0380198251168184511680821785525050505050509050019150506040516020818303038152906040526040518082805190602001908083835b60208310611dc35780518252601f199092019160209182019101611da4565b51815160001960209485036101000a019081169019919091161790526040805194909201849003909320600081815260179094529220600201549194505060ff1615156001149150611e16905057600080fd5b60009081526017602052604090206001015492915050565b6000806000866040516020018082805190602001908083835b60208310611e665780518252601f199092019160209182019101611e47565b6001836020036101000a0380198251168184511680821785525050505050509050019150506040516020818303038152906040526040518082805190602001908083835b60208310611ec95780518252601f199092019160209182019101611eaa565b51815160001960209485036101000a019081169019919091161790526040805194909201849003909320600081815260179094529220600201549195505060ff1615156001149150611f1c905057600080fd5b856040516020018082805190602001908083835b60208310611f4f5780518252601f199092019160209182019101611f30565b6001836020036101000a0380198251168184511680821785525050505050509050019150506040516020818303038152906040526040518082805190602001908083835b60208310611fb25780518252601f199092019160209182019101611f93565b51815160001960209485036101000a01908116901991909116179052604080519490920184900390932060008a815260139094529220600701549194505060ff1615156001149150612005905057600080fd5b600160a060020a038516151561201a57600080fd5b600084815260136020526040902060050154821461203757600080fd5b600084815260136020526040902060060154811461205457600080fd5b6000848152601360205260409020600401805460a060020a600160a060020a0319909116600160a060020a0388161774ff000000000000000000000000000000000000000019161790556120a9338686611ad3565b6040805185815260208101849052600160a060020a0387168183015290517f228808fc7f1cf2105ae7d045c73ecb559cd36038b92afc74b2d6c12adc0598729181900360600190a15060019695505050505050565b60136020908152600091825260409182902080546001808301546002808501805488519481161561010002600019011691909104601f81018790048702840187019097528683529295909491929183018282801561219d5780601f106121725761010080835404028352916020019161219d565b820191906000526020600020905b81548152906001019060200180831161218057829003601f168201915b50505060038401546004850154600586015460068701546007909701549596600160a060020a0393841696938316955060ff60a060020a90930483169450909290911689565b600c54600160a060020a031690565b600c54600160a060020a0316331490565b600080826040516020018082805190602001908083835b602083106122395780518252601f19909201916020918201910161221a565b6001836020036101000a0380198251168184511680821785525050505050509050019150506040516020818303038152906040526040518082805190602001908083835b6020831061229c5780518252601f19909201916020918201910161227d565b51815160209384036101000a60001901801990921691161790526040805192909401829003909120600081815260169092529290206003015491945050600160a060020a0316151591506122f1905057600080fd5b60009081526016602052604090206002015492915050565b60606000826040516020018082805190602001908083835b602083106123405780518252601f199092019160209182019101612321565b6001836020036101000a0380198251168184511680821785525050505050509050019150506040516020818303038152906040526040518082805190602001908083835b602083106123a35780518252601f199092019160209182019101612384565b51815160001960209485036101000a019081169019919091161790526040805194909201849003909320600081815260149094529220600301549194505060ff16151560011491506123f6905057600080fd5b60008181526014602090815260409182902080548351601f6002610100600185161502600019019093169290920491820184900484028101840190945280845290918301828280156124895780601f1061245e57610100808354040283529160200191612489565b820191906000526020600020905b81548152906001019060200180831161246c57829003601f168201915b5050505050915050919050565b60008181526013602052604081206007015460ff1615156001146124b957600080fd5b5060009081526013602052604090206006015490565b600a8054604080516020601f60026000196101006001881615020190951694909404938401819004810282018101909252828152606093909290918301828280156112365780601f1061120b57610100808354040283529160200191611236565b60008181526013602052604081206007015460ff16151560011461255357600080fd5b5060009081526013602052604090206005015490565b600160a060020a03821633141561257f57600080fd5b336000818152600460209081526040808320600160a060020a03871680855290835292819020805460ff1916861515908117909155815190815290519293927f17307eab39ab6107e8899845ad3d59bd9653f200f220920489ca2b5937696c31929181900390910190a35050565b6000806000806000896040516020018082805190602001908083835b602083106126285780518252601f199092019160209182019101612609565b6001836020036101000a0380198251168184511680821785525050505050509050019150506040516020818303038152906040526040518082805190602001908083835b6020831061268b5780518252601f19909201916020918201910161266c565b51815160001960209485036101000a019081169019919091161790526040805194909201849003909320600081815260179094529220600201549197505060ff16151560011491506126de905057600080fd5b6000848152601760205260409020600181015490540392508783101561270357600080fd5b60008681526013602052604090205488111561271e57600080fd5b60008781526015602052604090206003015460ff16156127a357600087815260156020526040902060020154841461275557600080fd5b600087815260156020908152604080832060010154898452601390925290912054908901925082111561278757600080fd5b6000878152601560205260409020600101805489019055612817565b604080516080810182528a815260208082018b90528183018790526001606083015260008a8152601582529290922081518051929391926127e79284920190613f5f565b5060208201516001820155604082015160028201556060909101516003909101805460ff19169115159190911790555b601080548901905560118054600190810190915560008581526017602090815260409182902090920180548b019055518a518b92918201918291908401908083835b602083106128785780518252601f199092019160209182019101612859565b6001836020036101000a0380198251168184511680821785525050505050509050019150506040516020818303038152906040526040518082805190602001908083835b602083106128db5780518252601f1990920191602091820191016128bc565b51815160209384036101000a6000190180199092169116179052604080519290940182900390912060008181526014909252929020600301549194505060ff1615915061294090505760008181526014602052604090206001018054890190556129b4565b604080516080810182528a815260208082018b9052600082840181905260016060840152848152601482529290922081518051929391926129849284920190613f5f565b5060208201516001820155604082015160028201556060909101516003909101805460ff19169115159190911790555b6040805160208082018790529181018a905260608082528b51908201528a517fe1e2f04378c01049d9d077035633dcf281eb34649d091dd1d7d1f0c3b4686fa0928c9288928d928291608083019187019080838360005b83811015612a23578181015183820152602001612a0b565b50505050905090810190601f168015612a505780820380516001836020036101000a031916815260200191505b5094505050505060405180910390a15060019998505050505050505050565b60008181526013602052604081206007015460ff161515600114612a9257600080fd5b611b6c82611b48565b6000806000866040516020018082805190602001908083835b60208310612ad35780518252601f199092019160209182019101612ab4565b6001836020036101000a0380198251168184511680821785525050505050509050019150506040516020818303038152906040526040518082805190602001908083835b60208310612b365780518252601f199092019160209182019101612b17565b51815160001960209485036101000a019081169019919091161790526040805194909201849003909320600081815260179094529220600201549195505060ff1615156001149150612b89905057600080fd5b856040516020018082805190602001908083835b60208310612bbc5780518252601f199092019160209182019101612b9d565b6001836020036101000a0380198251168184511680821785525050505050509050019150506040516020818303038152906040526040518082805190602001908083835b60208310612c1f5780518252601f199092019160209182019101612c00565b51815160001960209485036101000a01908116901991909116179052604080519490920184900390932060008a815260139094529220600701549194505060ff1615156001149150612c72905057600080fd5b600160a060020a0385161515612c8757600080fd5b6000848152601360205260409020600501548214612ca457600080fd5b6000848152601360205260409020600601548114612cc157600080fd5b6000848152601360205260409020600401805460a060020a600160a060020a0319909116600160a060020a0388161774ff000000000000000000000000000000000000000019161790556120a93386866114b9565b60166020908152600091825260409182902080548351601f60026000196101006001861615020190931692909204918201849004840281018401909452808452909291839190830182828015612dad5780601f10612d8257610100808354040283529160200191612dad565b820191906000526020600020905b815481529060010190602001808311612d9057829003601f168201915b505050505090806001018054600181600116156101000203166002900480601f016020809104026020016040519081016040528092919081815260200182805460018160011615610100020316600290048015612e4b5780601f10612e2057610100808354040283529160200191612e4b565b820191906000526020600020905b815481529060010190602001808311612e2e57829003601f168201915b505050506002830154600390930154919291600160a060020a0316905084565b600080826040516020018082805190602001908083835b60208310612ea15780518252601f199092019160209182019101612e82565b6001836020036101000a0380198251168184511680821785525050505050509050019150506040516020818303038152906040526040518082805190602001908083835b60208310612f045780518252601f199092019160209182019101612ee5565b51815160001960209485036101000a019081169019919091161790526040805194909201849003909320600081815260179094529220600201549194505060ff1615156001149150612f57905057600080fd5b60009081526017602052604090205492915050565b612f778484846114b9565b612f8384848484613bcd565b1515612f8e57600080fd5b50505050565b600080826040516020018082805190602001908083835b60208310612fca5780518252601f199092019160209182019101612fab565b6001836020036101000a0380198251168184511680821785525050505050509050019150506040516020818303038152906040526040518082805190602001908083835b6020831061302d5780518252601f19909201916020918201910161300e565b51815160209384036101000a6000190180199092169116179052604080519290940182900390912060008181526017909252929020600201549194505060ff1615915061308c905057600081815260176020526040902054915061145e565b50600092915050565b600e5481565b60606130a68261391b565b15156130b157600080fd5b6000828152600b602090815260409182902080548351601f600260001961010060018616150201909316929092049182018490048402810184019094528084529091830182828015611ac75780601f10611a9c57610100808354040283529160200191611ac7565b60606000826040516020018082805190602001908083835b602083106131505780518252601f199092019160209182019101613131565b6001836020036101000a0380198251168184511680821785525050505050509050019150506040516020818303038152906040526040518082805190602001908083835b602083106131b35780518252601f199092019160209182019101613194565b51815160209384036101000a60001901801990921691161790526040805192909401829003909120600081815260169092529290206003015491945050600160a060020a031615159150613208905057600080fd5b600081815260166020908152604091829020600190810180548451600260001994831615610100029490940190911692909204601f8101849004840283018401909452838252909290918301828280156124895780601f1061245e57610100808354040283529160200191612489565b60606000826040516020018082805190602001908083835b602083106132af5780518252601f199092019160209182019101613290565b6001836020036101000a0380198251168184511680821785525050505050509050019150506040516020818303038152906040526040518082805190602001908083835b602083106133125780518252601f1990920191602091820191016132f3565b51815160209384036101000a60001901801990921691161790526040805192909401829003909120600081815260169092529290206003015491945050600160a060020a031615159150613367905057600080fd5b60008181526016602090815260409182902080548351601f6002610100600185161502600019019093169290920491820184900484028101840190945280845290918301828280156124895780601f1061245e57610100808354040283529160200191612489565b60146020908152600091825260409182902080548351601f600260001961010060018616150201909316929092049182018490048402810184019094528084529092918391908301828280156134665780601f1061343b57610100808354040283529160200191613466565b820191906000526020600020905b81548152906001019060200180831161344957829003601f168201915b50505050600183015460028401546003909401549293909290915060ff1684565b600160a060020a03918216600090815260046020908152604080832093909416825291909152205460ff1690565b600080826040516020018082805190602001908083835b602083106134eb5780518252601f1990920191602091820191016134cc565b6001836020036101000a0380198251168184511680821785525050505050509050019150506040516020818303038152906040526040518082805190602001908083835b6020831061354e5780518252601f19909201916020918201910161352f565b51815160001960209485036101000a019081169019919091161790526040805194909201849003909320600081815260149094529220600301549194505060ff16151560011491506135a1905057600080fd5b60009081526014602052604090206002015492915050565b6135c16121f2565b15156135cc57600080fd5b611b1081613d4f565b60008060006135e26121f2565b15156135ed57600080fd5b600f54600e540391508482101561360357600080fd5b866040516020018082805190602001908083835b602083106136365780518252601f199092019160209182019101613617565b6001836020036101000a0380198251168184511680821785525050505050509050019150506040516020818303038152906040526040518082805190602001908083835b602083106136995780518252601f19909201916020918201910161367a565b51815160209384036101000a60001901801990921691161790526040805192909401829003909120600081815260169092529290206003015491945050600160a060020a03161591506136ed905057600080fd5b601280546001019055600f8054860190556040805160808101825285815260208082018990528183018890523360608301526000848152601682529290922081518051929391926137419284920190613f5f565b50602082810151805161375a9260018501920190613f5f565b50604082810151600283015560609283015160039092018054600160a060020a031916600160a060020a039093169290921790915580518381526020808201899052608092820183815288519383019390935287517f965e11cadfce1b707c18dbda4f6b490b4088fb42bf5de6fbbfb27e85548c26d09486948b948b948e94919384019160a085019187019080838360005b838110156138045781810151838201526020016137ec565b50505050905090810190601f1680156138315780820380516001836020036101000a031916815260200191505b50838103825284518152845160209182019186019080838360005b8381101561386457818101518382015260200161384c565b50505050905090810190601f1680156138915780820380516001836020036101000a031916815260200191505b50965050505050505060405180910390a15060019695505050505050565b60156020908152600091825260409182902080548351601f600260001961010060018616150201909316929092049182018490048402810184019094528084529092918391908301828280156134665780601f1061343b57610100808354040283529160200191613466565b600090815260016020526040902054600160a060020a0316151590565b60008061394483611b48565b905080600160a060020a031684600160a060020a0316148061397f575083600160a060020a031661397484611241565b600160a060020a0316145b8061398f575061398f8185613487565b949350505050565b81600160a060020a03166139aa82611b48565b600160a060020a0316146139bd57600080fd5b600081815260026020526040902054600160a060020a0316156139f75760008181526002602052604090208054600160a060020a03191690555b5050565b6000806000613a0a8585613dc0565b600084815260066020908152604080832054600160a060020a0389168452600590925290912054909350613a4590600163ffffffff613e4916565b600160a060020a038616600090815260056020526040902080549193509083908110613a6d57fe5b90600052602060002001549050806005600087600160a060020a0316600160a060020a0316815260200190815260200160002084815481101515613aad57fe5b6000918252602080832090910192909255600160a060020a0387168152600590915260409020805490613ae4906000198301613fdd565b50600093845260066020526040808520859055908452909220555050565b6000613b0e8383613e60565b50600160a060020a039091166000908152600560209081526040808320805460018101825590845282842081018590559383526006909152902055565b613b558282613ee3565b600780546000838152600860205260408120829055600182018355919091527fa66cc928b5edb82af9bd49922954155ab7b0942694bea4ce44661d9a8736c688015550565b613ba38261391b565b1515613bae57600080fd5b6000828152600b602090815260409091208251611aef92840190613f5f565b600080613be285600160a060020a0316613f3e565b1515613bf15760019150613d46565b6040517f150b7a020000000000000000000000000000000000000000000000000000000081523360048201818152600160a060020a03898116602485015260448401889052608060648501908152875160848601528751918a169463150b7a0294938c938b938b93909160a490910190602085019080838360005b83811015613c84578181015183820152602001613c6c565b50505050905090810190601f168015613cb15780820380516001836020036101000a031916815260200191505b5095505050505050602060405180830381600087803b158015613cd357600080fd5b505af1158015613ce7573d6000803e3d6000fd5b505050506040513d6020811015613cfd57600080fd5b50517bffffffffffffffffffffffffffffffffffffffffffffffffffffffff1981167f150b7a020000000000000000000000000000000000000000000000000000000014925090505b50949350505050565b600160a060020a0381161515613d6457600080fd5b600c54604051600160a060020a038084169216907f8be0079c531659141344cd1fd0a4f28419497f9722a3daafe3b4186f6b6457e090600090a3600c8054600160a060020a031916600160a060020a0392909216919091179055565b81600160a060020a0316613dd382611b48565b600160a060020a031614613de657600080fd5b600160a060020a038216600090815260036020526040902054613e1090600163ffffffff613e4916565b600160a060020a039092166000908152600360209081526040808320949094559181526001909152208054600160a060020a0319169055565b60008083831115613e5957600080fd5b5050900390565b600081815260016020526040902054600160a060020a031615613e8257600080fd5b60008181526001602081815260408084208054600160a060020a031916600160a060020a0388169081179091558452600390915290912054613ec391613f46565b600160a060020a0390921660009081526003602052604090209190915550565b600160a060020a0382161515613ef857600080fd5b613f028282613b02565b6040518190600160a060020a038416906000907fddf252ad1be2c89b69c2b068fc378daa952ba7f163c4a11628f55a4df523b3ef908290a45050565b6000903b1190565b600082820183811015613f5857600080fd5b9392505050565b828054600181600116156101000203166002900490600052602060002090601f016020900481019282601f10613fa057805160ff1916838001178555613fcd565b82800160010185558215613fcd579182015b82811115613fcd578251825591602001919060010190613fb2565b50613fd9929150613ffd565b5090565b815481835581811115611aef57600083815260209020611aef9181019083015b61123e91905b80821115613fd957600081556001016140035600a165627a7a7230582017a815a7430714c50f77928e8c7ec13e23337414ffb7a0db75b954da371e59790029",
  "source": "pragma solidity ^0.4.24;\n\nimport '../openzeppelin-solidity-master/contracts/token/ERC721/ERC721Full.sol';\nimport \"../openzeppelin-solidity-master/contracts/ownership/Ownable.sol\";\n\ncontract LuxOrders is ERC721Full, Ownable {\n\n  //state variables\n\n    //tokenid index\n    uint256 public orderIndex;\n\n    //total raised in sales uint256 USD\n    uint256 public totalRaised;\n\n    //total verifiably donated to charities\n    uint256 public totalDonated;\n\n    //total amount chosen to be donated\n    uint256 public totalChosenDonatedAmount;\n\n    //total number of chosen donations\n    uint256 public totalChosenDonations;\n\n    //total number of made donations\n    uint256 public totalMadeDonations;\n\n    //token mapping\n    mapping (uint256 => OrderToken) public orderTokens;\n\n    //token struct for order -> which represents a sale\n    struct OrderToken {\n      uint256 saleAmount;\n      uint256 orderNumber;\n      string tokenURI;\n      address generation;\n      address owner;\n      bool redeemed;\n      bytes32 buyerHash;\n      bytes32 redemptionHash;\n      bool exists; //always true\n    }\n\n    //charities mapping to track the total amount chosen to be donated\n    //to each charity, id is SHA256(full name of charity)\n    mapping (bytes32 => Charity) public charities;\n    struct Charity {\n      string charityName;\n      uint256 amountChosenToDonate;\n      uint256 amountDonated;\n      bool exists; //always true\n    }\n\n    //chooseDonations -> index is orderNumber\n    //this is here so double allocations from one order cannot be made\n    mapping (uint256 => ChooseDonation) public chooseDonations;\n    struct ChooseDonation {\n      string charityName;\n      uint256 amountAllocated;\n      bytes32 buyerHash;\n      bool exists;\n    }\n\n    //MadeDonations is a list of donations actually made\n    //id is hash of donation IPFS url, indexed by proofHash\n    mapping (bytes32 => MadeDonation) public madeDonations;\n    struct MadeDonation {\n      string charityName; //name of charity luxarity sent proceeds to\n      string donationProofUrl;\n      uint256 amountDonated; //amount donated via grant to charity\n      address donorAddress; //address of owner of contract (luxarity)\n    }\n\n    //buyers mapping with buyer struct bytes32 => buyer\n    mapping (bytes32 => Buyer) public buyers;\n    struct Buyer {\n      uint256 totalContributed; //total amount the buyer has bought in USD\n      uint256 totalDonationsAllocated; //amount of donation capital allocated\n      bool exists; //always true\n    }\n\n\n  //constructor for NFT token, name = Luxarity, symbol = LUX\n    constructor() ERC721Full('Luxarity Order Token', 'LUX0') public {\n      //tokenid index\n      orderIndex = 0;\n      //total capital raised uint256 USD\n      totalRaised = 0;\n      //total donated by luxarity (USD)\n      totalDonated = 0;\n      //total number of chosen donations\n      totalChosenDonations = 0;\n      //total number of made donations\n      totalMadeDonations = 0;\n      //total amount chosen to be donated\n      totalChosenDonatedAmount = 0;\n    }\n\n  //events\n    event SoldAndMintedToken (uint256 _tokenId, bytes32 _buyerID, uint256 _saleAmount, string _tokenURI, address _tokenMinter, uint256 _orderNumber);\n    //event when donation is chosen (bytes32, amount, charityName, donation id)\n    event DonationChosen (string _charityName, bytes32 _buyerId, uint256 _amountToBeDonated);\n    //event when donation is made by luxarity\n    event DonationMadeToCharity (bytes32 _donationHash, uint256 _amountDonated, string _charityName, string _donationURL);\n    //event when token is redeemed\n    event RedeemedToken (uint256 _tokenId, bytes32 _buyerId, address _buyerAddress);\n\n  //cuase functions\n\n    //mint function - when Orders are sold in an order - the receipt should be tokenized\n    function soldOrderToMint(string _tokenURI, uint256 _saleAmount, string _buyerID, string _redemptionHash, uint256 _orderNumber) public onlyOwner returns (uint) {\n\n      //1.0 Ensure token doesn't already exists\n      uint256 testIndex = orderIndex + 1;\n      require(_exists(testIndex) == false);\n      require(_saleAmount != 0);\n\n      //create buyerhash and redemption hash\n      bytes32 buyerID = keccak256(abi.encodePacked(_buyerID));\n      bytes32 redemptionHash = keccak256(abi.encodePacked(_redemptionHash));\n\n      //2.0 check if buyer already exists\n      if (!buyers[buyerID].exists) {\n        //adding new buyer to buyers mapping\n        buyers[buyerID] = Buyer(_saleAmount, 0, true);\n      } else {\n        //update existing buyer\n        buyers[buyerID].totalContributed += _saleAmount;\n      }\n\n      //increment total donations\n      totalRaised += _saleAmount;\n\n      //increment orderIndex\n      orderIndex += 1;\n\n      //create new sale\n      orderTokens[orderIndex] = OrderToken(_saleAmount, _orderNumber, _tokenURI, msg.sender, msg.sender, false, buyerID, redemptionHash, true);\n\n      //mint token\n      _mint(msg.sender, orderIndex);\n\n      //set metadata\n      _setTokenURI(orderIndex, _tokenURI);\n\n      //emit event\n      emit SoldAndMintedToken(orderIndex, buyerID, _saleAmount, _tokenURI, msg.sender, _orderNumber);\n\n      //return\n      return orderIndex;\n\n    }\n\n    //chooseDonation function\n    function chooseDonation(string _buyerID, string _charityName, uint256 _chosenDonateAmount, uint256 _orderNumber, uint256 _tokenId) public returns (bool) {\n\n      //check if buyer exists\n      bytes32 buyerID = keccak256(abi.encodePacked(_buyerID));\n      require(buyers[buyerID].exists == true);\n\n      //check if amount to donate is less than or equal to the amount left for buyer\n      uint256 leftover = buyers[buyerID].totalContributed - buyers[buyerID].totalDonationsAllocated;\n      require(leftover >= _chosenDonateAmount);\n\n      // amount needs to be equal to or less than its corresponding order total amount\n      require(orderTokens[_tokenId].saleAmount >= _chosenDonateAmount);\n\n      //check if donation has been made before and the total is reached\n      if (chooseDonations[_orderNumber].exists) {\n        //only person that can allocate is the person who made the order\n        require(chooseDonations[_orderNumber].buyerHash == buyerID);\n        //determine what the new chosen donation amount will be\n        uint256 newTotal = _chosenDonateAmount + chooseDonations[_orderNumber].amountAllocated;\n        //enforce that that amount is less than the sale amount\n        require(newTotal <= orderTokens[_tokenId].saleAmount);\n        //increment total allocated chosen donations for that order\n        chooseDonations[_orderNumber].amountAllocated += _chosenDonateAmount;\n      } else {\n        //add to chosenDonations mapping\n        chooseDonations[_orderNumber] = ChooseDonation(_charityName, _chosenDonateAmount, buyerID, true);\n      }\n\n      //incement totalChosenDonatedAmount\n      totalChosenDonatedAmount += _chosenDonateAmount;\n      //increment total number of donations chosen to be made\n      totalChosenDonations += 1;\n      //update buyers donation allocation\n      buyers[buyerID].totalDonationsAllocated += _chosenDonateAmount;\n      //check if charity is new\n      bytes32 charityHash = keccak256(abi.encodePacked(_charityName));\n\n      //if it is, add to charity mapping\n      if (charities[charityHash].exists) {\n        charities[charityHash].amountChosenToDonate += _chosenDonateAmount;\n      } else {\n        //if not, update charity struct\n        charities[charityHash] = Charity(_charityName, _chosenDonateAmount, 0, true);\n      }\n\n      //emit event ChosenToDonate\n      emit DonationChosen(_charityName, buyerID, _chosenDonateAmount);\n\n      //return true\n      return true;\n\n    }\n\n    //make donation function\n    function makeDonation(string _proofHash, string _proofURL, uint256 _madeDonationAmount, string _charityName) public onlyOwner returns (bool) {\n      uint256 leftover = totalRaised - totalDonated;\n      require(leftover >= _madeDonationAmount);\n\n      //create proper hash (sha256 of data proof of donation)\n      bytes32 proofHash = keccak256(abi.encodePacked(_proofHash));\n\n      //check if donation doesn't exist yet\n      require(madeDonations[proofHash].donorAddress == address(0));\n      //increment total made donations\n      totalMadeDonations += 1;\n      //total donated sum amount increased\n      totalDonated += _madeDonationAmount;\n\n      //add to made donations mapping\n      madeDonations[proofHash] = MadeDonation(_charityName, _proofURL, _madeDonationAmount, msg.sender);\n      //emit event\n      emit DonationMadeToCharity(proofHash, _madeDonationAmount, _charityName, _proofURL);\n      //return\n      return true;\n    }\n\n    //redeem token\n    function redeemOrder(string _buyerID, string _redemptionHash, address _buyerAddress, uint256 _tokenId) public returns (bool) {\n\n      //create buyerhash\n      bytes32 buyerID = keccak256(abi.encodePacked(_buyerID));\n      require(buyers[buyerID].exists == true);\n\n      //create redemption hash\n      bytes32 redemptionHash = keccak256(abi.encodePacked(_redemptionHash));\n\n      //make sure address is valid\n      require(orderTokens[_tokenId].exists == true);\n      require(_buyerAddress != address(0));\n      require(orderTokens[_tokenId].buyerHash == buyerID);\n      require(orderTokens[_tokenId].redemptionHash == redemptionHash);\n\n      orderTokens[_tokenId].owner = _buyerAddress;\n      orderTokens[_tokenId].redeemed = true;\n      //conduct transfer from Luxarity to address\n      transferFrom(msg.sender, _buyerAddress, _tokenId);\n      //emit event\n      emit RedeemedToken(_tokenId, buyerID, _buyerAddress);\n      return true;\n    }\n\n    //safe redeem token\n    function safeRedeemOrder(string _buyerID, string _redemptionHash, address _buyerAddress, uint256 _tokenId) public returns (bool) {\n      //create buyerhash\n      bytes32 buyerID = keccak256(abi.encodePacked(_buyerID));\n      require(buyers[buyerID].exists == true);\n\n      //create redemption hash\n      bytes32 redemptionHash = keccak256(abi.encodePacked(_redemptionHash));\n\n      //make sure address is valid\n      require(orderTokens[_tokenId].exists == true);\n      require(_buyerAddress != address(0));\n      require(orderTokens[_tokenId].buyerHash == buyerID);\n      require(orderTokens[_tokenId].redemptionHash == redemptionHash);\n\n      orderTokens[_tokenId].owner = _buyerAddress;\n      orderTokens[_tokenId].redeemed = true;\n      //conduct transfer from Luxarity to address\n      safeTransferFrom(msg.sender, _buyerAddress, _tokenId);\n      //emit event\n      emit RedeemedToken(_tokenId, buyerID, _buyerAddress);\n      return true;\n    }\n\n  //call functions\n    //get how much a buyer has donated in total\n    function getBuyerAmount(string _buyerID) public view returns (uint256 total) {\n      //create buyerhash\n      bytes32 buyerID = keccak256(abi.encodePacked(_buyerID));\n      if (buyers[buyerID].exists) {\n        return buyers[buyerID].totalContributed;\n      }\n      return 0;\n\t\t}\n\n    //get boolean to see if NFT has been redeemed or not\n    function getRedemption(uint256 _tokenId) public view returns (bool) {\n      require(orderTokens[_tokenId].exists == true);\n      return orderTokens[_tokenId].redeemed;\n\t\t}\n\n    //get token ownerOf\n    function getTokenOwner(uint256 _tokenId) public view returns (address) {\n      require(orderTokens[_tokenId].exists == true);\n      return ownerOf(_tokenId);\n    }\n\n    //get token sale amount\n    function getTokenSaleAmount(uint256 _tokenId) public view returns (uint256) {\n      require(orderTokens[_tokenId].exists == true);\n      return orderTokens[_tokenId].saleAmount;\n    }\n\n    //get token uri\n    function getTokenURI(uint256 _tokenId) public view returns (string) {\n      require(orderTokens[_tokenId].exists == true);\n      return orderTokens[_tokenId].tokenURI;\n    }\n\n    //get token buyer hash\n    function getTokenBuyer(uint256 _tokenId) public view returns (bytes32) {\n      require(orderTokens[_tokenId].exists == true);\n      return orderTokens[_tokenId].buyerHash;\n    }\n\n    //get token redemption hash\n    function getTokenRedemptionHash(uint256 _tokenId) public view returns (bytes32) {\n      require(orderTokens[_tokenId].exists == true);\n      return orderTokens[_tokenId].redemptionHash;\n    }\n\n    //get charity name\n    function getCharityName(string _charityName) public view returns (string) {\n      bytes32 charityHash = keccak256(abi.encodePacked(_charityName));\n      require(charities[charityHash].exists == true);\n      return charities[charityHash].charityName;\n    }\n\n    //get charity amount chosen to donate\n    function getCharityAmountChosen(string _charityName) public view returns (uint256) {\n      bytes32 charityHash = keccak256(abi.encodePacked(_charityName));\n      require(charities[charityHash].exists == true);\n      return charities[charityHash].amountChosenToDonate;\n    }\n\n    //get charity amount actually donated\n    function getCharityAmountDonated(string _charityName) public view returns (uint256) {\n      bytes32 charityHash = keccak256(abi.encodePacked(_charityName));\n      require(charities[charityHash].exists == true);\n      return charities[charityHash].amountDonated;\n    }\n\n    //get made donation charity name\n    function getMadeDonationCharityName(string _proofHash) public view returns (string) {\n      //create proper hash (sha256 of data proof of donation)\n      bytes32 proofHash = keccak256(abi.encodePacked(_proofHash));\n      require(madeDonations[proofHash].donorAddress != address(0));\n      return madeDonations[proofHash].charityName;\n    }\n\n    //get made donation proof url\n    function getMadeDonationProofUrl(string _proofHash) public view returns (string) {\n      //create proper hash (sha256 of data proof of donation)\n      bytes32 proofHash = keccak256(abi.encodePacked(_proofHash));\n      require(madeDonations[proofHash].donorAddress != address(0));\n      return madeDonations[proofHash].donationProofUrl;\n    }\n\n    //get made donation amount donated\n    function getMadeDonationAmountDonated(string _proofHash) public view returns (uint256) {\n      //create proper hash (sha256 of data proof of donation)\n      bytes32 proofHash = keccak256(abi.encodePacked(_proofHash));\n      require(madeDonations[proofHash].donorAddress != address(0));\n      return madeDonations[proofHash].amountDonated;\n    }\n\n    //get made donation donor address\n    function getMadeDonationAddress(string _proofHash) public view returns (address) {\n      //create proper hash (sha256 of data proof of donation)\n      bytes32 proofHash = keccak256(abi.encodePacked(_proofHash));\n      require(madeDonations[proofHash].donorAddress != address(0));\n      return madeDonations[proofHash].donorAddress;\n    }\n\n    //get buyer totalContributed\n    function getBuyerContributed(string _buyerHash) public view returns (uint256) {\n      //create proper hash (sha256 of data proof of donation)\n      bytes32 buyerHash = keccak256(abi.encodePacked(_buyerHash));\n      require(buyers[buyerHash].exists == true);\n      return buyers[buyerHash].totalContributed;\n    }\n\n    //get buyer totalDonationsAllocated\n    function getBuyerAllocated(string _buyerHash) public view returns (uint256) {\n      //create proper hash (sha256 of data proof of donation)\n      bytes32 buyerHash = keccak256(abi.encodePacked(_buyerHash));\n      require(buyers[buyerHash].exists == true);\n      return buyers[buyerHash].totalDonationsAllocated;\n    }\n\n    //transfer ownership of contract\n    function transferContract(address newOwner) public onlyOwner {\n      transferOwnership(newOwner);\n    }\n\n    //fallback\n\t  function() payable public { }\n}\n",
  "sourcePath": "/Applications/MAMP/htdocs/LuxToken/contracts/LuxOrders.sol",
  "compiler": {
    "name": "solc",
    "version": "0.4.24+commit.e67f0147.Emscripten.clang"
  },
  "schemaVersion": "2.0.1",
  "updatedAt": "2018-10-29T00:21:20.172Z"
}