{
  "contractName": "LuxTokens",
  "abi": [
    {
      "constant": true,
      "inputs": [],
      "name": "totalDonated",
      "outputs": [
        {
          "name": "",
          "type": "uint256"
        }
      ],
      "payable": false,
      "stateMutability": "view",
      "type": "function"
    },
    {
      "constant": true,
      "inputs": [
        {
          "name": "interfaceId",
          "type": "bytes4"
        }
      ],
      "name": "supportsInterface",
      "outputs": [
        {
          "name": "",
          "type": "bool"
        }
      ],
      "payable": false,
      "stateMutability": "view",
      "type": "function"
    },
    {
      "constant": true,
      "inputs": [],
      "name": "name",
      "outputs": [
        {
          "name": "",
          "type": "string"
        }
      ],
      "payable": false,
      "stateMutability": "view",
      "type": "function"
    },
    {
      "constant": true,
      "inputs": [
        {
          "name": "tokenId",
          "type": "uint256"
        }
      ],
      "name": "getApproved",
      "outputs": [
        {
          "name": "",
          "type": "address"
        }
      ],
      "payable": false,
      "stateMutability": "view",
      "type": "function"
    },
    {
      "constant": false,
      "inputs": [
        {
          "name": "to",
          "type": "address"
        },
        {
          "name": "tokenId",
          "type": "uint256"
        }
      ],
      "name": "approve",
      "outputs": [],
      "payable": false,
      "stateMutability": "nonpayable",
      "type": "function"
    },
    {
      "constant": true,
      "inputs": [],
      "name": "totalSupply",
      "outputs": [
        {
          "name": "",
          "type": "uint256"
        }
      ],
      "payable": false,
      "stateMutability": "view",
      "type": "function"
    },
    {
      "constant": true,
      "inputs": [],
      "name": "totalChosenDonations",
      "outputs": [
        {
          "name": "",
          "type": "uint256"
        }
      ],
      "payable": false,
      "stateMutability": "view",
      "type": "function"
    },
    {
      "constant": true,
      "inputs": [],
      "name": "totalMadeDonations",
      "outputs": [
        {
          "name": "",
          "type": "uint256"
        }
      ],
      "payable": false,
      "stateMutability": "view",
      "type": "function"
    },
    {
      "constant": false,
      "inputs": [
        {
          "name": "from",
          "type": "address"
        },
        {
          "name": "to",
          "type": "address"
        },
        {
          "name": "tokenId",
          "type": "uint256"
        }
      ],
      "name": "transferFrom",
      "outputs": [],
      "payable": false,
      "stateMutability": "nonpayable",
      "type": "function"
    },
    {
      "constant": true,
      "inputs": [
        {
          "name": "owner",
          "type": "address"
        },
        {
          "name": "index",
          "type": "uint256"
        }
      ],
      "name": "tokenOfOwnerByIndex",
      "outputs": [
        {
          "name": "",
          "type": "uint256"
        }
      ],
      "payable": false,
      "stateMutability": "view",
      "type": "function"
    },
    {
      "constant": true,
      "inputs": [],
      "name": "orderIndex",
      "outputs": [
        {
          "name": "",
          "type": "uint256"
        }
      ],
      "payable": false,
      "stateMutability": "view",
      "type": "function"
    },
    {
      "constant": false,
      "inputs": [
        {
          "name": "from",
          "type": "address"
        },
        {
          "name": "to",
          "type": "address"
        },
        {
          "name": "tokenId",
          "type": "uint256"
        }
      ],
      "name": "safeTransferFrom",
      "outputs": [],
      "payable": false,
      "stateMutability": "nonpayable",
      "type": "function"
    },
    {
      "constant": true,
      "inputs": [
        {
          "name": "index",
          "type": "uint256"
        }
      ],
      "name": "tokenByIndex",
      "outputs": [
        {
          "name": "",
          "type": "uint256"
        }
      ],
      "payable": false,
      "stateMutability": "view",
      "type": "function"
    },
    {
      "constant": true,
      "inputs": [
        {
          "name": "tokenId",
          "type": "uint256"
        }
      ],
      "name": "ownerOf",
      "outputs": [
        {
          "name": "",
          "type": "address"
        }
      ],
      "payable": false,
      "stateMutability": "view",
      "type": "function"
    },
    {
      "constant": true,
      "inputs": [
        {
          "name": "owner",
          "type": "address"
        }
      ],
      "name": "balanceOf",
      "outputs": [
        {
          "name": "",
          "type": "uint256"
        }
      ],
      "payable": false,
      "stateMutability": "view",
      "type": "function"
    },
    {
      "constant": false,
      "inputs": [],
      "name": "renounceOwnership",
      "outputs": [],
      "payable": false,
      "stateMutability": "nonpayable",
      "type": "function"
    },
    {
      "constant": true,
      "inputs": [
        {
          "name": "",
          "type": "bytes32"
        }
      ],
      "name": "buyers",
      "outputs": [
        {
          "name": "totalContributed",
          "type": "uint256"
        },
        {
          "name": "totalDonationsAllocated",
          "type": "uint256"
        },
        {
          "name": "exists",
          "type": "bool"
        },
        {
          "name": "buyerAddress",
          "type": "address"
        }
      ],
      "payable": false,
      "stateMutability": "view",
      "type": "function"
    },
    {
      "constant": true,
      "inputs": [],
      "name": "owner",
      "outputs": [
        {
          "name": "",
          "type": "address"
        }
      ],
      "payable": false,
      "stateMutability": "view",
      "type": "function"
    },
    {
      "constant": true,
      "inputs": [],
      "name": "isOwner",
      "outputs": [
        {
          "name": "",
          "type": "bool"
        }
      ],
      "payable": false,
      "stateMutability": "view",
      "type": "function"
    },
    {
      "constant": true,
      "inputs": [],
      "name": "symbol",
      "outputs": [
        {
          "name": "",
          "type": "string"
        }
      ],
      "payable": false,
      "stateMutability": "view",
      "type": "function"
    },
    {
      "constant": true,
      "inputs": [
        {
          "name": "",
          "type": "uint256"
        }
      ],
      "name": "chosenDonations",
      "outputs": [
        {
          "name": "charityName",
          "type": "string"
        },
        {
          "name": "amountDonated",
          "type": "uint256"
        },
        {
          "name": "buyerHash",
          "type": "bytes32"
        }
      ],
      "payable": false,
      "stateMutability": "view",
      "type": "function"
    },
    {
      "constant": false,
      "inputs": [
        {
          "name": "to",
          "type": "address"
        },
        {
          "name": "approved",
          "type": "bool"
        }
      ],
      "name": "setApprovalForAll",
      "outputs": [],
      "payable": false,
      "stateMutability": "nonpayable",
      "type": "function"
    },
    {
      "constant": true,
      "inputs": [
        {
          "name": "",
          "type": "uint256"
        }
      ],
      "name": "soldTokens",
      "outputs": [
        {
          "name": "buyerHash",
          "type": "bytes32"
        },
        {
          "name": "redemptionHash",
          "type": "bytes32"
        },
        {
          "name": "redeemed",
          "type": "bool"
        },
        {
          "name": "exists",
          "type": "bool"
        },
        {
          "name": "cost",
          "type": "uint256"
        }
      ],
      "payable": false,
      "stateMutability": "view",
      "type": "function"
    },
    {
      "constant": true,
      "inputs": [
        {
          "name": "",
          "type": "bytes32"
        }
      ],
      "name": "madeDonations",
      "outputs": [
        {
          "name": "charityName",
          "type": "string"
        },
        {
          "name": "amountDonated",
          "type": "uint256"
        },
        {
          "name": "donationProofHash",
          "type": "bytes32"
        },
        {
          "name": "donorAddress",
          "type": "address"
        },
        {
          "name": "donationProof",
          "type": "string"
        }
      ],
      "payable": false,
      "stateMutability": "view",
      "type": "function"
    },
    {
      "constant": false,
      "inputs": [
        {
          "name": "from",
          "type": "address"
        },
        {
          "name": "to",
          "type": "address"
        },
        {
          "name": "tokenId",
          "type": "uint256"
        },
        {
          "name": "_data",
          "type": "bytes"
        }
      ],
      "name": "safeTransferFrom",
      "outputs": [],
      "payable": false,
      "stateMutability": "nonpayable",
      "type": "function"
    },
    {
      "constant": true,
      "inputs": [],
      "name": "totalRaised",
      "outputs": [
        {
          "name": "",
          "type": "uint256"
        }
      ],
      "payable": false,
      "stateMutability": "view",
      "type": "function"
    },
    {
      "constant": true,
      "inputs": [
        {
          "name": "tokenId",
          "type": "uint256"
        }
      ],
      "name": "tokenURI",
      "outputs": [
        {
          "name": "",
          "type": "string"
        }
      ],
      "payable": false,
      "stateMutability": "view",
      "type": "function"
    },
    {
      "constant": true,
      "inputs": [
        {
          "name": "owner",
          "type": "address"
        },
        {
          "name": "operator",
          "type": "address"
        }
      ],
      "name": "isApprovedForAll",
      "outputs": [
        {
          "name": "",
          "type": "bool"
        }
      ],
      "payable": false,
      "stateMutability": "view",
      "type": "function"
    },
    {
      "constant": false,
      "inputs": [
        {
          "name": "newOwner",
          "type": "address"
        }
      ],
      "name": "transferOwnership",
      "outputs": [],
      "payable": false,
      "stateMutability": "nonpayable",
      "type": "function"
    },
    {
      "inputs": [],
      "payable": false,
      "stateMutability": "nonpayable",
      "type": "constructor"
    },
    {
      "payable": true,
      "stateMutability": "payable",
      "type": "fallback"
    },
    {
      "anonymous": false,
      "inputs": [
        {
          "indexed": false,
          "name": "_tokenId",
          "type": "uint256"
        },
        {
          "indexed": false,
          "name": "_tokenMinter",
          "type": "address"
        },
        {
          "indexed": false,
          "name": "_tokenMetaData",
          "type": "string"
        }
      ],
      "name": "MintedToken",
      "type": "event"
    },
    {
      "anonymous": false,
      "inputs": [
        {
          "indexed": false,
          "name": "_tokenId",
          "type": "uint256"
        },
        {
          "indexed": false,
          "name": "_buyerId",
          "type": "bytes32"
        },
        {
          "indexed": false,
          "name": "_cost",
          "type": "uint256"
        }
      ],
      "name": "SoldToken",
      "type": "event"
    },
    {
      "anonymous": false,
      "inputs": [
        {
          "indexed": false,
          "name": "_charityName",
          "type": "string"
        },
        {
          "indexed": false,
          "name": "_buyerId",
          "type": "bytes32"
        },
        {
          "indexed": false,
          "name": "_amountToBeDonated",
          "type": "uint256"
        }
      ],
      "name": "DonationChosen",
      "type": "event"
    },
    {
      "anonymous": false,
      "inputs": [
        {
          "indexed": false,
          "name": "_amountDonated",
          "type": "uint256"
        },
        {
          "indexed": false,
          "name": "_charityName",
          "type": "string"
        },
        {
          "indexed": false,
          "name": "_proofHash",
          "type": "bytes32"
        },
        {
          "indexed": false,
          "name": "_donationProof",
          "type": "string"
        },
        {
          "indexed": false,
          "name": "_donationMadeHash",
          "type": "bytes32"
        }
      ],
      "name": "DonationMadeToCharity",
      "type": "event"
    },
    {
      "anonymous": false,
      "inputs": [
        {
          "indexed": false,
          "name": "_tokenId",
          "type": "uint256"
        },
        {
          "indexed": false,
          "name": "_buyerId",
          "type": "bytes32"
        },
        {
          "indexed": false,
          "name": "_buyerAddress",
          "type": "address"
        }
      ],
      "name": "RedeemedToken",
      "type": "event"
    },
    {
      "anonymous": false,
      "inputs": [
        {
          "indexed": true,
          "name": "previousOwner",
          "type": "address"
        }
      ],
      "name": "OwnershipRenounced",
      "type": "event"
    },
    {
      "anonymous": false,
      "inputs": [
        {
          "indexed": true,
          "name": "previousOwner",
          "type": "address"
        },
        {
          "indexed": true,
          "name": "newOwner",
          "type": "address"
        }
      ],
      "name": "OwnershipTransferred",
      "type": "event"
    },
    {
      "anonymous": false,
      "inputs": [
        {
          "indexed": true,
          "name": "from",
          "type": "address"
        },
        {
          "indexed": true,
          "name": "to",
          "type": "address"
        },
        {
          "indexed": true,
          "name": "tokenId",
          "type": "uint256"
        }
      ],
      "name": "Transfer",
      "type": "event"
    },
    {
      "anonymous": false,
      "inputs": [
        {
          "indexed": true,
          "name": "owner",
          "type": "address"
        },
        {
          "indexed": true,
          "name": "approved",
          "type": "address"
        },
        {
          "indexed": true,
          "name": "tokenId",
          "type": "uint256"
        }
      ],
      "name": "Approval",
      "type": "event"
    },
    {
      "anonymous": false,
      "inputs": [
        {
          "indexed": true,
          "name": "owner",
          "type": "address"
        },
        {
          "indexed": true,
          "name": "operator",
          "type": "address"
        },
        {
          "indexed": false,
          "name": "approved",
          "type": "bool"
        }
      ],
      "name": "ApprovalForAll",
      "type": "event"
    },
    {
      "constant": false,
      "inputs": [
        {
          "name": "_tokenURI",
          "type": "string"
        },
        {
          "name": "_saleAmount",
          "type": "uint256"
        },
        {
          "name": "_buyerID",
          "type": "bytes32"
        },
        {
          "name": "_redemptionHash",
          "type": "bytes32"
        }
      ],
      "name": "soldOrderToMint",
      "outputs": [
        {
          "name": "",
          "type": "uint256"
        }
      ],
      "payable": false,
      "stateMutability": "nonpayable",
      "type": "function"
    },
    {
      "constant": false,
      "inputs": [
        {
          "name": "_buyerID",
          "type": "bytes32"
        },
        {
          "name": "_charityName",
          "type": "string"
        },
        {
          "name": "_chosenDonateAmount",
          "type": "uint256"
        }
      ],
      "name": "chooseDonation",
      "outputs": [
        {
          "name": "",
          "type": "bool"
        }
      ],
      "payable": false,
      "stateMutability": "nonpayable",
      "type": "function"
    },
    {
      "constant": false,
      "inputs": [
        {
          "name": "_proofHash",
          "type": "bytes32"
        },
        {
          "name": "_proof",
          "type": "string"
        },
        {
          "name": "_madeDonationAmount",
          "type": "uint256"
        },
        {
          "name": "_charityName",
          "type": "string"
        }
      ],
      "name": "makeDonation",
      "outputs": [
        {
          "name": "",
          "type": "bool"
        }
      ],
      "payable": false,
      "stateMutability": "nonpayable",
      "type": "function"
    },
    {
      "constant": false,
      "inputs": [
        {
          "name": "_buyerID",
          "type": "bytes32"
        },
        {
          "name": "_redemptionHash",
          "type": "bytes32"
        },
        {
          "name": "_buyerAddress",
          "type": "address"
        },
        {
          "name": "_tokenId",
          "type": "uint256"
        }
      ],
      "name": "redeemOrder",
      "outputs": [
        {
          "name": "",
          "type": "bool"
        }
      ],
      "payable": false,
      "stateMutability": "nonpayable",
      "type": "function"
    },
    {
      "constant": false,
      "inputs": [
        {
          "name": "_buyerID",
          "type": "bytes32"
        },
        {
          "name": "_redemptionHash",
          "type": "bytes32"
        },
        {
          "name": "_buyerAddress",
          "type": "address"
        },
        {
          "name": "_tokenId",
          "type": "uint256"
        }
      ],
      "name": "safeRedeemOrder",
      "outputs": [
        {
          "name": "",
          "type": "bool"
        }
      ],
      "payable": false,
      "stateMutability": "nonpayable",
      "type": "function"
    },
    {
      "constant": true,
      "inputs": [
        {
          "name": "_buyerID",
          "type": "bytes32"
        }
      ],
      "name": "getBuyerAmount",
      "outputs": [
        {
          "name": "total",
          "type": "uint256"
        }
      ],
      "payable": false,
      "stateMutability": "view",
      "type": "function"
    },
    {
      "constant": true,
      "inputs": [],
      "name": "getTotalRaised",
      "outputs": [
        {
          "name": "",
          "type": "uint256"
        }
      ],
      "payable": false,
      "stateMutability": "view",
      "type": "function"
    },
    {
      "constant": true,
      "inputs": [],
      "name": "getTotalAllocatedDonations",
      "outputs": [
        {
          "name": "",
          "type": "uint256"
        }
      ],
      "payable": false,
      "stateMutability": "view",
      "type": "function"
    },
    {
      "constant": true,
      "inputs": [],
      "name": "getTotalMadeDonations",
      "outputs": [
        {
          "name": "",
          "type": "uint256"
        }
      ],
      "payable": false,
      "stateMutability": "view",
      "type": "function"
    },
    {
      "constant": true,
      "inputs": [
        {
          "name": "_tokenId",
          "type": "uint256"
        }
      ],
      "name": "getRedemption",
      "outputs": [
        {
          "name": "",
          "type": "bool"
        }
      ],
      "payable": false,
      "stateMutability": "view",
      "type": "function"
    },
    {
      "constant": true,
      "inputs": [
        {
          "name": "_tokenId",
          "type": "uint256"
        }
      ],
      "name": "getTokenSold",
      "outputs": [
        {
          "name": "",
          "type": "bool"
        }
      ],
      "payable": false,
      "stateMutability": "view",
      "type": "function"
    },
    {
      "constant": true,
      "inputs": [
        {
          "name": "_tokenId",
          "type": "uint256"
        }
      ],
      "name": "getTokenOwner",
      "outputs": [
        {
          "name": "",
          "type": "address"
        }
      ],
      "payable": false,
      "stateMutability": "view",
      "type": "function"
    },
    {
      "constant": false,
      "inputs": [
        {
          "name": "newOwner",
          "type": "address"
        }
      ],
      "name": "transferContract",
      "outputs": [],
      "payable": false,
      "stateMutability": "nonpayable",
      "type": "function"
    }
  ],
  "bytecode": "0x60806040523480156200001157600080fd5b506040805190810160405280601481526020017f4c75786172697479204f7264657220546f6b656e0000000000000000000000008152506040805190810160405280600481526020017f4c555830000000000000000000000000000000000000000000000000000000008152508181620000bd6301ffc9a77c01000000000000000000000000000000000000000000000000000000000262000219640100000000026401000000009004565b620000fa6380ac58cd7c01000000000000000000000000000000000000000000000000000000000262000219640100000000026401000000009004565b6200013763780e9d637c01000000000000000000000000000000000000000000000000000000000262000219640100000000026401000000009004565b81600990805190602001906200014f929190620002d7565b5080600a908051906020019062000168929190620002d7565b50620001a6635b5e139f7c01000000000000000000000000000000000000000000000000000000000262000219640100000000026401000000009004565b5050505033600c60006101000a81548173ffffffffffffffffffffffffffffffffffffffff021916908373ffffffffffffffffffffffffffffffffffffffff1602179055506000600d819055506000600e819055506000600f819055506000601081905550600060118190555062000386565b63ffffffff7c010000000000000000000000000000000000000000000000000000000002817bffffffffffffffffffffffffffffffffffffffffffffffffffffffff1916141515156200026b57600080fd5b6001600080837bffffffffffffffffffffffffffffffffffffffffffffffffffffffff19167bffffffffffffffffffffffffffffffffffffffffffffffffffffffff1916815260200190815260200160002060006101000a81548160ff02191690831515021790555050565b828054600181600116156101000203166002900490600052602060002090601f016020900481019282601f106200031a57805160ff19168380011785556200034b565b828001600101855582156200034b579182015b828111156200034a5782518255916020019190600101906200032d565b5b5090506200035a91906200035e565b5090565b6200038391905b808211156200037f57600081600090555060010162000365565b5090565b90565b613d5d80620003966000396000f300608060405260043610610203576000357c0100000000000000000000000000000000000000000000000000000000900463ffffffff168062b370441461020557806301f785f91461023057806301ffc9a7146102b157806306fdde0314610315578063081812fc146103a5578063095ea7b31461041257806318160ddd1461045f578063190c087d1461048a5780631953cc21146105235780631a168b58146105685780631f0bf9411461059357806323b872dd146105be5780632f745c591461062b57806330471fee1461068c57806342842e0e146106b757806347635dac146107245780634f6ccce71461076757806350d5b41c146107a85780636352211e1461082957806364457aad1461089657806370a08231146108db578063715018a6146109325780637ecbaf801461094957806382aa1622146109d35780638da5cb5b146109fe5780638f32d59b14610a5557806395d89b4114610a845780639a22836e14610b145780639f55029314610bd0578063a22cb46514610bfb578063a43e4acc14610c4a578063a5cd761f14610d29578063ad9ab85714610d96578063b295806214610e0b578063b88d4fde14610f6a578063c5c4744c1461101d578063c87b56dd14611048578063cfae8652146110ee578063dee63cf414611191578063e985e9c5146111bc578063f2fde38b14611237578063f68ac9ef1461127a575b005b34801561021157600080fd5b5061021a6112bf565b6040518082815260200191505060405180910390f35b34801561023c57600080fd5b5061029760048036038101908080356000191690602001909291908035600019169060200190929190803573ffffffffffffffffffffffffffffffffffffffff169060200190929190803590602001909291905050506112c5565b604051808215151515815260200191505060405180910390f35b3480156102bd57600080fd5b506102fb60048036038101908080357bffffffffffffffffffffffffffffffffffffffffffffffffffffffff191690602001909291905050506114b1565b604051808215151515815260200191505060405180910390f35b34801561032157600080fd5b5061032a611518565b6040518080602001828103825283818151815260200191508051906020019080838360005b8381101561036a57808201518184015260208101905061034f565b50505050905090810190601f1680156103975780820380516001836020036101000a031916815260200191505b509250505060405180910390f35b3480156103b157600080fd5b506103d0600480360381019080803590602001909291905050506115ba565b604051808273ffffffffffffffffffffffffffffffffffffffff1673ffffffffffffffffffffffffffffffffffffffff16815260200191505060405180910390f35b34801561041e57600080fd5b5061045d600480360381019080803573ffffffffffffffffffffffffffffffffffffffff1690602001909291908035906020019092919050505061160b565b005b34801561046b57600080fd5b50610474611750565b6040518082815260200191505060405180910390f35b34801561049657600080fd5b506105096004803603810190808035600019169060200190929190803590602001908201803590602001908080601f01602080910402602001604051908101604052809392919081815260200183838082843782019150505050505091929192908035906020019092919050505061175d565b604051808215151515815260200191505060405180910390f35b34801561052f57600080fd5b5061054e60048036038101908080359060200190929190505050611934565b604051808215151515815260200191505060405180910390f35b34801561057457600080fd5b5061057d611961565b6040518082815260200191505060405180910390f35b34801561059f57600080fd5b506105a8611967565b6040518082815260200191505060405180910390f35b3480156105ca57600080fd5b50610629600480360381019080803573ffffffffffffffffffffffffffffffffffffffff169060200190929190803573ffffffffffffffffffffffffffffffffffffffff1690602001909291908035906020019092919050505061196d565b005b34801561063757600080fd5b50610676600480360381019080803573ffffffffffffffffffffffffffffffffffffffff16906020019092919080359060200190929190505050611a3c565b6040518082815260200191505060405180910390f35b34801561069857600080fd5b506106a1611ab3565b6040518082815260200191505060405180910390f35b3480156106c357600080fd5b50610722600480360381019080803573ffffffffffffffffffffffffffffffffffffffff169060200190929190803573ffffffffffffffffffffffffffffffffffffffff16906020019092919080359060200190929190505050611ab9565b005b34801561073057600080fd5b50610765600480360381019080803573ffffffffffffffffffffffffffffffffffffffff169060200190929190505050611ada565b005b34801561077357600080fd5b5061079260048036038101908080359060200190929190505050611af9565b6040518082815260200191505060405180910390f35b3480156107b457600080fd5b5061080f60048036038101908080356000191690602001909291908035600019169060200190929190803573ffffffffffffffffffffffffffffffffffffffff16906020019092919080359060200190929190505050611b31565b604051808215151515815260200191505060405180910390f35b34801561083557600080fd5b5061085460048036038101908080359060200190929190505050611d1d565b604051808273ffffffffffffffffffffffffffffffffffffffff1673ffffffffffffffffffffffffffffffffffffffff16815260200191505060405180910390f35b3480156108a257600080fd5b506108c160048036038101908080359060200190929190505050611d9b565b604051808215151515815260200191505060405180910390f35b3480156108e757600080fd5b5061091c600480360381019080803573ffffffffffffffffffffffffffffffffffffffff169060200190929190505050611dc8565b6040518082815260200191505060405180910390f35b34801561093e57600080fd5b50610947611e4c565b005b34801561095557600080fd5b506109786004803603810190808035600019169060200190929190505050611f08565b60405180858152602001848152602001831515151581526020018273ffffffffffffffffffffffffffffffffffffffff1673ffffffffffffffffffffffffffffffffffffffff16815260200194505050505060405180910390f35b3480156109df57600080fd5b506109e8611f65565b6040518082815260200191505060405180910390f35b348015610a0a57600080fd5b50610a13611f6f565b604051808273ffffffffffffffffffffffffffffffffffffffff1673ffffffffffffffffffffffffffffffffffffffff16815260200191505060405180910390f35b348015610a6157600080fd5b50610a6a611f99565b604051808215151515815260200191505060405180910390f35b348015610a9057600080fd5b50610a99611ff1565b6040518080602001828103825283818151815260200191508051906020019080838360005b83811015610ad9578082015181840152602081019050610abe565b50505050905090810190601f168015610b065780820380516001836020036101000a031916815260200191505b509250505060405180910390f35b348015610b2057600080fd5b50610b3f60048036038101908080359060200190929190505050612093565b60405180806020018481526020018360001916600019168152602001828103825285818151815260200191508051906020019080838360005b83811015610b93578082015181840152602081019050610b78565b50505050905090810190601f168015610bc05780820380516001836020036101000a031916815260200191505b5094505050505060405180910390f35b348015610bdc57600080fd5b50610be5612155565b6040518082815260200191505060405180910390f35b348015610c0757600080fd5b50610c48600480360381019080803573ffffffffffffffffffffffffffffffffffffffff16906020019092919080351515906020019092919050505061215f565b005b348015610c5657600080fd5b50610d0f6004803603810190808035600019169060200190929190803590602001908201803590602001908080601f016020809104026020016040519081016040528093929190818152602001838380828437820191505050505050919291929080359060200190929190803590602001908201803590602001908080601f016020809104026020016040519081016040528093929190818152602001838380828437820191505050505050919291929050505061229b565b604051808215151515815260200191505060405180910390f35b348015610d3557600080fd5b50610d5460048036038101908080359060200190929190505050612705565b604051808273ffffffffffffffffffffffffffffffffffffffff1673ffffffffffffffffffffffffffffffffffffffff16815260200191505060405180910390f35b348015610da257600080fd5b50610dc16004803603810190808035906020019092919050505061271c565b604051808660001916600019168152602001856000191660001916815260200184151515158152602001831515151581526020018281526020019550505050505060405180910390f35b348015610e1757600080fd5b50610e3a600480360381019080803560001916906020019092919050505061276c565b604051808060200186815260200185600019166000191681526020018473ffffffffffffffffffffffffffffffffffffffff1673ffffffffffffffffffffffffffffffffffffffff16815260200180602001838103835288818151815260200191508051906020019080838360005b83811015610ec4578082015181840152602081019050610ea9565b50505050905090810190601f168015610ef15780820380516001836020036101000a031916815260200191505b50838103825284818151815260200191508051906020019080838360005b83811015610f2a578082015181840152602081019050610f0f565b50505050905090810190601f168015610f575780820380516001836020036101000a031916815260200191505b5097505050505050505060405180910390f35b348015610f7657600080fd5b5061101b600480360381019080803573ffffffffffffffffffffffffffffffffffffffff169060200190929190803573ffffffffffffffffffffffffffffffffffffffff16906020019092919080359060200190929190803590602001908201803590602001908080601f01602080910402602001604051908101604052809392919081815260200183838082843782019150505050505091929192905050506128f2565b005b34801561102957600080fd5b5061103261291a565b6040518082815260200191505060405180910390f35b34801561105457600080fd5b5061107360048036038101908080359060200190929190505050612920565b6040518080602001828103825283818151815260200191508051906020019080838360005b838110156110b3578082015181840152602081019050611098565b50505050905090810190601f1680156110e05780820380516001836020036101000a031916815260200191505b509250505060405180910390f35b3480156110fa57600080fd5b5061117b600480360381019080803590602001908201803590602001908080601f016020809104026020016040519081016040528093929190818152602001838380828437820191505050505050919291929080359060200190929190803560001916906020019092919080356000191690602001909291905050506129e9565b6040518082815260200191505060405180910390f35b34801561119d57600080fd5b506111a6612eea565b6040518082815260200191505060405180910390f35b3480156111c857600080fd5b5061121d600480360381019080803573ffffffffffffffffffffffffffffffffffffffff169060200190929190803573ffffffffffffffffffffffffffffffffffffffff169060200190929190505050612ef4565b604051808215151515815260200191505060405180910390f35b34801561124357600080fd5b50611278600480360381019080803573ffffffffffffffffffffffffffffffffffffffff169060200190929190505050612f88565b005b34801561128657600080fd5b506112a96004803603810190808035600019169060200190929190505050612fa7565b6040518082815260200191505060405180910390f35b600f5481565b6000846001151560166000836000191660001916815260200190815260200160002060020160009054906101000a900460ff16151514151561130657600080fd5b600073ffffffffffffffffffffffffffffffffffffffff168473ffffffffffffffffffffffffffffffffffffffff161415151561134257600080fd5b856000191660156000858152602001908152602001600020600001546000191614151561136e57600080fd5b846000191660156000858152602001908152602001600020600101546000191614151561139a57600080fd5b836012600085815260200190815260200160002060030160006101000a81548173ffffffffffffffffffffffffffffffffffffffff021916908373ffffffffffffffffffffffffffffffffffffffff16021790555060016015600085815260200190815260200160002060020160006101000a81548160ff02191690831515021790555061142933858561196d565b7f228808fc7f1cf2105ae7d045c73ecb559cd36038b92afc74b2d6c12adc0598728387866040518084815260200183600019166000191681526020018273ffffffffffffffffffffffffffffffffffffffff1673ffffffffffffffffffffffffffffffffffffffff168152602001935050505060405180910390a16001915050949350505050565b6000806000837bffffffffffffffffffffffffffffffffffffffffffffffffffffffff19167bffffffffffffffffffffffffffffffffffffffffffffffffffffffff1916815260200190815260200160002060009054906101000a900460ff169050919050565b606060098054600181600116156101000203166002900480601f0160208091040260200160405190810160405280929190818152602001828054600181600116156101000203166002900480156115b05780601f10611585576101008083540402835291602001916115b0565b820191906000526020600020905b81548152906001019060200180831161159357829003601f168201915b5050505050905090565b60006115c58261300a565b15156115d057600080fd5b6002600083815260200190815260200160002060009054906101000a900473ffffffffffffffffffffffffffffffffffffffff169050919050565b600061161682611d1d565b90508073ffffffffffffffffffffffffffffffffffffffff168373ffffffffffffffffffffffffffffffffffffffff161415151561165357600080fd5b8073ffffffffffffffffffffffffffffffffffffffff163373ffffffffffffffffffffffffffffffffffffffff16148061169357506116928133612ef4565b5b151561169e57600080fd5b826002600084815260200190815260200160002060006101000a81548173ffffffffffffffffffffffffffffffffffffffff021916908373ffffffffffffffffffffffffffffffffffffffff160217905550818373ffffffffffffffffffffffffffffffffffffffff168273ffffffffffffffffffffffffffffffffffffffff167f8c5be1e5ebec7d5bd14f71427d1e84f3dd0314c0f7b2291e5b200ac8c7c3b92560405160405180910390a4505050565b6000600780549050905090565b600080846001151560166000836000191660001916815260200190815260200160002060020160009054906101000a900460ff16151514151561179f57600080fd5b601660008760001916600019168152602001908152602001600020600101546016600088600019166000191681526020019081526020016000206000015403915083821115156119265760016010600082825401925050819055506060604051908101604052808681526020018581526020018760001916815250601360006010548152602001908152602001600020600082015181600001908051906020019061184b929190613be0565b5060208201518160010155604082015181600201906000191690559050507fe1e2f04378c01049d9d077035633dcf281eb34649d091dd1d7d1f0c3b4686fa085878660405180806020018460001916600019168152602001838152602001828103825285818151815260200191508051906020019080838360005b838110156118e15780820151818401526020810190506118c6565b50505050905090810190601f16801561190e5780820380516001836020036101000a031916815260200191505b5094505050505060405180910390a16001925061192b565b600092505b50509392505050565b60006015600083815260200190815260200160002060020160009054906101000a900460ff169050919050565b60105481565b60115481565b611977338261307c565b151561198257600080fd5b600073ffffffffffffffffffffffffffffffffffffffff168273ffffffffffffffffffffffffffffffffffffffff16141515156119be57600080fd5b6119c88382613111565b6119d28382613214565b6119dc82826133d0565b808273ffffffffffffffffffffffffffffffffffffffff168473ffffffffffffffffffffffffffffffffffffffff167fddf252ad1be2c89b69c2b068fc378daa952ba7f163c4a11628f55a4df523b3ef60405160405180910390a4505050565b6000611a4783611dc8565b82101515611a5457600080fd5b600560008473ffffffffffffffffffffffffffffffffffffffff1673ffffffffffffffffffffffffffffffffffffffff16815260200190815260200160002082815481101515611aa057fe5b9060005260206000200154905092915050565b600d5481565b611ad583838360206040519081016040528060008152506128f2565b505050565b611ae2611f99565b1515611aed57600080fd5b611af681612f88565b50565b6000611b03611750565b82101515611b1057600080fd5b600782815481101515611b1f57fe5b90600052602060002001549050919050565b6000846001151560166000836000191660001916815260200190815260200160002060020160009054906101000a900460ff161515141515611b7257600080fd5b600073ffffffffffffffffffffffffffffffffffffffff168473ffffffffffffffffffffffffffffffffffffffff1614151515611bae57600080fd5b8560001916601560008581526020019081526020016000206000015460001916141515611bda57600080fd5b8460001916601560008581526020019081526020016000206001015460001916141515611c0657600080fd5b836012600085815260200190815260200160002060030160006101000a81548173ffffffffffffffffffffffffffffffffffffffff021916908373ffffffffffffffffffffffffffffffffffffffff160217905550611c66338585611ab9565b60016015600085815260200190815260200160002060020160006101000a81548160ff0219169083151502179055507f228808fc7f1cf2105ae7d045c73ecb559cd36038b92afc74b2d6c12adc0598728387866040518084815260200183600019166000191681526020018273ffffffffffffffffffffffffffffffffffffffff1673ffffffffffffffffffffffffffffffffffffffff168152602001935050505060405180910390a16001915050949350505050565b6000806001600084815260200190815260200160002060009054906101000a900473ffffffffffffffffffffffffffffffffffffffff169050600073ffffffffffffffffffffffffffffffffffffffff168173ffffffffffffffffffffffffffffffffffffffff1614151515611d9257600080fd5b80915050919050565b60006015600083815260200190815260200160002060020160019054906101000a900460ff169050919050565b60008073ffffffffffffffffffffffffffffffffffffffff168273ffffffffffffffffffffffffffffffffffffffff1614151515611e0557600080fd5b600360008373ffffffffffffffffffffffffffffffffffffffff1673ffffffffffffffffffffffffffffffffffffffff168152602001908152602001600020549050919050565b611e54611f99565b1515611e5f57600080fd5b600c60009054906101000a900473ffffffffffffffffffffffffffffffffffffffff1673ffffffffffffffffffffffffffffffffffffffff167ff8df31144d9c2f0f6b59d69b8b98abd5459d07f2742c4df920b25aae33c6482060405160405180910390a26000600c60006101000a81548173ffffffffffffffffffffffffffffffffffffffff021916908373ffffffffffffffffffffffffffffffffffffffff160217905550565b60166020528060005260406000206000915090508060000154908060010154908060020160009054906101000a900460ff16908060020160019054906101000a900473ffffffffffffffffffffffffffffffffffffffff16905084565b6000601054905090565b6000600c60009054906101000a900473ffffffffffffffffffffffffffffffffffffffff16905090565b6000600c60009054906101000a900473ffffffffffffffffffffffffffffffffffffffff1673ffffffffffffffffffffffffffffffffffffffff163373ffffffffffffffffffffffffffffffffffffffff1614905090565b6060600a8054600181600116156101000203166002900480601f0160208091040260200160405190810160405280929190818152602001828054600181600116156101000203166002900480156120895780601f1061205e57610100808354040283529160200191612089565b820191906000526020600020905b81548152906001019060200180831161206c57829003601f168201915b5050505050905090565b6013602052806000526040600020600091509050806000018054600181600116156101000203166002900480601f01602080910402602001604051908101604052809291908181526020018280546001816001161561010002031660029004801561213f5780601f106121145761010080835404028352916020019161213f565b820191906000526020600020905b81548152906001019060200180831161212257829003601f168201915b5050505050908060010154908060020154905083565b6000600e54905090565b3373ffffffffffffffffffffffffffffffffffffffff168273ffffffffffffffffffffffffffffffffffffffff161415151561219a57600080fd5b80600460003373ffffffffffffffffffffffffffffffffffffffff1673ffffffffffffffffffffffffffffffffffffffff16815260200190815260200160002060008473ffffffffffffffffffffffffffffffffffffffff1673ffffffffffffffffffffffffffffffffffffffff16815260200190815260200160002060006101000a81548160ff0219169083151502179055508173ffffffffffffffffffffffffffffffffffffffff163373ffffffffffffffffffffffffffffffffffffffff167f17307eab39ab6107e8899845ad3d59bd9653f200f220920489ca2b5937696c3183604051808215151515815260200191505060405180910390a35050565b6000806122a6611f99565b15156122b157600080fd5b82848733886040516020018086805190602001908083835b6020831015156122ee57805182526020820191506020810190506020830392506122c9565b6001836020036101000a03801982511681845116808217855250505050505090500185815260200184600019166000191681526020018373ffffffffffffffffffffffffffffffffffffffff1673ffffffffffffffffffffffffffffffffffffffff166c0100000000000000000000000002815260140182805190602001908083835b6020831015156123965780518252602082019150602081019050602083039250612371565b6001836020036101000a038019825116818451168082178552505050505050905001955050505050506040516020818303038152906040526040518082805190602001908083835b60208310151561240357805182526020820191506020810190506020830392506123de565b6001836020036101000a03801982511681845116808217855250505050505090500191505060405180910390209050600073ffffffffffffffffffffffffffffffffffffffff1660146000836000191660001916815260200190815260200160002060030160009054906101000a900473ffffffffffffffffffffffffffffffffffffffff1673ffffffffffffffffffffffffffffffffffffffff161415156124ab57600080fd5b600160116000828254019250508190555083600f6000828254019250508190555060a060405190810160405280848152602001858152602001876000191681526020013373ffffffffffffffffffffffffffffffffffffffff168152602001868152506014600083600019166000191681526020019081526020016000206000820151816000019080519060200190612545929190613be0565b50602082015181600101556040820151816002019060001916905560608201518160030160006101000a81548173ffffffffffffffffffffffffffffffffffffffff021916908373ffffffffffffffffffffffffffffffffffffffff16021790555060808201518160040190805190602001906125c3929190613be0565b509050507fdab98e61abe5b56925e931d8cbb34c52f9193512b3f553e12cc3259a7698ff55848488888560405180868152602001806020018560001916600019168152602001806020018460001916600019168152602001838103835287818151815260200191508051906020019080838360005b83811015612653578082015181840152602081019050612638565b50505050905090810190601f1680156126805780820380516001836020036101000a031916815260200191505b50838103825285818151815260200191508051906020019080838360005b838110156126b957808201518184015260208101905061269e565b50505050905090810190601f1680156126e65780820380516001836020036101000a031916815260200191505b5097505050505050505060405180910390a16001915050949350505050565b60008061271183611d1d565b905080915050919050565b60156020528060005260406000206000915090508060000154908060010154908060020160009054906101000a900460ff16908060020160019054906101000a900460ff16908060030154905085565b6014602052806000526040600020600091509050806000018054600181600116156101000203166002900480601f0160208091040260200160405190810160405280929190818152602001828054600181600116156101000203166002900480156128185780601f106127ed57610100808354040283529160200191612818565b820191906000526020600020905b8154815290600101906020018083116127fb57829003601f168201915b5050505050908060010154908060020154908060030160009054906101000a900473ffffffffffffffffffffffffffffffffffffffff1690806004018054600181600116156101000203166002900480601f0160208091040260200160405190810160405280929190818152602001828054600181600116156101000203166002900480156128e85780601f106128bd576101008083540402835291602001916128e8565b820191906000526020600020905b8154815290600101906020018083116128cb57829003601f168201915b5050505050905085565b6128fd84848461196d565b612909848484846134a7565b151561291457600080fd5b50505050565b600e5481565b606061292b8261300a565b151561293657600080fd5b600b60008381526020019081526020016000208054600181600116156101000203166002900480601f0160208091040260200160405190810160405280929190818152602001828054600181600116156101000203166002900480156129dd5780601f106129b2576101008083540402835291602001916129dd565b820191906000526020600020905b8154815290600101906020018083116129c057829003601f168201915b50505050509050919050565b6000806129f4611f99565b15156129ff57600080fd5b60166000856000191660001916815260200190815260200160002060020160009054906101000a900460ff161515612b0c5760806040519081016040528086815260200160008152602001600115158152602001600073ffffffffffffffffffffffffffffffffffffffff16815250601660008660001916600019168152602001908152602001600020600082015181600001556020820151816001015560408201518160020160006101000a81548160ff02191690831515021790555060608201518160020160016101000a81548173ffffffffffffffffffffffffffffffffffffffff021916908373ffffffffffffffffffffffffffffffffffffffff160217905550905050612b39565b84601660008660001916600019168152602001908152602001600020600001600082825401925050819055505b6001600d540190506015600082815260200190815260200160002060020160019054906101000a900460ff161515612ee0576001600d6000828254019250508190555060a06040519081016040528085600019168152602001846000191681526020016000151581526020016001151581526020018681525060156000600d548152602001908152602001600020600082015181600001906000191690556020820151816001019060001916905560408201518160020160006101000a81548160ff02191690831515021790555060608201518160020160016101000a81548160ff0219169083151502179055506080820151816003015590505084600e600082825401925050819055507efbb329a2a0586f66ec8c109ac92ce4baff4cd3a7ff1c7b875162fc1e852613600d548560156000600d54815260200190815260200160002060030154604051808481526020018360001916600019168152602001828152602001935050505060405180910390a160011515612cbb600d5461300a565b1515141515612cc957600080fd5b6080604051908101604052808681526020018781526020013373ffffffffffffffffffffffffffffffffffffffff1681526020013373ffffffffffffffffffffffffffffffffffffffff1681525060126000600d548152602001908152602001600020600082015181600001556020820151816001019080519060200190612d52929190613be0565b5060408201518160020160006101000a81548173ffffffffffffffffffffffffffffffffffffffff021916908373ffffffffffffffffffffffffffffffffffffffff16021790555060608201518160030160006101000a81548173ffffffffffffffffffffffffffffffffffffffff021916908373ffffffffffffffffffffffffffffffffffffffff160217905550905050612df033600d546136c9565b612dfc600d5487613720565b7f5bf2d4b28d6c1c4b05ec28293620e14bddc41a4c0cfd5314abfd693d2dfede2f600d543388604051808481526020018373ffffffffffffffffffffffffffffffffffffffff1673ffffffffffffffffffffffffffffffffffffffff16815260200180602001828103825283818151815260200191508051906020019080838360005b83811015612e9a578082015181840152602081019050612e7f565b50505050905090810190601f168015612ec75780820380516001836020036101000a031916815260200191505b5094505050505060405180910390a1600d549150612ee1565b5b50949350505050565b6000601154905090565b6000600460008473ffffffffffffffffffffffffffffffffffffffff1673ffffffffffffffffffffffffffffffffffffffff16815260200190815260200160002060008373ffffffffffffffffffffffffffffffffffffffff1673ffffffffffffffffffffffffffffffffffffffff16815260200190815260200160002060009054906101000a900460ff16905092915050565b612f90611f99565b1515612f9b57600080fd5b612fa481613760565b50565b600060166000836000191660001916815260200190815260200160002060020160009054906101000a900460ff161561300057601660008360001916600019168152602001908152602001600020600001549050613005565b600090505b919050565b6000806001600084815260200190815260200160002060009054906101000a900473ffffffffffffffffffffffffffffffffffffffff169050600073ffffffffffffffffffffffffffffffffffffffff168173ffffffffffffffffffffffffffffffffffffffff161415915050919050565b60008061308883611d1d565b90508073ffffffffffffffffffffffffffffffffffffffff168473ffffffffffffffffffffffffffffffffffffffff1614806130f757508373ffffffffffffffffffffffffffffffffffffffff166130df846115ba565b73ffffffffffffffffffffffffffffffffffffffff16145b8061310857506131078185612ef4565b5b91505092915050565b8173ffffffffffffffffffffffffffffffffffffffff1661313182611d1d565b73ffffffffffffffffffffffffffffffffffffffff1614151561315357600080fd5b600073ffffffffffffffffffffffffffffffffffffffff166002600083815260200190815260200160002060009054906101000a900473ffffffffffffffffffffffffffffffffffffffff1673ffffffffffffffffffffffffffffffffffffffff161415156132105760006002600083815260200190815260200160002060006101000a81548173ffffffffffffffffffffffffffffffffffffffff021916908373ffffffffffffffffffffffffffffffffffffffff1602179055505b5050565b6000806000613223858561385c565b6006600085815260200190815260200160002054925061328f6001600560008873ffffffffffffffffffffffffffffffffffffffff1673ffffffffffffffffffffffffffffffffffffffff1681526020019081526020016000208054905061398b90919063ffffffff16565b9150600560008673ffffffffffffffffffffffffffffffffffffffff1673ffffffffffffffffffffffffffffffffffffffff168152602001908152602001600020828154811015156132dd57fe5b9060005260206000200154905080600560008773ffffffffffffffffffffffffffffffffffffffff1673ffffffffffffffffffffffffffffffffffffffff1681526020019081526020016000208481548110151561333757fe5b9060005260206000200181905550600560008673ffffffffffffffffffffffffffffffffffffffff1673ffffffffffffffffffffffffffffffffffffffff1681526020019081526020016000208054809190600190036133979190613c60565b50600060066000868152602001908152602001600020819055508260066000838152602001908152602001600020819055505050505050565b60006133dc83836139ac565b600560008473ffffffffffffffffffffffffffffffffffffffff1673ffffffffffffffffffffffffffffffffffffffff168152602001908152602001600020805490509050600560008473ffffffffffffffffffffffffffffffffffffffff1673ffffffffffffffffffffffffffffffffffffffff168152602001908152602001600020829080600181540180825580915050906001820390600052602060002001600090919290919091505550806006600084815260200190815260200160002081905550505050565b6000806134c98573ffffffffffffffffffffffffffffffffffffffff16613b06565b15156134d857600191506136c0565b8473ffffffffffffffffffffffffffffffffffffffff1663150b7a02338887876040518563ffffffff167c0100000000000000000000000000000000000000000000000000000000028152600401808573ffffffffffffffffffffffffffffffffffffffff1673ffffffffffffffffffffffffffffffffffffffff1681526020018473ffffffffffffffffffffffffffffffffffffffff1673ffffffffffffffffffffffffffffffffffffffff16815260200183815260200180602001828103825283818151815260200191508051906020019080838360005b838110156135cd5780820151818401526020810190506135b2565b50505050905090810190601f1680156135fa5780820380516001836020036101000a031916815260200191505b5095505050505050602060405180830381600087803b15801561361c57600080fd5b505af1158015613630573d6000803e3d6000fd5b505050506040513d602081101561364657600080fd5b8101908080519060200190929190505050905063150b7a027c0100000000000000000000000000000000000000000000000000000000027bffffffffffffffffffffffffffffffffffffffffffffffffffffffff1916817bffffffffffffffffffffffffffffffffffffffffffffffffffffffff19161491505b50949350505050565b6136d38282613b19565b600780549050600860008381526020019081526020016000208190555060078190806001815401808255809150509060018203906000526020600020016000909192909190915055505050565b6137298261300a565b151561373457600080fd5b80600b6000848152602001908152602001600020908051906020019061375b929190613c8c565b505050565b600073ffffffffffffffffffffffffffffffffffffffff168173ffffffffffffffffffffffffffffffffffffffff161415151561379c57600080fd5b8073ffffffffffffffffffffffffffffffffffffffff16600c60009054906101000a900473ffffffffffffffffffffffffffffffffffffffff1673ffffffffffffffffffffffffffffffffffffffff167f8be0079c531659141344cd1fd0a4f28419497f9722a3daafe3b4186f6b6457e060405160405180910390a380600c60006101000a81548173ffffffffffffffffffffffffffffffffffffffff021916908373ffffffffffffffffffffffffffffffffffffffff16021790555050565b8173ffffffffffffffffffffffffffffffffffffffff1661387c82611d1d565b73ffffffffffffffffffffffffffffffffffffffff1614151561389e57600080fd5b6138f16001600360008573ffffffffffffffffffffffffffffffffffffffff1673ffffffffffffffffffffffffffffffffffffffff1681526020019081526020016000205461398b90919063ffffffff16565b600360008473ffffffffffffffffffffffffffffffffffffffff1673ffffffffffffffffffffffffffffffffffffffff1681526020019081526020016000208190555060006001600083815260200190815260200160002060006101000a81548173ffffffffffffffffffffffffffffffffffffffff021916908373ffffffffffffffffffffffffffffffffffffffff1602179055505050565b60008083831115151561399d57600080fd5b82840390508091505092915050565b600073ffffffffffffffffffffffffffffffffffffffff166001600083815260200190815260200160002060009054906101000a900473ffffffffffffffffffffffffffffffffffffffff1673ffffffffffffffffffffffffffffffffffffffff16141515613a1a57600080fd5b816001600083815260200190815260200160002060006101000a81548173ffffffffffffffffffffffffffffffffffffffff021916908373ffffffffffffffffffffffffffffffffffffffff160217905550613abf6001600360008573ffffffffffffffffffffffffffffffffffffffff1673ffffffffffffffffffffffffffffffffffffffff16815260200190815260200160002054613bbf90919063ffffffff16565b600360008473ffffffffffffffffffffffffffffffffffffffff1673ffffffffffffffffffffffffffffffffffffffff168152602001908152602001600020819055505050565b600080823b905060008111915050919050565b600073ffffffffffffffffffffffffffffffffffffffff168273ffffffffffffffffffffffffffffffffffffffff1614151515613b5557600080fd5b613b5f82826133d0565b808273ffffffffffffffffffffffffffffffffffffffff16600073ffffffffffffffffffffffffffffffffffffffff167fddf252ad1be2c89b69c2b068fc378daa952ba7f163c4a11628f55a4df523b3ef60405160405180910390a45050565b6000808284019050838110151515613bd657600080fd5b8091505092915050565b828054600181600116156101000203166002900490600052602060002090601f016020900481019282601f10613c2157805160ff1916838001178555613c4f565b82800160010185558215613c4f579182015b82811115613c4e578251825591602001919060010190613c33565b5b509050613c5c9190613d0c565b5090565b815481835581811115613c8757818360005260206000209182019101613c869190613d0c565b5b505050565b828054600181600116156101000203166002900490600052602060002090601f016020900481019282601f10613ccd57805160ff1916838001178555613cfb565b82800160010185558215613cfb579182015b82811115613cfa578251825591602001919060010190613cdf565b5b509050613d089190613d0c565b5090565b613d2e91905b80821115613d2a576000816000905550600101613d12565b5090565b905600a165627a7a72305820dc195f445149aa2014f77d55028767fb2067e7d3b339b71f197e643bded471ba0029",
  "source": "pragma solidity ^0.4.24;\n\nimport '../openzeppelin-solidity-master/contracts/token/ERC721/ERC721Full.sol';\nimport \"../openzeppelin-solidity-master/contracts/ownership/Ownable.sol\";\n\ncontract LuxTokens is ERC721Full, Ownable {\n\n  //state variables\n\n    //tokenid index\n    uint256 public orderIndex;\n\n    //total raised in sales uint256 USD\n    uint256 public totalRaised;\n\n    //total verifiably donated to charities\n    uint256 public totalDonated;\n\n    //total number of chosen donations\n    uint256 public totalChosenDonations;\n\n    //total number of made donations\n    uint256 public totalMadeDonations;\n\n    //token mapping\n    mapping (uint256 => OrderToken) orderTokens;\n\n    //token struct\n    struct OrderToken {\n      uint256 saleAmount;\n      string tokenURI;\n      address generation;\n      address owner;\n    }\n\n    //list of donation choices made by buyer (attestation on chain that buyer\n    //chose a particular charity to give to)\n    mapping (uint256 => ChosenDonation) public chosenDonations;\n    struct ChosenDonation {\n      string charityName; //name of charity buyer has chosen to give to\n      uint256 amountDonated; //amount buyer would like to set aside from his purchases to charity\n      bytes32 buyerHash; //hash of donor off-chain identity\n    }\n\n    //MadeDonations is a list of donations actually made\n    mapping (bytes32 => MadeDonation) public madeDonations;\n    struct MadeDonation {\n      string charityName; //name of charity luxarity sent proceeds to\n      uint256 amountDonated; //amount donated via grant to charity\n      bytes32 donationProofHash; //SHA256 hash of proof of donation (in case it is tampered with)\n      address donorAddress; //address of owner of contract (luxarity)\n      string donationProof; //link to donation receipt\n    }\n\n    //soldTokens mapping keeping track of which tokens are sold to which buyer,\n    mapping (uint256 => SaleDetails) public soldTokens;\n    struct SaleDetails {\n      bytes32 buyerHash; //identifier hash of off chain identifier of buyer\n      bytes32 redemptionHash; //SHA256 of secret value used by buyer to redeem\n      bool redeemed; //redemption status of token\n      bool exists;\n      uint256 cost; //cost of token in sale (USD)\n    }\n\n    //buyers mapping with buyer struct bytes32 => buyer, buyer struct {bytes32, totalBought, exists, owneraddress, totalDonated}, totalBought increments after everytime the buyer buys something and sold function is called, we check for exists and if not true we create a new buyer and add the amount they bought and increment on top of that amount in the future\n    //identifier hash of off chain identifier of buyer\n    mapping (bytes32 => Buyer) public buyers;\n    struct Buyer {\n      uint256 totalContributed; //total amount the buyer has bought in USD\n      uint256 totalDonationsAllocated; //amount of donation capital allocated\n      bool exists; //always true\n      address buyerAddress; //address of buyer (if token has been redeemed)\n    }\n\n\n  //constructor for NFT token, name = Luxarity, symbol = LUX\n  constructor() ERC721Full('Luxarity Order Token', 'LUX0') public {\n    //tokenid index\n    orderIndex = 0;\n    //total capital raised uint256 USD\n    totalRaised = 0;\n    //total donated by luxarity (USD)\n    totalDonated = 0;\n    //total number of chosen donations\n    totalChosenDonations = 0;\n    //total number of made donations\n    totalMadeDonations = 0;\n  }\n\n  //events\n    event MintedToken (uint256 _tokenId, address _tokenMinter, string _tokenMetaData);\n    //event when Order is sold\n    event SoldToken (uint256 _tokenId, bytes32 _buyerId, uint256 _cost);\n    //event when donation is chosen (bytes32, amount, charityName, donation id)\n    event DonationChosen (string _charityName, bytes32 _buyerId, uint256 _amountToBeDonated);\n    //event when donation is made by luxarity\n    event DonationMadeToCharity (uint256 _amountDonated, string _charityName, bytes32 _proofHash, string _donationProof, bytes32 _donationMadeHash);\n    //event when token is redeemed\n    event RedeemedToken (uint256 _tokenId, bytes32 _buyerId, address _buyerAddress);\n\n  //modifiers\n    //check if buyer exists\n    modifier onlyBuyer(bytes32 _buyerId) { require(buyers[_buyerId].exists == true); _; }\n\n  //cuase functions\n\n    //mint function - when Orders are sold in an order - the receipt should be tokenized\n    function soldOrderToMint(string _tokenURI, uint256 _saleAmount, bytes32 _buyerID, bytes32 _redemptionHash) public onlyOwner returns (uint) {\n\n      //1.0 check if buyer already exists\n      if (!buyers[_buyerID].exists) {\n        //adding new buyer to buyers mapping\n        buyers[_buyerID] = Buyer(_saleAmount, 0, true, address(0));\n      } else {\n        //update existing buyer\n        buyers[_buyerID].totalContributed += _saleAmount;\n      }\n\n      //2.0 Start process of tracking sale, order can only occur once\n      uint256 testIndex = orderIndex + 1;\n      if (!soldTokens[testIndex].exists) {\n        //increment orderIndex\n        orderIndex += 1;\n        //create new sale\n        soldTokens[orderIndex] = SaleDetails(_buyerID, _redemptionHash, false, true, _saleAmount);\n        //increment total donations\n        totalRaised += _saleAmount;\n        //emit event that token was sold\n        emit SoldToken(orderIndex, _buyerID, soldTokens[orderIndex].cost);\n\n        //3.0 Start process of minting tokenized order\n\n        //check if token doesn't exist yet using inherited ERC721 contract\n        require(_exists(orderIndex) == true);\n\n        //create token struct\n        orderTokens[orderIndex] = OrderToken(_saleAmount, _tokenURI, msg.sender, msg.sender);\n\n        //mint token\n        _mint(msg.sender, orderIndex);\n\n        //set metadata\n        _setTokenURI(orderIndex, _tokenURI);\n\n        //emit event\n        emit MintedToken(orderIndex, msg.sender, _tokenURI);\n\n        //return\n        return orderIndex;\n      }\n    }\n\n    //chooseDonation function\n    function chooseDonation(bytes32 _buyerID, string _charityName, uint256 _chosenDonateAmount) public onlyBuyer(_buyerID) returns (bool) {\n      //if the amount to donate is less than or equal to the amount they have left to allocate\n      uint256 leftover = buyers[_buyerID].totalContributed - buyers[_buyerID].totalDonationsAllocated;\n      if (leftover <= _chosenDonateAmount) {\n        //increment total chosen donations\n        totalChosenDonations += 1;\n        //update chosenDonations mapping and then emit choseDonation event\n        chosenDonations[totalChosenDonations] = ChosenDonation(_charityName, _chosenDonateAmount, _buyerID);\n        //emit event on chosen donation\n        emit DonationChosen(_charityName, _buyerID, _chosenDonateAmount);\n        //return\n        return true;\n      }\n      return false;\n    }\n\n    //make donation function\n    function makeDonation(bytes32 _proofHash, string _proof, uint256 _madeDonationAmount, string _charityName) public onlyOwner returns (bool) {\n      //donation made proof hash\n      bytes32 donationMadeHash = keccak256(abi.encodePacked(_charityName, _madeDonationAmount, _proofHash, msg.sender, _proof));\n      //check if donation doesn't exist yet\n      require(madeDonations[donationMadeHash].donorAddress == address(0));\n      //increment total made donations\n      totalMadeDonations += 1;\n      //total donated sum amount increased\n      totalDonated += _madeDonationAmount;\n      //add to made donations mapping\n      madeDonations[donationMadeHash] = MadeDonation(_charityName, _madeDonationAmount, _proofHash, msg.sender, _proof);\n      //emit event\n      emit DonationMadeToCharity(_madeDonationAmount, _charityName, _proofHash, _proof, donationMadeHash);\n      //return\n      return true;\n    }\n\n    //redeem token\n    function redeemOrder(bytes32 _buyerID, bytes32 _redemptionHash, address _buyerAddress, uint256 _tokenId) public onlyBuyer(_buyerID) returns (bool) {\n      //make sure address is valid\n      require(_buyerAddress != address(0));\n      //make sure that sold Order exists to be redeemed\n      require(soldTokens[_tokenId].buyerHash == _buyerID);\n      //make sure redemption secret is correct\n      require(soldTokens[_tokenId].redemptionHash == _redemptionHash);\n      //update token struct\n      orderTokens[_tokenId].owner = _buyerAddress;\n      //updates salesdetails struct\n      soldTokens[_tokenId].redeemed = true;\n      //conduct transfer from Luxarity to address\n      transferFrom(msg.sender, _buyerAddress, _tokenId);\n      //emit event\n      emit RedeemedToken(_tokenId, _buyerID, _buyerAddress);\n      return true;\n    }\n\n    //safe redeem token\n    function safeRedeemOrder(bytes32 _buyerID, bytes32 _redemptionHash, address _buyerAddress, uint256 _tokenId) public onlyBuyer(_buyerID) returns (bool) {\n      //make sure address is valid\n      require(_buyerAddress != address(0));\n      //make sure that sold Order exists to be redeemed\n      require(soldTokens[_tokenId].buyerHash == _buyerID);\n      require(soldTokens[_tokenId].redemptionHash == _redemptionHash);\n      //update token struct\n      orderTokens[_tokenId].owner = _buyerAddress;\n      //conduct transfer from Luxarity to address\n      safeTransferFrom(msg.sender, _buyerAddress, _tokenId);\n      //updates salesdetails struct\n      soldTokens[_tokenId].redeemed = true;\n      //emit event\n      emit RedeemedToken(_tokenId, _buyerID, _buyerAddress);\n      return true;\n    }\n\n  //call functions\n    //get how much a buyer has donated in total\n    function getBuyerAmount(bytes32 _buyerID) public view returns (uint256 total) {\n      if (buyers[_buyerID].exists) {\n        return buyers[_buyerID].totalContributed;\n      }\n      return 0;\n\t\t}\n    //get total amount donated\n    function getTotalRaised() public view returns (uint) {\n      return totalRaised;\n\t\t}\n    //get total specfically allocated\n    function getTotalAllocatedDonations() public view returns (uint) {\n      return totalChosenDonations;\n\t\t}\n    //get total made donations\n    function getTotalMadeDonations() public view returns (uint) {\n      return totalMadeDonations;\n\t\t}\n\n    //get boolean to see if NFT has been redeemed or not\n    function getRedemption(uint _tokenId) public view returns (bool) {\n      return soldTokens[_tokenId].redeemed;\n\t\t}\n    //get boolean to see if NFT has been sold or not\n    function getTokenSold(uint256 _tokenId) public view returns (bool) {\n      return soldTokens[_tokenId].exists;\n    }\n\n    //get token ownerOf\n    function getTokenOwner(uint _tokenId) public view returns (address) {\n      address owner = ownerOf(_tokenId);\n      return owner;\n    }\n\n    //transfer ownership of contract\n    function transferContract(address newOwner) public onlyOwner {\n      transferOwnership(newOwner);\n    }\n\n    //fallback\n\t  function() payable public { }\n}\n",
  "sourcePath": "/Applications/MAMP/htdocs/LuxToken/contracts/LuxOrders.sol",
  "compiler": {
    "name": "solc",
    "version": "0.4.24+commit.e67f0147.Emscripten.clang"
  },
  "schemaVersion": "2.0.1",
  "updatedAt": "2018-10-06T06:09:51.016Z"
}