{
  "contractName": "LuxTokens",
  "abi": [
    {
      "constant": true,
      "inputs": [],
      "name": "totalDonated",
      "outputs": [
        {
          "name": "",
          "type": "uint256"
        }
      ],
      "payable": false,
      "stateMutability": "view",
      "type": "function"
    },
    {
      "constant": true,
      "inputs": [
        {
          "name": "interfaceId",
          "type": "bytes4"
        }
      ],
      "name": "supportsInterface",
      "outputs": [
        {
          "name": "",
          "type": "bool"
        }
      ],
      "payable": false,
      "stateMutability": "view",
      "type": "function"
    },
    {
      "constant": true,
      "inputs": [],
      "name": "name",
      "outputs": [
        {
          "name": "",
          "type": "string"
        }
      ],
      "payable": false,
      "stateMutability": "view",
      "type": "function"
    },
    {
      "constant": true,
      "inputs": [
        {
          "name": "tokenId",
          "type": "uint256"
        }
      ],
      "name": "getApproved",
      "outputs": [
        {
          "name": "",
          "type": "address"
        }
      ],
      "payable": false,
      "stateMutability": "view",
      "type": "function"
    },
    {
      "constant": false,
      "inputs": [
        {
          "name": "to",
          "type": "address"
        },
        {
          "name": "tokenId",
          "type": "uint256"
        }
      ],
      "name": "approve",
      "outputs": [],
      "payable": false,
      "stateMutability": "nonpayable",
      "type": "function"
    },
    {
      "constant": true,
      "inputs": [],
      "name": "totalSupply",
      "outputs": [
        {
          "name": "",
          "type": "uint256"
        }
      ],
      "payable": false,
      "stateMutability": "view",
      "type": "function"
    },
    {
      "constant": true,
      "inputs": [],
      "name": "totalChosenDonations",
      "outputs": [
        {
          "name": "",
          "type": "uint256"
        }
      ],
      "payable": false,
      "stateMutability": "view",
      "type": "function"
    },
    {
      "constant": true,
      "inputs": [],
      "name": "totalMadeDonations",
      "outputs": [
        {
          "name": "",
          "type": "uint256"
        }
      ],
      "payable": false,
      "stateMutability": "view",
      "type": "function"
    },
    {
      "constant": false,
      "inputs": [
        {
          "name": "from",
          "type": "address"
        },
        {
          "name": "to",
          "type": "address"
        },
        {
          "name": "tokenId",
          "type": "uint256"
        }
      ],
      "name": "transferFrom",
      "outputs": [],
      "payable": false,
      "stateMutability": "nonpayable",
      "type": "function"
    },
    {
      "constant": true,
      "inputs": [],
      "name": "totalItemsSold",
      "outputs": [
        {
          "name": "",
          "type": "uint256"
        }
      ],
      "payable": false,
      "stateMutability": "view",
      "type": "function"
    },
    {
      "constant": true,
      "inputs": [
        {
          "name": "owner",
          "type": "address"
        },
        {
          "name": "index",
          "type": "uint256"
        }
      ],
      "name": "tokenOfOwnerByIndex",
      "outputs": [
        {
          "name": "",
          "type": "uint256"
        }
      ],
      "payable": false,
      "stateMutability": "view",
      "type": "function"
    },
    {
      "constant": false,
      "inputs": [
        {
          "name": "from",
          "type": "address"
        },
        {
          "name": "to",
          "type": "address"
        },
        {
          "name": "tokenId",
          "type": "uint256"
        }
      ],
      "name": "safeTransferFrom",
      "outputs": [],
      "payable": false,
      "stateMutability": "nonpayable",
      "type": "function"
    },
    {
      "constant": true,
      "inputs": [
        {
          "name": "",
          "type": "bytes32"
        }
      ],
      "name": "donors",
      "outputs": [
        {
          "name": "fundsRaised",
          "type": "uint256"
        },
        {
          "name": "exists",
          "type": "bool"
        }
      ],
      "payable": false,
      "stateMutability": "view",
      "type": "function"
    },
    {
      "constant": true,
      "inputs": [
        {
          "name": "index",
          "type": "uint256"
        }
      ],
      "name": "tokenByIndex",
      "outputs": [
        {
          "name": "",
          "type": "uint256"
        }
      ],
      "payable": false,
      "stateMutability": "view",
      "type": "function"
    },
    {
      "constant": true,
      "inputs": [
        {
          "name": "tokenId",
          "type": "uint256"
        }
      ],
      "name": "ownerOf",
      "outputs": [
        {
          "name": "",
          "type": "address"
        }
      ],
      "payable": false,
      "stateMutability": "view",
      "type": "function"
    },
    {
      "constant": true,
      "inputs": [
        {
          "name": "owner",
          "type": "address"
        }
      ],
      "name": "balanceOf",
      "outputs": [
        {
          "name": "",
          "type": "uint256"
        }
      ],
      "payable": false,
      "stateMutability": "view",
      "type": "function"
    },
    {
      "constant": false,
      "inputs": [],
      "name": "renounceOwnership",
      "outputs": [],
      "payable": false,
      "stateMutability": "nonpayable",
      "type": "function"
    },
    {
      "constant": true,
      "inputs": [
        {
          "name": "",
          "type": "bytes32"
        }
      ],
      "name": "buyers",
      "outputs": [
        {
          "name": "totalContributed",
          "type": "uint256"
        },
        {
          "name": "totalDonationsAllocated",
          "type": "uint256"
        },
        {
          "name": "exists",
          "type": "bool"
        },
        {
          "name": "buyerAddress",
          "type": "address"
        }
      ],
      "payable": false,
      "stateMutability": "view",
      "type": "function"
    },
    {
      "constant": true,
      "inputs": [],
      "name": "owner",
      "outputs": [
        {
          "name": "",
          "type": "address"
        }
      ],
      "payable": false,
      "stateMutability": "view",
      "type": "function"
    },
    {
      "constant": true,
      "inputs": [],
      "name": "isOwner",
      "outputs": [
        {
          "name": "",
          "type": "bool"
        }
      ],
      "payable": false,
      "stateMutability": "view",
      "type": "function"
    },
    {
      "constant": true,
      "inputs": [],
      "name": "symbol",
      "outputs": [
        {
          "name": "",
          "type": "string"
        }
      ],
      "payable": false,
      "stateMutability": "view",
      "type": "function"
    },
    {
      "constant": true,
      "inputs": [
        {
          "name": "",
          "type": "uint256"
        }
      ],
      "name": "chosenDonations",
      "outputs": [
        {
          "name": "charityName",
          "type": "string"
        },
        {
          "name": "amountDonated",
          "type": "uint256"
        },
        {
          "name": "buyerHash",
          "type": "bytes32"
        }
      ],
      "payable": false,
      "stateMutability": "view",
      "type": "function"
    },
    {
      "constant": false,
      "inputs": [
        {
          "name": "to",
          "type": "address"
        },
        {
          "name": "approved",
          "type": "bool"
        }
      ],
      "name": "setApprovalForAll",
      "outputs": [],
      "payable": false,
      "stateMutability": "nonpayable",
      "type": "function"
    },
    {
      "constant": true,
      "inputs": [
        {
          "name": "",
          "type": "uint256"
        }
      ],
      "name": "soldTokens",
      "outputs": [
        {
          "name": "buyerHash",
          "type": "bytes32"
        },
        {
          "name": "redemptionHash",
          "type": "bytes32"
        },
        {
          "name": "redeemed",
          "type": "bool"
        },
        {
          "name": "sold",
          "type": "bool"
        },
        {
          "name": "cost",
          "type": "uint256"
        }
      ],
      "payable": false,
      "stateMutability": "view",
      "type": "function"
    },
    {
      "constant": true,
      "inputs": [
        {
          "name": "",
          "type": "bytes32"
        }
      ],
      "name": "madeDonations",
      "outputs": [
        {
          "name": "charityName",
          "type": "string"
        },
        {
          "name": "amountDonated",
          "type": "uint256"
        },
        {
          "name": "donationProofHash",
          "type": "bytes32"
        },
        {
          "name": "donorAddress",
          "type": "address"
        },
        {
          "name": "donationProof",
          "type": "string"
        }
      ],
      "payable": false,
      "stateMutability": "view",
      "type": "function"
    },
    {
      "constant": false,
      "inputs": [
        {
          "name": "from",
          "type": "address"
        },
        {
          "name": "to",
          "type": "address"
        },
        {
          "name": "tokenId",
          "type": "uint256"
        },
        {
          "name": "_data",
          "type": "bytes"
        }
      ],
      "name": "safeTransferFrom",
      "outputs": [],
      "payable": false,
      "stateMutability": "nonpayable",
      "type": "function"
    },
    {
      "constant": true,
      "inputs": [],
      "name": "totalRaised",
      "outputs": [
        {
          "name": "",
          "type": "uint256"
        }
      ],
      "payable": false,
      "stateMutability": "view",
      "type": "function"
    },
    {
      "constant": true,
      "inputs": [
        {
          "name": "tokenId",
          "type": "uint256"
        }
      ],
      "name": "tokenURI",
      "outputs": [
        {
          "name": "",
          "type": "string"
        }
      ],
      "payable": false,
      "stateMutability": "view",
      "type": "function"
    },
    {
      "constant": true,
      "inputs": [],
      "name": "tokenIndex",
      "outputs": [
        {
          "name": "",
          "type": "uint256"
        }
      ],
      "payable": false,
      "stateMutability": "view",
      "type": "function"
    },
    {
      "constant": true,
      "inputs": [
        {
          "name": "owner",
          "type": "address"
        },
        {
          "name": "operator",
          "type": "address"
        }
      ],
      "name": "isApprovedForAll",
      "outputs": [
        {
          "name": "",
          "type": "bool"
        }
      ],
      "payable": false,
      "stateMutability": "view",
      "type": "function"
    },
    {
      "constant": false,
      "inputs": [
        {
          "name": "newOwner",
          "type": "address"
        }
      ],
      "name": "transferOwnership",
      "outputs": [],
      "payable": false,
      "stateMutability": "nonpayable",
      "type": "function"
    },
    {
      "inputs": [],
      "payable": false,
      "stateMutability": "nonpayable",
      "type": "constructor"
    },
    {
      "payable": true,
      "stateMutability": "payable",
      "type": "fallback"
    },
    {
      "anonymous": false,
      "inputs": [
        {
          "indexed": false,
          "name": "_donorHash",
          "type": "bytes32"
        },
        {
          "indexed": false,
          "name": "_totalRaised",
          "type": "uint256"
        },
        {
          "indexed": false,
          "name": "_exists",
          "type": "bool"
        }
      ],
      "name": "DonationMadeToLuxarity",
      "type": "event"
    },
    {
      "anonymous": false,
      "inputs": [
        {
          "indexed": false,
          "name": "_tokenId",
          "type": "uint256"
        },
        {
          "indexed": false,
          "name": "_tokenMinter",
          "type": "address"
        },
        {
          "indexed": false,
          "name": "_tokenMetaData",
          "type": "string"
        }
      ],
      "name": "MintedToken",
      "type": "event"
    },
    {
      "anonymous": false,
      "inputs": [
        {
          "indexed": false,
          "name": "_tokenId",
          "type": "uint256"
        },
        {
          "indexed": false,
          "name": "_buyerId",
          "type": "bytes32"
        },
        {
          "indexed": false,
          "name": "_cost",
          "type": "uint256"
        }
      ],
      "name": "SoldToken",
      "type": "event"
    },
    {
      "anonymous": false,
      "inputs": [
        {
          "indexed": false,
          "name": "_charityName",
          "type": "string"
        },
        {
          "indexed": false,
          "name": "_buyerId",
          "type": "bytes32"
        },
        {
          "indexed": false,
          "name": "_amountToBeDonated",
          "type": "uint256"
        }
      ],
      "name": "DonationChosen",
      "type": "event"
    },
    {
      "anonymous": false,
      "inputs": [
        {
          "indexed": false,
          "name": "_amountDonated",
          "type": "uint256"
        },
        {
          "indexed": false,
          "name": "_charityName",
          "type": "string"
        },
        {
          "indexed": false,
          "name": "_proofHash",
          "type": "bytes32"
        },
        {
          "indexed": false,
          "name": "_donationProof",
          "type": "string"
        },
        {
          "indexed": false,
          "name": "_donationMadeHash",
          "type": "bytes32"
        }
      ],
      "name": "DonationMadeToCharity",
      "type": "event"
    },
    {
      "anonymous": false,
      "inputs": [
        {
          "indexed": false,
          "name": "_tokenId",
          "type": "uint256"
        },
        {
          "indexed": false,
          "name": "_buyerId",
          "type": "bytes32"
        },
        {
          "indexed": false,
          "name": "_buyerAddress",
          "type": "address"
        }
      ],
      "name": "RedeemedToken",
      "type": "event"
    },
    {
      "anonymous": false,
      "inputs": [
        {
          "indexed": true,
          "name": "previousOwner",
          "type": "address"
        }
      ],
      "name": "OwnershipRenounced",
      "type": "event"
    },
    {
      "anonymous": false,
      "inputs": [
        {
          "indexed": true,
          "name": "previousOwner",
          "type": "address"
        },
        {
          "indexed": true,
          "name": "newOwner",
          "type": "address"
        }
      ],
      "name": "OwnershipTransferred",
      "type": "event"
    },
    {
      "anonymous": false,
      "inputs": [
        {
          "indexed": true,
          "name": "from",
          "type": "address"
        },
        {
          "indexed": true,
          "name": "to",
          "type": "address"
        },
        {
          "indexed": true,
          "name": "tokenId",
          "type": "uint256"
        }
      ],
      "name": "Transfer",
      "type": "event"
    },
    {
      "anonymous": false,
      "inputs": [
        {
          "indexed": true,
          "name": "owner",
          "type": "address"
        },
        {
          "indexed": true,
          "name": "approved",
          "type": "address"
        },
        {
          "indexed": true,
          "name": "tokenId",
          "type": "uint256"
        }
      ],
      "name": "Approval",
      "type": "event"
    },
    {
      "anonymous": false,
      "inputs": [
        {
          "indexed": true,
          "name": "owner",
          "type": "address"
        },
        {
          "indexed": true,
          "name": "operator",
          "type": "address"
        },
        {
          "indexed": false,
          "name": "approved",
          "type": "bool"
        }
      ],
      "name": "ApprovalForAll",
      "type": "event"
    },
    {
      "constant": false,
      "inputs": [
        {
          "name": "_tokenURI",
          "type": "string"
        },
        {
          "name": "_brand",
          "type": "string"
        },
        {
          "name": "_size",
          "type": "string"
        },
        {
          "name": "_gender",
          "type": "string"
        },
        {
          "name": "_style",
          "type": "string"
        },
        {
          "name": "_donorHash",
          "type": "bytes32"
        }
      ],
      "name": "mintItem",
      "outputs": [
        {
          "name": "",
          "type": "uint256"
        }
      ],
      "payable": false,
      "stateMutability": "nonpayable",
      "type": "function"
    },
    {
      "constant": false,
      "inputs": [
        {
          "name": "_buyerID",
          "type": "bytes32"
        },
        {
          "name": "_itemCost",
          "type": "uint256"
        },
        {
          "name": "_redemptionHash",
          "type": "bytes32"
        },
        {
          "name": "_tokenId",
          "type": "uint256"
        }
      ],
      "name": "soldItem",
      "outputs": [
        {
          "name": "",
          "type": "bool"
        }
      ],
      "payable": false,
      "stateMutability": "nonpayable",
      "type": "function"
    },
    {
      "constant": false,
      "inputs": [
        {
          "name": "_buyerID",
          "type": "bytes32"
        },
        {
          "name": "_charityName",
          "type": "string"
        },
        {
          "name": "_chosenDonateAmount",
          "type": "uint256"
        }
      ],
      "name": "chooseDonation",
      "outputs": [
        {
          "name": "",
          "type": "bool"
        }
      ],
      "payable": false,
      "stateMutability": "nonpayable",
      "type": "function"
    },
    {
      "constant": false,
      "inputs": [
        {
          "name": "_proofHash",
          "type": "bytes32"
        },
        {
          "name": "_proof",
          "type": "string"
        },
        {
          "name": "_madeDonationAmount",
          "type": "uint256"
        },
        {
          "name": "_charityName",
          "type": "string"
        }
      ],
      "name": "makeDonation",
      "outputs": [
        {
          "name": "",
          "type": "bool"
        }
      ],
      "payable": false,
      "stateMutability": "nonpayable",
      "type": "function"
    },
    {
      "constant": false,
      "inputs": [
        {
          "name": "_buyerID",
          "type": "bytes32"
        },
        {
          "name": "_redemptionHash",
          "type": "bytes32"
        },
        {
          "name": "_buyerAddress",
          "type": "address"
        },
        {
          "name": "_tokenId",
          "type": "uint256"
        }
      ],
      "name": "redeemItem",
      "outputs": [
        {
          "name": "",
          "type": "bool"
        }
      ],
      "payable": false,
      "stateMutability": "nonpayable",
      "type": "function"
    },
    {
      "constant": false,
      "inputs": [
        {
          "name": "_buyerID",
          "type": "bytes32"
        },
        {
          "name": "_redemptionHash",
          "type": "bytes32"
        },
        {
          "name": "_buyerAddress",
          "type": "address"
        },
        {
          "name": "_tokenId",
          "type": "uint256"
        }
      ],
      "name": "safeRedeemItem",
      "outputs": [
        {
          "name": "",
          "type": "bool"
        }
      ],
      "payable": false,
      "stateMutability": "nonpayable",
      "type": "function"
    },
    {
      "constant": true,
      "inputs": [
        {
          "name": "_buyerID",
          "type": "bytes32"
        }
      ],
      "name": "getBuyerAmount",
      "outputs": [
        {
          "name": "total",
          "type": "uint256"
        }
      ],
      "payable": false,
      "stateMutability": "view",
      "type": "function"
    },
    {
      "constant": true,
      "inputs": [],
      "name": "getTotalRaised",
      "outputs": [
        {
          "name": "",
          "type": "uint256"
        }
      ],
      "payable": false,
      "stateMutability": "view",
      "type": "function"
    },
    {
      "constant": true,
      "inputs": [],
      "name": "getTotalAllocatedDonations",
      "outputs": [
        {
          "name": "",
          "type": "uint256"
        }
      ],
      "payable": false,
      "stateMutability": "view",
      "type": "function"
    },
    {
      "constant": true,
      "inputs": [],
      "name": "getTotalMadeDonations",
      "outputs": [
        {
          "name": "",
          "type": "uint256"
        }
      ],
      "payable": false,
      "stateMutability": "view",
      "type": "function"
    },
    {
      "constant": true,
      "inputs": [
        {
          "name": "_tokenId",
          "type": "uint256"
        }
      ],
      "name": "getRedemption",
      "outputs": [
        {
          "name": "",
          "type": "bool"
        }
      ],
      "payable": false,
      "stateMutability": "view",
      "type": "function"
    },
    {
      "constant": true,
      "inputs": [
        {
          "name": "_tokenId",
          "type": "uint256"
        }
      ],
      "name": "getTokenSold",
      "outputs": [
        {
          "name": "",
          "type": "bool"
        }
      ],
      "payable": false,
      "stateMutability": "view",
      "type": "function"
    },
    {
      "constant": true,
      "inputs": [
        {
          "name": "_tokenId",
          "type": "uint256"
        }
      ],
      "name": "getTokenOwner",
      "outputs": [
        {
          "name": "",
          "type": "address"
        }
      ],
      "payable": false,
      "stateMutability": "view",
      "type": "function"
    },
    {
      "constant": true,
      "inputs": [
        {
          "name": "_donorId",
          "type": "bytes32"
        }
      ],
      "name": "getDonationAmount",
      "outputs": [
        {
          "name": "",
          "type": "uint256"
        }
      ],
      "payable": false,
      "stateMutability": "view",
      "type": "function"
    },
    {
      "constant": false,
      "inputs": [
        {
          "name": "newOwner",
          "type": "address"
        }
      ],
      "name": "transferContract",
      "outputs": [],
      "payable": false,
      "stateMutability": "nonpayable",
      "type": "function"
    }
  ],
  "bytecode": "0x60806040523480156200001157600080fd5b506040805190810160405280601481526020017f4c75786172697479205374796c6520546f6b656e0000000000000000000000008152506040805190810160405280600381526020017f4c555800000000000000000000000000000000000000000000000000000000008152508181620000bd6301ffc9a77c01000000000000000000000000000000000000000000000000000000000262000221640100000000026401000000009004565b620000fa6380ac58cd7c01000000000000000000000000000000000000000000000000000000000262000221640100000000026401000000009004565b6200013763780e9d637c01000000000000000000000000000000000000000000000000000000000262000221640100000000026401000000009004565b81600990805190602001906200014f929190620002df565b5080600a908051906020019062000168929190620002df565b50620001a6635b5e139f7c01000000000000000000000000000000000000000000000000000000000262000221640100000000026401000000009004565b5050505033600c60006101000a81548173ffffffffffffffffffffffffffffffffffffffff021916908373ffffffffffffffffffffffffffffffffffffffff1602179055506000600d819055506000600e819055506000600f819055506000601081905550600060118190555060006012819055506200038e565b63ffffffff7c010000000000000000000000000000000000000000000000000000000002817bffffffffffffffffffffffffffffffffffffffffffffffffffffffff1916141515156200027357600080fd5b6001600080837bffffffffffffffffffffffffffffffffffffffffffffffffffffffff19167bffffffffffffffffffffffffffffffffffffffffffffffffffffffff1916815260200190815260200160002060006101000a81548160ff02191690831515021790555050565b828054600181600116156101000203166002900490600052602060002090601f016020900481019282601f106200032257805160ff191683800117855562000353565b8280016001018555821562000353579182015b828111156200035257825182559160200191906001019062000335565b5b50905062000362919062000366565b5090565b6200038b91905b80821115620003875760008160009055506001016200036d565b5090565b90565b614513806200039e6000396000f30060806040526004361061022f576000357c0100000000000000000000000000000000000000000000000000000000900463ffffffff168062b370441461023157806301ffc9a71461025c57806306fdde03146102c0578063081812fc14610350578063095ea7b3146103bd57806318160ddd1461040a578063190c087d146104355780631953cc21146104ce5780631a168b58146105135780631f0bf9411461053e57806323b872dd1461056957806328e5d54f146105d65780632f745c591461060157806342842e0e1461066257806344d6ff4f146106cf57806347635dac1461071f5780634f6ccce7146107625780636352211e146107a357806364457aad1461081057806370a0823114610855578063715018a6146108ac5780637e233761146108c35780637ecbaf801461094457806380220d28146109ce57806382aa162214610a135780638da5cb5b14610a3e5780638f32d59b14610a9557806395d89b4114610ac45780639a22836e14610b545780639f55029314610c10578063a22cb46514610c3b578063a43e4acc14610c8a578063a5cd761f14610d69578063ad9ab85714610dd6578063b295806214610e4b578063b88d4fde14610faa578063c5c4744c1461105d578063c87b56dd14611088578063d55f92731461112e578063dee63cf414611159578063e06da50e14611184578063e36777af14611205578063e3bdc65a14611270578063e985e9c514611413578063f2fde38b1461148e578063f68ac9ef146114d1575b005b34801561023d57600080fd5b50610246611516565b6040518082815260200191505060405180910390f35b34801561026857600080fd5b506102a660048036038101908080357bffffffffffffffffffffffffffffffffffffffffffffffffffffffff1916906020019092919050505061151c565b604051808215151515815260200191505060405180910390f35b3480156102cc57600080fd5b506102d5611583565b6040518080602001828103825283818151815260200191508051906020019080838360005b838110156103155780820151818401526020810190506102fa565b50505050905090810190601f1680156103425780820380516001836020036101000a031916815260200191505b509250505060405180910390f35b34801561035c57600080fd5b5061037b60048036038101908080359060200190929190505050611625565b604051808273ffffffffffffffffffffffffffffffffffffffff1673ffffffffffffffffffffffffffffffffffffffff16815260200191505060405180910390f35b3480156103c957600080fd5b50610408600480360381019080803573ffffffffffffffffffffffffffffffffffffffff16906020019092919080359060200190929190505050611676565b005b34801561041657600080fd5b5061041f6117bb565b6040518082815260200191505060405180910390f35b34801561044157600080fd5b506104b46004803603810190808035600019169060200190929190803590602001908201803590602001908080601f0160208091040260200160405190810160405280939291908181526020018383808284378201915050505050509192919290803590602001909291905050506117c8565b604051808215151515815260200191505060405180910390f35b3480156104da57600080fd5b506104f96004803603810190808035906020019092919050505061199f565b604051808215151515815260200191505060405180910390f35b34801561051f57600080fd5b506105286119cc565b6040518082815260200191505060405180910390f35b34801561054a57600080fd5b506105536119d2565b6040518082815260200191505060405180910390f35b34801561057557600080fd5b506105d4600480360381019080803573ffffffffffffffffffffffffffffffffffffffff169060200190929190803573ffffffffffffffffffffffffffffffffffffffff169060200190929190803590602001909291905050506119d8565b005b3480156105e257600080fd5b506105eb611aa7565b6040518082815260200191505060405180910390f35b34801561060d57600080fd5b5061064c600480360381019080803573ffffffffffffffffffffffffffffffffffffffff16906020019092919080359060200190929190505050611aad565b6040518082815260200191505060405180910390f35b34801561066e57600080fd5b506106cd600480360381019080803573ffffffffffffffffffffffffffffffffffffffff169060200190929190803573ffffffffffffffffffffffffffffffffffffffff16906020019092919080359060200190929190505050611b24565b005b3480156106db57600080fd5b506106fe6004803603810190808035600019169060200190929190505050611b45565b60405180838152602001821515151581526020019250505060405180910390f35b34801561072b57600080fd5b50610760600480360381019080803573ffffffffffffffffffffffffffffffffffffffff169060200190929190505050611b76565b005b34801561076e57600080fd5b5061078d60048036038101908080359060200190929190505050611b95565b6040518082815260200191505060405180910390f35b3480156107af57600080fd5b506107ce60048036038101908080359060200190929190505050611bcd565b604051808273ffffffffffffffffffffffffffffffffffffffff1673ffffffffffffffffffffffffffffffffffffffff16815260200191505060405180910390f35b34801561081c57600080fd5b5061083b60048036038101908080359060200190929190505050611c4b565b604051808215151515815260200191505060405180910390f35b34801561086157600080fd5b50610896600480360381019080803573ffffffffffffffffffffffffffffffffffffffff169060200190929190505050611c78565b6040518082815260200191505060405180910390f35b3480156108b857600080fd5b506108c1611cfc565b005b3480156108cf57600080fd5b5061092a60048036038101908080356000191690602001909291908035600019169060200190929190803573ffffffffffffffffffffffffffffffffffffffff16906020019092919080359060200190929190505050611db8565b604051808215151515815260200191505060405180910390f35b34801561095057600080fd5b506109736004803603810190808035600019169060200190929190505050611fa4565b60405180858152602001848152602001831515151581526020018273ffffffffffffffffffffffffffffffffffffffff1673ffffffffffffffffffffffffffffffffffffffff16815260200194505050505060405180910390f35b3480156109da57600080fd5b506109fd6004803603810190808035600019169060200190929190505050612001565b6040518082815260200191505060405180910390f35b348015610a1f57600080fd5b50610a28612067565b6040518082815260200191505060405180910390f35b348015610a4a57600080fd5b50610a53612071565b604051808273ffffffffffffffffffffffffffffffffffffffff1673ffffffffffffffffffffffffffffffffffffffff16815260200191505060405180910390f35b348015610aa157600080fd5b50610aaa61209b565b604051808215151515815260200191505060405180910390f35b348015610ad057600080fd5b50610ad96120f3565b6040518080602001828103825283818151815260200191508051906020019080838360005b83811015610b19578082015181840152602081019050610afe565b50505050905090810190601f168015610b465780820380516001836020036101000a031916815260200191505b509250505060405180910390f35b348015610b6057600080fd5b50610b7f60048036038101908080359060200190929190505050612195565b60405180806020018481526020018360001916600019168152602001828103825285818151815260200191508051906020019080838360005b83811015610bd3578082015181840152602081019050610bb8565b50505050905090810190601f168015610c005780820380516001836020036101000a031916815260200191505b5094505050505060405180910390f35b348015610c1c57600080fd5b50610c25612257565b6040518082815260200191505060405180910390f35b348015610c4757600080fd5b50610c88600480360381019080803573ffffffffffffffffffffffffffffffffffffffff169060200190929190803515159060200190929190505050612261565b005b348015610c9657600080fd5b50610d4f6004803603810190808035600019169060200190929190803590602001908201803590602001908080601f016020809104026020016040519081016040528093929190818152602001838380828437820191505050505050919291929080359060200190929190803590602001908201803590602001908080601f016020809104026020016040519081016040528093929190818152602001838380828437820191505050505050919291929050505061239d565b604051808215151515815260200191505060405180910390f35b348015610d7557600080fd5b50610d9460048036038101908080359060200190929190505050612807565b604051808273ffffffffffffffffffffffffffffffffffffffff1673ffffffffffffffffffffffffffffffffffffffff16815260200191505060405180910390f35b348015610de257600080fd5b50610e016004803603810190808035906020019092919050505061281e565b604051808660001916600019168152602001856000191660001916815260200184151515158152602001831515151581526020018281526020019550505050505060405180910390f35b348015610e5757600080fd5b50610e7a600480360381019080803560001916906020019092919050505061286e565b604051808060200186815260200185600019166000191681526020018473ffffffffffffffffffffffffffffffffffffffff1673ffffffffffffffffffffffffffffffffffffffff16815260200180602001838103835288818151815260200191508051906020019080838360005b83811015610f04578082015181840152602081019050610ee9565b50505050905090810190601f168015610f315780820380516001836020036101000a031916815260200191505b50838103825284818151815260200191508051906020019080838360005b83811015610f6a578082015181840152602081019050610f4f565b50505050905090810190601f168015610f975780820380516001836020036101000a031916815260200191505b5097505050505050505060405180910390f35b348015610fb657600080fd5b5061105b600480360381019080803573ffffffffffffffffffffffffffffffffffffffff169060200190929190803573ffffffffffffffffffffffffffffffffffffffff16906020019092919080359060200190929190803590602001908201803590602001908080601f01602080910402602001604051908101604052809392919081815260200183838082843782019150505050505091929192905050506129f4565b005b34801561106957600080fd5b50611072612a1c565b6040518082815260200191505060405180910390f35b34801561109457600080fd5b506110b360048036038101908080359060200190929190505050612a22565b6040518080602001828103825283818151815260200191508051906020019080838360005b838110156110f35780820151818401526020810190506110d8565b50505050905090810190601f1680156111205780820380516001836020036101000a031916815260200191505b509250505060405180910390f35b34801561113a57600080fd5b50611143612aeb565b6040518082815260200191505060405180910390f35b34801561116557600080fd5b5061116e612af1565b6040518082815260200191505060405180910390f35b34801561119057600080fd5b506111eb60048036038101908080356000191690602001909291908035600019169060200190929190803573ffffffffffffffffffffffffffffffffffffffff16906020019092919080359060200190929190505050612afb565b604051808215151515815260200191505060405180910390f35b34801561121157600080fd5b50611256600480360381019080803560001916906020019092919080359060200190929190803560001916906020019092919080359060200190929190505050612ce7565b604051808215151515815260200191505060405180910390f35b34801561127c57600080fd5b506113fd600480360381019080803590602001908201803590602001908080601f0160208091040260200160405190810160405280939291908181526020018383808284378201915050505050509192919290803590602001908201803590602001908080601f0160208091040260200160405190810160405280939291908181526020018383808284378201915050505050509192919290803590602001908201803590602001908080601f0160208091040260200160405190810160405280939291908181526020018383808284378201915050505050509192919290803590602001908201803590602001908080601f0160208091040260200160405190810160405280939291908181526020018383808284378201915050505050509192919290803590602001908201803590602001908080601f01602080910402602001604051908101604052809392919081815260200183838082843782019150505050505091929192908035600019169060200190929190505050612ff3565b6040518082815260200191505060405180910390f35b34801561141f57600080fd5b50611474600480360381019080803573ffffffffffffffffffffffffffffffffffffffff169060200190929190803573ffffffffffffffffffffffffffffffffffffffff1690602001909291905050506136aa565b604051808215151515815260200191505060405180910390f35b34801561149a57600080fd5b506114cf600480360381019080803573ffffffffffffffffffffffffffffffffffffffff16906020019092919050505061373e565b005b3480156114dd57600080fd5b50611500600480360381019080803560001916906020019092919050505061375d565b6040518082815260200191505060405180910390f35b600f5481565b6000806000837bffffffffffffffffffffffffffffffffffffffffffffffffffffffff19167bffffffffffffffffffffffffffffffffffffffffffffffffffffffff1916815260200190815260200160002060009054906101000a900460ff169050919050565b606060098054600181600116156101000203166002900480601f01602080910402602001604051908101604052809291908181526020018280546001816001161561010002031660029004801561161b5780601f106115f05761010080835404028352916020019161161b565b820191906000526020600020905b8154815290600101906020018083116115fe57829003601f168201915b5050505050905090565b6000611630826137c0565b151561163b57600080fd5b6002600083815260200190815260200160002060009054906101000a900473ffffffffffffffffffffffffffffffffffffffff169050919050565b600061168182611bcd565b90508073ffffffffffffffffffffffffffffffffffffffff168373ffffffffffffffffffffffffffffffffffffffff16141515156116be57600080fd5b8073ffffffffffffffffffffffffffffffffffffffff163373ffffffffffffffffffffffffffffffffffffffff1614806116fe57506116fd81336136aa565b5b151561170957600080fd5b826002600084815260200190815260200160002060006101000a81548173ffffffffffffffffffffffffffffffffffffffff021916908373ffffffffffffffffffffffffffffffffffffffff160217905550818373ffffffffffffffffffffffffffffffffffffffff168273ffffffffffffffffffffffffffffffffffffffff167f8c5be1e5ebec7d5bd14f71427d1e84f3dd0314c0f7b2291e5b200ac8c7c3b92560405160405180910390a4505050565b6000600780549050905090565b600080846001151560176000836000191660001916815260200190815260200160002060020160009054906101000a900460ff16151514151561180a57600080fd5b60176000876000191660001916815260200190815260200160002060010154601760008860001916600019168152602001908152602001600020600001540391508382111515611991576001601160008282540192505081905550606060405190810160405280868152602001858152602001876000191681525060146000601154815260200190815260200160002060008201518160000190805190602001906118b6929190614396565b5060208201518160010155604082015181600201906000191690559050507fe1e2f04378c01049d9d077035633dcf281eb34649d091dd1d7d1f0c3b4686fa085878660405180806020018460001916600019168152602001838152602001828103825285818151815260200191508051906020019080838360005b8381101561194c578082015181840152602081019050611931565b50505050905090810190601f1680156119795780820380516001836020036101000a031916815260200191505b5094505050505060405180910390a160019250611996565b600092505b50509392505050565b60006016600083815260200190815260200160002060020160009054906101000a900460ff169050919050565b60115481565b60125481565b6119e23382613832565b15156119ed57600080fd5b600073ffffffffffffffffffffffffffffffffffffffff168273ffffffffffffffffffffffffffffffffffffffff1614151515611a2957600080fd5b611a3383826138c7565b611a3d83826139ca565b611a478282613b86565b808273ffffffffffffffffffffffffffffffffffffffff168473ffffffffffffffffffffffffffffffffffffffff167fddf252ad1be2c89b69c2b068fc378daa952ba7f163c4a11628f55a4df523b3ef60405160405180910390a4505050565b60105481565b6000611ab883611c78565b82101515611ac557600080fd5b600560008473ffffffffffffffffffffffffffffffffffffffff1673ffffffffffffffffffffffffffffffffffffffff16815260200190815260200160002082815481101515611b1157fe5b9060005260206000200154905092915050565b611b4083838360206040519081016040528060008152506129f4565b505050565b60186020528060005260406000206000915090508060000154908060010160009054906101000a900460ff16905082565b611b7e61209b565b1515611b8957600080fd5b611b928161373e565b50565b6000611b9f6117bb565b82101515611bac57600080fd5b600782815481101515611bbb57fe5b90600052602060002001549050919050565b6000806001600084815260200190815260200160002060009054906101000a900473ffffffffffffffffffffffffffffffffffffffff169050600073ffffffffffffffffffffffffffffffffffffffff168173ffffffffffffffffffffffffffffffffffffffff1614151515611c4257600080fd5b80915050919050565b60006016600083815260200190815260200160002060020160019054906101000a900460ff169050919050565b60008073ffffffffffffffffffffffffffffffffffffffff168273ffffffffffffffffffffffffffffffffffffffff1614151515611cb557600080fd5b600360008373ffffffffffffffffffffffffffffffffffffffff1673ffffffffffffffffffffffffffffffffffffffff168152602001908152602001600020549050919050565b611d0461209b565b1515611d0f57600080fd5b600c60009054906101000a900473ffffffffffffffffffffffffffffffffffffffff1673ffffffffffffffffffffffffffffffffffffffff167ff8df31144d9c2f0f6b59d69b8b98abd5459d07f2742c4df920b25aae33c6482060405160405180910390a26000600c60006101000a81548173ffffffffffffffffffffffffffffffffffffffff021916908373ffffffffffffffffffffffffffffffffffffffff160217905550565b6000846001151560176000836000191660001916815260200190815260200160002060020160009054906101000a900460ff161515141515611df957600080fd5b600073ffffffffffffffffffffffffffffffffffffffff168473ffffffffffffffffffffffffffffffffffffffff1614151515611e3557600080fd5b8560001916601660008581526020019081526020016000206000015460001916141515611e6157600080fd5b8460001916601660008581526020019081526020016000206001015460001916141515611e8d57600080fd5b836013600085815260200190815260200160002060070160006101000a81548173ffffffffffffffffffffffffffffffffffffffff021916908373ffffffffffffffffffffffffffffffffffffffff16021790555060016016600085815260200190815260200160002060020160006101000a81548160ff021916908315150217905550611f1c3385856119d8565b7f228808fc7f1cf2105ae7d045c73ecb559cd36038b92afc74b2d6c12adc0598728387866040518084815260200183600019166000191681526020018273ffffffffffffffffffffffffffffffffffffffff1673ffffffffffffffffffffffffffffffffffffffff168152602001935050505060405180910390a16001915050949350505050565b60176020528060005260406000206000915090508060000154908060010154908060020160009054906101000a900460ff16908060020160019054906101000a900473ffffffffffffffffffffffffffffffffffffffff16905084565b60006001151560186000846000191660001916815260200190815260200160002060010160009054906101000a900460ff16151514151561204157600080fd5b601860008360001916600019168152602001908152602001600020600001549050919050565b6000601154905090565b6000600c60009054906101000a900473ffffffffffffffffffffffffffffffffffffffff16905090565b6000600c60009054906101000a900473ffffffffffffffffffffffffffffffffffffffff1673ffffffffffffffffffffffffffffffffffffffff163373ffffffffffffffffffffffffffffffffffffffff1614905090565b6060600a8054600181600116156101000203166002900480601f01602080910402602001604051908101604052809291908181526020018280546001816001161561010002031660029004801561218b5780601f106121605761010080835404028352916020019161218b565b820191906000526020600020905b81548152906001019060200180831161216e57829003601f168201915b5050505050905090565b6014602052806000526040600020600091509050806000018054600181600116156101000203166002900480601f0160208091040260200160405190810160405280929190818152602001828054600181600116156101000203166002900480156122415780601f1061221657610100808354040283529160200191612241565b820191906000526020600020905b81548152906001019060200180831161222457829003601f168201915b5050505050908060010154908060020154905083565b6000600e54905090565b3373ffffffffffffffffffffffffffffffffffffffff168273ffffffffffffffffffffffffffffffffffffffff161415151561229c57600080fd5b80600460003373ffffffffffffffffffffffffffffffffffffffff1673ffffffffffffffffffffffffffffffffffffffff16815260200190815260200160002060008473ffffffffffffffffffffffffffffffffffffffff1673ffffffffffffffffffffffffffffffffffffffff16815260200190815260200160002060006101000a81548160ff0219169083151502179055508173ffffffffffffffffffffffffffffffffffffffff163373ffffffffffffffffffffffffffffffffffffffff167f17307eab39ab6107e8899845ad3d59bd9653f200f220920489ca2b5937696c3183604051808215151515815260200191505060405180910390a35050565b6000806123a861209b565b15156123b357600080fd5b82848733886040516020018086805190602001908083835b6020831015156123f057805182526020820191506020810190506020830392506123cb565b6001836020036101000a03801982511681845116808217855250505050505090500185815260200184600019166000191681526020018373ffffffffffffffffffffffffffffffffffffffff1673ffffffffffffffffffffffffffffffffffffffff166c0100000000000000000000000002815260140182805190602001908083835b6020831015156124985780518252602082019150602081019050602083039250612473565b6001836020036101000a038019825116818451168082178552505050505050905001955050505050506040516020818303038152906040526040518082805190602001908083835b60208310151561250557805182526020820191506020810190506020830392506124e0565b6001836020036101000a03801982511681845116808217855250505050505090500191505060405180910390209050600073ffffffffffffffffffffffffffffffffffffffff1660156000836000191660001916815260200190815260200160002060030160009054906101000a900473ffffffffffffffffffffffffffffffffffffffff1673ffffffffffffffffffffffffffffffffffffffff161415156125ad57600080fd5b600160126000828254019250508190555083600f6000828254019250508190555060a060405190810160405280848152602001858152602001876000191681526020013373ffffffffffffffffffffffffffffffffffffffff168152602001868152506015600083600019166000191681526020019081526020016000206000820151816000019080519060200190612647929190614396565b50602082015181600101556040820151816002019060001916905560608201518160030160006101000a81548173ffffffffffffffffffffffffffffffffffffffff021916908373ffffffffffffffffffffffffffffffffffffffff16021790555060808201518160040190805190602001906126c5929190614396565b509050507fdab98e61abe5b56925e931d8cbb34c52f9193512b3f553e12cc3259a7698ff55848488888560405180868152602001806020018560001916600019168152602001806020018460001916600019168152602001838103835287818151815260200191508051906020019080838360005b8381101561275557808201518184015260208101905061273a565b50505050905090810190601f1680156127825780820380516001836020036101000a031916815260200191505b50838103825285818151815260200191508051906020019080838360005b838110156127bb5780820151818401526020810190506127a0565b50505050905090810190601f1680156127e85780820380516001836020036101000a031916815260200191505b5097505050505050505060405180910390a16001915050949350505050565b60008061281383611bcd565b905080915050919050565b60166020528060005260406000206000915090508060000154908060010154908060020160009054906101000a900460ff16908060020160019054906101000a900460ff16908060030154905085565b6015602052806000526040600020600091509050806000018054600181600116156101000203166002900480601f01602080910402602001604051908101604052809291908181526020018280546001816001161561010002031660029004801561291a5780601f106128ef5761010080835404028352916020019161291a565b820191906000526020600020905b8154815290600101906020018083116128fd57829003601f168201915b5050505050908060010154908060020154908060030160009054906101000a900473ffffffffffffffffffffffffffffffffffffffff1690806004018054600181600116156101000203166002900480601f0160208091040260200160405190810160405280929190818152602001828054600181600116156101000203166002900480156129ea5780601f106129bf576101008083540402835291602001916129ea565b820191906000526020600020905b8154815290600101906020018083116129cd57829003601f168201915b5050505050905085565b6129ff8484846119d8565b612a0b84848484613c5d565b1515612a1657600080fd5b50505050565b600e5481565b6060612a2d826137c0565b1515612a3857600080fd5b600b60008381526020019081526020016000208054600181600116156101000203166002900480601f016020809104026020016040519081016040528092919081815260200182805460018160011615610100020316600290048015612adf5780601f10612ab457610100808354040283529160200191612adf565b820191906000526020600020905b815481529060010190602001808311612ac257829003601f168201915b50505050509050919050565b600d5481565b6000601254905090565b6000846001151560176000836000191660001916815260200190815260200160002060020160009054906101000a900460ff161515141515612b3c57600080fd5b600073ffffffffffffffffffffffffffffffffffffffff168473ffffffffffffffffffffffffffffffffffffffff1614151515612b7857600080fd5b8560001916601660008581526020019081526020016000206000015460001916141515612ba457600080fd5b8460001916601660008581526020019081526020016000206001015460001916141515612bd057600080fd5b836013600085815260200190815260200160002060070160006101000a81548173ffffffffffffffffffffffffffffffffffffffff021916908373ffffffffffffffffffffffffffffffffffffffff160217905550612c30338585611b24565b60016016600085815260200190815260200160002060020160006101000a81548160ff0219169083151502179055507f228808fc7f1cf2105ae7d045c73ecb559cd36038b92afc74b2d6c12adc0598728387866040518084815260200183600019166000191681526020018273ffffffffffffffffffffffffffffffffffffffff1673ffffffffffffffffffffffffffffffffffffffff168152602001935050505060405180910390a16001915050949350505050565b6000612cf161209b565b1515612cfc57600080fd5b60176000866000191660001916815260200190815260200160002060020160009054906101000a900460ff161515612e095760806040519081016040528085815260200160008152602001600115158152602001600073ffffffffffffffffffffffffffffffffffffffff16815250601760008760001916600019168152602001908152602001600020600082015181600001556020820151816001015560408201518160020160006101000a81548160ff02191690831515021790555060608201518160020160016101000a81548173ffffffffffffffffffffffffffffffffffffffff021916908373ffffffffffffffffffffffffffffffffffffffff160217905550905050612e36565b83601760008760001916600019168152602001908152602001600020600001600082825401925050819055505b6016600083815260200190815260200160002060020160019054906101000a900460ff161515612fe657600160106000828254019250508190555060a06040519081016040528086600019168152602001846000191681526020016000151581526020016001151581526020018581525060166000848152602001908152602001600020600082015181600001906000191690556020820151816001019060001916905560408201518160020160006101000a81548160ff02191690831515021790555060608201518160020160016101000a81548160ff0219169083151502179055506080820151816003015590505083600e600082825401925050819055508360186000601360008681526020019081526020016000206008015460001916600019168152602001908152602001600020600001600082825401925050819055507efbb329a2a0586f66ec8c109ac92ce4baff4cd3a7ff1c7b875162fc1e85261382866016600086815260200190815260200160002060030154604051808481526020018360001916600019168152602001828152602001935050505060405180910390a160019050612feb565b600090505b949350505050565b600080612ffe61209b565b151561300957600080fd5b60186000846000191660001916815260200190815260200160002060010160009054906101000a900460ff1615156130f257604080519081016040528060008152602001600115158152506018600085600019166000191681526020019081526020016000206000820151816000015560208201518160010160006101000a81548160ff0219169083151502179055509050507fcd48662abd2b2ca98107d052c612ef62ef0f47578ddbdf868d221cebe91f2163836000600160405180846000191660001916815260200183815260200182151515158152602001935050505060405180910390a15b6001600d6000828254019250508190555060011515613112600d546137c0565b151514151561312057600080fd5b868685878b3333896040516020018089805190602001908083835b602083101515613160578051825260208201915060208101905060208303925061313b565b6001836020036101000a03801982511681845116808217855250505050505090500188805190602001908083835b6020831015156131b3578051825260208201915060208101905060208303925061318e565b6001836020036101000a03801982511681845116808217855250505050505090500187805190602001908083835b60208310151561320657805182526020820191506020810190506020830392506131e1565b6001836020036101000a03801982511681845116808217855250505050505090500186805190602001908083835b6020831015156132595780518252602082019150602081019050602083039250613234565b6001836020036101000a03801982511681845116808217855250505050505090500185805190602001908083835b6020831015156132ac5780518252602082019150602081019050602083039250613287565b6001836020036101000a0380198251168184511680821785525050505050509050018473ffffffffffffffffffffffffffffffffffffffff1673ffffffffffffffffffffffffffffffffffffffff166c010000000000000000000000000281526014018373ffffffffffffffffffffffffffffffffffffffff1673ffffffffffffffffffffffffffffffffffffffff166c010000000000000000000000000281526014018260001916600019168152602001985050505050505050506040516020818303038152906040526040518082805190602001908083835b6020831015156133ac5780518252602082019150602081019050602083039250613387565b6001836020036101000a0380198251168184511680821785525050505050509050019150506040518091039020905061012060405190810160405280826000191681526020018881526020018781526020018581526020018681526020018981526020013373ffffffffffffffffffffffffffffffffffffffff1681526020013373ffffffffffffffffffffffffffffffffffffffff168152602001846000191681525060136000600d548152602001908152602001600020600082015181600001906000191690556020820151816001019080519060200190613491929190614396565b5060408201518160020190805190602001906134ae929190614396565b5060608201518160030190805190602001906134cb929190614396565b5060808201518160040190805190602001906134e8929190614396565b5060a0820151816005019080519060200190613505929190614396565b5060c08201518160060160006101000a81548173ffffffffffffffffffffffffffffffffffffffff021916908373ffffffffffffffffffffffffffffffffffffffff16021790555060e08201518160070160006101000a81548173ffffffffffffffffffffffffffffffffffffffff021916908373ffffffffffffffffffffffffffffffffffffffff16021790555061010082015181600801906000191690559050506135b433600d54613e7f565b6135c0600d5489613ed6565b7f5bf2d4b28d6c1c4b05ec28293620e14bddc41a4c0cfd5314abfd693d2dfede2f600d54338a604051808481526020018373ffffffffffffffffffffffffffffffffffffffff1673ffffffffffffffffffffffffffffffffffffffff16815260200180602001828103825283818151815260200191508051906020019080838360005b8381101561365e578082015181840152602081019050613643565b50505050905090810190601f16801561368b5780820380516001836020036101000a031916815260200191505b5094505050505060405180910390a1600d549150509695505050505050565b6000600460008473ffffffffffffffffffffffffffffffffffffffff1673ffffffffffffffffffffffffffffffffffffffff16815260200190815260200160002060008373ffffffffffffffffffffffffffffffffffffffff1673ffffffffffffffffffffffffffffffffffffffff16815260200190815260200160002060009054906101000a900460ff16905092915050565b61374661209b565b151561375157600080fd5b61375a81613f16565b50565b600060176000836000191660001916815260200190815260200160002060020160009054906101000a900460ff16156137b6576017600083600019166000191681526020019081526020016000206000015490506137bb565b600090505b919050565b6000806001600084815260200190815260200160002060009054906101000a900473ffffffffffffffffffffffffffffffffffffffff169050600073ffffffffffffffffffffffffffffffffffffffff168173ffffffffffffffffffffffffffffffffffffffff161415915050919050565b60008061383e83611bcd565b90508073ffffffffffffffffffffffffffffffffffffffff168473ffffffffffffffffffffffffffffffffffffffff1614806138ad57508373ffffffffffffffffffffffffffffffffffffffff1661389584611625565b73ffffffffffffffffffffffffffffffffffffffff16145b806138be57506138bd81856136aa565b5b91505092915050565b8173ffffffffffffffffffffffffffffffffffffffff166138e782611bcd565b73ffffffffffffffffffffffffffffffffffffffff1614151561390957600080fd5b600073ffffffffffffffffffffffffffffffffffffffff166002600083815260200190815260200160002060009054906101000a900473ffffffffffffffffffffffffffffffffffffffff1673ffffffffffffffffffffffffffffffffffffffff161415156139c65760006002600083815260200190815260200160002060006101000a81548173ffffffffffffffffffffffffffffffffffffffff021916908373ffffffffffffffffffffffffffffffffffffffff1602179055505b5050565b60008060006139d98585614012565b60066000858152602001908152602001600020549250613a456001600560008873ffffffffffffffffffffffffffffffffffffffff1673ffffffffffffffffffffffffffffffffffffffff1681526020019081526020016000208054905061414190919063ffffffff16565b9150600560008673ffffffffffffffffffffffffffffffffffffffff1673ffffffffffffffffffffffffffffffffffffffff16815260200190815260200160002082815481101515613a9357fe5b9060005260206000200154905080600560008773ffffffffffffffffffffffffffffffffffffffff1673ffffffffffffffffffffffffffffffffffffffff16815260200190815260200160002084815481101515613aed57fe5b9060005260206000200181905550600560008673ffffffffffffffffffffffffffffffffffffffff1673ffffffffffffffffffffffffffffffffffffffff168152602001908152602001600020805480919060019003613b4d9190614416565b50600060066000868152602001908152602001600020819055508260066000838152602001908152602001600020819055505050505050565b6000613b928383614162565b600560008473ffffffffffffffffffffffffffffffffffffffff1673ffffffffffffffffffffffffffffffffffffffff168152602001908152602001600020805490509050600560008473ffffffffffffffffffffffffffffffffffffffff1673ffffffffffffffffffffffffffffffffffffffff168152602001908152602001600020829080600181540180825580915050906001820390600052602060002001600090919290919091505550806006600084815260200190815260200160002081905550505050565b600080613c7f8573ffffffffffffffffffffffffffffffffffffffff166142bc565b1515613c8e5760019150613e76565b8473ffffffffffffffffffffffffffffffffffffffff1663150b7a02338887876040518563ffffffff167c0100000000000000000000000000000000000000000000000000000000028152600401808573ffffffffffffffffffffffffffffffffffffffff1673ffffffffffffffffffffffffffffffffffffffff1681526020018473ffffffffffffffffffffffffffffffffffffffff1673ffffffffffffffffffffffffffffffffffffffff16815260200183815260200180602001828103825283818151815260200191508051906020019080838360005b83811015613d83578082015181840152602081019050613d68565b50505050905090810190601f168015613db05780820380516001836020036101000a031916815260200191505b5095505050505050602060405180830381600087803b158015613dd257600080fd5b505af1158015613de6573d6000803e3d6000fd5b505050506040513d6020811015613dfc57600080fd5b8101908080519060200190929190505050905063150b7a027c0100000000000000000000000000000000000000000000000000000000027bffffffffffffffffffffffffffffffffffffffffffffffffffffffff1916817bffffffffffffffffffffffffffffffffffffffffffffffffffffffff19161491505b50949350505050565b613e8982826142cf565b600780549050600860008381526020019081526020016000208190555060078190806001815401808255809150509060018203906000526020600020016000909192909190915055505050565b613edf826137c0565b1515613eea57600080fd5b80600b60008481526020019081526020016000209080519060200190613f11929190614442565b505050565b600073ffffffffffffffffffffffffffffffffffffffff168173ffffffffffffffffffffffffffffffffffffffff1614151515613f5257600080fd5b8073ffffffffffffffffffffffffffffffffffffffff16600c60009054906101000a900473ffffffffffffffffffffffffffffffffffffffff1673ffffffffffffffffffffffffffffffffffffffff167f8be0079c531659141344cd1fd0a4f28419497f9722a3daafe3b4186f6b6457e060405160405180910390a380600c60006101000a81548173ffffffffffffffffffffffffffffffffffffffff021916908373ffffffffffffffffffffffffffffffffffffffff16021790555050565b8173ffffffffffffffffffffffffffffffffffffffff1661403282611bcd565b73ffffffffffffffffffffffffffffffffffffffff1614151561405457600080fd5b6140a76001600360008573ffffffffffffffffffffffffffffffffffffffff1673ffffffffffffffffffffffffffffffffffffffff1681526020019081526020016000205461414190919063ffffffff16565b600360008473ffffffffffffffffffffffffffffffffffffffff1673ffffffffffffffffffffffffffffffffffffffff1681526020019081526020016000208190555060006001600083815260200190815260200160002060006101000a81548173ffffffffffffffffffffffffffffffffffffffff021916908373ffffffffffffffffffffffffffffffffffffffff1602179055505050565b60008083831115151561415357600080fd5b82840390508091505092915050565b600073ffffffffffffffffffffffffffffffffffffffff166001600083815260200190815260200160002060009054906101000a900473ffffffffffffffffffffffffffffffffffffffff1673ffffffffffffffffffffffffffffffffffffffff161415156141d057600080fd5b816001600083815260200190815260200160002060006101000a81548173ffffffffffffffffffffffffffffffffffffffff021916908373ffffffffffffffffffffffffffffffffffffffff1602179055506142756001600360008573ffffffffffffffffffffffffffffffffffffffff1673ffffffffffffffffffffffffffffffffffffffff1681526020019081526020016000205461437590919063ffffffff16565b600360008473ffffffffffffffffffffffffffffffffffffffff1673ffffffffffffffffffffffffffffffffffffffff168152602001908152602001600020819055505050565b600080823b905060008111915050919050565b600073ffffffffffffffffffffffffffffffffffffffff168273ffffffffffffffffffffffffffffffffffffffff161415151561430b57600080fd5b6143158282613b86565b808273ffffffffffffffffffffffffffffffffffffffff16600073ffffffffffffffffffffffffffffffffffffffff167fddf252ad1be2c89b69c2b068fc378daa952ba7f163c4a11628f55a4df523b3ef60405160405180910390a45050565b600080828401905083811015151561438c57600080fd5b8091505092915050565b828054600181600116156101000203166002900490600052602060002090601f016020900481019282601f106143d757805160ff1916838001178555614405565b82800160010185558215614405579182015b828111156144045782518255916020019190600101906143e9565b5b50905061441291906144c2565b5090565b81548183558181111561443d5781836000526020600020918201910161443c91906144c2565b5b505050565b828054600181600116156101000203166002900490600052602060002090601f016020900481019282601f1061448357805160ff19168380011785556144b1565b828001600101855582156144b1579182015b828111156144b0578251825591602001919060010190614495565b5b5090506144be91906144c2565b5090565b6144e491905b808211156144e05760008160009055506001016144c8565b5090565b905600a165627a7a723058202b6ddf15741fe3eb7455c4fbff53492d6a13cbded2358d94cbe6e09d6a859c0c0029",
  "source": "pragma solidity ^0.4.24;\n\nimport '../openzeppelin-solidity-master/contracts/token/ERC721/ERC721Full.sol';\nimport \"../openzeppelin-solidity-master/contracts/ownership/Ownable.sol\";\n\ncontract LuxTokens is ERC721Full, Ownable {\n\n  //state variables\n\n    //tokenid index\n    uint256 public tokenIndex;\n\n    //total raised in sales uint256 USD\n    uint256 public totalRaised;\n\n    //total verifiably donated to charities\n    uint256 public totalDonated;\n\n    //total items sold\n    uint256 public totalItemsSold;\n\n    //total number of chosen donations\n    uint256 public totalChosenDonations;\n\n    //total number of made donations\n    uint256 public totalMadeDonations;\n\n    //token mapping\n    mapping (uint256 => LuxToken) luxTokens;\n\n    //token struct\n    struct LuxToken {\n      bytes32 tokenHash;\n      string brand;\n      string size;\n      string style;\n      string gender;\n      string tokenURI;\n      address generation;\n      address owner;\n      bytes32 donorHash;\n    }\n\n    //list of donation choices made by buyer (attestation on chain that buyer\n    //chose a particular charity to give to)\n    mapping (uint256 => ChosenDonation) public chosenDonations;\n    struct ChosenDonation {\n      string charityName; //name of charity buyer has chosen to give to\n      uint256 amountDonated; //amount buyer would like to set aside from his purchases to charity\n      bytes32 buyerHash; //hash of donor off-chain identity\n    }\n\n    //MadeDonations is a list of donations actually made\n    //by luxarity after the resale of donated cloething, this exists to keep luxarity publically\n    //accountable\n    //identifier is keccak256(charityName, amountDonated, donationProofHash, donorAddress, donationProof)\n    mapping (bytes32 => MadeDonation) public madeDonations;\n    struct MadeDonation {\n      string charityName; //name of charity luxarity sent proceeds to\n      uint256 amountDonated; //amount donated via grant to charity\n      bytes32 donationProofHash; //SHA256 hash of proof of donation (in case it is tampered with)\n      address donorAddress; //address of owner of contract (luxarity)\n      string donationProof; //link to donation receipt\n    }\n\n    //soldTokens mapping keeping track of which tokens are sold to which buyer,\n    //this is somewhat redundant for the sake of associating a buyer's off chain identifier\n    //with their actual address (when they get one), it also tracks which tokens have been\n    //properly redeemed when bought (another layer on top of _tokenApprovals per say)\n    //index needs to be unique so it may be possible to do SHA256(tokenId + soldId + user ID)\n    mapping (uint256 => SaleDetails) public soldTokens;\n    struct SaleDetails {\n      bytes32 buyerHash; //identifier hash of off chain identifier of buyer\n      bytes32 redemptionHash; //SHA256 of secret value used by buyer to redeem their token\n      bool redeemed; //redemption status of token\n      bool sold;  //always true\n      uint256 cost; //cost of token in sale (USD)\n    }\n\n    //buyers mapping with buyer struct bytes32 => buyer, buyer struct {bytes32, totalBought, exists, owneraddress, totalDonated}, totalBought increments after everytime the buyer buys something and sold function is called, we check for exists and if not true we create a new buyer and add the amount they bought and increment on top of that amount in the future\n    //identifier hash of off chain identifier of buyer\n    mapping (bytes32 => Buyer) public buyers;\n    struct Buyer {\n      uint256 totalContributed; //total amount the buyer has bought in USD\n      uint256 totalDonationsAllocated; //amount of donation capital allocated\n      bool exists; //always true\n      address buyerAddress; //address of buyer (if token has been redeemed)\n    }\n\n    //tracking donor contributions, identifier is SHA256(unique donor off chain identifier)\n    mapping (bytes32 => Donor) public donors;\n    struct Donor {\n      uint256 fundsRaised; //funds raised from donated items\n      bool exists; //always true\n    }\n\n  //constructor for NFT token, name = Luxarity, symbol = LUX\n  constructor() ERC721Full('Luxarity Style Token', 'LUX') public {\n    //tokenid index\n    tokenIndex = 0;\n    //total capital raised uint256 USD\n    totalRaised = 0;\n    //total donated by luxarity (USD)\n    totalDonated = 0;\n    //total items sold\n    totalItemsSold = 0;\n    //total number of chosen donations\n    totalChosenDonations = 0;\n    //total number of made donations\n    totalMadeDonations = 0;\n  }\n\n  //events\n    //event when NFT is minter after donation\n    event DonationMadeToLuxarity (bytes32 _donorHash, uint256 _totalRaised, bool _exists);\n    event MintedToken (uint256 _tokenId, address _tokenMinter, string _tokenMetaData);\n    //event when item is sold\n    event SoldToken (uint256 _tokenId, bytes32 _buyerId, uint256 _cost);\n    //event when donation is chosen (bytes32, amount, charityName, donation id)\n    event DonationChosen (string _charityName, bytes32 _buyerId, uint256 _amountToBeDonated);\n    //event when donation is made by luxarity\n    event DonationMadeToCharity (uint256 _amountDonated, string _charityName, bytes32 _proofHash, string _donationProof, bytes32 _donationMadeHash);\n    //event when token is redeemed\n    event RedeemedToken (uint256 _tokenId, bytes32 _buyerId, address _buyerAddress);\n\n  //modifiers\n    //check if buyer exists\n    modifier onlyBuyer(bytes32 _buyerId) { require(buyers[_buyerId].exists == true); _; }\n\n  //cuase functions\n\n    //mint function\n      //(1) calls internal mint function can only be called by owner\n        //the to address is just going to be the luxarity address\n      //(2) calls setTokenURI function to associated metadata with token\n        //need to determine the standard of JSON that luxarity NFTs follow for the URI\n      //(3) emits MintedToken event\n    function mintItem(string _tokenURI, string _brand, string _size, string _gender, string _style, bytes32 _donorHash) public onlyOwner returns (uint) {\n      //default donor if unknown is SHA256('UNKNOWN')\n      //check if donor already exists, if not add new donor\n      if (!donors[_donorHash].exists) {\n        donors[_donorHash] = Donor(0, true);\n        emit DonationMadeToLuxarity(_donorHash, 0, true);\n      }\n\n      //increment tokenIndex\n      tokenIndex += 1;\n\n      //check if token doesn't exist yet\n      require(_exists(tokenIndex) == true);\n\n      //creating token hash to check uniqueness\n      bytes32 tokenHash = keccak256(abi.encodePacked(_brand, _size, _style, _gender, _tokenURI, msg.sender, msg.sender, _donorHash));\n\n      //create token struct\n      luxTokens[tokenIndex] = LuxToken(tokenHash, _brand, _size, _style, _gender, _tokenURI, msg.sender, msg.sender, _donorHash);\n\n      //mint token\n      _mint(msg.sender, tokenIndex);\n\n      //set metadata\n      _setTokenURI(tokenIndex, _tokenURI);\n\n      //emit event\n      emit MintedToken(tokenIndex, msg.sender, _tokenURI);\n\n      //return\n      return tokenIndex;\n    }\n\n    //sold function\n      //(1) that sets luxarity's funding address as the approved owner of the token id\n      //as an escrow before the owner redeems it off-chain by using their secret off chain PIN\n      //uses approve function to do so\n      //(2) updates buyers and soldtokens mappings\n      //(3) emits SoldToken event\n    function soldItem(bytes32 _buyerID, uint256 _itemCost, bytes32 _redemptionHash, uint256 _tokenId) public onlyOwner returns (bool) {\n\n      //check if buyer already exists\n      if (!buyers[_buyerID].exists) {\n        //adding new buyer to buyers mapping\n        buyers[_buyerID] = Buyer(_itemCost, 0, true, address(0));\n      } else {\n        //update existing buyer\n        buyers[_buyerID].totalContributed += _itemCost;\n      }\n\n      //check if token has been sold by luxarity before?\n      //TBD - the point here is that we want index to be unique, which means selling a token\n      //for the first time from luxarity only once, but we also want a secondary market to exist.\n      //to, the soldTokens mapping only tracks what luxarity has sold, not sales between secondary\n      //market participants afterwards, if a token is sold twice (say we get a refund request),\n      //then it simply replaces its own index values from the last time it was sold and we deduct\n      //its previous cost from the totals\n      if (!soldTokens[_tokenId].sold) {\n        //incrementing total amount of items sold because this is a NEW sale\n        totalItemsSold += 1;\n\n        //create new struct\n        soldTokens[_tokenId] = SaleDetails(_buyerID, _redemptionHash, false, true, _itemCost);\n        //increment total donations\n        totalRaised += _itemCost;\n        //update donor mapping to track end result of donation via sale\n        donors[luxTokens[_tokenId].donorHash].fundsRaised += _itemCost;\n        //emit event that token was sold\n        emit SoldToken(_tokenId, _buyerID, soldTokens[_tokenId].cost);\n        //return\n        return true;\n\n      }\n      //a token can only be sold from luxarity if it is not already sold\n      return false;\n    }\n\n    //chooseDonation function\n      //used when owner of NFT chooses to donate to a chosen cause\n      //(1) updates chosenDonations mapping\n      //(2) emits DonationChosen event\n    function chooseDonation(bytes32 _buyerID, string _charityName, uint256 _chosenDonateAmount) public onlyBuyer(_buyerID) returns (bool) {\n      //if the amount to donate is less than or equal to the amount they have left to allocate\n      uint256 leftover = buyers[_buyerID].totalContributed - buyers[_buyerID].totalDonationsAllocated;\n      if (leftover <= _chosenDonateAmount) {\n        //increment total chosen donations\n        totalChosenDonations += 1;\n        //update chosenDonations mapping and then emit choseDonation event\n        chosenDonations[totalChosenDonations] = ChosenDonation(_charityName, _chosenDonateAmount, _buyerID);\n        //emit event on chosen donation\n        emit DonationChosen(_charityName, _buyerID, _chosenDonateAmount);\n        //return\n        return true;\n      }\n      return false;\n    }\n\n    //make donation function\n      //when luxarity claims to have procesed donation\n      //(1) updates madeDonations mapping\n      //(2) emits MadeToCharity event\n    function makeDonation(bytes32 _proofHash, string _proof, uint256 _madeDonationAmount, string _charityName) public onlyOwner returns (bool) {\n      //donation made proof hash\n      bytes32 donationMadeHash = keccak256(abi.encodePacked(_charityName, _madeDonationAmount, _proofHash, msg.sender, _proof));\n      //check if donation doesn't exist yet\n      require(madeDonations[donationMadeHash].donorAddress == address(0));\n      //increment total made donations\n      totalMadeDonations += 1;\n      //total donated sum amount increased\n      totalDonated += _madeDonationAmount;\n      //add to made donations mapping\n      madeDonations[donationMadeHash] = MadeDonation(_charityName, _madeDonationAmount, _proofHash, msg.sender, _proof);\n      //emit event\n      emit DonationMadeToCharity(_madeDonationAmount, _charityName, _proofHash, _proof, donationMadeHash);\n      //return\n      return true;\n    }\n\n    //redeem token\n      //when buyer wants to redeem their token out of escrow\n      //(1) checks for appropiate buyerHash and redemptionHash against SaleDetails associated with //(2) if true, then calls transferFrom and transfers token ownership from luxarity to buyer Address\n      //(3) updates SaleDetails address for token id indicating new owne\n      //(4) emits RedeemedToken event\n    function redeemItem(bytes32 _buyerID, bytes32 _redemptionHash, address _buyerAddress, uint256 _tokenId) public onlyBuyer(_buyerID) returns (bool) {\n      //make sure address is valid\n      require(_buyerAddress != address(0));\n      //make sure that sold item exists to be redeemed\n      require(soldTokens[_tokenId].buyerHash == _buyerID);\n      //make sure redemption secret is correct\n      require(soldTokens[_tokenId].redemptionHash == _redemptionHash);\n      //update token struct\n      luxTokens[_tokenId].owner = _buyerAddress;\n      //updates salesdetails struct\n      soldTokens[_tokenId].redeemed = true;\n      //conduct transfer from Luxarity to address\n      transferFrom(msg.sender, _buyerAddress, _tokenId);\n      //emit event\n      emit RedeemedToken(_tokenId, _buyerID, _buyerAddress);\n      return true;\n    }\n\n    //safe redeem token\n      //when buyer wants to redeem their token out of escrow\n      //(1) checks for appropiate buyerHash and redemptionHash against SaleDetails associated with //(2) if true, then calls safeTransferFrom and transfers token ownership from luxarity to buyer Address\n      //(3) updates SaleDetails address for token id indicating new owne\n      //(4) emits RedeemedToken event\n    function safeRedeemItem(bytes32 _buyerID, bytes32 _redemptionHash, address _buyerAddress, uint256 _tokenId) public onlyBuyer(_buyerID) returns (bool) {\n      //make sure address is valid\n      require(_buyerAddress != address(0));\n      //make sure that sold item exists to be redeemed\n      require(soldTokens[_tokenId].buyerHash == _buyerID);\n      require(soldTokens[_tokenId].redemptionHash == _redemptionHash);\n      //update token struct\n      luxTokens[_tokenId].owner = _buyerAddress;\n      //conduct transfer from Luxarity to address\n      safeTransferFrom(msg.sender, _buyerAddress, _tokenId);\n      //updates salesdetails struct\n      soldTokens[_tokenId].redeemed = true;\n      //emit event\n      emit RedeemedToken(_tokenId, _buyerID, _buyerAddress);\n      return true;\n    }\n\n  //call functions\n    //get how much a buyer has donated in total\n    function getBuyerAmount(bytes32 _buyerID) public view returns (uint256 total) {\n      if (buyers[_buyerID].exists) {\n        return buyers[_buyerID].totalContributed;\n      }\n      return 0;\n\t\t}\n    //get total amount donated\n    function getTotalRaised() public view returns (uint) {\n      return totalRaised;\n\t\t}\n    //get total specfically allocated\n    function getTotalAllocatedDonations() public view returns (uint) {\n      return totalChosenDonations;\n\t\t}\n    //get total made donations\n    function getTotalMadeDonations() public view returns (uint) {\n      return totalMadeDonations;\n\t\t}\n\n    //get boolean to see if NFT has been redeemed or not\n    function getRedemption(uint _tokenId) public view returns (bool) {\n      return soldTokens[_tokenId].redeemed;\n\t\t}\n    //get boolean to see if NFT has been sold or not\n    function getTokenSold(uint256 _tokenId) public view returns (bool) {\n      return soldTokens[_tokenId].sold;\n    }\n\n    //get token ownerOf\n    function getTokenOwner(uint _tokenId) public view returns (address) {\n      address owner = ownerOf(_tokenId);\n      return owner;\n    }\n\n    //get donor total amount raised through donation\n    function getDonationAmount(bytes32 _donorId) public view returns (uint) {\n      require(donors[_donorId].exists == true);\n      return donors[_donorId].fundsRaised;\n    }\n\n    //transfer ownership of contract\n    function transferContract(address newOwner) public onlyOwner {\n      transferOwnership(newOwner);\n    }\n\n    //fallback\n\t  function() payable public { }\n}\n",
  "sourcePath": "/Applications/MAMP/htdocs/LuxToken/contracts/LuxTokens.sol",
  "compiler": {
    "name": "solc",
    "version": "0.4.24+commit.e67f0147.Emscripten.clang"
  },
  "schemaVersion": "2.0.1",
  "updatedAt": "2018-10-04T20:40:06.875Z"
}